:100000000C9434030C9455030C9455030C94550331
:100010000C9455030C9455030C9455030C94550300
:100020000C9455030C9455030C9455030C945503F0
:100030000C9455030C9455030C9455030C94BD1764
:100040000C9455030C94511A0C9455030C945503BD
:100050000C9455030C9455030C9455030C945503C0
:100060000C9455030C949E1E0C9455030C9455034C
:100070000C9455030C9455030C9455030C945503A0
:100080000C94FB200C9455030C9455030C945503CD
:100090000C9455030C9455030C9455030C94550380
:1000A0000C9455030C9455030C9455030C94550370
:1000B0000C9455030C9455030C9455030C94550360
:1000C0000C9455030C9455030C9455030C94550350
:1000D0000C9455030C9455030C9455030C94550340
:1000E0000C9455038E078A079E079A0787072C07EB
:1000F0002C072C072C072C072C072C072C072C0768
:100100002C072C072C079107C007B707B307B007C8
:100110002C072C072C072C072C072C07AD072C07C6
:10012000AD072C072C072C072C072C072C072C07B6
:100130002C072C072C072C072C072C072C072C0727
:100140002C072C072C072C072C072C072C07AA0799
:100150002C072C072C072C072C072C072C072C0707
:100160002C072C072C072C072C072C072C072C07F7
:100170002C072C072C072C072C072C072C072C07E7
:100180002C072C07A6072C072C072C072C072C075D
:100190002C072C072C072C07A207D307D007CC0766
:1001A000C907E807E807E407DD07D6071B082C079F
:1001B0002C0714080F0808080108FA07F307EC07D2
:1001C0007B0874086D0866085F08580853084E08D5
:1001D000490842083D08360883072F082508E40728
:1001E00020082C072C072C072C072C072C072C0782
:1001F0002C072C072C072C072C072C072C072C0767
:100200002C072C072C072C072C072C072C072C0756
:100210002C072C072C072C072C07E407084AD73B90
:100220003BCE016E84BCBFFDC12F3D6C74319ABDC5
:1002300056833DDA3D00C77F11BED9E4BB4C3E91E9
:100240006BAAAABE000000803F595F484F4D450D84
:100250000A00585F484F4D450D0A00594C320D0AAF
:1002600000594C310D0A00584C320D0A00584C31DF
:100270000D0A000D0A006765745F62757379203D91
:1002800020000D0A00726F7461746564203D2000C7
:100290000D0A0076616375756D5F73746174652016
:1002A0003D20000D0A00686561645F6D6F76696EC0
:1002B00067203D20000D0A006865616420646F7747
:1002C0006E203D20000D0A00746F5F6D696C6C69D3
:1002D0006D65746572732831303029203D20000D22
:1002E0000A0050494E44206C696D697473203D20AA
:1002F000000D0A00504F52544420203D20000D0AAA
:1003000000444952454354494F4E5F504F52542088
:10031000203D20000D0A00444952454354494F4EA8
:100320005F44445220203D20006F6B0A000A0065A4
:1003300072726F723A20006572726F723A204E6F5D
:100340007420686F6D65640A006572726F723A207E
:10035000436F6D6D616E64204661696C65640A006F
:100360006572726F723A20466C6F6174696E6720B5
:10037000706F696E74206572726F720A00657272B6
:100380006F723A20556E737570706F727465642069
:1003900073746174656D656E740A006572726F7254
:1003A0003A20457870656374656420636F6D6D6194
:1003B0006E64206C65747465720A006572726F7287
:1003C0003A20426164206E756D62657220666F72BC
:1003D0006D61740A006F6B0D0053746F7265642059
:1003E0006E65772073657474696E670D0A00556ECB
:1003F0006B6E6F776E20706172616D657465720DE2
:100400000A002724783D76616C75652720746F207B
:1004100073657420706172616D65746572206F72AE
:10042000206A7573742027242720746F2064756DEB
:10043000702063757272656E742073657474696E72
:1004400067730D0A00202873746570706572733AC3
:100450002030203D2064697361626C65642C20311A
:10046000203D20656E61626C6564290D0A002431AF
:10047000303030203D200020286D617820696E7377
:1004800074616E7420636F726E6572696E6720733B
:1004900070656564206368616E676520696E2064BD
:1004A000656C7461206D6D2F6D696E290D0A0024D5
:1004B00039203D20002028616363656C657261749A
:1004C000696F6E20696E206D6D2F7365635E3229D2
:1004D0000D0A002438203D200020286D6D2F617208
:1004E00063207365676D656E74290D0A00243720DB
:1004F0003D200020286D6D2F6D696E20646566615A
:10050000756C74207365656B2072617465290D0AC2
:10051000002436203D200020286D6D2F6D696E204F
:1005200064656661756C74206665656420726174CB
:1005300065290D0A002435203D200020286D6963BF
:10054000726F7365636F6E6473207374657020706F
:10055000756C7365290D0A002434203D2000202885
:1005600073746570732F6465672E2063290D0A000C
:100570002433203D2000202873746570732F6D6D27
:10058000207A290D0A002432203D2000202873748F
:100590006570732F6D6D2079290D0A002431203D7F
:1005A0002000202873746570732F6D6D2078290DDD
:1005B0000A002430203D20000D0A00302E3736502E
:1005C00042002456455253494F4E203D2000686F4B
:1005D0006D65206661696C65640D0A00784C696D13
:1005E0006974310D0A00794C696D6974310D0A0026
:1005F0004865616420646F776E206572726F720A5D
:100600000D006E6F0A007965730A004572726F7291
:100610003A204F53434F4B495251206661696C65F4
:100620006420746F206173736572740A00494E46CA
:10063000494E4954594E414ECDCCCC3D0AD7233C6E
:1006400017B7D13877CC2B329595E6241FB14F0AD6
:10065000000020410000C84200401C4620BCBE4CA7
:10066000CA1B0E5AAEC59D7411241FBECFEFD1E236
:10067000DEBFCDBF00E00CBF12E0A0E0B2E0EAE5D3
:10068000F3E600E00BBF02C007900D92A630B10761
:10069000D9F716E0A6E0B2E001C01D92A83FB1076D
:1006A000E1F70E94CF0A0C94AB310C940000249A1D
:1006B0000895892B11F42C9808952C9A0895F9998E
:1006C000FECF92BD81BD81E08FBB80B50895F894C7
:1006D000F999FECF92BD81BD81E08FBB90B5962781
:1006E000892F862341F06F3F71F060BD84E08FBB9E
:1006F000F99A789408959923E1F360BD84E28FBB61
:10070000F99A7894089584E18FBBF99A78940895C2
:10071000AF92BF92CF92DF92FF920F931F93CF932E
:10072000DF936C018B015A014115510559F1FF24EA
:10073000C0E0D0E00DC021E0F8016081F22EF60E9D
:100740000E9467032196CA15DB0561F00F5F1F4FFA
:10075000CE018C0D9D1DFF2071F72F2D221F22270A
:10076000221FEACFCC0EDD1EC6016F2D0E9467034B
:10077000DF91CF911F910F91FF90DF90CF90BF90AD
:10078000AF900895FF24F0CFFC0141155105C9F148
:10079000A0E020E030E0B1E0C901860F971FF99991
:1007A000FECF92BD81BDBFBB90B5AA2359F081E0B9
:1007B000A82FA90F90832F5F3F4F2417350771F0A3
:1007C0003196EACF8A2F881F8827881FA82FA90F64
:1007D00090832F5F3F4F2417350791F7620F731FE8
:1007E000F999FECF72BD61BD81E08FBB80B520E07D
:1007F00030E0A81711F0C901089521E030E0C901E7
:100800000895A0E0EDCF80932F02609330024093D3
:1008100031020895609306027093070280930802E4
:1008200090930902089560930602709307028093E3
:1008300008029093090208952F923F924F925F927F
:100840006F927F928F929F92AF92BF92CF92DF92E0
:10085000EF92FF920F931F93DF93CF93CDB7DEB745
:1008600028970FB6F894DEBF0FBECDBF69837A8399
:100870008B839C832D833E834F83588717012801E8
:100880003501460120E030E040E85FEB0E94212C7A
:10089000882341F420901C0230901D0240901E02DB
:1008A00050901F026D817E818F81988520E030E01D
:1008B00040E85FEB0E94212C882341F460902002E5
:1008C000709021028090220290902302C201B10117
:1008D00020E030E040E85FEB0E94212C882341F4C7
:1008E000209024023090250240902602509027024A
:1008F000C401B30120E030E040E85FEB0E94212C0E
:10090000882341F4609028027090290280902A0286
:1009100090902B0200D000D0809118029091190283
:10092000A0911A02B0911B02EDB7FEB781839283AA
:10093000A383B4831682158269817A818B819C811D
:100940002D813E814F8158858201710164015301DF
:100950000E94741089819A81AB81BC8180931C02B2
:1009600090931D02A0931E02B0931F028D819E8161
:10097000AF81B8858093200290932102A093220238
:10098000B093230220922402309225024092260244
:1009900050922702609228027092290280922A02C5
:1009A00090922B02ADB7BEB716960FB6F894BEBFA5
:1009B0000FBEADBF28960FB6F894DEBF0FBECDBFF9
:1009C000CF91DF911F910F91FF90EF90DF90CF902B
:1009D000BF90AF909F908F907F906F905F904F905F
:1009E0003F902F900895AF92BF92CF92DF92EF92F7
:1009F000FF920F931F93DF93CF930F920F92CDB778
:100A0000DEB76C015B017A01FB0100811181080FE7
:100A1000191FC801BE016F5F7F4F0E941A30F70196
:100A2000608371838283938389819A818017910780
:100A3000A9F08C199D09F5019183808321E030E0B4
:100A4000C9010F900F90CF91DF911F910F91FF90EF
:100A5000EF90DF90CF90BF90AF90089581E08093AA
:100A60000A0220E030E0ECCF0F931F93CF93DF9387
:100A7000EC018B01D901ED91FC911197E40FF51F69
:100A8000E081EE2339F0E883E154EA3158F082E066
:100A900080930A0220E030E0C901DF91CF911F91DD
:100AA0000F9108958D919C91119701968D939C9330
:100AB000CA01B901A8010E94F304009711F081E076
:100AC00090E09C01C901DF91CF911F910F91089592
:100AD00088E2EAE0F2E0DF011D928A95E9F7609191
:100AE0009F067091A0068091A1069091A20620E039
:100AF00030E040E752E40E94252C6093140270938A
:100B0000150280931602909317026091A3067091CC
:100B1000A4068091A5069091A60620E030E040E76B
:100B200052E40E94252C609318027093190280935E
:100B30001A0290931B0210922F0291E090933002C0
:100B400082E08093310290930E0208952F923F929B
:100B50004F925F926F927F928F929F92AF92BF92CD
:100B6000CF92DF92EF92FF920F931F93DF93CF9379
:100B7000CDB7DEB7E7970FB6F894DEBF0FBECDBF97
:100B80005C011B821A8280E090E0A0E0B0E08887E0
:100B90009987AA87BB87ACE02A2E312C2C0E3D1EEC
:100BA00080E1D101E82F1D92EA95E9F7FCE1CF2E13
:100BB000D12CCC0EDD1ED6011D928A95E9F710923C
:100BC0000A02F5018081883209F486C08F3209F467
:100BD0006EC0843209F44AC019AA18AAE2E06E2E47
:100BE000712C6C0E7D1E74E0472E512C4C0E5D1E38
:100BF0004E010894811C911CC401B201A50193010E
:100C00000E943405892B09F47DC26C817D818E811F
:100C10009F810E941E2F7B018C010E948D2C2981B7
:100C2000273409F41DC1283408F047C0243409F4DE
:100C300055C080910A028823F9F2E7960FB6F8941E
:100C4000DEBF0FBECDBFCF91DF911F910F91FF90FF
:100C5000EF90DF90CF90BF90AF909F908F907F905C
:100C60006F905F904F903F902F90089581E090E0BB
:100C70009B838A83D50111968C91882359F18E012B
:100C80000E5F1F4FC501B801AE01485F5F4F0E9464
:100C9000F3048A819B81F501E80FF91F20810196F9
:100CA0009B838A832D3309F40EC183E0C6CF8A81EA
:100CB0009B8101969B838A838FCF2D3409F4C7C013
:100CC000243509F0B6CFC801B7010E94922C609379
:100CD0002C02AFCF0E949C1680E0AFCF8AB187E193
:100CE00093E00E94951D60B370E080E090E00E9468
:100CF000541E84E193E00E94951D81E093E00E94E0
:100D0000951D61B370E080E090E00E94541E8EEF6C
:100D100092E00E94951DEBB084EF92E00E94951D39
:100D2000FF2400E010E0C801B7010E94541E81EFCB
:100D300092E00E94951DE9B082EE92E00E94951D1E
:100D4000FF2400E010E0C801B7010E94541E8FED9F
:100D500092E00E94951D88EC92E00E94951D809182
:100D60000D02882309F091C064E670E080E090E015
:100D70000E94381E85EC92E00E94951D88EB92E05F
:100D80000E94951D0E943F2090E0A0E0B0E0BC01D1
:100D9000CD010E94381E85EB92E00E94951D86EAE7
:100DA00092E00E94951D0E94861990E0A0E0B0E0BC
:100DB000BC01CD010E94381E83EA92E00E94951D7D
:100DC00083E992E00E94951D0E94642190E0A0E0DA
:100DD000B0E0BC01CD010E94381E80E992E00E9483
:100DE000951D85E892E00E94951D0E94422090E0AA
:100DF000A0E0B0E0BC01CD010E94381E82E892E084
:100E00000E94951D86E792E00E94951D0E94B717EB
:100E1000AA2797FDA095BA2FBC01CD010E94381ECC
:100E200083E792E00E94951D4B9934C04A9946C0D1
:100E300048993FC0499938C0049931C0909B04C07B
:100E400089E492E00E94951D80910A02F6CEE62F79
:100E5000F72FED33F10588F083E080930A02F4CF99
:100E6000E62FF72FEF35F105B8F7EE58FF4FEE0FED
:100E7000FF1F0590F491E02D1994EF52FF4FEE0FF4
:100E8000FF1F0590F491E02D19946CEE79E080E05D
:100E900090E06ECF8DE692E00E94951DC7CF82E56F
:100EA00092E00E94951DCACF8BE592E00E94951DAD
:100EB000C3CF81E692E00E94951DBCCF87E692E009
:100EC0000E94951DB5CFC501B801AE014C5F5F4FC3
:100ED0000E94F304EA81FB81EA0DFB1D80818823D7
:100EE00009F0E3CE688579858A859B850E948D2CE3
:100EF000DC01CB014C815D816E817F810E94F915FF
:100F000080910A029ACE0E947B2380930A02E1E03C
:100F1000E8AB8FCEF1E0F0930B028BCE10920B0278
:100F200088CE10922F02A1E0A0933002B2E0B093DD
:100F300031027FCE93E090930B027BCE82E08093D0
:100F40000B0277CEF1E0F0930E0273CEE4E0E09373
:100F50000B026FCEB1E0B9AB6CCEB2E0B8AB69CEEC
:100F600010920D0266CEA1E0A0930D0262CE81E048
:100F700080932F0292E0909330021092310259CE6A
:100F800010922F02E2E0E0933002F1E0F0933102A0
:100F900050CE10920C024DCE91E090930C0249CEAF
:100FA00083E088AB46CE10920E0243CEEFEFFFEF08
:100FB000F0931102E09310023CCE81E090E0909318
:100FC00011028093100235CEB2E0B0930F0231CE01
:100FD000A1E0A0930F022DCE82E090E00E94E71FD7
:100FE000B1E0B8AB26CE81E090E00E94E71FA1E01F
:100FF000A8AB1FCE80E090E00E94E71F91E098AB85
:1010000018CE80E090E00E94482081E088AB11CEAD
:1010100081E090E00E944820F1E0F8AB0ACE109207
:1010200013021092120205CE81E090E09093130219
:1010300080931202FECD1092110210921002F9CD8F
:101040000E944515A1E0A8ABF4CD86E080930A028A
:101050000E94B6190E943C1D91E098ABEACD0E9417
:10106000F72280930A02F1E0F8ABE3CD0E94DE2381
:1010700080930A02B1E0B8ABDCCD0E946923A1E005
:10108000A8ABD7CD0E94A42180930A0291E098AB2F
:10109000D0CD0E94072081E088ABCBCD0E94692390
:1010A000F1E0F8ABC6CD0E94B123E1E0E8ABC1CDE1
:1010B00080E090E00E944521B1E0B8ABBACD81E07C
:1010C00090E00E944521A1E0A8ABB3CD86E090E07E
:1010D0000E94E71F91E098ABACCD85E090E00E94C4
:1010E000E71F81E088ABA5CD84E090E00E94E71F78
:1010F000F1E0F8AB9ECD83E090E00E94E71FE1E0D5
:10110000E8AB97CD80910A02882309F096CD1B8227
:101110001A8280E1F60111928A95E9F7D101ECE19A
:10112000F2E080E101900D928150E1F71CAA1DAA26
:10113000F0E8FEAB8FEB8FAB1BAA1AAAC401B20179
:10114000A50193010E943405892B09F4EDC0CC80E0
:10115000DD80EE80FF8080910D028823D9F4A70105
:10116000960109810D3419F10E3460F5083409F443
:101170007AC00934B8F5033409F48AC00634F1F6AC
:1011800080910C02882309F4A9C02CAB3DAB4EAB77
:101190005FABD4CFC701B60123E333E34BEC51E49B
:1011A0000E94562E9B01AC0109810D34E9F6209373
:1011B0000602309307024093080250930902A1E00F
:1011C000A8ABBCCF033509F445C00435E8F40E34B0
:1011D00009F453C0003509F0B1CFC886D986EA8634
:1011E000FB86ACCF0C3408F0A9CFE02FF0E0E95437
:1011F000F040EE0FFF1FEE0FFF1FE80DF91D238FCC
:10120000348F458F568F9ACF802F8855833008F0C2
:1012100095CF80910E02882309F04CC099A999239B
:1012200009F048C010E008551040000F111F000FD2
:10123000111F080D191DD8011B966D917D918D917F
:101240009C911E970E94822BF80163877487858783
:10125000968774CFC701B6010E948D2C70932E0221
:1012600060932D026BCFCA01B9010E94922C7BAB17
:101270006AAB89E080930B0261CF20930602309322
:101280000702409308025093090291E098AB56CFB1
:1012900080910E028823E9F4F9A9FF23D1F4688D27
:1012A000798D8A8D9B8D0E94822B688F798F8A8F92
:1012B0009B8F44CFE02FF0E0E855F040EE0FFF1F8A
:1012C000EE0FFF1FE80DF91D2387348745875687EA
:1012D00035CF288F398F4A8F5B8F30CF80910B02AB
:1012E000882389F4CA01B90120E030E040E752E4E4
:1012F0000E94252C609318027093190280931A02A1
:1013000090931B021BCFCA01B90120E030E040E7F7
:1013100052E40E94252C609314027093150280936E
:101320001602909317020ACF80910A02882309F0CF
:1013300084CC8091100290911102009709F45DC055
:1013400040912D0250912E02662757FD6095762F11
:101350000E9484178091120290911302892B09F444
:101360004FC081E090E00E945903B8A9B13009F460
:1013700063C0B13008F049C080910B02813009F49C
:101380007AC0813008F06FC000D000D06C857D85B8
:101390008E859F85288939894A895B89EC88FD88F3
:1013A0000E891F89A88CB98CCA8CDB8C60901802BE
:1013B0007090190280901A0290901B02ADB7BEB7D0
:1013C00011966D927D928D929C92149716961C9216
:1013D0001E9215970E947410EDB7FEB736960FB6A1
:1013E000F894FEBF0FBEEDBFACE1B2E0F10180E1C9
:1013F00001900D928150E1F727CD0E949417AACF5A
:1014000080E090E00E945903B0CFB23021F1B330B8
:1014100059F76C857D858E859F85288939894A890C
:101420005B89EC88FD880E891F89A88CB98CCA8CD1
:10143000DB8C0E94800CD8CF688579858A859B8556
:1014400020E030E04AE754E40E94562E0E94922C9D
:101450000E94030BC9CF0E94000B80E1F1011192A1
:101460008A95E9F7C1CF893009F0BECF8AA99BA937
:101470000E949A17B9CF8C859D85AE85BF858CA7B4
:101480009DA7AEA7BFA7688879888A889B88EC88C3
:10149000FD880E891F89A88CB98CCA8CDB8C609161
:1014A0000C02662361F4909114029CABA09115028A
:1014B000ADABB0911602BEABE0911702EFAB00D01E
:1014C00000D04DB65EB60894411C511C2CA93DA914
:1014D0004EA95FA9C901DA01EDB7FEB781839283F6
:1014E000A383B483D20114966C93149715961C921F
:1014F0006CA57DA58EA59FA5A40193010E947410E3
:10150000EDB7FEB736960FB6F894FEBF0FBEEDBF2F
:101510006BCFAF92BF92CF92DF92EF92FF920F9379
:101520001F9379018A015F770E94252C0E94E62B88
:101530005B016C01C801B70120E030E040E050E001
:101540000E94E82D18165CF4B501C6011F910F9199
:10155000FF90EF90DF90CF90BF90AF900895C601BD
:10156000B50120E030E040E050E00E94E82D181680
:101570005CF46BED7FE089E490E4A60195010E94A4
:10158000812B5B016C01E0CF6BED7FE089E490EC97
:10159000A60195010E94812B5B016C01D5CF0E94B1
:1015A0003E150E9470170E94200D0E94A8180E94EC
:1015B0008D190E947C170E9457030E94E71E0E940B
:1015C00030200E9438210E9484200E94680589E210
:1015D00093E00E94951D04C00E94A8140E9405215A
:1015E00083B7816083BF889583B78E7F83BF8091E7
:1015F0005405882389F30E943C1D10925405ECCFBA
:101600000E94C6190895AF92BF92CF92DF92EF92D7
:10161000FF920F931F937B018C010E94441AC80113
:10162000B7010E94BE2C5B016C0120E030E04AE76C
:1016300055E40E94562E7B018C0120E030E040E80A
:101640005FE30E94212C88237CF1C801B70120E0D0
:101650003FEF4FE757E40E94E82D1816ACF4C6019F
:10166000B50120E030E040E251E40E94562E0E9495
:10167000922CCB01672B79F020E931E0F901319709
:10168000F1F70197D9F707C0C801B7010E94922C62
:10169000CB010197F1F71F910F91FF90EF90DF9031
:1016A000CF90BF90AF90089561E070E0F1CFFC0162
:1016B0006091AF067091B0068091B1069091B2062C
:1016C00021A532A543A554A50E94252C08958091FB
:1016D000200590E0089520910C0530910D05809132
:1016E0000E0590910F052817390769F080910E05B6
:1016F00090910F0501966AE070E00E944B2F909345
:101700000F0580930E05089520910C0530910D056D
:1017100080910E0590910F0528173907D1F020917F
:101720000E0530910F05C901880F991F880F991F69
:10173000880F991FAC01440F551F440F551F440FCC
:10174000551F480F591F420F531F4E5C5D4FCA0172
:10175000089540E050E0CA0108954F925F926F9261
:101760007F928F929F92AF92BF92CF92DF92EF9231
:10177000FF920F931F93CF93DF93EC014B01611501
:10178000710599F0009789F0E9A8FAA80BA91CA99E
:10179000FB0141A852A863A874A8C801B701A3011E
:1017A00092010E94212C88238CF0DF91CF911F9110
:1017B0000F91FF90EF90DF90CF90BF90AF909F90F0
:1017C0008F907F906F905F904F900895F401A1A447
:1017D000B2A4C3A4D4A4C801B701A60195010E9474
:1017E000562E9B01AC010E94562E7B018C0120914C
:1017F000AB063091AC064091AD065091AE06505804
:10180000CA01B9010E94822B20E030E040E752E497
:101810000E94562E20E030E040E752EC0E94562E07
:101820002DA53EA54FA558A90E94562E9B01AC019F
:10183000C801B7010E94822B0E94DD2EA6019501EE
:101840000E94252C7B018C01C301B201A8019701E4
:101850000E94E82D18160CF0A8CFF401E1AAF2AA14
:1018600003AB14ABA2CFEF92FF920F931F93CF93D2
:10187000DF9380910E0590910F05482F082F1127B7
:1018800007FD109580910C0590910D05081719071B
:1018900091F1EE24FF2420E030E001C07E0189E4D4
:1018A0004802E0011124CE5CDD4FC901B701AE0151
:1018B0000E94AD0BC80101966AE070E00E944B2FB8
:1018C000482F082F112707FD109580910C05909146
:1018D0000D0597010817190709F7B701CB01BE01DC
:1018E00040E050E00E94AD0BDF91CF911F910F912E
:1018F000FF90EF900895C0E0D0E060E070E0EECFA0
:101900002F923F924F925F926F927F928F929F920F
:10191000AF92BF92CF92DF92EF92FF920F931F93FD
:101920003B014C0119012A010E94441AC401B30170
:1019300020918D0630918E0640918F065091900631
:101940000E94562E0E94F32DE0E18E2EE5E09E2EA1
:101950006093100570931105809312059093130501
:10196000C201B101209191063091920640919306F7
:10197000509194060E94562E0E94F32DF401349645
:1019800060931405718382839383C801B70120910A
:1019900095063091960640919706509198060E94C0
:1019A000562E0E94F32DF40138966093180571832A
:1019B00082839383C601B5012091990630919A06DE
:1019C00040919B0650919C060E94562E0E94F32D3A
:1019D0002CE030E0820E931E60931C05F4017183AD
:1019E000828393831F910F91FF90EF90DF90CF90B0
:1019F000BF90AF909F908F907F906F905F904F902F
:101A00003F902F900895CF93DF93EC0190E0809169
:101A10002005811191E080E0209709F081E098177E
:101A200031F00E94441A10922005CD2B19F4DF9159
:101A3000CF91089581E080932005DF91CF910895A3
:101A400010920D0510920C0510920F0510920E05C4
:101A500081E090E00E94030D80E1E0E1F5E0DF012C
:101A60001D928A95E9F708952F923F924F925F92C7
:101A70006F927F928F929F92AF92BF92CF92DF929E
:101A8000EF92FF920F931F93DF93CF9300D000D07C
:101A9000CDB7DEB78C017E836D83672B09F4A3C0BD
:101AA0004115510509F419C1DA01D1968D919D9125
:101AB0000D90BC91A02D89839A83AB83BC830115C3
:101AC000110509F403C1F801618D728D838D948D28
:101AD000AD81BE8159962D913D914D915C915C9760
:101AE0000E94812B9B01AC010E94562E1B012C01F0
:101AF000F801658D768D878D90A1AD81BE815D9653
:101B00002D913D914D915C9190970E94812B9B016D
:101B1000AC010E94562E3B014C01F80161A172A15B
:101B200083A194A1AD81BE8191962D913D914D915E
:101B30005C9194970E94812B9B01AC010E94562ED0
:101B40005B016C01F80165A176A187A190A5AD812B
:101B5000BE8195962D913D914D915C9198970E94F3
:101B6000812B9B01AC010E94562E7B018C01C2018E
:101B7000B101A40193010E94822BA60195010E944C
:101B8000822BA80197010E94822B0E94DD2E5B010F
:101B90006C01E090AF06F090B0060091B106109194
:101BA000B206C801B701A60195010E94212C87FD4C
:101BB00033C00F2EF0E06F2EF0E07F2EF0E88F2E76
:101BC000FFE39F2EF02DC401B30129813A814B819F
:101BD0005C810E94E82D181644F1ED81FE8161AA16
:101BE00072AA83AA94AA26960FB6F894DEBF0FBEF7
:101BF000CDBFCF91DF911F910F91FF90EF90DF90BC
:101C0000CF90BF90AF909F908F907F906F905F909C
:101C10004F903F902F900895C801B701A6019501FC
:101C20000E94252C3B014C01CECFED81FE81A1A469
:101C3000B2A4C3A4D4A4C601B50129813A814B81C1
:101C40005C810E94562E9B01AC010E94562E7B01A6
:101C50008C012091AB063091AC064091AD065091BD
:101C6000AE065058CA01B9010E94822B20E030E034
:101C700040E752E40E94562E20E030E040E752EC6C
:101C80000E94562EAD81BE819D962D913D914D9124
:101C90005C91D0970E94562E9B01AC01C801B70100
:101CA0000E94822B0E94DD2EA60195010E94252C08
:101CB0007B018C01C401B301A80197010E94E82DAA
:101CC00018160CF08ACF3701480187CF8D819E818D
:101CD0000E94570B3B014C0180CF8D819E810E9459
:101CE000570B69837A838B839C83E9CECF92DF92F3
:101CF000FF920F931F93CF93DF9380910C059091E8
:101D00000D05F82E20910E0530910F05992787FDBE
:101D1000909582179307B9F100E010E040E050E0A1
:101D200019C08F2D99E48902B0011124CF2CDD2434
:101D3000C7FCD094EB01CE5CDD4FCE01B8010E9410
:101D4000340D80910E0590910F05A8018C159D050D
:101D500061F08E01FA94F7FEE4CFA9E0FA2E61E972
:101D600072E0F9E0CF2ED12CE5CFA80180E090E021
:101D7000BE010E94340DDF91CF911F910F91FF9012
:101D8000DF90CF900895C0E0D0E040E050E0EECF8B
:101D90002F923F924F925F926F927F928F929F927B
:101DA000AF92BF92CF92DF92EF92FF920F931F9369
:101DB000DF93CF93CDB7DEB762970FB6F894DEBF4F
:101DC0000FBECDBF9A8B898B6A017B011801290157
:101DD000FC01658976898789908D0E94BE2C3B0124
:101DE0004C01A70196010E94562E0E940E2C0E94C3
:101DF000922C7B018C01E989FA8965AB76AB87ABC4
:101E000090AFC401B301A20191010E94562E0E941D
:101E10000E2C0E94922C1B012C01E989FA8961AFDA
:101E200072AF83AF94AFFD9660817181828193819F
:101E3000FD97FA8BE98B28E230E040E050E00E9409
:101E40002C2F0E94C02C20E030E040E752E40E949A
:101E5000562E0E948D2C5B016C01C801B7010E94B7
:101E6000BE2C7B018C01C601B5010E94C02C6D8384
:101E70007E838F839887C401B301A40193010E94DC
:101E8000562E3B014C01C801B701A80197010E94E1
:101E9000562E69877A878B879C876D817E818F819B
:101EA00098859B01AC010E94822B6D877E878F876E
:101EB000988BC401B30129853A854B855C850E94C6
:101EC000812B2D853E854F8558890E94252C0E94A7
:101ED0000E2C0E948D2C69837A838B839C83C20194
:101EE000B1010E94BE2C9B01AC010E94562E1B0129
:101EF0002C01A40193010E94812B7B018C01D094C1
:101F0000C094B094A094A11CB11CC11CD11CC601EA
:101F1000B5010E94C02C9B01AC010E94822B9B0149
:101F2000AC01C801B7010E94252C0E94FB2CE98955
:101F3000FA89A188B288C388D4888601750129816D
:101F40003A814B815C81E21AF30A040B150B0E9463
:101F50008D2CA8019701261B370B480B590BDA0172
:101F6000C90157FD30C049895A894F5B5F4FFA015B
:101F700029813A814B815C81219331934193519323
:101F8000FA8BE98B820F931FA41FB51F8083918367
:101F9000A283B38362960FB6F894DEBF0FBECDBFA7
:101FA000CF91DF911F910F91FF90EF90DF90CF9035
:101FB000BF90AF909F908F907F906F905F904F9069
:101FC0003F902F900895C601B5010E94C02C2D8529
:101FD0003E854F8558890E94562E29853A854B8526
:101FE0005C850E94812B9B01AC01C201B1010E9462
:101FF000822B7B018C016D817E818F81988520E011
:1020000030E040E850E40E94562E9B01AC01C8012C
:10201000B7010E94252C0E940E2C0E948D2C6983F2
:102020007A838B839C8380E090E0A0E0B0E09BCF3C
:10203000EF92FF920F931F93CF93DF9380910E0542
:1020400090910F05282FE82EFF24E7FCF094809153
:102050000C0590910D05E816F906E1F1E0E0F0E0DD
:1020600001C0FE0189E42802E0011124CE5CDD4FAD
:10207000309759F041A952A963A974A909A91AA9CD
:102080002BA93CA9CF010E94C80EC70101966AE0A6
:1020900070E00E944B2F282FE82EFF24E7FCF094DD
:1020A00080910C0590910D05E816F906D1F6CE0148
:1020B0000E94570B8B019C0149A95AA96BA97CA9C5
:1020C000CE010E94C80EDF91CF911F910F91FF901A
:1020D000EF900895C0E0D0E0EACF0E94760E0E9413
:1020E000330C0E94181008952F923F924F925F92E6
:1020F0006F927F928F929F92AF92BF92CF92DF9218
:10210000EF92FF920F931F93DF93CF93CDB7DEB77C
:10211000CC54D0400FB6F894DEBF0FBECDBF3B010C
:102120004C0123962CAF3DAF4EAF5FAF2397279660
:10213000ECAEFDAE0EAF1FAF2797809155058823FB
:10214000D1F4C45BDF4F0FB6F894DEBF0FBECDBF36
:10215000CF91DF911F910F91FF90EF90DF90CF9083
:10216000BF90AF909F908F907F906F905F904F90B7
:102170003F902F900895C401B30120918D063091B6
:102180008E0640918F06509190060E94562E0E9416
:10219000F32D7B018C0120919106309192064091A4
:1021A0009306509194062BAF3CAF4DAF5EAF40917C
:1021B00095065091960660919706709198064FABE0
:1021C00058AF69AF7AAF2090990630909A06409048
:1021D0009B0650909C0680910C0590910D050196F0
:1021E0006AE070E00E944B2F28968FAF28972996BF
:1021F0009FAF299720910E0530910F0529966EAD5E
:102200007FAD29972617370771F483B7816083BFA5
:10221000889583B78E7F83BF80910E0590910F05BF
:102220008217930791F320910C0530910D05C90198
:10223000880F991F880F991F880F991FDC01AA0F1B
:10224000BB1FAA0FBB1FAA0FBB1FA80FB91FA20F4E
:10225000B31FAE5CBD4FBEABADAB8091100590918E
:102260001105A0911205B091130537014801681AB4
:10227000790A8A0A9B0A97FC0AC3C201B101A60126
:1022800095010E94562E0E94F32D6D877E878F87C1
:10229000988B6FA978AD89AD9AAD27962CAD3DADE1
:1022A0004EAD5FAD27970E94562E0E94F32D698791
:1022B0007A878B879C876BAD7CAD8DAD9EAD239669
:1022C0002CAD3DAD4EAD5FAD23970E94562E0E94C2
:1022D000F32D6D837E838F839887E982FA820B8347
:1022E0001C83EDA9FEA96082718282829382AD80F7
:1022F000BE80CF80D8848091140590911505A0915F
:102300001605B0911705A6019501281B390B4A0B3C
:102310005B0BDA01C90157FDCBC2EDA9FEA984838D
:102320009583A683B78320901805309019054090B7
:102330001A0550901B0569847A848B849C84D4018F
:10234000C30182199309A409B509B7FDA9C2EDA972
:10235000FEA980879187A287B38720911C053091C1
:102360001D0540911E0550911F05298B3A8B4B8B03
:102370005C8B4D855E856F8578892D964CAF5DAF02
:102380006EAF7FAF2D977A018B0169897A898B892E
:102390009C89E61AF70A080B190B17FD6FC2ADA945
:1023A000BEA91C96ED92FD920D931C931F97189653
:1023B0002D913D914D915C911B97FD0184819581FB
:1023C000A681B78182179307A407B50748F1EDA945
:1023D000FEA9208131814281538182179307A4078E
:1023E000B507B0F08E159F05A007B10770F0EDA9F5
:1023F000FEA9818B928BA38BB48B0097A105B105AD
:1024000091F488E5809354059CCED801C701EFCFA5
:10241000DA01C9018E159F05A007B10740F7F5CF76
:10242000DA01C901D4CF29813A814B815C812D8F9A
:102430003E8F4F8F58A38091100590911105A09168
:102440001205B0911305281B390B4A0B5B0BCA010F
:10245000B9010E94C02C20918D0630918E064091CA
:102460008F06509190060E94252C69AB7AAB8BABFE
:102470009CABA9A2BAA2CBA2DCA280911405909138
:102480001505A0911605B0911705A6019501281B09
:10249000390B4A0B5B0BCA01B9010E94C02C209179
:1024A00091063091920640919306509194060E94B5
:1024B000252C6DA77EA78FA798AB698E7A8E8B8E01
:1024C0009C8EC401B30162197309840995090E94A5
:1024D000C02C209195063091960640919706509118
:1024E00098060E94252C69A77AA78BA79CA72D96F2
:1024F0004CAD5DAD6EAD7FAD2D974D8B5E8B6F8B13
:10250000788FCB01BA0129893A894B895C89621B92
:10251000730B840B950B0E94C02C2091990630916F
:102520009A0640919B0650919C060E94252C6DA313
:102530007EA38FA398A769A97AA98BA99CA90E94B9
:102540001B2F3B014C016DA57EA58FA598A90E946C
:102550001B2F7B018C0169A57AA58BA59CA50E94E8
:102560001B2F5B016C016DA17EA18FA198A50E941C
:102570001B2F1B012C01C401B301A80197010E946C
:10258000822BA60195010E94822BA20191010E943B
:10259000822B0E94DD2EADA9BEA99D966D937D93E1
:1025A0008D939C93D097A896EEADFFADA897EF2B97
:1025B00009F086C1A6962CAD3DAD4EAD5FADA69798
:1025C0000E94252C20E034E244E759E40E94562E74
:1025D0000E94F32DAC01CB01DA01BC01CD010E94B8
:1025E000BE2C9B01AC0160EC71EE84E69CE40E9481
:1025F000252C7B018C0169A97AA98BA99CA9A8012A
:1026000097010E94562EADA9BEA959966D937D9350
:102610008D939C935C976DA57EA58FA598A9A80125
:1026200097010E94562EEDA9FEA9658F768F878FA0
:1026300090A369A57AA58BA59CA5A80197010E94E6
:10264000562EADA9BEA991966D937D938D939C93C3
:1026500094976DA17EA18FA198A5A80197010E94D2
:10266000562EEDA9FEA965A376A387A390A765A51D
:1026700076A587A590A9A80197010E94562EADA91D
:10268000BEA999966D937D938D939C939C9751963B
:102690006D917D918D919C9154970E94C02C5B010E
:1026A0006C01A80197010E94562E0E940E2C0E94D8
:1026B000922C3B014C01EDA9FEA9658B768B878B93
:1026C000908F80E090E0A0E0B0E081AB92ABA3AB54
:1026D000B4AB6091AB067091AC068091AD06909161
:1026E000AE0620E030E040E752E40E94562E20E0A3
:1026F00030E040E252E40E94252C7B018C01ADA920
:10270000BEA99D966D917D918D919C91D097A601CA
:1027100095010E94252C9B01AC01C801B7010E94C4
:10272000252C0E940E2C0DA91EA9035C1F4F0E9490
:102730008D2CF8016083718382839383209120051F
:10274000222309F0CAC0ADA9BEA9D5966D927D928B
:102750008D929C92D897FD0161AE72AE83AE94AE1D
:10276000EF5BFF4F1082118212821382AD014B5B2F
:102770005F4FFD0181899289A389B489FA01808321
:102780009183A283B383D8011D921D921D921C9246
:102790001397EDA9FEA9108A80911005909111055B
:1027A000A0911205B09113054D8D5E8D6F8D78A1AE
:1027B000481759076A077B0714F482E0808B8091E1
:1027C000140590911505A0911605B091170549A122
:1027D0005AA16BA17CA1481759076A077B0744F4EB
:1027E000ADA9BEA950968C915097886050968C9355
:1027F0008091180590911905A0911A05B0911B05BB
:10280000498D5A8D6B8D7C8D481759076A077B0758
:1028100044F4ADA9BEA950968C915097806450960F
:102820008C934D895E896F89788D89899A89AB8966
:10283000BC89481759076A077B0744F4ADA9BEA9AC
:1028400050968C915097806850968C932996EEAD57
:10285000FFAD2997F0930D05E0930C05A0E1B5E0DD
:10286000FE01319680E101900D928150E1F7222323
:1028700011F00E946D100E94AB1763CC109500956B
:10288000F094E094E11CF11C011D111D88CD909481
:10289000809470946094611C711C811C911CEDCC1F
:1028A000B095A095909581959F4FAF4FBF4F4FCD5D
:1028B000B095A095909581959F4FAF4FBF4F2DCD6F
:1028C00060EC71EE84E69CE4A6962CAD3DAD4EAD79
:1028D0005FADA6970E94252C7BCE8DA99EA90E9454
:1028E000570B8B019C018DA99EA9B901A8010E94DB
:1028F000C80E29813A814B815C812D8F3E8F4F8F8D
:1029000058A34D815E816F81788549A35AA36BA33B
:102910007CA369857A858B859C85698F7A8F8B8F5F
:102920009C8F8D859E85AF85B8898D8B9E8BAF8B57
:10293000B88F20911C0530911D0540911E055091C6
:102940001F05298B3A8B4B8B5C8B2091200521CF67
:102950000F931F930E94551D982F8F3FE1F02091F8
:102960005305222321F09A30C9F09D30B9F09132FD
:102970008CF3892F81568A31B8F5E22FF0E0EF5DB4
:10298000FA4F905290832F5F209353050E94551D5C
:10299000982F8F3F21F71F910F910895E22FF0E0BC
:1029A000EF5DFA4F108281E295E00E94A605082FA4
:1029B00080915505882309F587E393E00E94951DD2
:1029C00080E090E00E94452180E090E00E94482055
:1029D00080E090E00E94FC1E1092550581E00E946C
:1029E000B11710925305B6CFE22FF0E0EF5DFA4F2A
:1029F00090832F5F20935305ADCF0330D1F1043086
:102A0000D8F0053089F1053000F1063051F3033676
:102A100099F210E08FE293E00E94951DB80188279B
:102A200077FD8095982F0E94381E8DE293E00E94DA
:102A3000951D012BB1F2C4CF013089F0023050F066
:102A40008BE993E00E94951DCCCF80E693E00E9435
:102A5000951DB6CF85ED93E00E94951DC2CF8BEBFF
:102A600093E00E94951DBDCF89E493E00E94951DDF
:102A7000A7CF8DE793E00E94951DB3CF60E076E984
:102A800080E090E00E94001D089580E090E0A0E2C8
:102A9000B2E480938D0690938E06A0938F06B09338
:102AA00090068093910690939206A0939306B0931C
:102AB00094068093950690939606A0939706B093FC
:102AC00098068093990690939A06A0939B06B093DC
:102AD0009C0686E080939E0680E090E0A6E9B5E43F
:102AE00080939F069093A006A093A106B093A206A0
:102AF00080E090E0A0EFB3E48093A3069093A40657
:102B0000A093A506B093A60680E090E0A0E4B2E40E
:102B10008093AB069093AC06A093AD06B093AE063F
:102B20008DEC9CECACECBDE38093A7069093A806DB
:102B3000A093A906B093AA0680E090E0A8E4B2E4CE
:102B40008093AF069093B006A093B106B093B206FF
:102B5000089580E090E00E945F03873631F0813075
:102B6000A9F020E030E0C90108958DE896E061E029
:102B700070E046E250E00E94C40320E0892B09F493
:102B800021E081E0282730E0C90108958DE896E032
:102B900061E070E04BE150E00E94C403892B09F32F
:102BA00080E090E0A0E4B2E48093AB069093AC06A2
:102BB000A093AD06B093AE0680E090E0A8E4B2E446
:102BC0008093AF069093B006A093B106B093B2067F
:102BD00021E030E0C8CF80E090E067E60E94670324
:102BE00081E090E06DE876E046E250E00E948803E4
:102BF0000895FC018630910509F46DC08730910578
:102C0000A4F08830910509F448C088309105B4F1EA
:102C10008930910509F47BC0E85EF34009F46AC08D
:102C20008EEE93E00E94951D08958430910509F47D
:102C300043C0853091059CF497FDF2CFEE0FFF1F46
:102C4000EE0FFF1FE357F94F408351836283738375
:102C50000E94EB1589ED93E00E94951D0895409325
:102C60009F065093A0066093A1067093A2060E944F
:102C7000EB1589ED93E00E94951D08954093A706FA
:102C80005093A8066093A9067093AA060E94EB15BC
:102C900089ED93E00E94951D08954093AB065093F3
:102CA000AC066093AD067093AE060E94EB1589EDFD
:102CB00093E00E94951D0895CB01BA010E94B92EA0
:102CC0000E94922C60939E060E94EB1589ED93E082
:102CD0000E94951D08954093A3065093A406609307
:102CE000A5067093A6060E94EB1589ED93E00E945D
:102CF000951D0895CB01BA0120E030E040E050E09E
:102D00000E94212C8823A9F00E94CC170895DB0192
:102D1000CA01BF778093AF069093B006A093B10627
:102D2000B093B2060E94EB1589ED93E00E94951DC9
:102D300008950E94CE17089582EC95E00E94951D9B
:102D40008BEB95E00E94951D88EB95E00E94951D08
:102D500082EB95E00E94951D60918D0670918E0624
:102D600080918F06909190060E945B1E82EA95E00A
:102D70000E94951D8CE995E00E94951D6091910639
:102D80007091920680919306909194060E945B1E2A
:102D90008CE895E00E94951D86E895E00E94951DBF
:102DA000609195067091960680919706909198068D
:102DB0000E945B1E86E795E00E94951D80E795E0E6
:102DC0000E94951D6091990670919A0680919B06CC
:102DD00090919C060E945B1E8EE595E00E94951DD9
:102DE00088E595E00E94951D60919E0670E080E068
:102DF00090E00E94381E8BE395E00E94951D85E3CC
:102E000095E00E94951D60919F067091A0068091AB
:102E1000A1069091A2060E945B1E87E195E00E94A8
:102E2000951D81E195E00E94951D6091A30670912A
:102E3000A4068091A5069091A6060E945B1E83EFD2
:102E400094E00E94951D8DEE94E00E94951D609186
:102E5000A7067091A8068091A9069091AA060E94E3
:102E60005B1E89ED94E00E94951D83ED94E00E9425
:102E7000951D6091AB067091AC068091AD06909166
:102E8000AE060E945B1E85EB94E00E94951D8FEAC2
:102E900094E00E94951D6091AF067091B0068091FC
:102EA000B1069091B2060E945B1E87E794E00E94F3
:102EB000951D8EE694E00E94951D0E94D017AA27CA
:102EC00097FDA095BA2FBC01CD010E94381E85E464
:102ED00094E00E94951D82E094E00E94951D089563
:102EE0000E94A915892B09F008950E9445150E949A
:102EF000EB150E949C160895E1E0F1E0808180646A
:102F00008083279A3E9A089597FD07C02F98809155
:102F1000020180648093020108952F9A809102013A
:102F20008064809302010895E2E0F1E080818F7B6C
:102F30008083089535E340E757E1469A232F2A9589
:102F4000F1F74698FA013197F1F701972FEF8F3F8C
:102F5000920799F70895EFE6F0E080818260808320
:102F6000089590E090936E0580936D0508952091EB
:102F70006D0530916E05C90108951F920F920FB62D
:102F80000F9211248F9381B3856381BB8F910F9032
:102F90000FBE0F901F90189544980895449A089575
:102FA0003C9904C020E030E0C901089588B18295C1
:102FB0008F7080958170282F30E0C90108956030AE
:102FC00020E0720721E0820720E0920708F45CC04D
:102FD000603020E0720728E0820720E0920778F155
:102FE000603020E0720720E4820720E0920708F4B6
:102FF00051C0603020E0720720E0820721E0920794
:1030000008F46DC0603020E0720720E0820724E001
:10301000920708F071C02AE0969587957795679595
:103020002A95D1F7FB019B0140E050E08AE0220F96
:10303000331F441F551F8A95D1F795E018C023E030
:1030400096958795779567952A95D1F7FB019B0112
:1030500040E050E0220F331F441F551F220F331F43
:10306000441F551F220F331F441F551F92E08091AC
:103070008100887F982B90938100F0938900E093E2
:103080008800B901CA010895FB019B0140E050E0AE
:1030900091E0EDCFB6E09695879577956795BA95CF
:1030A000D1F7FB019B0140E050E0220F331F441F8A
:1030B000551F220F331F441F551F220F331F441F5C
:1030C000551F220F331F441F551F220F331F441F4C
:1030D000551F220F331F441F551F93E0C8CFBB2736
:1030E000A92F982F872FFC01A0E0B0E02227382FCE
:1030F000492F5A2F94E0BBCFEFEFFFEF20E03CEFDA
:1031000040E050E095E0B3CF9B01AC01203B84E070
:10311000380780E0480780E0580778F460E075E3FE
:103120008CE090E00E94DF1760936F05709370054C
:103130008093710590937205089560E070E788E3CD
:1031400099E30E945E2FC901DA01BC01CD01EACFEB
:1031500080B3856380BB80B38A6C80BB81B3856399
:1031600081BB3C9A449AE1E8F0E080818F7E8083C5
:10317000808188608083E0E8F0E080818D7F8083BB
:1031800080818E7F808380818F73808380818F7C1C
:1031900080831092B00082E08093B100E0E7F0E01D
:1031A00080818160808360E777E180E090E00E9429
:1031B0008418EFE6F0E080818D7F808310927305A4
:1031C0001092740510927505109276057894089502
:1031D0009C0181B3857381BB21153105E1F04B99C9
:1031E0001CC02150304095E340E654E004C021501B
:1031F00030404B9912C081B38A7C816081BB892F9A
:103200008A95F1F781B38A7C81BBFA013197F1F796
:103210002115310561F781E0089580E008959C0152
:1032200081B38573826081BB21153105E1F04A9934
:103230001CC02150304095E340E654E004C02150CA
:1032400030404A9912C081B38A7C816081BB892F4A
:103250008A95F1F781B38A7C81BBFA013197F1F746
:103260002115310561F781E0089580E008959C0102
:1032700081B3857381BB21153105E1F048991CC0EC
:103280002150304095E340E654E004C021503040E6
:10329000489912C081B38A7C846081BB892F8A954A
:1032A000F1F781B38A7C81BBFA013197F1F72115DF
:1032B000310561F781E0089580E008959C0181B3B4
:1032C0008573886081BB21153105E1F049991CC0E7
:1032D0002150304095E340E654E004C02150304096
:1032E000499912C081B38A7C846081BB892F8A95F9
:1032F000F1F781B38A7C81BBFA013197F1F721158F
:10330000310561F781E0089580E0089580916F00B4
:1033100090E0969587958170089511B882E084B900
:1033200017B81AB81DB89FE890BB13BA10920101E4
:10333000109204013FEC3093070120EF20930A0123
:103340008CE982B982E285B983E188B99BB980E3CF
:103350008EB991BB83E284BB83E0809302018093AA
:1033600005013093080120930B0108954B9B0CC07D
:1033700082E84A99846048998860499980610499F3
:10338000806290998064089580E8F3CF109255058B
:103390000E94200D0E9468050E943F20882349F06A
:1033A00080E090E00E9448200E943F20882309F09E
:1033B00062C0F89480E090E00E94FC1E4B992CC003
:1033C000489942C0049915C081E090E00E94E81835
:1033D0008823C1F7789489B190E08F709070892B21
:1033E00039F481E08093550510926E0510926D05B9
:1033F000089520ED37E040E951E0CA010197F1F767
:1034000021503040D1F79099E5CF81E090E00E94C3
:1034100037198823C1F7DECF109255058CED95E062
:103420000E94951D88EE93E00E940F19882341F1B8
:1034300020ED37E040E951E0CA010197F1F7215052
:103440003040D1F7489BBECF1092550586EE95E0EF
:103450000E94951D88EE93E00E945E19882391F0EA
:1034600020ED37E040E951E0CA010197F1F7215022
:103470003040D1F7A7CF8EEC95E00E94951D0895BE
:10348000789408957894089507C083B7816083BFC6
:10349000889583B78E7F83BF0E94840B892BA9F701
:1034A00008951F920F920FB60F920BB60F92112430
:1034B000EF92FF920F931F932F933F934F935F933E
:1034C0006F937F938F939F93AF93BF93CF93DF932C
:1034D000EF93FF9380915505882309F588E4809345
:1034E000540580916F008D7F80936F00FF91EF9165
:1034F000DF91CF91BF91AF919F918F917F916F910C
:103500005F914F913F912F911F910F91FF90EF90FD
:103510000F900BBE0F900FBE0F901F9018950E943A
:103520003F20882319F780916D0590916E05892BB6
:10353000E9F689B190E08F709070892B09F091C104
:1035400091B38091B3068A7C9573892B81BB81B33B
:103550008A7C90915805892B81BB80919E06880FAB
:10356000845081958093B200B89A81E090E0909366
:103570006E0580936D057894E0915605F09157059E
:10358000309709F4D6C180898093B306109258050C
:103590002091590530915A0540915B0550915C0589
:1035A00080819181A281B381280F391F4A1F5B1F3F
:1035B0002093590530935A0540935B0550935C0561
:1035C00012161306140615060CF046C181E080930E
:1035D0005805E188F288038914892E193F09400BA8
:1035E000510B2093590530935A0540935B05509336
:1035F0005C0520915D0530915E0540915F0550911D
:10360000600584819581A681B781280F391F4A1FE3
:103610005B1F20935D0530935E0540935F055093DB
:10362000600512161306140615068CF480915805D1
:103630008460809358052E193F09400B510B20934D
:103640005D0530935E0540935F05509360052091C2
:103650006105309162054091630550916405808554
:103660009185A285B385280F391F4A1F5B1F2093C0
:10367000610530936205409363055093640512160B
:103680001306140615068CF480915805806180930A
:1036900058052E193F09400B510B209361053093BB
:1036A0006205409363055093640520916505309150
:1036B0006605409167055091680584859585A685C6
:1036C000B785280F391F4A1F5B1F2093650530936C
:1036D0006605409367055093680512161306140695
:1036E00015068CF4809158058062809358052E1938
:1036F0003F09400B510B20936505309366054093BD
:103700006705509368058091690590916A05A091BD
:103710006B05B0916C050196A11DB11D80936905E3
:1037200090936A05A0936B05B0936C058E159F0569
:10373000A007B10708F0A0C08091580595E389273C
:10374000809358058091B3069AEC89278093B3063D
:1037500020916F053091700540917105509172056F
:103760008091730590917405A0917505B0917605CF
:10377000280F391F4A1F5B1F209373053093740570
:10378000409375055093760521380AE1300706E02D
:10379000400700E0500708F45AC020583A4146401C
:1037A00050402093730530937405409375055093F2
:1037B0007605E0915605F0915705309709F447C01A
:1037C0002091690530916A0540916B0550916C0517
:1037D000EF5BFF4F80819181A281B381E154F04082
:1037E000281739074A075B0708F04DC0FD9680810E
:1037F0009181A281B381FD97209177053091780561
:103800004091790550917A05280F391F4A1F5B1F97
:1038100020937705309378054093790550937A0586
:1038200085899689A789B08D82179307A407B50764
:1038300050F48093770590937805A0937905B09321
:103840007A059C01AD01CA01B9010E948418109249
:103850006E0510926D054ACEE188F28803891489BD
:10386000C8CE109255058CE48093540580916F006A
:103870008D7F80936F003ACE1092570510925605B7
:103880000E946B0B59CFEB5BFF4F80819181A2812E
:10389000B381E554F04082179307A407B50770F58C
:1038A000FD966081718182819381FD9720917705DA
:1038B000309178054091790550917A056217730728
:1038C0008407950780F479018A01E61AF70A080B44
:1038D000190BE0927705F092780500937905109323
:1038E0007A05A801970181AD92ADA3ADB4AD2817BB
:1038F00039074A075B0708F0A6CF9BCF2589368991
:103900004789508D8091770590917805A091790530
:10391000B0917A05281739074A075B0709F497CF52
:1039200020937705309378054093790550937A0575
:103930008ACF0E94840BEC01909357058093560523
:10394000009709F452C06DA97EA98FA998AD609324
:103950007705709378058093790590937A05109296
:1039600073051092740510927505109276050E94E9
:10397000841889899A89AB89BC89B595A79597954B
:103980008795B095A095909581959F4FAF4FBF4F6C
:103990008093590590935A05A0935B05B0935C05FD
:1039A00080935D0590935E05A0935F05B0936005DD
:1039B0008093610590936205A0936305B0936405BD
:1039C0008093650590936605A0936705B09368059D
:1039D0001092690510926A0510926B0510926C05A1
:1039E000E0915605F0915705CECD80916F008D7F07
:1039F00080936F0088E580935405109258059CCE03
:103A0000EF92FF920F931F937B018C0122E030E035
:103A100040E050E00E94802F205C3D4B404F5F4FC4
:103A2000CA01B901A80197010E945E2FC901DA01FC
:103A30000197A109B109292F3A2F4B2F552701963C
:103A4000A11DB11D2093C50081508093C400E0ECFE
:103A5000F0E080818D7F8083E1ECF0E08081806107
:103A600080838081886080838081806880831F91CB
:103A70000F91FF90EF900895982F8091C00085FFDF
:103A8000FCCF9093C600089580917B0590917C05B2
:103A900080509F4F20917D0530917E05821B930BB6
:103AA00060E071E00E944B2F089540917D05509198
:103AB0007E0580917B0590917C058417950789F0A0
:103AC000FA01E158FA4F2081CA01019660E071E0E5
:103AD0000E944B2F90937E0580937D0530E0C901B5
:103AE00008952FEF3FEFC901089580917D059091D2
:103AF0007E0590937C0580937B050895982F809197
:103B0000C00085FFFCCF9093C6000895FC01908112
:103B1000992351F031968091C00085FFFCCF90939E
:103B2000C60090819923B1F70895FC0194919923DF
:103B300051F031968091C00085FFFCCF9093C60074
:103B400094919923B1F708952F923F924F925F92EB
:103B50006F927F928F929F92AF92BF92CF92DF929D
:103B6000EF92FF920F931F93DF93CF93CDB7DEB702
:103B7000A0970FB6F894DEBF0FBECDBF6B017C01DE
:103B800029013A01611571058105910509F450C0BB
:103B90008824992454011E010894211C311C8101A0
:103BA000080D191DC701B601A30192010E945E2FE5
:103BB000F80160830894811C911CA11CB11CC701F1
:103BC000B601A30192010E945E2FC901DA016C01C6
:103BD0007D01C114D104E104F10409F781149104B9
:103BE000A104B10461F19101280D391DD501C40171
:103BF0000197A109B109AC0148195909FA01E20F6D
:103C0000F31FE081EA3090F4E05D8091C00085FF11
:103C1000FCCFE093C600215030402216330679F0E5
:103C2000FA01E20FF31FE081EA3070F3E95CEDCFB7
:103C30008091C00085FFFCCF80E38093C600A096F2
:103C40000FB6F894DEBF0FBECDBFCF91DF911F91AD
:103C50000F91FF90EF90DF90CF90BF90AF909F902B
:103C60008F907F906F905F904F903F902F9008952E
:103C70009B01AC0197FD09C0CA01B9012AE030E0FF
:103C800040E050E00E94A41D08958091C00085FF8F
:103C9000FCCF8DE28093C6005095409530952195DC
:103CA0003F4F4F4F5F4FE8CF22E030E040E050E021
:103CB0000E94A41D0895EF92FF920F931F93DF932C
:103CC000CF9300D00F92CDB7DEB7AE014F5F5F4FFD
:103CD0000E94232E7B018C0169817A818B819C81DA
:103CE0000E948D2C0E94381E8091C00085FFFCCF61
:103CF0008EE28093C600C801B70120E030E04AE7B9
:103D000054E40E94562E0E94B92E0E948D2C97FDDD
:103D10000DC00E94381E0F900F900F900F90CF9102
:103D2000DF911F910F91FF90EF90089590958095EE
:103D3000709561957F4F8F4F9F4FEBCF1F920F92E2
:103D40000FB60F920BB60F9211242F933F934F9300
:103D50005F936F937F938F939F93AF93BF93EF93F3
:103D6000FF934091C600E0917B05F0917C05CF0167
:103D7000019660E071E00E944B2F9C0180917D05CF
:103D800090917E052817390739F0E158FA4F4083A2
:103D900030937C0520937B054F3F99F0FF91EF9185
:103DA000BF91AF919F918F917F916F915F914F9153
:103DB0003F912F910F900BBE0F900FBE0F901F9051
:103DC0001895F8940E94CE1710925505E7CF879A60
:103DD000E7E0F1E080818160808380818260808380
:103DE000808184608083808188608083808180641A
:103DF0008083089580E00895CF93DF93EC01809154
:103E00005505882319F4DF91CF91089581E00E9430
:103E1000B117209729F180910801816080930801F2
:103E2000C330D10509F446C0C430D1058CF5C1308A
:103E3000D10509F46DC0229709F466C0809108018C
:103E40008E7F8093080128EE33E040E951E0CA01FB
:103E50000197F1F721503040D1F7DF91CF910895CC
:103E6000809108018160809308018091080182603F
:103E700080930801809108018460809308018091FB
:103E8000080188608093080180E00E94B117BBCFD1
:103E9000C530D10509F445C0C530D10504F12697D8
:103EA00069F6809108018260809308018091080181
:103EB0008B7F1DC0809108018D7F809308018091C8
:103EC000080184608093080180910801877F8093B6
:103ED0000801809108018E7F80930801AFCF809107
:103EE00008018D7F80930801809108018460809390
:103EF0000801809108018860809308018091080181
:103F00008E7F809308019ACF809108018D7FCCCF5E
:103F1000809108018D7F80930801809108018B7F3B
:103F2000D1CF8091080182608093080180910801BF
:103F30008B7F8093080180910801877F809308011F
:103F40007DCF1F93182F80915505882319F483E6A0
:103F50001F91089581E090E00E944820882319F481
:103F600085E01F910895812F90E00E94FC1E80E063
:103F700090E00E94FC1E80E090E00E94482080E0DB
:103F80001F9108951F93182F80915505882319F4C8
:103F900083E61F91089581E090E00E9448208823E5
:103FA00019F485E01F910895812F90E00E94E71F8A
:103FB00080E090E00E94482080E991E00197F1F7CD
:103FC00080E090E00E94E71F80E01F910895CF936A
:103FD000DF93EC0180915505882371F0CF3FD10527
:103FE00039F00E946A21882359F08C2F0E94A11F6A
:103FF00080E0DF91CF91089583E6DF91CF9108951E
:104000008C2F0E94C21F80E0DF91CF910895809194
:104010005505882311F483E608950E943F208823E4
:10402000A1F40E94A42181E090E00E94482081E058
:1040300090E00E9445210E946421813059F080E087
:1040400090E00E94482080E0089580E090E00E9487
:104050004820E7CF80E090E00E94482081E008956A
:10406000EAE0F1E0808180628083EBE0F1E0808132
:10407000806280833898409A3998419A089586B131
:104080008170089586B190E0969587958170089526
:10409000CF93DF93EC0180915505882319F10E949D
:1040A00086198823E1F781E00E94B1172097E9F093
:1040B00080910B018F7D80930B0120ED37E040E96B
:1040C00051E0CA010197F1F721503040D1F786B194
:1040D000817090E08C179D0781F080EF95E00E9441
:1040E000951D80E0DF91CF91089580910B01806252
:1040F00080930B0120ED37E0E2CF80E00E94B11702
:1041000081E0DF91CF91089525982D9A3C98449AAB
:104110006998719A9D98A59AA4E0B1E08C918E7FE0
:104120008C93E5E0F1E08081816080838C918F7ECB
:104130008C93808180618083A1E0B1E08C918E7F3F
:104140008C93E2E0F1E08081816080838C918D7FAF
:104150008C93808182608083E0E9F0E080818260DE
:1041600080838CE790E09093990080939800109260
:1041700095001092940084E080939100E1E7F0E0D4
:1041800080818260808308958CB182958695877046
:1041900080958170089582B3829586958770809509
:1041A000817008958CB182958F708095817008958B
:1041B00080910301869580958170089586B18295DE
:1041C0008F70809581700895809100018095817035
:1041D00008958091030180958170089583B182953F
:1041E00086958770809581700895809100018695ED
:1041F0008095817008951F920F920FB60F9211242F
:104200000F900FBE0F901F9018951D9B20C080919E
:10421000000180FF0BC0809180068130D9F0349B73
:104220000EC080917F068130E1F0089581E0809397
:10423000800681E090E00E9445213499F2CF81E030
:1042400080937F0681E090E00E94482008950E94BC
:10425000000BDDCF1092800680E090E00E944521A7
:10426000DECF10927F0680E090E00E944820089503
:1042700057985F9AEAE0F1E0808180618083EBE00B
:10428000F1E080818061808308959C0180915505D3
:10429000882389F0232B81F080910B018F7E8093FE
:1042A0000B0128E833E140E951E0CA010197F1F739
:1042B00021503040D1F7089580910B0180618093A7
:1042C0000B0128E833E1EFCF89B18095881F88275B
:1042D000881F0895AF92BF92CF92DF92EF92FF9224
:1042E0000F931F9380915505882351F483E61F9106
:1042F0000F91FF90EF90DF90CF90BF90AF90089517
:1043000081E090E00E94452163EC73ED81E491E44B
:104310002AE13BE84DE950E40F2EF0E0EF2EF0E00B
:10432000FF2EF0E80F2FFFEB1F2FF02D5701680134
:104330000E941C040E9486198823E1F780E991E01D
:104340000197F1F780E0D3CF8F929F92AF92BF9207
:10435000CF92DF92EF92FF920F931F9380915505BA
:10436000882361F483E61F910F91FF90EF90DF9017
:10437000CF90BF90AF909F908F9008950E943F2064
:10438000882309F020C163EC73ED81E491E42AE114
:104390003BE84DE950E40F2EF0E0EF2EF0E0FF2E69
:1043A000F0E80F2FFFEB1F2FF02D570168010E943F
:1043B0001C040E9486198823E1F780E991E00197A7
:1043C000F1F781E090E00E94452128E833E140E9DF
:1043D00051E0CA010197F1F721503040D1F781E057
:1043E00090E00E944820882309F4E7C020E137E2EA
:1043F00040E951E0CA010197F1F721503040D1F76F
:1044000099B080E090E00E94452180E090E00E9419
:104410004820882309F4C8C00E943F208823E1F780
:104420006DE37BE98DE491E42CED38E644E950E45A
:104430000F2EF0E0EF2EF0E0FF2EF0E80F2FFFEB55
:104440001F2FF02D570168010E941C040E9486193D
:104450008823E1F780E991E00197F1F720EA3FE056
:1044600040E951E0CA010197F1F721503040D1F7FE
:1044700081E090E00E944820882309F495C00E94C2
:104480003F208823E1F320E137E240E951E0CA010F
:104490000197F1F721503040D1F781E090E00E9480
:1044A000FC1E20E43FE140E951E0CA010197F1F729
:1044B00021503040D1F7882497FC6BC08824839426
:1044C00028E833E140E951E0CA010197F1F72150B2
:1044D0003040D1F780E090E00E944820882309F422
:1044E00063C00E943F208130E1F328E93AE340E9CC
:1044F00051E0CA010197F1F721503040D1F763EC48
:1045000073ED81E491E42AE13BE84DE950E40F2E9C
:10451000F0E0EF2EF0E0FF2EF0E80F2FFFEB1F2F63
:10452000F02D570168010E941C040E9486198823FF
:10453000E1F780E991E00197F1F781E090E00E94D6
:10454000452128E833E140E951E0CA010197F1F73C
:1045500021503040D1F781E090E00E94482088232C
:1045600061F120E137E240E951E0CA010197F1F73A
:1045700021503040D1F74F9919C0882049F180E08F
:1045800090E00E94482080E090E00E94452185E074
:10459000EACE80E090E00E94FC1E80E090E00E9465
:1045A0004820882309F09DCF85E0DDCE81E0881684
:1045B00079F080E090E00E94482080E090E00E9446
:1045C000452185E0D0CE80E090E00E944820DBCEFF
:1045D00080E090E00E94452180E090E00E94482029
:1045E000882311F30E943F208823E1F7BCCE8F92ED
:1045F0009F92AF92BF92CF92DF92EF92FF920F9372
:104600001F93CF93DF9380915505882371F483E640
:10461000DF91CF911F910F91FF90EF90DF90CF909E
:10462000BF90AF909F908F9008950E943F20882365
:1046300009F04AC088249924C0E9D1E00E940A30D8
:104640008C010E940A306C01C8016CE070E00E948D
:104650004B2FAA2797FDA095BA2FBC01CD010E9430
:10466000C02C7B018C01C6016EE070E00E944B2FD4
:10467000AA2797FDA095BA2FBC01CD010E94C02C9E
:104680009B01AC01C801B7010F2EF0E0EF2EF0E066
:10469000FF2EF0E80F2FFFEB1F2FF02D57016801C1
:1046A0000E941C0428E833E1CE010197F1F7215064
:1046B0003040D1F70894811C911C88EC8816910435
:1046C00009F0BCCF80E0A4CF80E090E00E944820B9
:1046D000B1CF4F9905C086E096E00E94951D0895E0
:1046E00082E096E00E94951D0895E7E0F1E0808168
:1046F0008068808308950E943F20882381F50E946E
:1047000086198823E1F728EE33E040E951E0CA0139
:104710000197F1F721503040D1F781E090E00E94FD
:10472000482024EC39E040E951E0CA010197F1F753
:1047300021503040D1F780E090E00E94452180E098
:1047400090E00E94482028E833E140E951E0CA01A6
:104750000197F1F721503040D1F780E0089585E0CE
:10476000089580915505882341F10E948619882378
:10477000E1F781E00E94B117809108018F77809363
:10478000080120ED37E040E951E0CA010197F1F757
:1047900021503040D1F78091080180688093080152
:1047A00020ED37E040E951E0CA010197F1F72150CF
:1047B0003040D1F780E00E94B11708950E94861919
:1047C0008823E1F70E943F20882311F085E00895B7
:1047D0000E94B12381E090E00E94452181E090E0B9
:1047E0000E94482028E833E140E951E0CA010197DE
:1047F000F1F721503040D1F780E090E00E9448204E
:1048000028E833E140E951E0CA010197F1F721506E
:104810003040D1F780E008952091880630918906D4
:1048200040918A0650918B062F5F3F4F4F4F5F4F4D
:10483000209388063093890640938A0650938B060E
:10484000B901CA0108950895FC01608380E484835E
:1048500080E1858308959093870680938606089566
:10486000E0918606F09187061995089580910002DF
:104870000895809300020895982F843040F486E1D3
:10488000989F900111242C54394FC901089520E0BC
:1048900030E0C90108952F923F924F925F926F923C
:1048A0007F928F929F92AF92BF92CF92DF92EF92C0
:1048B000FF920F931F93CF93DF93FC017B01EA01DB
:1048C000022F932E80EE60810E94842A80918806B8
:1048D00090918906A0918A06B0918B060196A11D40
:1048E000B11D8093880690938906A0938A06B093A1
:1048F0008B0628E8A22E23E1B22EC12CD12CA80EC3
:10490000B91ECA1EDB1EF70112811123B1F4CEEFCE
:10491000D0E0CE01DF91CF911F910F91FF90EF90EA
:10492000DF90CF90BF90AF909F908F907F906F90CF
:104930005F904F903F902F90089588EEF70164812B
:104940000E94842A209709F4A1C0212E3324802FAD
:10495000992D9C0149012E0182012414350408F48B
:1049600093C0602E80E1602FA4010E944C2A88E34E
:10497000602F0E94842AF7016081606280EF0E94AC
:10498000842A88EC0E942F2A87FFFBCF88EC60E8FE
:104990000E94842A88EF0E942F2A282F2F7009F462
:1049A00065C08091880690918906A0918A06B09191
:1049B0008B060196A11DB11D8093880690938906F0
:1049C000A0938A06B0938B068A159B05AC05BD059E
:1049D00008F04CC07724C0E0D0E0243031F02E3015
:1049E00009F44AC0C22FD0E094CF2196FDE7C03031
:1049F000DF0709F456C088E360E00E94842A80E162
:104A0000F40160810E94842A88E3662D0E94842A32
:104A1000F7016081606280EF0E94842A88EC0E9426
:104A20002F2A87FFFBCF88EC60E80E94842A88EF5A
:104A30000E942F2A282F2F70C9F08091880690910C
:104A40008906A0918A06B0918B060196A11DB11D21
:104A50008093880690938906A0938A06B0938B066C
:104A60008A159B05AC05BD0508F4B7CF401A510A5D
:104A7000E9F0800E911E70CF739483E0781609F0F0
:104A8000BACFCEE0D0E045CF81016BCFC0E0D0E01F
:104A900088EF0E942F2A85FD07C080E4F7018483F8
:104AA00038CFC4E0D0E035CF80E8F8CFC22FD0E0D7
:104AB000EFCFFC01DB019A013E96BF01AD010E94E0
:104AC0004B2408958F929F92AF92BF92CF92DF9224
:104AD000EF92FF920F931F93CF93DF93C82E5B014A
:104AE0004A018091880690918906A0918A06B0912A
:104AF0008B067C018D010196A11DB11D29E833E1D2
:104B000040E050E0E20EF31E041F151F20E0C0E05D
:104B1000D0E0DD240196A11DB11D809388069093FD
:104B20008906A0938A06B0938B068E159F05A00771
:104B3000B10708F04CC0F50160816C2980EF0E943C
:104B4000842A8091880690918906A0918A06B09166
:104B50008B060196A11DB11D80938806909389064E
:104B6000A0938A06B0938B068E159F05A007B10708
:104B700008F050C088EC0E942F2A87FFE2CF88EC13
:104B800060E80E94842A20E080918806909189063E
:104B9000A0918A06B0918B060196A11DB11D80934C
:104BA000880690938906A0938A06B0938B068E158B
:104BB0009F05A007B10738F488EF0E942F2A282FFD
:104BC0002F70213009F32430F1F02E3079F030E0ED
:104BD000C901DF91CF911F910F91FF90EF90DF906E
:104BE000CF90BF90AF909F908F900895D394F3E0B3
:104BF000DF1699F08091880690918906A0918A0627
:104C0000B0918B0687CF2196C815D90599F724E076
:104C100030E0DECF2FEF30E0DBCF2EE030E0D8CF3A
:104C20006F927F928F929F92AF92BF92CF92DF92BC
:104C3000EF92FF920F931F93CF93DF93FC017B01C1
:104C40003A0169015801DB0112968D909C901397EF
:104C500080EE60810E94842A88EEF70165810E94BF
:104C6000842AC0E0D0E080E0B701A5010E9462255F
:104C7000892BD1F588EC0E942F2A82FF38C080E36F
:104C80000E942F2A682F082F10E088E0A6010E94BA
:104C9000F8296C0188EC64E00E94842AC00FD11FBF
:104CA0000815190518F0C615D705E8F288EF0E9417
:104CB0002F2A84FF15C080E2D70115968C939E01A0
:104CC000C901DF91CF911F910F91FF90EF90DF907D
:104CD000CF90BF90AF909F908F907F906F900895EE
:104CE00080E1F7018583EBCF2FEF3FEFE9CF2EEF88
:104CF0003FEFE6CF0F931F93FC01662351F480E84A
:104D00008683CF013296BF010E944B241F910F91E1
:104D1000089580E28783CF013296BF0100E01DE74E
:104D20000E9410261F910F9108955F926F927F92BB
:104D30008F929F92AF92BF92CF92DF92EF92FF92AB
:104D40000F931F93DF93CF93CDB7DEB728970FB69E
:104D5000F894DEBF0FBECDBF3C01562E142F822E1D
:104D600080EEF30160810E94842A59821A83902F79
:104D700080E09924882999299C838B83FE82ED8287
:104D8000D886CF8280E268E0AE014F5F5F4F0E941D
:104D90004C2A83010E5F1F4F80E1B80140E05DE7C0
:104DA0000E9462258823C9F02FEF3FEFC9012896A2
:104DB0000FB6F894DEBF0FBECDBFCF91DF911F912C
:104DC0000F91FF90EF90DF90CF90BF90AF909F90AA
:104DD0008F907F906F905F900895F52CFF1CFF24BB
:104DE000FF1CA114B10431F0C3016F2DA601950180
:104DF0000E947A26FF2059F080EAB80140E05DE782
:104E00000E946225882351F420E030E0CFCF80E873
:104E1000B80140E05DE70E946225F4CF2DEF3FEF3F
:104E2000C5CFAF92BF92CF92DF92EF92FF920F93D6
:104E3000262F60E049E000E0EE24FF24CC24DD24AE
:104E4000AA24BB240E9495260F91FF90EF90DF903B
:104E5000CF90BF90AF900895AF92BF92CF92DF9264
:104E6000EF92FF920F93262F60E045E000E0EE24E2
:104E7000FF24CC24DD24AA24BB240E9495260F9174
:104E8000FF90EF90DF90CF90BF90AF9008954F923A
:104E90005F926F927F928F929F92AF92BF92CF92CA
:104EA000DF92EF92FF920F931F93CF93DF934C010A
:104EB000162F3A01E90160E846E0212F02E0EE24D6
:104EC000FF2434E0C32ED12C5E010E949526892B4D
:104ED000A1F02FEF3FEFC901DF91CF911F910F910B
:104EE000FF90EF90DF90CF90BF90AF909F908F900A
:104EF0007F906F905F904F9008959B8180E02A8112
:104F0000422E5524482A592A6414750408F42301B2
:104F1000C40160E846E0212F02E0EE24FF24620194
:104F20005E010E949526892B11F49201D4CF2EEFB9
:104F30003FEFD1CFAF92BF92CF92DF92EF92FF922D
:104F40000F935B0160E846E020E001E0EE24FF24DF
:104F500052E1C52ED12C0E9495260F91FF90EF9023
:104F6000DF90CF90BF90AF9008952F923F924F92D5
:104F70005F926F927F928F929F92AF92BF92CF92E9
:104F8000DF92EF92FF920F931F93DF93CF930F92D5
:104F9000CDB7DEB73C01362E242E490128011982F7
:104FA00060E846E0232D03E0E22CFF2471E0C72EE9
:104FB000D12C5E010894A11CB11C0E94952697FF7C
:104FC00017C02FEF3FEFC9010F90CF91DF911F91D5
:104FD0000F91FF90EF90DF90CF90BF90AF909F9098
:104FE0008F907F906F905F904F903F902F9008959B
:104FF000C9808C2D90E08816990680F1C30160E885
:1050000046E0232D03E0E22CFF24DD2452010E9420
:10501000952697FD26C08981282F30E0C901029787
:1050200097FD22C0959587958983882301F1B20168
:10503000F20120E030E0482F50E02F5F3F4F8281A7
:10504000DB018D93BD013296DA0124173507ACF3ED
:10505000A40DB51D1C9220E030E0B5CFC82C89828C
:10506000CDCF2EEF3FEFAFCFC9010197DBCFA82FF8
:10507000B0E0EECFEF92FF920F931F93DF93CF93A9
:1050800000D00F92CDB7DEB77C010E941127C70177
:1050900060E040E024E030E08E010F5F1F4F0E948F
:1050A000B5273C8120E04B8150E0242B352BF701C4
:1050B000358B248B90E00F900F900F900F90CF9135
:1050C000DF911F910F91FF90EF9008950F931F9321
:1050D000CF93DF93FC01DB01EA01222371F400E0AE
:1050E0001DE7CF013896BF01AD019E010E94102639
:1050F000DF91CF911F910F91089501E010E0F1CF62
:105100000E943C2B0E94132B81E18093000210929D
:10511000B5061092CB061092E1061092B4061092DA
:10512000B60680E48093BA0680E18093BB060895BA
:105130001F93DF93CF93CDB7DEB762970FB6F89486
:10514000DEBF0FBECDBF0E94E62A0E94F529813046
:1051500009F493C08130A0F410910002812F807F68
:10516000803191F081E1809300028091CB06882309
:1051700009F012C10E94802882E18093000280C061
:105180008430D8F110910002103409F48CC011342D
:1051900008F480C0103609F4B5C0103709F4D2C045
:1051A000103509F06DC088EC0E942F2A86FF68C078
:1051B0008091880690918906A0918A06B0918B060D
:1051C0000196A11DB11D8093880690938906A09336
:1051D0008A06B0938B062091820630918306409117
:1051E000840650918506281739074A075B0708F09F
:1051F00047C080E68093000243C010910002812FD7
:10520000807F803109F6209188063091890640918F
:105210008A0650918B06DA01C9012F5F3F4F4F4F2D
:105220005F4F87539F4FAF4FBF4F8093820690933E
:105230008306A0938406B093850680E280930002E3
:105240002F5F3F4F4F4F5F4F209388063093890663
:1052500040938A0650938B06809182069091830634
:10526000A0918406B091850682179307A407B5071D
:1052700038F480E38093000203C083E1809300024E
:1052800062960FB6F894DEBF0FBECDBFCF91DF910F
:105290001F910895103209F476C0103309F44AC002
:1052A000113171F762CF88EE0E942F2A80FDE8CF7E
:1052B00088ED0E942F2A682F686088ED0E94842A5A
:1052C00080E5809300028091880690918906A091E4
:1052D0008A06B0918B060196A11DB11D80938806A8
:1052E00090938906A0938A06B0938B064496A11DDD
:1052F000B11D8093820690938306A0938406B09399
:105300008506BECF88E090E09093B9068093B806FA
:1053100084EB96E0BE016F5F7F4F0E949A2788233F
:1053200061F588858093B8061092B90680E780936E
:105330000002A6CF88EE61E00E94842A80E4809378
:1053400000029ECF8091CB06882379F1E0918606FA
:10535000F091870680EE96E062E019958EEF8093DB
:10536000810680EA809300028BCFE0918606F0915F
:1053700087068AEC96E062E019951093810680EA30
:10538000809300027DCF209188063091890640915C
:105390008A0650918B0654CFE0918606F0918706DD
:1053A0008AEC96E061E01995E5CE81E08093CA062B
:1053B0008093CB061092CC0680E48093D00680E1E7
:1053C0008093D10684EB96E061E00E942C2788232D
:1053D00061F6E0918606F09187068AEC96E060E03F
:1053E000199580E9809300024BCF80918C06089537
:1053F000EF92FF920F931F93182F062FF42EE52E96
:1054000080E090E060E070E00E9423241EBD0DB4B7
:1054100007FEFDCF0023B1F001508F2D9E2DFC0122
:10542000602F70E06F5F7F4F6E0F7F1F1EBC0DB44B
:1054300007FEFDCF8EB58193E617F707B9F7CF01C9
:10544000FE2EE92E80E090E061E070E00E942324CF
:105450008F2D9E2D1F910F91FF90EF9008951F9318
:10546000182F80E090E060E070E00E9423241EBDD1
:105470000DB407FEFDCF1EBC0DB407FEFDCF80E0CE
:1054800090E061E070E00E9423248EB51F910895A2
:1054900080EB0E942F2A0895EF92FF920F931F93A3
:1054A000182F062FF42EE52E80E090E060E070E0EB
:1054B0000E94232412601EBD0DB407FEFDCF002301
:1054C000B1F001508F2D9E2DFC01602F70E06F5FB9
:1054D0007F4F6E0F7F1F80818EBD0DB407FEFDCF05
:1054E0003196E617F707B9F7CF01FE2EE92E80E0D7
:1054F00090E061E070E00E9423248F2D9E2D1F918B
:105500000F91FF90EF9008950F931F93182F062F80
:1055100080E090E060E070E00E94232412601EBDF5
:105520000DB407FEFDCF0EBD0DB407FEFDCF80E02C
:1055300090E061E070E00E9423241F910F91089594
:1055400088EF0E942F2A807C803481F0813428F0FB
:105550008038C9F0803C31F00895882309F5109215
:105560008C06089581E080938C06089588ED0E9452
:105570002F2A81FD0DC088ED6BEC0E94842A83E008
:1055800080938C06089588ED0E942F2A81FDF3CF29
:1055900088ED69EC0E94842A82E080938C0608954D
:1055A00008951F9388EC0E942F2A86FD0DC010E0FD
:1055B00085FF03C00E94A02A106288EC612F0E9420
:1055C000842A812F1F91089510E4F2CF1F93769BB8
:1055D0000AC010E08091050183FD02C00E94482AA4
:1055E000812F1F9108950E94D12A182FF3CF1F9366
:1055F00088E760E20E94842A88E760E00E94842AAB
:1056000080E49CE90197F1F710E002C0115041F0ED
:1056100088E60E942F2A80FFF9CF81E01F9108952C
:1056200080E01F91089588E86AE10E94842A0E9420
:10563000F72A8823E1F088ED61ED0E94842A80ED4D
:1056400060E60E94842A88EE64E00E94842A88EE44
:105650000E942F2A82FFFBCF0E94A02A88EC60E2E2
:105660000E94842A80E861E00E94842A08958BE0E9
:1056700096E00E94951DDFCF0E94532B6E98E4E0C8
:10568000F1E08081877F808380818460808380E0F7
:1056900090E061E070E00E942324E5E0F1E0808189
:1056A00084608083089521982298209829982A98C8
:1056B00028988CB580618CBD8CB580648CBD0895B4
:1056C0008CB58F7B8CBD0895882321F08CB58F7DA0
:1056D0008CBD08958CB580628CBD08959CB5937F78
:1056E000982B9CBD08959CB5282F23709C7F292B57
:1056F0002CBD9DB58695869581709E7F982B9DBD0E
:1057000008955058BB27AA270ED011C202D230F0FC
:1057100007D220F031F49F3F11F41EF4D2C10EF4F1
:10572000E095E7FB9FC1E92F13D280F3BA17620718
:1057300073078407950718F071F49EF542C20EF4C2
:10574000E0950B2EBA2FA02D0B01B90190010C0191
:10575000CA01A0011124FF27591B99F0593F50F4A9
:10576000503E68F11A16F040A22F232F342F442701
:10577000585FF3CF469537952795A795F0405395F9
:10578000C9F77EF41F16BA0B620B730B840BBAF0C9
:105790009150A1F0FF0FBB1F661F771F881FC2F734
:1057A0000EC0BA0F621F731F841F48F48795779548
:1057B0006795B795F7959E3F08F0B3CF9395880FFF
:1057C00008F09927EE0F979587950895DF93DD27C9
:1057D000B92FBF7740E85FE31616170648075B0747
:1057E00010F4D92FF9D19F938F937F936F9323D385
:1057F000ECE1F2E069D19BD12F913F914F915F9104
:1058000061D2DD2349F09058A2EA2AED3FE049EC4D
:105810005FE3D0785D2787DFDF9189C1BBD180F05E
:105820009F3740F491110EF4CDC160E070E080E844
:105830009FE3089526F01B16611D711D811D18C17F
:1058400032C1ECD008F481E008950CD070C168D169
:1058500040F05FD130F021F45F3F19F003C15111E6
:10586000B1C12FC175D198F39923C9F35523B1F371
:10587000951B550BBB27AA2762177307840738F0BF
:105880009F5F5F4F220F331F441FAA1FA9F333D01E
:105890000E2E3AF0E0E830D091505040E695001CD2
:1058A000CAF729D0FE2F27D0660F771F881FBB1F8E
:1058B000261737074807AB07B0E809F0BB0B802D68
:1058C000BF01FF2793585F4F2AF09E3F510568F0B4
:1058D000C9C078C15F3FECF3983EDCF386957795BD
:1058E0006795B795F7959F5FC9F7880F911D9695B6
:1058F000879597F90895E1E0660F771F881FBB1F12
:10590000621773078407BA0720F0621B730B840BBE
:10591000BA0BEE1F88F7E095089504D06894B11192
:1059200051C108951DD188F09F5790F0B92F992744
:10593000B751A0F0D1F0660F771F881F991F1AF09A
:10594000BA95C9F712C0B13081F03BD1B1E00895EA
:1059500038C1672F782F8827B85F39F0B93FCCF36B
:10596000869577956795B395D9F73EF49095809590
:10597000709561957F4F8F4F9F4F0895E89409C0B0
:1059800097FB3EF490958095709561957F4F8F4F72
:105990009F4F9923A9F0F92F96E9BB279395F69588
:1059A000879577956795B795F111F8CFFAF4BB0F06
:1059B00011F460FF1BC06F5F7F4F8F4F9F4F16C06A
:1059C000882311F096E911C0772321F09EE8872FF4
:1059D000762F05C0662371F096E8862F70E060E0B0
:1059E0002AF09A95660F771F881FDAF7880F969529
:1059F000879597F90895CED080F09F3740F49111A4
:105A00000EF0E0C060E070E080E89FEB089526F4BF
:105A10001B16611D711D811D2BC045C0990F00080B
:105A2000550FAA0BE0E8FEEF16161706E807F90770
:105A3000C0F012161306E407F50798F0621B730B0B
:105A4000840B950B39F40A2661F0232B242B252B8C
:105A500021F408950A2609F4A140A6958FEF811D2F
:105A6000811D089597F99F6780E870E060E00895D0
:105A7000882371F4772321F09850872B762F07C065
:105A8000662311F499270DC09051862B70E060E0D9
:105A90002AF09A95660F771F881FDAF7880F969578
:105AA000879597F908959F3F31F0915020F487959D
:105AB00077956795B795880F911D9695879597F976
:105AC00008959FEF80EC0895DF93CF931F930F937A
:105AD000FF92EF92DF927B018C01689405C0DA2E71
