:100000000C9427030C9448030C9448030C94480365
:100010000C9448030C9448030C9448030C94480334
:100020000C9448030C9448030C9448030C94480324
:100030000C9448030C9448030C9448030C94221A23
:100040000C9448030C940D1C0C9448030C94480326
:100050000C9448030C9448030C9448030C944803F4
:100060000C9448030C9401200C9448030C9448030E
:100070000C9448030C9448030C9448030C944803D4
:100080000C9448030C9448030C9448030C944803C4
:100090000C9448030C9448030C9448030C944803B4
:1000A0000C9448030C9448030C9448030C944803A4
:1000B0000C9448030C9448030C9448030C94480394
:1000C0000C9448030C9448030C9448030C94480384
:1000D0000C9448030C9448030C9448030C94480374
:1000E0000C94480308080B080E081208E1072C06B8
:1000F0002C062C062C062C062C062C062C062C0670
:100100002C062C062C06E407EC07F407FC07FF0777
:100110002C062C062C062C062C062C0602082C0677
:1001200002082C062C062C062C062C062C062C0667
:100130002C062C062C062C062C062C062C062C062F
:100140002C062C062C062C062C062C062C06050844
:100150002C062C062C062C062C062C062C062C060F
:100160002C062C062C062C062C062C062C062C06FF
:100170002C062C062C062C062C062C062C062C06EF
:100180002C062C061C082C062C062C062C062C06ED
:100190002C062C062C062C062008230826081608F8
:1001A0001908DE07DE07DA07D307CE07C9072C06D2
:1001B0002C06C207BD07B807B307AE07A907A407F7
:1001C0009F079A07950790078B0786072C062C0632
:1001D0002C062C062C062C062C062C062C06DA07E0
:1001E0002C062C062C062C062C062C062C062C067F
:1001F0002C062C062C062C062C062C062C062C066F
:100200002C062C062C062C062C062C062C062C065E
:100210002C062C062C062C062C06DA07084AD73B9F
:100220003BCE016E84BCBFFDC12F3D6C74319ABDC5
:1002300056833DDA3D00C77F11BED9E4BB4C3E91E9
:100240006BAAAABE000000803F595F484F4D450D84
:100250000A00585F484F4D450D0A00594C320D0AAF
:1002600000594C310D0A00584C320D0A00584C31DF
:100270000D0A000D0A00726F7461746564203D20E0
:10028000000D0A006865616420646F776E203D2070
:10029000005B4E534C5D207069636B6F4265617209
:1002A000206F6B0A0D000A0D006572726F723A20A2
:1002B000006572726F723A20466C6F6174696E6786
:1002C00020706F696E74206572726F720A0D00651E
:1002D00072726F723A20556E737570706F727465BA
:1002E000642073746174656D656E740A0D006572C7
:1002F000726F723A20457870656374656420636F2D
:100300006D6D616E64206C65747465720A0D0065B4
:1003100072726F723A20426164206E756D6265720E
:1003200020666F726D61740A0D006F6B0A0D004ECE
:100330006F7420686F6D65640A0D000D0A000D0A68
:100340004F70656E506E502F4772626C20302E37A2
:1003500036005761726E696E673A204661696C6556
:100360006420746F207265616420454550524F4D82
:100370002073657474696E67732E205573696E6798
:100380002064656661756C74732E0D0A002724273E
:1003900020746F2064756D702063757272656E7461
:1003A0002073657474696E67730D0A0053746F72FD
:1003B0006564206E65772073657474696E670D0AD5
:1003C00000556E6B6E6F776E20706172616D657433
:1003D00065720D0A002724783D76616C75652720CB
:1003E000746F2073657420706172616D65746572DD
:1003F000206F72206A7573742027242720746F2061
:1004000064756D702063757272656E7420736574A7
:1004100074696E67730D0A002028737465707065C7
:1004200072733A2030203D2064697361626C6564A8
:100430002C2031203D20656E61626C6564290D0AB7
:10044000002431303030203D200020286D6178209C
:10045000696E7374616E7420636F726E6572696E1B
:1004600067207370656564206368616E67652069E5
:100470006E2064656C7461206D6D2F6D696E290D41
:100480000A002439203D20002028616363656C65E3
:10049000726174696F6E20696E206D6D2F73656374
:1004A0005E32290D0A002438203D200020286D6D81
:1004B0002F617263207365676D656E74290D0A0084
:1004C0002437203D200020286D6D2F6D696E20643B
:1004D000656661756C74207365656B207261746507
:1004E000290D0A002436203D200020286D6D2F6D37
:1004F000696E2064656661756C742066656564204C
:1005000072617465290D0A002435203D20002028E1
:100510006D6963726F7365636F6E64732073746566
:10052000702070756C7365290D0A002434203D20FD
:1005300000202873746570732F6465672E2063290B
:100540000D0A002433203D20002028737465707349
:100550002F6D6D207A290D0A002432203D200020C5
:100560002873746570732F6D6D2079290D0A00242E
:1005700031203D2000202873746570732F6D6D202D
:1005800078290D0A002430203D20000D0A00302E6D
:100590003736002456455253494F4E203D200070B7
:1005A00069636B6F62656172206973206E6F74207E
:1005B000686F6D65640D0A007069636B6F626561D9
:1005C0007220697320686F6D65640D0A00686F6D35
:1005D000696E670D0A00784C696D6974310D0A0007
:1005E000794C696D6974310D0A0048656164206455
:1005F0006F776E0A0D0076616375756D20636861B3
:100600006E67650A0D00617463206368616E6765DB
:100610000A0D00494E46494E4954594E414ECDCCE3
:10062000CC3D0AD7233C17B7D13877CC2B329595E0
:10063000E6241FB14F0A000020410000C8420040DC
:100640001C4620BCBE4CCA1B0E5AAEC59D7411245C
:100650001FBECFEFD1E2DEBFCDBF00E00CBF12E086
:10066000A0E0B2E0EAE4F3E500E00BBF02C00790CF
:100670000D92A030B107D9F715E0A0E0B2E001C0BB
:100680001D92A033B107E1F70E9478090C94A329C9
:100690000C940000249A0895892B11F42C98089545
:1006A0002C9A0895F999FECF92BD81BD81E08FBB50
:1006B00080B50895F894F999FECF92BD81BD81E08F
:1006C0008FBB90B59627892F862341F06F3F71F03D
:1006D00060BD84E08FBBF99A789408959923E1F383
:1006E00060BD84E28FBBF99A7894089584E18FBB52
:1006F000F99A78940895FC0141155105C9F1A0E0DB
:1007000020E030E0B1E0C901860F971FF999FECFD4
:1007100092BD81BDBFBB90B5AA2359F081E0A82F3F
:10072000A90F90832F5F3F4F2417350771F0319643
:10073000EACF8A2F881F8827881FA82FA90F9083A8
:100740002F5F3F4F2417350791F7620F731FF999F9
:10075000FECF72BD61BD81E08FBB80B520E030E08F
:10076000A81711F0C901089521E030E0C9010895EA
:10077000A0E0EDCFDF92EF92FF920F931F93CF9304
:10078000DF93EC01DB018A014115510509F462C0D8
:100790009C01FA0170E091E054E2E52E44E1D42E90
:1007A00084E0F82E7723F1F081E06C91782F760FBA
:1007B000A9014F5F5F4FF894F999FECF32BD21BD7B
:1007C0009FBB20B52627822F862389F06F3FA1F19A
:1007D00060BDFFBAF99A7894319789F011969A0121
:1007E000772311F7872F881F8827881FDECF2223C2
:1007F00091F360BDEFBAF99A7894319779F7C00F09
:10080000D11FF894F999FECFD2BDC1BD81E08FBB55
:1008100090B59727892F872391F07F3FB9F070BD5E
:1008200084E08FBBF99A7894DF91CF911F910F915B
:10083000FF90EF90DF900895DFBAF99ACCCF99231B
:1008400091F370BD84E28FBBF99AEDCF84E18FBB49
:10085000F99AE9CF70E0D5CF809325026093260204
:10086000409327020895AF92BF92CF92DF92EF920A
:10087000FF920F931F93DF93CF930F920F92CDB7F9
:10088000DEB76C015B017A01FB0100811181080F69
:10089000191FC801BE016F5F7F4F0E941228F70128
:1008A000608371838283938389819A818017910702
:1008B000A9F08C199D09F5019183808321E030E036
:1008C000C9010F900F90CF91DF911F910F91FF9071
:1008D000EF90DF90CF90BF90AF90089581E080932C
:1008E000000220E030E0ECCF88E2E0E0F2E0DF015F
:1008F0001D928A95E9F760911A0570911B05809108
:100900001C0590911D0520E030E040E752E40E9474
:10091000882460930A0270930B0280930C029093D8
:100920000D0260911E0570911F0580912005909128
:10093000210520E030E040E752E40E9488246093E3
:100940000E0270930F028093100290931102109286
:10095000250291E09093260282E0809327029093F3
:1009600004020895AF92BF92CF92DF92EF92FF926E
:100970000F931F9379018A015F770E9488240E9458
:1009800049245B016C01C801B70120E030E040E080
:1009900050E00E944B2618165CF4B501C6011F9169
:1009A0000F91FF90EF90DF90CF90BF90AF900895A0
:1009B000C601B50120E030E040E050E00E944B2647
:1009C00018165CF46BED7FE089E490E4A6019501D4
:1009D0000E94E4235B016C01E0CF6BED7FE089E4D2
:1009E00090ECA60195010E94E4235B016C01D5CF38
:1009F000AF92BF92CF92DF92EF92FF920F931F932D
:100A0000DF93CF930F920F92CDB7DEB75B016A01F0
:100A10007901D901ED91FC91E40FF51FE081EE23FE
:100A200041F0DC01EC93E154EA3198F082E08093EC
:100A3000000220E030E0C9010F900F90CF91DF91CC
:100A40001F910F91FF90EF90DF90CF90BF90AF90EC
:100A50000895F901808191810196918380838A01B3
:100A6000080F191FC801BE016F5F7F4F0E94122837
:100A7000D5016D937D938D939C93139789819A8172
:100A80000817190741F08C199D09F701918380839C
:100A900021E030E0D0CF81E08093000220E030E020
:100AA000CACF2F923F924F925F926F927F928F9216
:100AB0009F92AF92BF92CF92DF92EF92FF920F93ED
:100AC0001F93DF93CF93CDB7DEB7E3970FB6F894BC
:100AD000DEBF0FBECDBF4C011A821982CE0109962E
:100AE0009BAB8AAB80E1AAA9BBA9E82F1D92EA952E
:100AF000E9F7E9E16E2E712C6C0E7D1ED3011D927B
:100B00008A95E9F710920002F4018081883209F495
:100B1000A9C08F3209F461C08432B1F11EA61DA6AE
:100B200073E0472E512C4C0E5D1E22242A94322C49
:100B3000EE24E39429813A81F401E20FF31FF0805F
:100B4000FF2009F49DC08F2D81548A3108F44BC0D9
:100B500082E080930002E3960FB6F894DEBF0FBEEA
:100B6000CDBFCF91DF911F910F91FF90EF90DF905C
:100B7000CF90BF90AF909F908F907F906F905F903D
:100B80004F903F902F90089581E090E09A83898361
:100B900084010F5F1F4FD40111968C91882309F4B3
:100BA0005FC0C801BE016D5F7F4F0E9412286B01BC
:100BB0007C018B819C810817190709F43EC38819B1
:100BC00099099A8389839C01F401E20FF31F8081C4
:100BD0008D3309F4E9C283E0BECF89819A81019601
:100BE0009A8389839BCFC90101969A838983840163
:100BF000080F191FC801B2010E9412282B813C81E5
:100C00000217130789F16D837E838F8398872819D4
:100C100039093A8329830E9481275B016C010E9474
:100C2000F024872FA7E4FA1691F0AF1508F00BC156
:100C3000EDE4FE1609F443C1F4E5FF1609F006C120
:100C4000C601B5010E94F52460932202FFC0E62F81
:100C5000F82FEF35F10560F083E0809300027BCF41
:100C60000E94ED1780E077CF81E08093000273CF80
:100C7000EE58FF4FEE0FFF1F0590F491E02D1994F1
:100C800080910002882309F066CF1A82198280E1E0
:100C9000D3011D928A95E9F7DE011996E2E1F2E0AF
:100CA00080E101900D928150E1F7AA241FA6B0E8DF
:100CB000B8ABEFEBE9AB0F2EF0E02F2EF0E03F2EBC
:100CC000F0E04F2EF0E05F2EF02D3E010894611C05
:100CD000711C29813A81F401E20FF31FB080BB201F
:100CE00009F448C08B2D81548A3108F031CFC901F5
:100CF00001969A8389838401080F191FC801BE01D8
:100D00006D5F7F4F0E9412286B017C018B819C815B
:100D10000817190709F4A8CF881999099A838983B4
:100D200080910302882309F0A1C1A7019601CD8219
:100D3000DE82EF82F886FBE4FB1508F48AC189E4C1
:100D4000B81608F49EC1EB2DF0E0E954F040EE0F28
:100D5000FF1FEE0FFF1FE60DF71D208F318F428F13
:100D6000538F29813A81F401E20FF31FB080BB2039
:100D700009F0B8CF80910002882309F0ECCE809171
:100D8000060290910702009709F406C240912302DF
:100D900050912402662757FD6095762F0E94061A0F
:100DA0008091080290910902892B09F4F8C181E031
:100DB00090E00E944C038DA5813009F431C281304E
:100DC00008F016C280910102882309F03FC200D0CA
:100DD00000D069857A858B859C852D853E854F85DC
:100DE0005889E988FA880B891C89AD88BE88CF8824
:100DF000D88C60900E0270900F028090100290903C
:100E00001102ADB7BEB711966D927D928D929C92F4
:100E1000149716961C921E9215970E941A12EDB7FF
:100E2000FEB736960FB6F894FEBF0FBEEDBFA2E137
:100E3000B2E0FE01399680E101900D928150E1F718
:100E40008091000288CEB4E4FB1631F0809100025C
:100E5000882309F46FCE7FCE84E892E00E94592067
:100E60000E94532390E0A0E0B0E0BC01CD010E94BD
:100E7000FC2081E892E00E94592086E792E00E94DF
:100E800059200E94562390E0A0E0B0E0BC01CD01C3
:100E90000E94FC2083E792E00E9459204B9931C0C8
:100EA0004A992AC0489923C049991CC0049915C081
:100EB000909BCCCF89E492E00E945920C7CFE62FC7
:100EC000F82FED33F10508F0C7CEEF52FF4FEE0FCC
:100ED000FF1F0590F491E02D199482E592E00E94A5
:100EE0005920E6CF8BE592E00E945920DFCF81E6C2
:100EF00092E00E945920D8CF87E692E00E945920C4
:100F0000D1CF8DE692E00E945920CACF80E090E0D8
:100F10000E947E239BCF81E090E00E947E2396CFAB
:100F200086E090E00E94DF2391CF85E090E00E9470
:100F3000DF238CCF84E090E00E94DF2387CF83E023
:100F400090E00E94DF2382CF82E090E00E94DF23C6
:100F50007DCF81E090E00E94DF2378CF80E090E0B9
:100F60000E94DF2373CF80E090E00E9459236ECF70
:100F700081E090E00E94592369CF109209021092FB
:100F8000080264CF81E090E0909309028093080208
:100F90005DCF109207021092060258CF30920702DE
:100FA0002092060253CF81E090E090930702809355
:100FB00006024CCF92E09093050248CFE0920502E2
:100FC00045CFE1E0EDA742CF10922502E092260244
:100FD00092E0909327023ACF10922502A2E0A093CC
:100FE0002602E092270232CFE0922502B2E0B093CF
:100FF0002602109227022ACFE092030227CF1092F6
:10100000030224CFB2E0BDA721CFE1E0EEA71ECFBF
:10101000109201021BCFE092010218CFF2E0F09390
:10102000010214CF83E08093010210CFE09202020C
:101030000DCF109202020ACFF4E0F093010206CF26
:10104000E092040203CF1092040200CF83E08DA748
:10105000FDCEB3E5BB1609F44AC0BB1518F1E0E5B7
:10106000BE1609F036CE1601270133CEC701B601F0
:1010700023E333E34BEC51E40E94B9269B01AC011E
:1010800056CE93E4B916E1F1A6E4BA1609F021CEE2
:1010900080910202882309F459C0A22E3FA748ABD1
:1010A00059AB17CE8B2D8855833008F012CE809126
:1010B00004028823B9F5FEA5FF23A1F50B2D10E04E
:1010C00008551040000F111F000F111F060D171DAE
:1010D000D80118966D917D918D919C911B970E94DE
:1010E000E523F8016087718782879387F2CDC70176
:1010F000B6010E94F0247093240260932302E9CD8C
:10110000809104028823E9F4FEA5FF23D1F46D89C0
:101110007E898F89988D0E94E5236D8B7E8B8F8BC6
:10112000988FD7CDEB2DF0E0E855F040EE0FFF1F84
:10113000EE0FFF1FE60DF71D20873187428753878B
:10114000C8CD2D8B3E8B4F8B588FC3CD8091010224
:10115000882389F4CA01B90120E030E040E752E475
:101160000E94882460930E0270930F0280931002F5
:1011700090931102AECDCA01B90120E030E040E702
:1011800052E40E94882460930A0270930B028093B9
:101190000C0290930D029DCD0E94161A01CE80E0A4
:1011A00090E00E944C0307CE2F5F3F4F3A83298384
:1011B000C401BE016F5F7F4FAE014B5F5F4F0E9466
:1011C0003304E981FA81E80DF91D8081882309F053
:1011D00002CDC701B6010E94F024DC01CB014D8194
:1011E0005E816F8178850E94C11880910002B3CC26
:1011F000823049F1833009F01ACE69857A858B8572
:101200009C852D853E854F855889E988FA880B890C
:101210001C89AD88BE88CF88D88C0E94D10A07CEA1
:10122000C201B10120E030E04AE754E40E94B9264F
:101230000E94F5240E94A109FACD81E0809300026A
:1012400029813A81C1CC0E949E09F1CD813009F0FB
:10125000EECD89859A85AB85BC8589A79AA7ABA772
:10126000BCA72D843E844F845888E988FA880B896E
:101270001C896D887E888F88988C60910202662315
:1012800059F4A0900A0290910B029FA7A0910C0222
:10129000A8ABB0910D02B9AB00D000D0CDB6DEB690
:1012A0000894C11CD11C2A2D3FA548A959A9C901E0
:1012B000DA01EDB7FEB781839283A383B483D601AD
:1012C00014966C93149715961C9269A57AA58BA514
:1012D0009CA5A2019101640153010E941A12EDB76D
:1012E000FEB736960FB6F894FEBF0FBEEDBF9FCD8A
:1012F0000E942A170E944A190E94C10C0E94331FA3
:101300000E94571B0E94FF190E944A030E94DC237F
:101310000E9449230E9473230E9498230E94740410
:1013200081E992E00E94592083B7816083BF88954C
:1013300083B78E7F83BF0E94B116F6CF0E94A11E95
:101340000895AF92BF92CF92DF92EF92FF920F93E8
:101350001F937B018C010E94801BC801B7010E9472
:1013600021255B016C0120E030E04AE755E40E9452
:10137000B9267B018C0120E030E040E85FE30E9469
:10138000842488237CF1C801B70120E03FEF4FE7B8
:1013900057E40E944B261816ACF4C601B50120E0B4
:1013A00030E040E251E40E94B9260E94F524CB01CE
:1013B000672B79F020E931E0F9013197F1F70197D6
:1013C000D9F707C0C801B7010E94F524CB010197E6
:1013D000F1F71F910F91FF90EF90DF90CF90BF90AA
:1013E000AF90089561E070E0F1CFFC0160912A05B3
:1013F00070912B0580912C0590912D0521A532A58A
:1014000043A554A50E94882408958091A90390E0E3
:1014100008952091950330919603809197039091C0
:1014200098032817390769F08091970390919803E2
:10143000019665E070E00E94AE2790939803809338
:101440009703089520919503309196038091970317
:101450009091980328173907D1F020919703309184
:101460009803C901880F991F880F991F880F991F2A
:10147000AC01440F551F440F551F440F551F480F13
:10148000591F420F531F485D5D4FCA01089540E048
:1014900050E0CA0108954F925F926F927F928F92AF
:1014A0009F92AF92BF92CF92DF92EF92FF920F93F3
:1014B0001F93CF93DF93EC014B016115710599F0F8
:1014C000009789F0E9A8FAA80BA91CA9FB0141A87B
:1014D00052A863A874A8C801B701A30192010E9491
:1014E000842488238CF0DF91CF911F910F91FF907E
:1014F000EF90DF90CF90BF90AF909F908F907F90B4
:101500006F905F904F900895F401A1A4B2A4C3A47A
:10151000D4A4C801B701A60195010E94B9269B0178
:10152000AC010E94B9267B018C01209126053091E7
:10153000270540912805509129055058CA01B90145
:101540000E94E52320E030E040E752E40E94B92603
:1015500020E030E040E752EC0E94B9262DA53EA5E0
:101560004FA558A90E94B9269B01AC01C801B7013B
:101570000E94E5230E944027A60195010E9488242D
:101580007B018C01C301B201A80197010E944B2687
:1015900018160CF0A8CFF401E1AAF2AA03AB14AB21
:1015A000A2CF2F923F924F925F926F927F928F9233
:1015B0009F92AF92BF92CF92DF92EF92FF920F93E2
:1015C0001F933B014C0119012A010E94801BC40199
:1015D000B301209108053091090540910A05509109
:1015E0000B050E94B9260E945626E9E98E2EE3E0FB
:1015F0009E2E6093990370939A0380939B0390931C
:101600009C03C201B10120910C0530910D05409160
:101610000E0550910F050E94B9260E945626F4012E
:10162000349660939D03718382839383C801B701CD
:10163000209110053091110540911205509113052C
:101640000E94B9260E945626F40138966093A103A1
:10165000718382839383C601B50120911405309173
:10166000150540911605509117050E94B9260E9454
:1016700056262CE030E0820E931E6093A503F40101
:101680007183828393831F910F91FF90EF90DF907E
:10169000CF90BF90AF909F908F907F906F905F9012
:1016A0004F903F902F900895CF93DF93EC0190E0FF
:1016B0008091A903811191E080E0209709F081E0F9
:1016C000981731F00E94801B1092A903CD2B19F4BA
:1016D000DF91CF91089581E08093A903DF91CF91AD
:1016E00008952F923F924F925F926F927F928F92C6
:1016F0009F92AF92BF92CF92DF92EF92FF920F93A1
:101700001F93DF93CF93CDB7DEB762970FB6F894F0
:10171000DEBF0FBECDBF9A8B898B6A017B0118019A
:101720002901FC01658976898789908D0E94212590
:101730003B014C01A70196010E94B9260E94712429
:101740000E94F5247B018C01E989FA8965AB76ABAF
:1017500087AB90AFC401B301A20191010E94B926E9
:101760000E9471240E94F5241B012C01E989FA8949
:1017700061AF72AF83AF94AFFD966081718182815A
:101780009381FD97FA8BE98B28E230E040E050E04E
:101790000E948F270E94232520E030E040E752E49A
:1017A0000E94B9260E94F0245B016C01C801B701B8
:1017B0000E9421257B018C01C601B5010E942325D1
:1017C0006D837E838F839887C401B301A401930145
:1017D0000E94B9263B014C01C801B701A80197013D
:1017E0000E94B92669877A878B879C876D817E8165
:1017F0008F8198859B01AC010E94E5236D877E87D0
:101800008F87988BC401B30129853A854B855C8508
:101810000E94E4232D853E854F8558890E948824A7
:101820000E9471240E94F02469837A838B839C83B5
:10183000C201B1010E9421259B01AC010E94B92681
:101840001B012C01A40193010E94E4237B018C0164
:10185000D094C094B094A094A11CB11CC11CD11C04
:10186000C601B5010E9423259B01AC010E94E5231E
:101870009B01AC01C801B7010E9488240E945E252B
:10188000E989FA89A188B288C388D488860175015C
:1018900029813A814B815C81E21AF30A040B150B12
:1018A0000E94F024A8019701261B370B480B590B07
:1018B000DA01C90157FD30C049895A894F5B5F4F32
:1018C000FA0129813A814B815C81219331934193C3
:1018D0005193FA8BE98B820F931FA41FB51F80834E
:1018E0009183A283B38362960FB6F894DEBF0FBED6
:1018F000CDBFCF91DF911F910F91FF90EF90DF90BF
:10190000CF90BF90AF909F908F907F906F905F909F
:101910004F903F902F900895C601B5010E94232556
:101920002D853E854F8558890E94B92629853A859F
:101930004B855C850E94E4239B01AC01C201B1018F
:101940000E94E5237B018C016D817E818F819885CA
:1019500020E030E040E850E40E94B9269B01AC0151
:10196000C801B7010E9488240E9471240E94F024BB
:1019700069837A838B839C8380E090E0A0E0B0E071
:101980009BCF109296031092950310929803109299
:1019900097038091A903882329F40E94801B81E08A
:1019A0008093A90380E1E9E9F3E0DF011D928A95C4
:1019B000E9F70895CF92DF92EF92FF920F931F9372
:1019C000CF93DF938091970390919803282FE82E6F
:1019D000FF24E7FCF0948091950390919603E8161C
:1019E000F90609F44BC0E0E0F0E001C0FE0189E433
:1019F0002802E0011124C85DDD4F309759F041A95C
:101A000052A963A974A909A91AA92BA93CA9CF01B4
:101A10000E94710BC701019665E070E00E94AE273D
:101A2000282FE82EFF24E7FCF094809195039091F5
:101A30009603E816F906D1F6C9A8DAA8EBA8FCA81F
:101A400060912A0570912B0580912C0590912D05B0
:101A500029A53AA54BA55CA50E9488248B019C0171
:101A6000CE01B701A6010E94710BDF91CF911F91AA
:101A70000F91FF90EF90DF90CF900895C0E0D0E0FD
:101A8000DBCF2F923F924F925F926F927F928F9215
:101A90009F92AF92BF92CF92DF92EF92FF920F93FD
:101AA0001F93DF93CF9300D000D0CDB7DEB78C016A
:101AB0007E836D83672B09F4A5C04115510509F498
:101AC00027C1DA01D1968D919D910D90BC91A02DE9
:101AD00089839A83AB83BC830115110509F405C181
:101AE000F801618D728D838D948DAD81BE81599683
:101AF0002D913D914D915C915C970E94E4239B0157
:101B0000AC010E94B9261B012C01F801658D768D70
:101B1000878D90A1AD81BE815D962D913D914D91B6
:101B20005C9190970E94E4239B01AC010E94B9262E
:101B30003B014C01F80161A172A183A194A1AD8187
:101B4000BE8191962D913D914D915C9194970E940B
:101B5000E4239B01AC010E94B9265B016C01F801F2
:101B600065A176A187A190A5AD81BE8195962D91A5
:101B70003D914D915C9198970E94E4239B01AC01AB
:101B80000E94B9267B018C01C201B101A40193011D
:101B90000E94E523A60195010E94E523A801970173
:101BA0000E94E5230E9440275B016C01E0902A051A
:101BB000F0902B0500912C0510912D05C801B7015F
:101BC000A60195010E94842487FD35C00F2EF0E008
:101BD0006F2EF0E07F2EF0E88F2EFFE39F2EF02D8A
:101BE000C401B30129813A814B815C810E944B265B
:101BF000181654F1AD81BE81D1966D927D928D9271
:101C00009C92D49726960FB6F894DEBF0FBECDBF38
:101C1000CF91DF911F910F91FF90EF90DF90CF90C8
:101C2000BF90AF909F908F907F906F905F904F90FC
:101C30003F902F900895C801B701A60195010E9419
:101C400088243B014C01CCCFED81FE81A1A4B2A43C
:101C5000C3A4D4A4C601B50129813A814B815C811A
:101C60000E94B9269B01AC010E94B9267B018C0120
:101C7000209126053091270540912805509129058E
:101C80005058CA01B9010E94E52320E030E040E746
:101C900052E40E94B92620E030E040E752EC0E9476
:101CA000B926AD81BE819D962D913D914D915C915E
:101CB000D0970E94B9269B01AC01C801B7010E94D0
:101CC000E5230E944027A60195010E9488247B01FC
:101CD0008C01C401B301A80197010E944B2618167C
:101CE0000CF088CF3701480185CF60912A057091AB
:101CF0002B0580912C0590912D05ED81FE8121A56C
:101D000032A543A554A50E9488243B014C0172CF03
:101D10008D819E810E94F50969837A838B839C83E0
:101D2000DBCECF92DF92FF920F931F93CF93DF937F
:101D30008091950390919603F82E2091970330910E
:101D40009803992787FD909582179307B9F100E0D2
:101D500010E040E050E019C08F2D99E48902B001F5
:101D60001124CF2CDD24C7FCD094EB01C85DDD4FDE
:101D7000CE01B8010E94410D809197039091980384
:101D8000A8018C159D0561F08E01FA94F7FEE4CF51
:101D9000A4E0FA2E64E271E0F4E0CF2ED12CE5CF7E
:101DA000A80180E090E0BE010E94410DDF91CF913B
:101DB0001F910F91FF90DF90CF900895C0E0D0E089
:101DC00040E050E0EECF2F923F924F925F926F92A1
:101DD0007F928F929F92AF92BF92CF92DF92EF92BB
:101DE000FF920F931F93DF93CF93CDB7DEB7289762
:101DF0000FB6F894DEBF0FBECDBF809197039091D0
:101E00009803282F482E552447FC50948091950321
:101E1000909196034816590609F408C18091260549
:101E200090912705A0912805B0912905AC01BD012D
:101E3000705849835A836B837C8388249924222495
:101E4000332415C0C201019665E070E00E94AE2700
:101E5000282F482E552447FC50948091950390914B
:101E6000960314014816590609F478C0430159E451
:101E700025023001112468E272E0660E771E81149B
:101E8000910401F321143104E9F2D101D196ED90CE
:101E9000FD900D911C91D497D401D1964D915D91F7
:101EA0006D917C91D4974D835E836F837887C80151
:101EB000B7012D813E814F8158850E94842488235B
:101EC0000CF6F401A1A4B2A4C3A4D4A4C801B70120
:101ED000A60195010E94B9269B01AC010E94B9267A
:101EE0007B018C0169817A818B819C819B01AC0192
:101EF0000E94E52320E030E040E752E40E94B9264A
:101F000020E030E040E752EC0E94B926D1019D96D6
:101F10002D913D914D915C91D0970E94B9269B01E6
:101F2000AC01C801B7010E94E5230E944027A60129
:101F300095010E9488247B018C016D817E818F81B7
:101F40009885A80197010E944B2618160CF07ACFAD
:101F5000F401E1AAF2AA03AB14AB74CF61147104CB
:101F600009F464C08114910409F460C0D401D196CD
:101F7000ED90FD900D911C91D497F30121A832A80A
:101F800043A854A8C801B701A20191010E9484246A
:101F900088230CF04BC0D3019996AD90BD90CD90A5
:101FA000DC909C97C801B701A60195010E94B92653
:101FB0009B01AC010E94B9267B018C0169817A8169
:101FC0008B819C819B01AC010E94E52320E030E0E5
:101FD00040E752E40E94B92620E030E040E752ECAE
:101FE0000E94B926F40125A536A547A550A90E944F
:101FF000B9269B01AC01C801B7010E94E5230E94EC
:102000004027A60195010E9488247B018C01C20112
:10201000B101A80197010E944B2618163CF4D30188
:10202000D196ED92FD920D931C93D49728960FB6FE
:10203000F894DEBF0FBECDBFCF91DF911F910F91FE
:10204000FF90EF90DF90CF90BF90AF909F908F90D8
:102050007F906F905F904F903F902F9008952F92B8
:102060003F924F925F926F927F928F929F92AF9228
:10207000BF92CF92DF92EF92FF920F931F93DF9365
:10208000CF93CDB7DEB728970FB6F894DEBF0FBE5B
:10209000CDBF8091950390919603182F20919703BF
:1020A00030919803992787FD90958217930751F1F6
:1020B000EE24FF2440E050E009E41AC01002B00111
:1020C0001124C12EDD24C7FCD094B8E28B2EB2E0DF
:1020D0009B2E860E971EC401B7010E94410D809170
:1020E0009703909198038C159D0581F0A7017401C9
:1020F000115017FFE3CF14E064E271E084E0C82ED2
:10210000D12CE3CF88249924EE24FF2480E090E0B2
:10211000B401A7010E94410D80919703909198030B
:10212000282F482E552447FC509480919503909178
:1021300096034816590609F408C180912605909126
:102140002705A0912805B0912905AC01BD01705863
:1021500049835A836B837C832224332488249924E3
:1021600015C0C201019665E070E00E94AE27282FDD
:10217000482E552447FC50948091950390919603E6
:102180004816590609F479C01401430159E425029F
:102190003001112468E272E0660E771E811491040A
:1021A00001F321143104E9F2D101D196ED90FD90B3
:1021B0000D911C91D497D401D1964D915D916D9163
:1021C0007C91D4974D835E836F837887C801B70174
:1021D0002D813E814F8158850E94842488230CF6EE
:1021E000F401A1A4B2A4C3A4D4A4C801B701A60158
:1021F00095010E94B9269B01AC010E94B9267B0182
:102200008C0169817A818B819C819B01AC010E9448
:10221000E52320E030E040E752E40E94B92620E0C8
:1022200030E040E752EC0E94B926D1019D962D91F5
:102230003D914D915C91D0970E94B9269B01AC01D4
:10224000C801B7010E94E5230E944027A60195011D
:102250000E9488247B018C016D817E818F8198850D
:10226000A80197010E944B2618160CF07ACFF401B2
:10227000E1AAF2AA03AB14AB74CF6114710409F4A0
:1022800064C08114910409F460C0D401D196ED902A
:10229000FD900D911C91D497F30121A832A843A879
:1022A00054A8C801B701A20191010E948424882387
:1022B0000CF04BC0D3019996AD90BD90CD90DC90C1
:1022C0009C97C801B701A60195010E94B9269B0100
:1022D000AC010E94B9267B018C0169817A818B81D6
:1022E0009C819B01AC010E94E52320E030E040E7A7
:1022F00052E40E94B92620E030E040E752EC0E9410
:10230000B926F40125A536A547A550A90E94B926EE
:102310009B01AC01C801B7010E94E5230E94402740
:10232000A60195010E9488247B018C01C201B101A4
:10233000A80197010E944B2618163CF4D301D196B0
:10234000ED92FD920D931C93D497809197039091F9
:102350009803282FE82EFF24E7FCF0948091950342
:1023600090919603E816F90609F461C0E0E0F0E008
:1023700001C0F401B9E42B024001112448E252E00B
:10238000840E951E309771F041A952A963A974A9D2
:10239000D401D1960D911D912D913C91D497CF01EF
:1023A0000E94710BC701019665E070E00E94AE27A4
:1023B000282FE82EFF24E7FCF0948091950390915C
:1023C0009603E816F906A9F6F401C1A8D2A8E3A875
:1023D000F4A860912A0570912B0580912C059091AD
:1023E0002D0521A532A543A554A50E9488248B0163
:1023F0009C01C401B701A6010E94710B28960FB67B
:10240000F894DEBF0FBECDBFCF91DF911F910F912A
:10241000FF90EF90DF90CF90BF90AF909F908F9004
:102420007F906F905F904F903F902F9008958824F9
:102430009924CACF2F923F924F925F926F927F92D0
:102440008F929F92AF92BF92CF92DF92EF92FF92C4
:102450000F931F93DF93CF93CDB7DEB7C455D04012
:102460000FB6F894DEBF0FBECDBF2B962CAF3DAF9D
:102470004EAF5FAF2B972F96ECAEFDAE0EAF1FAFFA
:102480002F976396ACAEBDAECEAEDFAE6397209114
:1024900008053091090540910A0550910B050E94ED
:1024A000B9260E9456267B018C0120910C053091A3
:1024B0000D0540910E0550910F0527962CAF3DAFAD
:1024C0004EAF5FAF279720901005309011054090D8
:1024D00012055090130560901405709015058090BA
:1024E000160590901705809195039091960301969B
:1024F00065E070E00E94AE2764968FAF64976596A2
:102500009FAF6597209197033091980365964EADE4
:102510005FAD65972417350771F483B7816083BF7A
:10252000889583B78E7F83BF80919703909198039E
:102530008217930791F32091950330919603C90177
:10254000880F991F880F991F880F991FBC01660F6C
:10255000771F660F771F660F771F680F791F620F4F
:10256000731F685D7D4F23967FAF6EAF2397809179
:10257000990390919A03A0919B03B0919C035701FA
:102580006801A81AB90ACA0ADB0AD7FC69C3C401E0
:10259000B30163962CAD3DAD4EAD5FAD63970E9428
:1025A000B9260E9456266D877E878F87988BC20139
:1025B000B1012F962CAD3DAD4EAD5FAD2F970E9472
:1025C000B9260E94562669877A878B879C8727962B
:1025D0006CAD7DAD8EAD9FAD27972B962CAD3DADEF
:1025E0004EAD5FAD2B970E94B9260E9456266D8393
:1025F0007E838F839887E982FA820B831C832396DC
:10260000AEADBFAD2397AD92BD92CD92DC92139744
:10261000AD80BE80CF80D88480919D0390919E0331
:10262000A0919F03B091A003A6019501281B390B2F
:102630004A0B5B0BDA01C90157FD0AC32396EEADC5
:10264000FFAD239784839583A683B78369847A84B7
:102650008B849C848091A1039091A203A091A303F9
:10266000B091A403A4019301281B390B4A0B5B0B07
:10267000DA01C90157FDE0C280879187A287B3873D
:102680002D843E844F8458888091A5039091A603A1
:10269000A091A703B091A80382017101E81AF90A79
:1026A0000A0B1B0B17FDBFC22396AEADBFAD239720
:1026B0001C96ED92FD920D931C931F9718962D91E9
:1026C0003D914D915C911B97FD0184819581A6817F
:1026D000B78182179307A407B50710F4DA01C9017F
:1026E0002396EEADFFAD2397208131814281538146
:1026F00082179307A407B50710F4DA01C9018E15F4
:102700009F05A007B10710F4D801C7012396EEADCD
:10271000FFAD2397818B928BA38BB48B0097A10580
:10272000B105D1F4CC5ADF4F0FB6F894DEBF0FBE1F
:10273000CDBFCF91DF911F910F91FF90EF90DF9070
:10274000CF90BF90AF909F908F907F906F905F9051
:102750004F903F902F90089529813A814B815C8161
:1027600029A73AA74BA75CA74091990350919A03D8
:1027700060919B0370919C034DA75EA76FA778ABF8
:1027800069A57AA58BA59CA52DA53EA54FA558A901
:10279000621B730B840B950B0E9423252091080567
:1027A0003091090540910A0550910B050E9488243B
:1027B00021966CAF7DAF8EAF9FAF2197ADA2BEA229
:1027C000CFA2D8A640919D0350919E0360919F0394
:1027D0007091A00349A35AA36BA37CA3C601B501C2
:1027E00029A13AA14BA15CA1621B730B840B950B31
:1027F0000E94232520910C0530910D0540910E0576
:1028000050910F050E94882469AF7AAF8BAF9CAFBF
:102810006D8E7E8E8F8E98A24091A1035091A2035F
:102820006091A3037091A403498F5A8F6B8F7C8FA3
:10283000C401B301298D3A8D4B8D5C8D621B730BE6
:10284000840B950B0E9423252091100530911105D2
:1028500040911205509113050E9488246DAB7EAB08
:102860008FAB98AF2D8A3E8A4F8A588E4091A50330
:102870005091A6036091A7037091A803498B5A8BCE
:102880006B8B7C8BC201B10129893A894B895C89A8
:10289000621B730B840B950B0E942325209114055A
:1028A0003091150540911605509117050E94882416
:1028B00069AB7AAB8BAB9CAB21966CAD7DAD8EAD2D
:1028C0009FAD21970E947E273B014C0169AD7AADF7
:1028D0008BAD9CAD0E947E277B018C016DA97EA9EA
:1028E0008FA998AD0E947E275B016C0169A97AA926
:1028F0008BA99CA90E947E271B012C01C401B30156
:10290000A80197010E94E523A60195010E94E523F5
:10291000A20191010E94E5230E9440272396AEADBB
:10292000BFAD23979D966D937D938D939C93D09788
:10293000E096EEADFFADE097EF2B09F49AC160ECA5
:1029400071EE84E69CE4AE962CAD3DAD4EAD5FAD30
:10295000AE970E9488240E945626AC01CB01DA0172
:10296000BC01CD010E9421259B01AC0160EC71EE00
:1029700084E69CE40E9488247B018C0121966CAD46
:102980007DAD8EAD9FAD2197A80197010E94B9261C
:102990002396AEADBFAD239759966D937D938D93DE
:1029A0009C935C9769AD7AAD8BAD9CADA801970106
:1029B0000E94B9262396EEADFFAD2397658F768FE3
:1029C000878F90A36DA97EA98FA998ADA8019701C3
:1029D0000E94B9262396AEADBFAD239791966D9315
:1029E0007D938D939C93949769A97AA98BA99CA9AF
:1029F000A80197010E94B9262396EEADFFAD23975B
:102A000065A376A387A390A765A576A587A590A9BA
:102A1000A80197010E94B9261B012C012396AEAD97
:102A2000BFAD239799966D937D938D939C939C97BF
:102A300051966D917D918D919C9154970E94232583
:102A40005B016C01A80197010E94B9260E947124C4
:102A50000E94F5243B014C012396EEADFFAD239778
:102A6000658B768B878B908F80E090E0A0E0B0E064
:102A700081AB92ABA3ABB4AB6091260570912705F7
:102A8000809128059091290520E030E040E752E44C
:102A90000E94B92620E030E040E252E40E948824FF
:102AA0007B018C012396AEADBFAD23979D966D91B2
:102AB0007D918D919C91D097A60195010E948824CB
:102AC0009B01AC01C801B7010E9488240E947124B7
:102AD00023960EAD1FAD2397035C1F4F0E94F02479
:102AE000F80160837183828393832091A903222359
:102AF00009F0CEC02396AEADBFAD2397D5966D92AB
:102B00007D928D929C92D897FD0161AE72AE83AE9C
:102B100094AEEF5BFF4F1082118212821382AD01DF
:102B20004B5B5F4FFD0181899289A389B489FA01CA
:102B300080839183A283B383D8011D921D921D923D
:102B40001C9213972396EEADFFAD2397108A4DA5E7
:102B50005EA56FA578A989A59AA5ABA5BCA5841784
:102B60009507A607B70714F482E0808B4DA15EA1FC
:102B70006FA178A589A19AA1ABA1BCA1481759075B
:102B80006A077B0754F42396AEADBFAD23975096EA
:102B90008C915097886050968C934D8D5E8D6F8D83
:102BA00078A1898D9A8DAB8DBC8D481759076A071E
:102BB0007B0754F42396AEADBFAD239750968C910E
:102BC0005097806450968C934D895E896F89788D7B
:102BD00089899A89AB89BC89481759076A077B0795
:102BE00054F42396AEADBFAD239750968C91509779
:102BF000806850968C936596EEADFFAD6597F09327
:102C00009603E0939503A9E9B3E0FE01319680E1D4
:102C100001900D928150E1F7222311F00E942F10B4
:102C20000E941C1A7FCD10950095F094E094E11C51
:102C3000F11C011D111D38CDB095A0959095819581
:102C40009F4FAF4FBF4F2396EEADFFAD239714CDEF
:102C5000B095A095909581959F4FAF4FBF4FEECC0B
:102C6000D094C094B094A094A11CB11CC11CD11CE0
:102C70008ECCAE962CAD3DAD4EAD5FADAE970E9405
:102C8000882420E034E244E759E40E94B92663CE68
:102C900060912A0570912B0580912C0590912D054E
:102CA000A20191010E9488248B019C0123968EAD84
:102CB0009FAD2397A801B9010E94710B29813A8128
:102CC0004B815C8129A73AA74BA75CA74091990348
:102CD00050919A0360919B0370919C034DA75EA74E
:102CE0006FA778AB6D817E818F8198856DA37EA360
:102CF0008FA398A780919D0390919E03A0919F031D
:102D0000B091A00389A39AA3ABA3BCA329853A855C
:102D10004B855C852D8F3E8F4F8F58A34091A1032B
:102D20005091A2036091A3037091A403498F5A8F1D
:102D30006B8F7C8F6D857E858F8598896D8B7E8B63
:102D40008F8B988F8091A5039091A603A091A703E4
:102D5000B091A803898B9A8BAB8BBC8B2091A90374
:102D6000F1CE1F930E94D81F982F8F3FE1F0209142
:102D7000DC03222321F09A30C1F09D30B1F0913272
:102D80008CF3892F81568A3148F5E22FF0E0E65521
:102D9000FC4F905290832F5F2093DC030E94D81F3A
:102DA000982F8F3F21F71F910895E22FF0E0E6550D
:102DB000FC4F10828AEA93E00E945105182F8091FF
:102DC000DD03882359F1123079F1133080F4112397
:102DD00081F58AE293E00E9459201DC0E22FF0E0C5
:102DE000E655FC4F90832F5F2093DC03BBCF13305D
:102DF00061F1143029F189EA92E00E945920612F93
:102E000070E0882777FD8095982F0E94FC2086EA45
:102E100092E00E9459201092DC03A4CF8FE293E04D
:102E20000E945920123089F68EEE92E00E945920BD
:102E3000F2CF113001F78FE093E00E945920EBCFE1
:102E400081EB92E00E945920E6CF8FEC92E00E9445
:102E50005920E1CF60E076E980E090E00E94831F96
:102E60008EE393E00E9459208BE393E00E94592067
:102E7000089584EF99EFACE3B4E480930805909350
:102E80000905A0930A05B0930B0580930C05909358
:102E90000D05A0930E05B0930F0580931005909338
:102EA0001105A0931205B093130581EC9AECA1E3F0
:102EB000B2E48093140590931505A0931605B09382
:102EC000170588E08093190580E090E0A0EFB3E457
:102ED00080931A0590931B05A0931C05B0931D05C4
:102EE00080931E0590931F05A0932005B0932105A4
:102EF0008AE999E9A9E9B0E480932605909327052A
:102F0000A0932805B09329058DEC9CECACECBDE3B7
:102F10008093220590932305A0932405B093250563
:102F200080E090E0A8E4B2E480932A0590932B051A
:102F3000A0932C05B0932D05089580E090E00E94A9
:102F40005203873631F08130A9F020E030E0C9012A
:102F5000089588E095E061E070E046E250E00E946C
:102F60007B0320E0892B09F421E081E0282730E071
:102F7000C901089588E095E061E070E04BE150E020
:102F80000E947B03892B09F38AE999E9A9E9B0E456
:102F90008093260590932705A0932805B0932905D3
:102FA00080E090E0A8E4B2E480932A0590932B059A
:102FB000A0932C05B0932D0521E030E0C8CF80E030
:102FC00090E067E60E945A0381E090E068E075E0D7
:102FD00046E250E00E94BA03089583E995E00E941A
:102FE00059208EE895E00E9459208BE895E00E94D8
:102FF000592085E895E00E9459206091080570915C
:10300000090580910A0590910B050E940F2285E722
:1030100095E00E9459208FE695E00E94592060912A
:103020000C0570910D0580910E0590910F050E9481
:103030000F228FE595E00E94592089E595E00E94D6
:1030400059206091100570911105809112059091A1
:1030500013050E940F2289E495E00E94592083E421
:1030600095E00E945920609114057091150580919A
:103070001605909117050E940F2281E395E00E94AA
:1030800059208BE295E00E9459206091190570E06B
:1030900080E090E00E94FC208EE095E00E945920A4
:1030A00088E095E00E94592060911A0570911B05F7
:1030B00080911C0590911D050E940F228AEE94E0DC
:1030C0000E94592084EE94E00E94592060911E05D0
:1030D00070911F0580912005909121050E940F227B
:1030E00086EC94E00E94592080EC94E00E945920E4
:1030F000609122057091230580912405909125050A
:103100000E940F228CEA94E00E94592086EA94E003
:103110000E9459206091260570912705809128050D
:10312000909129050E940F2288E894E00E9459207E
:1031300082E894E00E94592060912A0570912B0545
:1031400080912C0590912D050E940F228AE494E035
:103150000E94592081E494E00E9459200E94351A6F
:10316000AA2797FDA095BA2FBC01CD010E94FC2093
:1031700088E194E00E94592085ED93E00E94592057
:103180000895FC018630910509F45FC087309105F0
:10319000A4F08830910509F446C088309105D4F137
:1031A0008930910509F467C0E85EF34009F456C020
:1031B00081EC93E00E945920089584309105E1F15B
:1031C00085309105F4F497FDF3CFEE0FFF1FEE0F5E
:1031D000FF1FE85FFA4F408351836283738380E06F
:1031E00090E067E60E945A0381E090E068E075E0B5
:1031F00046E250E00E94BA038CEA93E00E94592014
:10320000089540931A0550931B0560931C05709315
:103210001D05E5CF409322055093230560932405B7
:1032200070932505DCCF40932605509327056093C6
:10323000280570932905D3CFCB01BA010E941C2722
:103240000E94F52460931905CACF40931E05509340
:103250001F056093200570932105C1CFCB01BA01F2
:1032600020E030E040E050E00E948424882379F0A0
:103270000E94311A0895DB01CA01BF7780932A05A5
:1032800090932B05A0932C05B0932D05A8CF0E94F9
:10329000331A089580E090E00E945203873609F4C3
:1032A0007AC0813009F487C082E593E00E945920FA
:1032B00084EF99EFACE3B4E480930805909309059B
:1032C000A0930A05B0930B0580930C0590930D0510
:1032D000A0930E05B0930F058093100590931105F0
:1032E000A0931205B093130581EC9AECA1E3B2E42C
:1032F0008093140590931505A0931605B0931705B8
:1033000088E08093190580E090E0A0EFB3E480931B
:103310001A0590931B05A0931C05B0931D0580937F
:103320001E0590931F05A0932005B09321058AE9FF
:1033300099E9A9E9B0E48093260590932705A09325
:103340002805B09329058DEC9CECACECBDE3809393
:10335000220590932305A0932405B093250580E0D2
:1033600090E0A8E4B2E480932A0590932B05A09303
:103370002C05B0932D0580E090E067E60E945A038B
:1033800081E090E068E075E046E250E00E94BA0318
:103390000E94ED17089588E095E061E070E046E254
:1033A00050E00E947B03892B09F47ECF8DE893E0E7
:1033B0000E945920089588E095E061E070E04BE1BB
:1033C00050E00E947B03892B09F46ECF8AE999E9CA
:1033D000A9E9B0E48093260590932705A0932805DA
:1033E000B093290580E090E0A8E4B2E480932A0538
:1033F00090932B05A0932C05B0932D05D7CFE1E03A
:10340000F1E0808180648083279A089597FD07C04A
:103410002F988091020180648093020108952F9A71
:10342000809102018064809302010895E2E0F1E05E
:1034300080818F7B80830895EFE6F0E08081826059
:10344000808308951F920F920FB60F9211248F93CD
:1034500081B38A7C81BB8F910F900FBE0F901F901C
:10346000189544980895449A08953C9904C020E022
:1034700030E0C901089588B182958F708095817080
:10348000282F30E0C9010895603020E0720721E064
:10349000820720E0920708F45CC0603020E07207E9
:1034A00028E0820720E0920778F1603020E0720780
:1034B00020E4820720E0920708F451C0603020E049
:1034C000720720E0820721E0920708F46DC06030A7
:1034D00020E0720720E0820724E0920708F071C024
:1034E0002AE096958795779567952A95D1F7FB0100
:1034F0009B0140E050E08AE0220F331F441F551F1C
:103500008A95D1F795E018C023E096958795779531
:1035100067952A95D1F7FB019B0140E050E0220F0F
:10352000331F441F551F220F331F441F551F220FE7
:10353000331F441F551F92E080918100887F982B94
:1035400090938100F0938900E0938800B901CA014B
:103550000895FB019B0140E050E091E0EDCFB6E023
:103560009695879577956795BA95D1F7FB019B015D
:1035700040E050E0220F331F441F551F220F331F1E
:10358000441F551F220F331F441F551F220F331F87
:10359000441F551F220F331F441F551F220F331F77
:1035A000441F551F93E0C8CFBB27A92F982F872F03
:1035B000FC01A0E0B0E02227382F492F5A2F94E0D9
:1035C000BBCFEFEFFFEF20E03CEF40E050E095E0B5
:1035D000B3CF9C0181B3857381BB2115310599F06F
:1035E00095E240E654E081B38A7C816081BB892FFB
:1035F0008A95F1F781B38A7C81BBFA013197F1F7A3
:103600002150304081F708959C0181B38573826019
:1036100081BB2115310599F095E240E654E081B374
:103620008A7C816081BB892F8A95F1F781B38A7C7E
:1036300081BBFA013197F1F72150304081F70895AD
:103640009C0181B3857381BB2115310599F095E209
:1036500040E654E081B38A7C846081BB892F8A95DF
:10366000F1F781B38A7C81BBFA013197F1F72150E0
:10367000304081F708959C0181B38573886081BBD8
:103680002115310599F095E240E654E081B38A7C3A
:10369000846081BB892F8A95F1F781B38A7C81BBD5
:1036A000FA013197F1F72150304081F7089511B8B0
:1036B00082E084B917B81AB81DB89FE890BB13BA56
:1036C00010920101109204013FEC3093070120EFAA
:1036D00020930A018CE982B982E285B983E188B935
:1036E0009BB980E38EB991BB83E284BB83E0809376
:1036F0000201809305013093080120930B01089586
:1037000007C083B7816083BF889583B78E7F83BFEF
:103710000E94220A892BA9F708959B01AC01203B46
:1037200084E0380780E0480780E0580740F464ED03
:1037300070E320E035E34CE050E093E015C060E03A
:1037400070E788E399E30E94C127C901DA0180305C
:1037500020E0920721E0A20720E0B207C0F4BC01FC
:103760009C0140E050E091E080918100887F982B9F
:103770009093810070938900609388002093F803F0
:103780003093F9034093FA035093FB03089580307C
:1037900020E0920728E0A20720E0B207C8F423E067
:1037A000B695A795979587952A95D1F7BC019C0169
:1037B00040E050E0220F331F441F551F220F331FDC
:1037C000441F551F220F331F441F551F92E0CCCFBB
:1037D00026E0B695A795979587952A95D1F7BC01D0
:1037E0009C0140E050E0220F331F441F551F220F61
:1037F000331F441F551F220F331F441F551F220F15
:10380000331F441F551F220F331F441F551F220F04
:10381000331F441F551F93E0A7CF1F920F920FB67F
:103820000F920BB60F921124EF92FF920F931F93FA
:103830002F933F934F935F936F937F938F939F93B8
:10384000AF93BF93CF93DF93EF93FF930E945323E4
:10385000892B09F0AAC18091F6039091F703892B77
:1038600009F0A3C189B190E08F709070892B09F0A5
:10387000B5C191B38091E1038A7C9573892B81BB9B
:1038800081B38A7C9091E003892B81BB80911905DB
:10389000880F845081958093B200B89A81E090E0BF
:1038A0009093F7038093F6037894E091DE03F09110
:1038B000DF03309709F4E1C180898093E10310921E
:1038C000E0032091E2033091E3034091E40350913F
:1038D000E50380819181A281B381280F391F4A1F9E
:1038E0005B1F2093E2033093E3034093E403509380
:1038F000E50312161306140615060CF097C181E0B5
:103900008093E003E188F288038914892E193F0926
:10391000400B510B2093E2033093E3034093E40305
:103920005093E5032091E6033091E7034091E803CB
:103930005091E90384819581A681B781280F391FB1
:103940004A1F5B1F2093E6033093E7034093E8038D
:103950005093E90312161306140615068CF4809191
:10396000E00384608093E0032E193F09400B510B64
:103970002093E6033093E7034093E8035093E90371
:103980002091EA033091EB034091EC035091ED0359
:1039900080859185A285B385280F391F4A1F5B1F3B
:1039A0002093EA033093EB034093EC035093ED0331
:1039B00012161306140615068CF48091E00380613C
:1039C0008093E0032E193F09400B510B2093EA032B
:1039D0003093EB034093EC035093ED032091EE03FF
:1039E0003091EF034091F0035091F1038485958568
:1039F000A685B785280F391F4A1F5B1F2093EE034A
:103A00003093EF034093F0035093F1031216130623
:103A1000140615068CF48091E00380628093E00325
:103A20002E193F09400B510B2093EE033093EF0307
:103A30004093F0035093F1038091F2039091F303CC
:103A4000A091F403B091F5030196A11DB11D8093DF
:103A5000F2039093F303A093F403B093F5038E1550
:103A60009F05A007B10708F0E6C08091E1039AE046
:103A700089278093E1032091F8033091F903409165
:103A8000FA035091FB038091FC039091FD03A091F8
:103A9000FE03B091FF03280F391F4A1F5B1F2093BD
:103AA000FC033093FD034093FE035093FF03213842
:103AB0000AE1300706E0400700E0500708F471C053
:103AC00020583A41464050402093FC033093FD0378
:103AD0004093FE035093FF03E091DE03F091DF0378
:103AE000309709F45EC02091F2033091F3034091C6
:103AF000F4035091F503EF5BFF4F80819181A28128
:103B0000B381E154F040281739074A075B0708F4EE
:103B100068C0EB5BFF4F80819181A281B381E55446
:103B2000F04082179307A407B50708F08BC0FD96F5
:103B30006081718182819381FD9720910004309191
:103B40000104409102045091030462177307840733
:103B5000950780F479018A01E61AF70A080B190B18
:103B6000E0920004F0920104009302041093030415
:103B7000A801970181AD92ADA3ADB4AD2817390767
:103B80004A075B0750F48093000490930104A093CC
:103B90000204B09303049C01AD01CA01B9010E9463
:103BA0008D1B1092F7031092F603FF91EF91DF91B6
:103BB000CF91BF91AF919F918F917F916F915F91C5
:103BC0004F913F912F911F910F91FF90EF900F9088
:103BD0000BBE0F900FBE0F901F9018951092DD0333
:103BE000E4CFFD9680819181A281B381FD972091E0
:103BF0000004309101044091020450910304280F05
:103C0000391F4A1F5B1F2093000430930104409327
:103C100002045093030485899689A789B08D821781
:103C20009307A407B50708F0B8CFADCFE188F288B5
:103C30000389148977CE1092DF031092DE030E946D
:103C4000090A13CF258936894789508D8091000450
:103C500090910104A0910204B09103042817390740
:103C60004A075B0709F49DCF2093000430930104B9
:103C7000409302045093030490CF0E94220AEC0167
:103C80009093DF038093DE03009709F452C06DA97F
:103C90007EA98FA998AD609300047093010480936E
:103CA0000204909303041092FC031092FD031092FF
:103CB000FE031092FF030E948D1B89899A89AB89AC
:103CC000BC89B595A79597958795B095A095909542
:103CD00081959F4FAF4FBF4F8093E2039093E303D3
:103CE000A093E403B093E5038093E6039093E70386
:103CF000A093E803B093E9038093EA039093EB0366
:103D0000A093EC03B093ED038093EE039093EF0345
:103D1000A093F003B093F1031092F2031092F30317
:103D20001092F4031092F503E091DE03F091DF03AB
:103D3000C3CD80916F008D7F80936F001092E00360
:103D400094CE1092DD03F8948DEC95E00E945920FA
:103D50004B9966C0489941C045E220E634E0049999
:103D600012C081B3857381BB81B38A7C816081BBC2
:103D7000842F8A95F1F781B38A7C81BBC9010197B1
:103D8000F1F7049BEECF45E220E634E0909B0CC0B7
:103D9000789489B190E08F709070892BB1F08FE9A1
:103DA00095E00E945920089581B3857381BB81B34A
:103DB0008A7C846081BB842F8A95F1F781B38A7CE9
:103DC00081BBC9010197F1F7E1CF81E08093DD0369
:103DD00088EB95E00E94592008951092DD0380EE53
:103DE00095E00E94592081B38573886081BB20E0F3
:103DF00030E065E240E654E081B38A7C846081BBB8
:103E0000862F8A95F1F781B38A7C81BBCA0101971D
:103E1000F1F72F5F3F4F83E0283E380769F79CCFCB
:103E20001092DD0386ED95E00E94592081B38573E1
:103E3000826081BB20E030E065E240E654E081B37F
:103E40008A7C816081BB862F8A95F1F781B38A7C59
:103E500081BBCA010197F1F72F5F3F4F83E0283EF6
:103E6000380769F777CF80B3856380BB80B38A6CEE
:103E700080BB81B38A7C81BB3C9A449AA1E8B0E0C4
:103E80008C918F7E8C938C9188608C93E0E8F0E02D
:103E900080818D7F808380818E7F808380818F73FE
:103EA000808380818F7C80831092B00082E0809339
:103EB000B100E0E7F0E08081816080838C91887FB1
:103EC00082608C9380E29EE49093890080938800C6
:103ED00080E091E7A2E0B0E08093F8039093F903CB
:103EE000A093FA03B093FB03EFE6F0E080818D7FAF
:103EF00080831092FC031092FD031092FE03109237
:103F0000FF0378940895EF92FF920F931F937B0124
:103F10008C0122E030E040E050E00E94E327205C8A
:103F20003D4B404F5F4FCA01B901A80197010E9464
:103F3000C127C901DA010197A109B109292F3A2F37
:103F40004B2F55270196A11DB11D2093C50081500F
:103F50008093C400E0ECF0E080818D7F8083E1EC11
:103F6000F0E08081806180838081886080838081AF
:103F7000806880831F910F91FF90EF900895982F94
:103F80008091C00085FFFCCF9093C600089580917A
:103F900004049091050480509F4F209106043091B5
:103FA0000704821B930B60E071E00E94AE27089526
:103FB00040910604509107048091040490910504F7
:103FC0008417950789F0FA01E85FFB4F2081CA0149
:103FD000019660E071E00E94AE2790930704809301
:103FE000060430E0C90108952FEF3FEFC90108959D
:103FF0008091060490910704909305048093040433
:1040000008951F920F920FB60F920BB60F921124C4
:104010002F933F934F935F936F937F938F939F93D0
:10402000AF93BF93EF93FF934091C600E0910404D8
:10403000F0910504CF01019660E071E00E94AE2787
:104040009C0180910604909107042817390739F0E4
:10405000E85FFB4F40833093050420930404FF91F5
:10406000EF91BF91AF919F918F917F916F915F91F0
:104070004F913F912F910F900BBE0F900FBE0F905D
:104080001F901895982F8091C00085FFFCCF9093CA
:10409000C6000895FC019081992351F031968091DA
:1040A000C00085FFFCCF9093C60090819923B1F7A3
:1040B0000895FC019491992351F031968091C000AC
:1040C00085FFFCCF9093C60094919923B1F7089592
:1040D0002F923F924F925F926F927F928F929F9218
:1040E000AF92BF92CF92DF92EF92FF920F931F9306
:1040F000DF93CF93CDB7DEB7A0970FB6F894DEBFAE
:104100000FBECDBF6B017C0129013A01611571051C
:104110008105910509F450C08824992454011E0199
:104120000894211C311C8101080D191DC701B6011D
:10413000A30192010E94C127F80160830894811CA9
:10414000911CA11CB11CC701B601A30192010E94E0
:10415000C127C901DA016C017D01C114D104E10458
:10416000F10409F781149104A104B10461F19101F2
:10417000280D391DD501C4010197A109B109AC0170
:1041800048195909FA01E20FF31FE081EA3090F46F
:10419000E05D8091C00085FFFCCFE093C600215018
:1041A00030402216330679F0FA01E20FF31FE08166
:1041B000EA3070F3E95CEDCF8091C00085FFFCCF61
:1041C00080E38093C600A0960FB6F894DEBF0FBEC2
:1041D000CDBFCF91DF911F910F91FF90EF90DF90B6
:1041E000CF90BF90AF909F908F907F906F905F9097
:1041F0004F903F902F9008956F927F928F929F9251
:10420000AF92BF92CF92DF92EF92FF920F931F93E4
:10421000DF93CF93CDB7DEB7A0970FB6F894DEBF8C
:104220000FBECDBF9B01AC0197FD78C069017A013B
:10423000211531054105510509F454C088249924FC
:1042400054013E010894611C711C8301080D191D65
:10425000C701B6012AE030E040E050E00E94C127EB
:10426000F80160830894811C911CA11CB11CC7013A
:10427000B6012AE030E040E050E00E94C127C901C9
:10428000DA016C017D01C114D104E104F104E9F605
:1042900081149104A104B10461F19301280D391D29
:1042A000D501C4010197A109B109AC014819590907
:1042B000FA01E20FF31FE081EA3090F4E05D8091B3
:1042C000C00085FFFCCFE093C6002150304062164D
:1042D000730679F0FA01E20FF31FE081EA3070F320
:1042E000E95CEDCF8091C00085FFFCCF80E3809337
:1042F000C600A0960FB6F894DEBF0FBECDBFCF911B
:10430000DF911F910F91FF90EF90DF90CF90BF90C2
:10431000AF909F908F907F906F9008958091C00094
:1043200085FFFCCF8DE28093C60050954095309577
:1043300021953F4F4F4F5F4F79CFEF92FF920F93F1
:104340001F93DF93CF93CDB7DEB7A0970FB6F89446
:10435000DEBF0FBECDBF9B01AC01611571058105AC
:10436000910509F448C0EE24FF248701BE016F5F68
:104370007F4FFB01EE0DFF1DDA01C90181709070C6
:10438000A070B07080830894E11CF11C011D111D08
:1043900056954795379527952115310541055105C6
:1043A00041F7E114F1040105110561F19B012E0DA6
:1043B0003F1DD801C7010197A109B109AC014E19F0
:1043C0005F09FA01E20FF31FE081EA3090F4E05D4B
:1043D0008091C00085FFFCCFE093C60021503040A3
:1043E0006217730779F0FA01E20FF31FE081EA30F8
:1043F00070F3E95CEDCF8091C00085FFFCCF80E3D6
:104400008093C600A0960FB6F894DEBF0FBECDBF56
:10441000CF91DF911F910F91FF90EF9008952F9210
:104420003F924F925F926F927F928F929F92AF9244
:10443000BF92CF92DF92EF92FF920F931F93DF9381
:10444000CF93CDB7DEB7A4970FB6F894DEBF0FBEFB
:10445000CDBFAE014F5F5F4F0E9486261B012C012E
:1044600069817A818B819C810E94F0249B01AC013F
:1044700097FDD5C069017A01211531054105510526
:1044800009F4C1C0882499245401A5E06A2E712C36
:104490006C0E7D1E8301080D191DC701B6012AE0AF
:1044A00030E040E050E00E94C127F80160830894AA
:1044B000811C911CA11CB11CC701B6012AE030E08F
:1044C00040E050E00E94C127C901DA016C017D0182
:1044D000C114D104E104F104E9F681149104A104AA
:1044E000B104F1F09301280D391DD501C4010197E4
:1044F000A109B109AC0148195909FA01E20FF31FEA
:10450000E081EA3008F0BAC0E05D8091C00085FF2C
:10451000FCCFE093C600215030402615370569F7DF
:104520008091C00085FFFCCF8EE28093C600C2015F
:10453000B10120E030E04AE754E40E94B9260E942D
:104540001C270E94F0246B017C0197FD99C0C114C7
:10455000D104E104F10409F471C0882499245401C0
:10456000F5E06F2E712C6C0E7D1E8301080D191D58
:10457000C701B6012AE030E040E050E00E94C127C8
:10458000F80160830894811C911CA11CB11CC70117
:10459000B6012AE030E040E050E00E94C127C901A6
:1045A000DA016C017D01C114D104E104F104E9F6E2
:1045B00081149104A104B10409F447C09301280DAA
:1045C000391DD501C4010197A109B109AC014819F0
:1045D0005909FA01E20FF31FE081EA3090F4E05D3F
:1045E0008091C00085FFFCCFE093C6002150304091
:1045F0002615370551F1FA01E20FF31FE081EA3089
:1046000070F3E95CEDCF8091C00085FFFCCF80E3C3
:104610008093C6008091C00085FF82CF85CF8091B6
:10462000C00085FFFCCF8DE28093C6005095409579
:10463000309521953F4F4F4F5F4F1CCF8091C00069
:1046400085FFFCCF80E38093C600A4960FB6F89454
:10465000DEBF0FBECDBFCF91DF911F910F91FF90B5
:10466000EF90DF90CF90BF90AF909F908F907F9012
:104670006F905F904F903F902F900895E95C45CFE9
:10468000F094E094D094C094C11CD11CE11CF11CA6
:104690005ECFEAE0F1E08081806280833898409AC2
:1046A0003998419A089586B18170089586B18270D3
:1046B00008950F931F938C018AEE95E00E94592074
:1046C0000130110541F080910B018F7D80930B012A
:1046D0001F910F91089580910B01806280930B01CF
:1046E0001F910F9108955798579AEAE0F1E0808161
:1046F0008061808308958AB1807808950F931F9315
:104700008C0186EF95E00E9459200130110541F09F
:1047100080910B018F7E80930B011F910F91089563
:1047200080910B01806180930B011F910F9108957F
:1047300025982D9A3C98449A6C98749A9D98A59ABD
:10474000A4E0B1E08C918E7F8C93E5E0F1E0808174
:10475000816080838C918D7F8C9380818260808347
:10476000A1E0B1E08C918E7F8C93E2E0F1E080815A
:10477000816080838C918D7F8C9380818260808327
:10478000089583B18072089582B3807208958091F4
:104790000301827008958CB18071089586B1807193
:1047A00008958091000181700895809103018170C6
:1047B000089583B180720895089580E0089586E099
:1047C00096E00E94592008955058BB27AA270ED082
:1047D00011C202D230F007D220F031F49F3F11F421
:1047E0001EF4D2C10EF4E095E7FB9FC1E92F13D26E
:1047F00080F3BA17620773078407950718F071F4FE
:104800009EF542C20EF4E0950B2EBA2FA02D0B019F
:10481000B90190010C01CA01A0011124FF27591B05
:1048200099F0593F50F4503E68F11A16F040A22F0B
:10483000232F342F4427585FF3CF4695379527957C
:10484000A795F0405395C9F77EF41F16BA0B620B7B
:10485000730B840BBAF09150A1F0FF0FBB1F661FC2
:10486000771F881FC2F70EC0BA0F621F731F841F05
:1048700048F4879577956795B795F7959E3F08F02B
:10488000B3CF9395880F08F09927EE0F97958795EA
:104890000895DF93DD27B92FBF7740E85FE3161651
:1048A000170648075B0710F4D92FF9D19F938F9310
:1048B0007F936F9323D3ECE1F2E069D19BD12F91E9
:1048C0003F914F915F9161D2DD2349F09058A2EA68
:1048D0002AED3FE049EC5FE3D0785D2787DFDF9189
:1048E00089C1BBD180F09F3740F491110EF4CDC146
:1048F00060E070E080E89FE3089526F01B16611DDC
:10490000711D811D18C132C1ECD008F481E00895F9
:104910000CD070C168D140F05FD130F021F45F3F1E
:1049200019F003C15111B1C12FC175D198F3992369
:10493000C9F35523B1F3951B550BBB27AA27621763
:104940007307840738F09F5F5F4F220F331F441FA8
:10495000AA1FA9F333D00E2E3AF0E0E830D09150E0
:104960005040E695001CCAF729D0FE2F27D0660FCD
:10497000771F881FBB1F261737074807AB07B0E80C
:1049800009F0BB0B802DBF01FF2793585F4F2AF022
:104990009E3F510568F0C9C078C15F3FECF3983E77
:1049A000DCF3869577956795B795F7959F5FC9F77F
:1049B000880F911D9695879597F90895E1E0660F08
:1049C000771F881FBB1F621773078407BA0720F081
:1049D000621B730B840BBA0BEE1F88F7E0950895EA
:1049E00004D06894B11151C108951DD188F09F572A
:1049F00090F0B92F9927B751A0F0D1F0660F771F2B
:104A0000881F991F1AF0BA95C9F712C0B13081F00A
:104A10003BD1B1E0089538C1672F782F8827B85F60
:104A200039F0B93FCCF3869577956795B395D9F76B
:104A30003EF490958095709561957F4F8F4F9F4F75
:104A40000895E89409C097FB3EF490958095709581
:104A500061957F4F8F4F9F4F9923A9F0F92F96E9CA
:104A6000BB279395F695879577956795B795F1113F
:104A7000F8CFFAF4BB0F11F460FF1BC06F5F7F4FDC
:104A80008F4F9F4F16C0882311F096E911C07723EE
:104A900021F09EE8872F762F05C0662371F096E8F7
:104AA000862F70E060E02AF09A95660F771F881FC6
:104AB000DAF7880F9695879597F90895CED080F00C
:104AC0009F3740F491110EF0E0C060E070E080E8A4
:104AD0009FEB089526F41B16611D711D811D2BC0CF
:104AE00045C0990F0008550FAA0BE0E8FEEF161617
:104AF0001706E807F907C0F012161306E407F507D2
:104B000098F0621B730B840B950B39F40A2661F045
:104B1000232B242B252B21F408950A2609F4A140E8
:104B2000A6958FEF811D811D089597F99F6780E8F5
:104B300070E060E00895882371F4772321F09850A5
:104B4000872B762F07C0662311F499270DC090514B
:104B5000862B70E060E02AF09A95660F771F881F19
:104B6000DAF7880F9695879597F908959F3F31F06A
:104B7000915020F4879577956795B795880F911D8B
:104B80009695879597F908959FEF80EC0895DF93A8
:104B9000CF931F930F93FF92EF92DF927B018C01D3
:104BA000689405C0DA2EEF01F0D0FE01E894A591DB
:104BB0002591359145915591AEF3EF0117DEFE0138
:104BC0009701A801DA9479F7DF90EF90FF900F91A9
:104BD0001F91CF91DF91089500240A9416161706AD
:104BE00018060906089500240A94121613061406DE
:104BF00005060895092E0394000C11F4882352F041
:104C0000BB0F40F4BF2B11F460FF04C06F5F7F4FF8
:104C10008F4F9F4F089557FD9058440F551F59F0DF
:104C20005F3F71F04795880F97FB991F61F09F3F99
:104C300079F087950895121613061406551FF2CFC2
:104C40004695F1DF08C0161617061806991FF1CF12
:104C500086957105610508940895E5DFA0F0BEE72B
:104C6000B91788F4BB279F3860F41616B11D672F5B
:104C7000782F8827985FF7CF869577956795B11D30
:104C800093959639C8F30895E894BB27662777274C
:104C9000CB0197F9089525DF08F48FEF08959B0164
:104CA000AC0160E070E080E89FE332CEBCDF58F1F9
:104CB0009E5758F19851A0F0E9F0983020F5092E50
:104CC0009927660F771F881F991F0A94D1F712C082
:104CD000062E672F782F8827985F11F4000C07C0E5
:104CE000993FB4F38695779567959395D9F7611DAC
:104CF000711D811D3EF490958095709561957F4F53
:104D00008F4F9F4F08956894C0CFBECFFA01DC014A
:104D1000AA0FBB1F9B01AC01BF5728F422273327E2
:104D2000442750781FC0B75188F4AB2F0024469514
:104D300037952795011CA395D2F3002069F0220F27
:104D4000331F441FB395DAF30DD03ECD61307105AA
:104D5000A0E88A07B94630F49B01AC0166277727A3
:104D600088279078309621F02083318342835383C3
:104D700008950BD03FCF30DF28F035DF18F09523B2
:104D800009F0D3CE01CF112480CF45DFA0F3959F4A
:104D9000D1F3950F50E0551F629FF001729FBB2722
:104DA000F00DB11D639FAA27F00DB11DAA1F649FCE
:104DB0006627B00DA11D661F829F2227B00DA11D81
:104DC000621F739FB00DA11D621F839FA00D611D07
:104DD000221F749F3327A00D611D231F849F600D28
:104DE000211D822F762F6A2F11249F5750408AF061
:104DF000E1F088234AF0EE0FFF1FBB1F661F771FED
:104E0000881F91505040A9F79E3F510570F08DCEFC
:104E10003CCF5F3FECF3983EDCF386957795679542
:104E2000B795F795E7959F5FC1F7FE2B880F911D0A
:104E30009695879597F90895F6DEE0F09E37D8F0BD
:104E40009639B8F49E3848F4672F782F8827985FF2
:104E5000F9CF86957795679593959539D0F3B62FC9
:104E6000B1706B0F711D811D20F487957795679543
:104E7000939561CE7BCE09CF11F40EF485CE76CE1C
:104E8000D2DED0F39923D9F3CEF39F57550B87FF8A
:104E90003FD00024A0E640EA9001805856959795AF
:104EA00028F4805C660F771F881F20F026173707CD
:104EB000480730F4621B730B840B202931294A2BDD
:104EC000A69517940794202531254A2758F7660F91
:104ED000771F881F20F026173707480730F4620B2A
:104EE000730B840B200D311D411DA09581F7B90175
:104EF000842F9158880F9695879508959B01AC0152
:104F000038CFABDE20F09F3708F4BFCE14CE2ECEC4
:104F100091505040660F771F881FD2F70895629F07
:104F2000D001739FF001829FE00DF11D649FE00DA1
:104F3000F11D929FF00D839FF00D749FF00D659F02
:104F4000F00D9927729FB00DE11DF91F639FB00D01
:104F5000E11DF91FBD01CF011124089597FB092E12
:104F600007260AD077FD04D049D006D000201AF4D5
:104F7000709561957F4F0895F6F7909581959F4FB5
:104F80000895A1E21A2EAA1BBB1BFD010DC0AA1F8A
:104F9000BB1FEE1FFF1FA217B307E407F50720F0A2
:104FA000A21BB30BE40BF50B661F771F881F991F1D
:104FB0001A9469F760957095809590959B01AC0166
:104FC000BD01CF01089597FB092E05260ED057FD90
:104FD00004D0D7DF0AD0001C38F4509540953095A6
:104FE00021953F4F4F4F5F4F0895F6F7909580956D
:104FF000709561957F4F8F4F9F4F0895AA1BBB1BE4
:1050000051E107C0AA1FBB1FA617B70710F0A61BC8
:10501000B70B881F991F5A95A9F780959095BC01E9
:10502000CD0108958F929F92AF92BF92CF92DF925F
:10503000EF92FF920F931F93CF93DF93EC015B01ED
:105040006115710519F0FB0191838083F9908F2D13
:1050500090E00E948029892BC9F7FDE2FF1621F418
:10506000F990EE24E39405C02BE2F21609F4F990CE
:10507000EE248E0101501040C80163E176E043E068
:1050800050E00E948829892B01F58E010E5F1F4F89
:10509000C80166E176E045E050E00E948829892B4E
:1050A00019F48E01095F1F4FA114B10419F0F50125
:1050B00011830083E0FC04C070E090E080E814C03D
:1050C00070E090E080E86FEF08C1C8016BE176E026
:1050D00043E050E00E948829892B69F4A114B104AF
:1050E00029F470E090E080EC6FE7F7C02296F501BC
:1050F000D183C083F6CF8824992440E050E060E05B
:1051000070E0EF2DE053EA30A0F5F2E0EF2A8E2DAB
:1051100090E09C0128703070E2FE06C0232B79F5E8
:105120000894811C911C2BC0232B19F00894810832
:105130009108DB01CA0112E0880F991FAA1FBB1F4B
:105140001A95D1F7480F591F6A1F7B1F440F551F2F
:10515000661F771F4E0F511D611D711D483929E9CA
:10516000520729E9620729E1720748F084E0E82A3A
:1051700006C0EE3F31F4E3FC39C098E0E92AF9902B
:10518000C0CFE53311F0E53189F529912D3219F4BD
:10519000E0E1EE2A05C02B3219F081E090E003C077
:1051A000299182E090E0E22FE053EA3018F0C81B2A
:1051B000D90B1CC020E030E0FCE020383F075CF455
:1051C000C901880F991F880F991F280F391F220FB7
:1051D000331F2E0F311DE991E053EA3068F3E4FEEE
:1051E00003C0309521953F4F820E931ECE2CDD24B7
:1051F000E1FE07C0A114B10421F02197F501D1838C
:10520000C083CB01BA010E9421257B018C01F3E010
:10521000CF22DD2423E0C216D10421F417FB109520
:1052200017F9109557016801C801B70120E030E077
:1052300040E050E00E948424882309F44AC097FE8D
:105240000DC022E3E22E26E0F22E90948194910884
:105250009394C0E2D0E000E010E012C09AE4E92E9E
:1052600096E0F92EF6CFF7012591359145915491AD
:10527000C601B5010E94B9265B016C018C1A9D0A1A
:105280008C169D0684F7D595C7950F5F1F4F063086
:10529000110529F08CEF9FEFE80EF91EF1CFC50143
:1052A000D6017C018D018C2D880F8D2D881F8F3F9D
:1052B00051F0C601B50120E030E040E050E00E942E
:1052C0008424882331F482E290E090932F05809328
:1052D0002E057E2D9F2D802F612F272F392F482FB0
:1052E000562FB901CA01DF91CF911F910F91FF9005
:1052F000EF90DF90CF90BF90AF909F908F900895E8
:1053000091111EC0803219F089508550D0F7089550
:10531000FB01DC014150504088F08D9181341CF03C
:105320008B350CF4805E659161341CF06B350CF4A8
:10533000605E861B611171F3990B0895881BFCCF89
:0A534000992788270895F894FFCFFD
:00000001FF
