:100000000C940F030C9430030C9430030C943003C5
:100010000C9430030C9430030C9430030C94300394
:100020000C9430030C9430030C9430030C94300384
:100030000C9430030C9430030C9430030C94BE17D2
:100040000C9430030C94C11A0C9430030C943003BC
:100050000C94E3260C9430030C9430030C9400268B
:100060000C9430030C940D1F0C9430030C9430034B
:100070000C9430030C9430030C9430030C94300334
:100080000C946A210C9430030C9430030C943003CC
:100090000C9430030C9430030C9430030C94300314
:1000A0000C9430030C9430030C9430030C94300304
:1000B0000C9430030C9430030C9430030C943003F4
:1000C0000C9430030C9430030C9430030C943003E4
:1000D0000C9430030C9430030C9430030C943003D4
:1000E0000C943003950791078D0789077D07220738
:1000F00022072207220722072207220722072207B8
:100100002207220722078007B607AD07A907A6071F
:10011000220722072207220722072207A307220716
:10012000A307220722072207220722072207220706
:100130002207220722072207220722072207220777
:100140002207220722072207220722072207A007E9
:100150002207220722072207220722072207220757
:100160002207220722072207220722072207220747
:100170002207220722072207220722072207220737
:10018000220722079C0722072207220722072207AD
:1001900022072207220722079807C907C607C207B6
:1001A000BF07DE07DE07DA07D307CC0711082207EF
:1001B00022070A080508FE07F707F007E907E20724
:1001C00043083C0835082E08270820081B08160895
:1001D0006C08650860085908790722074A08DA0799
:1001E0005408220722072207220722072207220794
:1001F00022072207220722072207220722072207B7
:1002000022072207220722072207220722072207A6
:1002100022072207220722072207DA07084AD73BCC
:100220003BCE016E84BCBFFDC12F3D6C74319ABDC5
:1002300056833DDA3D00C77F11BED9E4BB4C3E91E9
:100240006BAAAABE000000803F595F484F4D450D84
:100250000A00585F484F4D450D0A00594C320D0AAF
:1002600000594C310D0A00584C320D0A00584C31DF
:100270000D0A000D0A006765745F62757379203D91
:1002800020000D0A00726F7461746564203D2000C7
:100290000D0A0076616375756D5F73746174652016
:1002A0003D20000D0A00686561645F6D6F76696EC0
:1002B00067203D20000D0A006865616420646F7747
:1002C0006E203D20000D0A006176725F6D696C6CD6
:1002D00069732829203D20000D0A00746F5F6D6945
:1002E0006C6C696D65746572732831303029203DFE
:1002F00020000D0A0050494E44206C696D697473EA
:10030000203D20000D0A00504F52544420203D2033
:10031000000D0A00444952454354494F4E5F504F27
:10032000525420203D20000D0A00444952454354B8
:10033000494F4E5F44445220203D20006572720AAE
:10034000006F6B0A006E686F0A006C696D0A006FBF
:100350006B0A0053746F726564206E657720736555
:100360007474696E670D0A00556E6B6E6F776E2040
:10037000706172616D657465720D0A002724783DA5
:1003800076616C75652720746F20736574207061C9
:1003900072616D65746572206F72206A7573742066
:1003A00027242720746F2064756D70206375727226
:1003B000656E742073657474696E67730D0A00202E
:1003C0002873746570706572733A2030203D206424
:1003D000697361626C65642C2031203D20656E611B
:1003E000626C6564290D0A002431303030203D20D4
:1003F0000020286D617820696E7374616E742063CB
:100400006F726E6572696E672073706565642063D4
:1004100068616E676520696E2064656C7461206D2B
:100420006D2F6D696E290D0A002439203D200020B2
:1004300028616363656C65726174696F6E20696EB3
:10044000206D6D2F7365635E32290D0A00243820FC
:100450003D200020286D6D2F617263207365676DEC
:10046000656E74290D0A002437203D200020286D78
:100470006D2F6D696E2064656661756C742073659F
:10048000656B2072617465290D0A002436203D20B9
:100490000020286D6D2F6D696E2064656661756C36
:1004A0007420666565642072617465290D0A0024F4
:1004B00035203D200020286D6963726F7365636F7E
:1004C0006E647320737465702070756C7365290D8C
:1004D0000A002434203D2000202873746570732F97
:1004E0006465672E2063290D0A002433203D200017
:1004F000202873746570732F6D6D207A290D0A00A2
:100500002432203D2000202873746570732F6D6D98
:100510002079290D0A002431203D20002028737401
:100520006570732F6D6D2078290D0A002430203DF1
:1005300020000D0A00302E37365042002456455216
:1005400053494F4E203D2000686F6D6520666169FC
:100550006C65640D0A00794C696D6974323A2069E2
:100560007320696E206C696D69740D0A00794C699D
:100570006D6974313A20697320696E206C696D6908
:10058000740D0A00784C696D6974323A20697320E1
:10059000696E206C696D69740D0A00784C696D692B
:1005A00074310D0A004865616420646F776E2065C0
:1005B00072726F720A0D006E6F0A007965730A001D
:1005C0004572726F723A204F53434F4B495251203C
:1005D0006661696C656420746F2061737365727401
:1005E0000A00494E46494E4954594E414ECDCCCC55
:1005F0003D0AD7233C17B7D13877CC2B329595E6F7
:10060000241FB14F0A000020410000C84200401CD6
:100610004620BCBE4CCA1B0E5AAEC59D74001124A8
:100620001FBECFEFD1E2DEBFCDBF00E00CBF12E0B6
:10063000A0E0B2E0E8E3F4E600E00BBF02C0079000
:100640000D92A630B107D9F717E0A6E0B2E001C0DD
:100650001D92A030B107E1F70E94BE0A0C941A3235
:100660000C940000249A0895892B11F42C98089575
:100670002C9A0895F999FECF92BD81BD81E08FBB80
:1006800080B50895F894F999FECF92BD81BD81E0BF
:100690008FBB90B59627892F862341F06F3F71F06D
:1006A00060BD84E08FBBF99A789408959923E1F3B3
:1006B00060BD84E28FBBF99A7894089584E18FBB82
:1006C000F99A78940895AF92BF92CF92DF92FF92F9
:1006D0000F931F93CF93DF936C018B015A01411548
:1006E000510559F1FF24C0E0D0E00DC021E0F80130
:1006F0006081F22EF60E0E9442032196CA15DB0598
:1007000061F00F5F1F4FCE018C0D9D1DFF2071F713
:100710002F2D221F2227221FEACFCC0EDD1EC6015D
:100720006F2D0E944203DF91CF911F910F91FF9097
:10073000DF90CF90BF90AF900895FF24F0CFFC01E1
:1007400041155105C9F1A0E020E030E0B1E0C90158
:10075000860F971FF999FECF92BD81BDBFBB90B5A3
:10076000AA2359F081E0A82FA90F90832F5F3F4F54
:100770002417350771F03196EACF8A2F881F882712
:10078000881FA82FA90F90832F5F3F4F241735078D
:1007900091F7620F731FF999FECF72BD61BD81E0C1
:1007A0008FBB80B520E030E0A81711F0C901089593
:1007B00021E030E0C9010895A0E0EDCF80932F0241
:1007C0006093300240933102089560930602709363
:1007D000070280930802909309020895609306022D
:1007E00070930702809308029093090208952F9254
:1007F0003F924F925F926F927F928F929F92AF92B1
:10080000BF92CF92DF92EF92FF920F931F93DF93ED
:10081000CF93CDB7DEB728970FB6F894DEBF0FBEE3
:10082000CDBF69837A838B839C832D833E834F83E3
:100830005887170128013501460120E030E040E8E3
:100840005FEB0E94902C882341F420901C02309092
:100850001D0240901E0250901F026D817E818F818B
:10086000988520E030E040E85FEB0E94902C8823E0
:1008700041F46090200270902102809022029090BA
:100880002302C201B10120E030E040E85FEB0E94AA
:10089000902C882341F4209024023090250240902F
:1008A000260250902702C401B30120E030E040E866
:1008B0005FEB0E94902C882341F460902802709096
:1008C000290280902A0290902B0200D000D08091C3
:1008D000180290911902A0911A02B0911B02EDB773
:1008E000FEB781839283A383B483168215826981C4
:1008F0007A818B819C812D813E814F815885820137
:100900007101640153010E949E1089819A81AB811B
:10091000BC8180931C0290931D02A0931E02B09391
:100920001F028D819E81AF81B885809320029093B4
:100930002102A0932202B09323022092240230923B
:10094000250240922602509227026092280270925D
:10095000290280922A0290922B02ADB7BEB716965A
:100960000FB6F894BEBF0FBEADBF28960FB6F89471
:10097000DEBF0FBECDBFCF91DF911F910F91FF90D2
:10098000EF90DF90CF90BF90AF909F908F907F902F
:100990006F905F904F903F902F900895AF92BF92CD
:1009A000CF92DF92EF92FF920F931F93DF93CF933B
:1009B0000F920F92CDB7DEB76C015B017A01FB019C
:1009C00000811181080F191FC801BE016F5F7F4FA1
:1009D0000E948930F70160837183828393838981C8
:1009E0009A8180179107A9F08C199D09F5019183CF
:1009F000808321E030E0C9010F900F90CF91DF910B
:100A00001F910F91FF90EF90DF90CF90BF90AF902C
:100A1000089581E080930A0220E030E0ECCF0F934C
:100A20001F93CF93DF93EC018B01D901ED91FC91E2
:100A30001197E40FF51FE081EE2339F0E883E154CC
:100A4000EA3158F082E080930A0220E030E0C901E8
:100A5000DF91CF911F910F9108958D919C911197E6
:100A600001968D939C93CA01B901A8010E94CE04FE
:100A7000009711F081E090E09C01C901DF91CF91D6
:100A80001F910F91089588E2EAE0F2E0DF011D92E4
:100A90008A95E9F76091A6067091A7068091A8064D
:100AA0009091A90620E030E040E752E40E94942CA7
:100AB00060931402709315028093160290931702AC
:100AC0006091AA067091AB068091AC069091AD063C
:100AD00020E030E040E752E40E94942C609318023A
:100AE0007093190280931A0290931B0210922F02A6
:100AF00091E09093300282E08093310290930E0255
:100B000008952F923F924F925F926F927F928F92B1
:100B10009F92AF92BF92CF92DF92EF92FF920F938C
:100B20001F93DF93CF93CDB7DEB7E7970FB6F89457
:100B3000DEBF0FBECDBF5C011B821A8280E090E059
:100B4000A0E0B0E088879987AA87BB87ACE02A2E0F
:100B5000312C2C0E3D1E80E1D101E82F1D92EA952B
:100B6000E9F7FCE1CF2ED12CCC0EDD1ED6011D9273
:100B70008A95E9F710920A02F5018081883209F41A
:100B800086C08F3209F46EC0843209F44AC019AAB3
:100B900018AAE2E06E2E712C6C0E7D1E74E0472EBA
:100BA000512C4C0E5D1E4E010894811C911CC401F9
:100BB000B201A50193010E940F05892B09F491C28E
:100BC0006C817D818E819F810E948D2F7B018C01A4
:100BD0000E94FC2C2981273409F438C1283408F0FC
:100BE00047C0243409F455C080910A028823F9F2E1
:100BF000E7960FB6F894DEBF0FBECDBFCF91DF9161
:100C00001F910F91FF90EF90DF90CF90BF90AF902A
:100C10009F908F907F906F905F904F903F902F901C
:100C2000089581E090E09B838A83D50111968C9191
:100C3000882359F18E010E5F1F4FC501B801AE0127
:100C4000485F5F4F0E94CE048A819B81F501E80FC7
:100C5000F91F208101969B838A832D3309F429C1D2
:100C600083E0C6CF8A819B8101969B838A838FCF45
:100C70002D3409F4E2C0243509F0B6CFC801B7011C
:100C80000E94012D60932C02AFCF0E949D1680E040
:100C9000AFCF8AB18AE293E00E94041E60B370E095
:100CA00080E090E00E94C31E87E293E00E94041E51
:100CB00084E193E00E94041E61B370E080E090E064
:100CC0000E94C31E81E193E00E94041EEBB087E006
:100CD00093E00E94041EFF2400E010E0C801B70169
:100CE0000E94C31E84E093E00E94041EE9B085EFD9
:100CF00092E00E94041EFF2400E010E0C801B7014A
:100D00000E94C31E82EF92E00E94041E8BED92E0CF
:100D10000E94041E80910D02882309F0ACC064E695
:100D200070E080E090E00E94A71E88ED92E00E94B3
:100D3000041E88EC92E00E94041E0E9448260E9435
:100D4000A71E85EC92E00E94041E88EB92E00E94B0
:100D5000041E0E94AE2090E0A0E0B0E0BC01CD01F6
:100D60000E94A71E85EB92E00E94041E86EA92E094
:100D70000E94041E0E94EF1890E0A0E0B0E0BC01C9
:100D8000CD010E94A71E83EA92E00E94041E83E91F
:100D900092E00E94041E0E94D62190E0A0E0B0E004
:100DA000BC01CD010E94A71E80E992E00E94041EB2
:100DB00085E892E00E94041E0E94B12090E0A0E02D
:100DC000B0E0BC01CD010E94A71E82E892E00E9423
:100DD000041E86E792E00E94041E0E94B817AA270C
:100DE00097FDA095BA2FBC01CD010E94A71E83E7F5
:100DF00092E00E94041E0E94F519882309F040C069
:100E00000E94B019882309F04FC00E9474198823EA
:100E100009F045C00E942F198823E1F50E94E918C6
:100E2000882399F50E94EC18882321F089E492E048
:100E30000E94041E80910A02DBCEE62FF72FED33CD
:100E4000F10588F083E080930A02F4CFE62FF72FB4
:100E5000EF35F105B8F7EE58FF4FEE0FFF1F059085
:100E6000F491E02D1994EF52FF4FEE0FFF1F059004
:100E7000F491E02D19946CEE79E080E090E053CF8E
:100E80008DE692E00E94041EBBCF82E592E00E94B4
:100E9000041EC8CF8BE592E00E94041EBFCF81E6FE
:100EA00092E00E94041EB6CF87E692E00E94041EE4
:100EB000ACCFC501B801AE014C5F5F4F0E94CE04BC
:100EC000EA81FB81EA0DFB1D8081882309F0C8CEF1
:100ED000688579858A859B850E94FC2CDC01CB0185
:100EE0004C815D816E817F810E94FA1580910A029A
:100EF0007FCE0E941A2480930A02E1E0E8AB74CE10
:100F000010922F02A1E0A0933002B2E0B093310220
:100F10006BCE93E090930B0267CE82E080930B023E
:100F200063CEF1E0F0930B025FCE10920B025CCE29
:100F3000F1E0F0930E0258CEE4E0E0930B0254CEC1
:100F4000B1E0B9AB51CEB2E0B8AB4ECE10920D02CB
:100F50004BCEA1E0A0930D0247CE81E080932F02FB
:100F600092E090933002109231023ECE10922F0206
:100F7000E2E0E0933002F1E0F093310235CE1092DE
:100F80000C0232CE91E090930C022ECE83E088AB1F
:100F90002BCE10920E0228CEEFEFFFEFF09311024E
:100FA000E093100221CE81E090E0909311028093B3
:100FB00010021ACEB2E0B0930F0216CEA1E0A093B9
:100FC0000F0212CE82E090E00E945620B1E0B8AB52
:100FD0000BCE81E090E00E945620A1E0A8AB04CEA9
:100FE00080E090E00E94562091E098ABFDCD80E03B
:100FF00090E00E94B72081E088ABF6CD81E090E0E0
:101000000E94B720F1E0F8ABEFCD109213021092DE
:101010001202EACD81E090E09093130280931202D5
:10102000E3CD1092110210921002DECD0E94DB235C
:10103000F1E0F8ABD9CD0E94ED23E1E0E8ABD4CDEF
:1010400080E090E00E94B421B1E0B8ABCDCD81E06A
:1010500090E00E94B421A1E0A8ABC6CD86E090E06C
:101060000E94562091E098ABBFCD85E090E00E94B1
:10107000562081E088ABB8CD84E090E00E945620F5
:10108000F1E0F8ABB1CD83E090E00E945620E1E0C2
:10109000E8ABAACDF6E0F0930A020E941F190E9465
:1010A000AB1D81E088ABA0CD0E94461591E098ABC6
:1010B0009BCD0E945B2480930A02B1E0B8AB94CD33
:1010C0000E94DB23A1E0A8AB8FCD0E941622809363
:1010D0000A0291E098AB88CD0E94762081E088AB2F
:1010E00083CD80910A02882309F082CD1B821A8267
:1010F00080E1D6011D928A95E9F7D101ECE1F2E099
:1011000080E101900D928150E1F71CAA1DAAB0E880
:10111000BEABEFEBEFAB1BAA1AAAC401B201A5014B
:1011200093010E940F05892B09F4EDC0CC80DD806E
:10113000EE80FF8080910D028823D9F4A7019601EB
:1011400009810D3419F10E3460F5083409F47AC0C0
:101150000934B8F5033409F48AC00634F1F68091F5
:101160000C02882309F4A9C02CAB3DAB4EAB5FAB9E
:10117000D4CFC701B60123E333E34BEC51E40E9423
:10118000C52E9B01AC0109810D34E9F620930602BE
:10119000309307024093080250930902A1E0A8ABE4
:1011A000BCCF033509F445C00435E8F40E3409F426
:1011B00053C0003509F0B1CFC886D986EA86FB86D0
:1011C000ACCF0C3408F0A9CFE02FF0E0E954F040A8
:1011D000EE0FFF1FEE0FFF1FE80DF91D238F348F59
:1011E000458F568F9ACF802F8855833008F095CF42
:1011F00080910E02882309F04CC0F9A9FF2309F061
:1012000048C010E008551040000F111F000F111FBB
:10121000080D191DD8011B966D917D918D919C91A2
:101220001E970E94F12BF801638774878587968744
:1012300074CFC701B6010E94FC2C70932E026093FC
:101240002D026BCFCA01B9010E94012D7BAB6AABA5
:1012500089E080930B0261CF20930602309307024E
:10126000409308025093090291E098AB56CF8091C9
:101270000E028823E9F4F9A9FF23D1F4688D798D52
:101280008A8D9B8D0E94F12B688F798F8A8F9B8F1F
:1012900044CFE02FF0E0E855F040EE0FFF1FEE0FD7
:1012A000FF1FE80DF91D238734874587568735CF03
:1012B000288F398F4A8F5B8F30CF80910B02882324
:1012C00089F4CA01B90120E030E040E752E40E940D
:1012D000942C609318027093190280931A029093D1
:1012E0001B021BCFCA01B90120E030E040E752E405
:1012F0000E94942C6093140270931502809316023E
:10130000909317020ACF80910A02882309F070CCCB
:101310008091100290911102009709F45DC04091F4
:101320002D0250912E02662757FD6095762F0E9460
:1013300085178091120290911302892B09F44FC0F6
:1013400081E090E00E943403B8A9B13009F463C091
:10135000B13008F049C080910B02813009F47AC0A5
:10136000813008F06FC000D000D06C857D858E85FF
:101370009F85288939894A895B89EC88FD880E898F
:101380001F89A88CB98CCA8CDB8C60901802709075
:10139000190280901A0290901B02ADB7BEB7119649
:1013A0006D927D928D929C92149716961C921E922D
:1013B00015970E949E10EDB7FEB736960FB6F894BB
:1013C000FEBF0FBEEDBFACE1B2E0F10180E10190E4
:1013D0000D928150E1F72ECD0E949517AACF80E0A3
:1013E00090E00E943403B0CFB23021F1B33059F70E
:1013F0006C857D858E859F85288939894A895B8999
:10140000EC88FD880E891F89A88CB98CCA8CDB8C6E
:101410000E94AA0CD8CF688579858A859B8520E0B3
:1014200030E04AE754E40E94C52E0E94012D0E943C
:101430002D0BC9CF0E942A0B80E1F10111928A95F0
:10144000E9F7C1CF893009F0BECF8AA99BA90E94D4
:101450009B17B9CF8C859D85AE85BF858CA79DA731
:10146000AEA7BFA7688879888A889B88EC88FD88A2
:101470000E891F89A88CB98CCA8CDB8C60910C02F8
:10148000662361F4909114029CABA0911502ADAB60
:10149000B0911602BEABE0911702EFAB00D000D0C6
:1014A0004DB65EB60894411C511C2CA93DA94EA90D
:1014B0005FA9C901DA01EDB7FEB781839283A383E7
:1014C000B483D20114966C93149715961C926CA554
:1014D0007DA58EA59FA5A40193010E949E10EDB746
:1014E000FEB736960FB6F894FEBF0FBEEDBF6BCFBA
:1014F000AF92BF92CF92DF92EF92FF920F931F9322
:1015000079018A015F770E94942C0E94552C5B011F
:101510006C01C801B70120E030E040E050E00E94DB
:10152000572E18165CF4B501C6011F910F91FF905C
:10153000EF90DF90CF90BF90AF900895C601B501B6
:1015400020E030E040E050E00E94572E18165CF496
:101550006BED7FE089E490E4A60195010E94F02BF9
:101560005B016C01E0CF6BED7FE089E490ECA601BC
:1015700095010E94F02B5B016C01D5CF0E940827DA
:101580000E943F150E9471170E944A0D0E94A918DF
:101590000E94F6180E94CB2A87E19BE00E949324C8
:1015A0000E947D170E9432030E94561F0E949F20B6
:1015B0000E94A7210E94F3200E9443058FE493E03C
:1015C0000E94041E10C0853441F1883421F485E462
:1015D00093E00E94041E109254050E94D2140E94AF
:1015E00074210E94E02A83B7816083BF889583B706
:1015F0008E7F83BF809154058C34A1F08D3418F315
:101600008F3411F0883539F70E94EF18882319F7C5
:1016100081E493E00E94041EDECF8CE393E00E94FD
:10162000041ED9CF8AE493E00E94041ED4CF66231F
:1016300039F485E50E94AB1D83E40E94AB1D08953B
:10164000613009F0089585E50E94AB1D84E40E9495
:10165000AB1D08950E94391A0895AF92BF92CF92A0
:10166000DF92EF92FF920F931F937B018C010E94F8
:10167000B41AC801B7010E942D2D5B016C0120E056
:1016800030E04AE755E40E94C52E7B018C0120E042
:1016900030E040E85FE30E94902C88237CF1C80191
:1016A000B70120E03FEF4FE757E40E94572E18168E
:1016B000ACF4C601B50120E030E040E251E40E9404
:1016C000C52E0E94012DCB01672B79F020E931E076
:1016D000F9013197F1F70197D9F707C0C801B701B0
:1016E0000E94012DCB010197F1F71F910F91FF90FF
:1016F000EF90DF90CF90BF90AF90089561E070E0E1
:10170000F1CFFC016091B6067091B7068091B806E2
:101710009091B90621A532A543A554A50E94942C09
:1017200008958091200590E0089520910C05309156
:101730000D0580910E0590910F052817390769F066
:1017400080910E0590910F0501966AE070E00E946D
:10175000BA2F90930F0580930E05089520910C05E4
:1017600030910D0580910E0590910F0528173907CE
:10177000D1F020910E0530910F05C901880F991FF6
:10178000880F991F880F991FAC01440F551F440FF4
:10179000551F440F551F480F591F420F531F4E5CD2
:1017A0005D4FCA01089540E050E0CA0108954F928C
:1017B0005F926F927F928F929F92AF92BF92CF92E1
:1017C000DF92EF92FF920F931F93CF93DF93EC0181
:1017D0004B016115710599F0009789F0E9A8FAA805
:1017E0000BA91CA9FB0141A852A863A874A8C801B1
:1017F000B701A30192010E94902C88238CF0DF9105
:10180000CF911F910F91FF90EF90DF90CF90BF90FD
:10181000AF909F908F907F906F905F904F900895C2
:10182000F401A1A4B2A4C3A4D4A4C801B701A60121
:1018300095010E94C52E9B01AC010E94C52E7B0123
:101840008C012091B2063091B3064091B4065091BC
:10185000B5065058CA01B9010E94F12B20E030E0D2
:1018600040E752E40E94C52E20E030E040E752EC11
:101870000E94C52E2DA53EA54FA558A90E94C52E94
:101880009B01AC01C801B7010E94F12B0E944C2FB3
:10189000A60195010E94942C7B018C01C301B20129
:1018A000A80197010E94572E18160CF0A8CFF4013A
:1018B000E1AAF2AA03AB14ABA2CFEF92FF920F936F
:1018C0001F93CF93DF9380910E0590910F05482FC2
:1018D000082F112707FD109580910C0590910D059B
:1018E0000817190791F1EE24FF2420E030E001C031
:1018F0007E0189E44802E0011124CE5CDD4FC9017C
:10190000B701AE010E94D70BC80101966AE070E0F2
:101910000E94BA2F482F082F112707FD109580919C
:101920000C0590910D0597010817190709F7B701E4
:10193000CB01BE0140E050E00E94D70BDF91CF9178
:101940001F910F91FF90EF900895C0E0D0E060E00C
:1019500070E0EECF2F923F924F925F926F927F9204
:101960008F929F92AF92BF92CF92DF92EF92FF92AF
:101970000F931F933B014C0119012A010E94B41AD5
:10198000C401B301209194063091950640919606CA
:10199000509197060E94C52E0E94622EE0E18E2E85
:1019A000E5E09E2E6093100570931105809312055B
:1019B00090931305C201B1012091980630919906C8
:1019C00040919A0650919B060E94C52E0E94622E5D
:1019D000F401349660931405718382839383C80164
:1019E000B70120919C0630919D0640919E06509132
:1019F0009F060E94C52E0E94622EF40138966093C5
:101A00001805718382839383C601B5012091A006D6
:101A10003091A1064091A2065091A3060E94C52EC6
:101A20000E94622E2CE030E0820E931E60931C0513
:101A3000F4017183828393831F910F91FF90EF9044
:101A4000DF90CF90BF90AF909F908F907F906F90DE
:101A50005F904F903F902F900895CF93DF93EC01CC
:101A600090E080912005811191E080E0209709F0BD
:101A700081E0981731F00E94B41A10922005CD2B06
:101A800019F4DF91CF91089581E080932005DF91D3
:101A9000CF91089510920D0510920C0510920F052C
:101AA00010920E0581E090E00E942D0D80E1E0E1B2
:101AB000F5E0DF011D928A95E9F708952F923F9294
:101AC0004F925F926F927F928F929F92AF92BF924E
:101AD000CF92DF92EF92FF920F931F93DF93CF93FA
:101AE00000D000D0CDB7DEB78C017E836D83672B2D
:101AF00009F4A3C04115510509F419C1DA01D196C1
:101B00008D919D910D90BC91A02D89839A83AB837B
:101B1000BC830115110509F403C1F801618D728DB3
:101B2000838D948DAD81BE8159962D913D914D91BE
:101B30005C915C970E94F02B9B01AC010E94C52E2A
:101B40001B012C01F801658D768D878D90A1AD81EB
:101B5000BE815D962D913D914D915C9190970E9433
:101B6000F02B9B01AC010E94C52E3B014C01F801FA
:101B700061A172A183A194A1AD81BE8191962D91A5
:101B80003D914D915C9194970E94F02B9B01AC018B
:101B90000E94C52E5B016C01F80165A176A187A1A9
:101BA00090A5AD81BE8195962D913D914D915C9111
:101BB00098970E94F02B9B01AC010E94C52E7B01DF
:101BC0008C01C201B101A40193010E94F12BA60175
:101BD00095010E94F12BA80197010E94F12B0E9410
:101BE0004C2F5B016C01E090B606F090B7060091B7
:101BF000B8061091B906C801B701A60195010E9467
:101C0000902C87FD33C00F2EF0E06F2EF0E07F2E7A
:101C1000F0E88F2EFFE39F2EF02DC401B301298140
:101C20003A814B815C810E94572E181644F1ED8158
:101C3000FE8161AA72AA83AA94AA26960FB6F89486
:101C4000DEBF0FBECDBFCF91DF911F910F91FF90EF
:101C5000EF90DF90CF90BF90AF909F908F907F904C
:101C60006F905F904F903F902F900895C801B701FB
:101C7000A60195010E94942C3B014C01CECFED8131
:101C8000FE81A1A4B2A4C3A4D4A4C601B501298134
:101C90003A814B815C810E94C52E9B01AC010E9460
:101CA000C52E7B018C012091B2063091B306409184
:101CB000B4065091B5065058CA01B9010E94F12BE3
:101CC00020E030E040E752E40E94C52E20E030E002
:101CD00040E752EC0E94C52EAD81BE819D962D91AC
:101CE0003D914D915C91D0970E94C52E9B01AC0116
:101CF000C801B7010E94F12B0E944C2FA60195014B
:101D00000E94942C7B018C01C401B301A8019701AE
:101D10000E94572E18160CF08ACF3701480187CF42
:101D20008D819E810E94810B3B014C0180CF8D8172
:101D30009E810E94810B69837A838B839C83E9CE89
:101D4000CF92DF92FF920F931F93CF93DF938091F7
:101D50000C0590910D05F82E20910E0530910F0580
:101D6000992787FD909582179307B9F100E010E05D
:101D700040E050E019C08F2D99E48902B001112490
:101D8000CF2CDD24C7FCD094EB01CE5CDD4FCE011F
:101D9000B8010E945E0D80910E0590910F05A8017B
:101DA0008C159D0561F08E01FA94F7FEE4CFA9E051
:101DB000FA2E61E972E0F9E0CF2ED12CE5CFA8012F
:101DC00080E090E0BE010E945E0DDF91CF911F91F7
:101DD0000F91FF90DF90CF900895C0E0D0E040E0F9
:101DE00050E0EECF2F923F924F925F926F927F9290
:101DF0008F929F92AF92BF92CF92DF92EF92FF921B
:101E00000F931F93DF93CF93CDB7DEB762970FB6D3
:101E1000F894DEBF0FBECDBF9A8B898B6A017B0120
:101E200018012901FC01658976898789908D0E94B6
:101E30002D2D3B014C01A70196010E94C52E0E9449
:101E40007D2C0E94012D7B018C01E989FA8965AB0B
:101E500076AB87AB90AFC401B301A20191010E94A0
:101E6000C52E0E947D2C0E94012D1B012C01E989A9
:101E7000FA8961AF72AF83AF94AFFD9660817181D3
:101E800082819381FD97FA8BE98B28E230E040E074
:101E900050E00E949B2F0E942F2D20E030E040E771
:101EA00052E40E94C52E0E94FC2C5B016C01C8010B
:101EB000B7010E942D2D7B018C01C601B5010E9446
:101EC0002F2D6D837E838F839887C401B301A40176
:101ED00093010E94C52E3B014C01C801B701A80126
:101EE00097010E94C52E69877A878B879C876D81B1
:101EF0007E818F8198859B01AC010E94F12B6D87BB
:101F00007E878F87988BC401B30129853A854B85DD
:101F10005C850E94F02B2D853E854F8558890E9457
:101F2000942C0E947D2C0E94FC2C69837A838B83E5
:101F30009C83C201B1010E942D2D9B01AC010E9426
:101F4000C52E1B012C01A40193010E94F02B7B01E3
:101F50008C01D094C094B094A094A11CB11CC11C5D
:101F6000D11CC601B5010E942F2D9B01AC010E941E
:101F7000F12B9B01AC01C801B7010E94942C0E9477
:101F80006A2DE989FA89A188B288C388D488860134
:101F9000750129813A814B815C81E21AF30A040BB5
:101FA000150B0E94FC2CA8019701261B370B480B30
:101FB000590BDA01C90157FD30C049895A894F5B75
:101FC0005F4FFA0129813A814B815C8121933193E2
:101FD00041935193FA8BE98B820F931FA41FB51F76
:101FE00080839183A283B38362960FB6F894DEBF99
:101FF0000FBECDBFCF91DF911F910F91FF90EF905A
:10200000DF90CF90BF90AF909F908F907F906F9018
:102010005F904F903F902F900895C601B5010E94A8
:102020002F2D2D853E854F8558890E94C52E2985E7
:102030003A854B855C850E94F02B9B01AC01C20167
:10204000B1010E94F12B7B018C016D817E818F811A
:10205000988520E030E040E850E40E94C52E9B01C6
:10206000AC01C801B7010E94942C0E947D2C0E94F3
:10207000FC2C69837A838B839C8380E090E0A0E0D2
:10208000B0E09BCFEF92FF920F931F93CF93DF931C
:1020900080910E0590910F05282FE82EFF24E7FC74
:1020A000F09480910C0590910D05E816F906E1F188
:1020B000E0E0F0E001C0FE0189E42802E001112423
:1020C000CE5CDD4F309759F041A952A963A974A99C
:1020D00009A91AA92BA93CA9CF010E94F20EC70198
:1020E00001966AE070E00E94BA2F282FE82EFF24A4
:1020F000E7FCF09480910C0590910D05E816F90627
:10210000D1F6CE010E94810B8B019C0149A95AA9ED
:102110006BA97CA9CE010E94F20EDF91CF911F9195
:102120000F91FF90EF900895C0E0D0E0EACF0E94B9
:10213000A00E0E945D0C0E94421008952F923F92C3
:102140004F925F926F927F928F929F92AF92BF92C7
:10215000CF92DF92EF92FF920F931F93DF93CF9373
:10216000CDB7DEB7CC54D0400FB6F894DEBF0FBE6B
:10217000CDBF3B014C0123962CAF3DAF4EAF5FAFBF
:1021800023972796ECAEFDAE0EAF1FAF2797809139
:1021900055058823D1F4C45BDF4F0FB6F894DEBF3A
:1021A0000FBECDBFCF91DF911F910F91FF90EF90A8
:1021B000DF90CF90BF90AF909F908F907F906F9067
:1021C0005F904F903F902F900895C401B3012091EC
:1021D00094063091950640919606509197060E947C
:1021E000C52E0E94622E7B018C01209198063091B1
:1021F000990640919A0650919B062BAF3CAF4DAF8C
:102200005EAF40919C0650919D0660919E06709134
:102210009F064FAB58AF69AF7AAF2090A0063090C1
:10222000A1064090A2065090A30680910C059091C3
:102230000D0501966AE070E00E94BA2F28968FAFD4
:10224000289729969FAF299720910E0530910F0569
:1022500029966EAD7FAD29972617370771F483B79E
:10226000816083BF889583B78E7F83BF80910E0581
:1022700090910F058217930791F320910C053091EF
:102280000D05C901880F991F880F991F880F991F85
:10229000DC01AA0FBB1FAA0FBB1FAA0FBB1FA80FF1
:1022A000B91FA20FB31FAE5CBD4FBEABADAB8091EB
:1022B000100590911105A0911205B09113053701F9
:1022C0004801681A790A8A0A9B0A97FC0AC3C20164
:1022D000B101A60195010E94C52E0E94622E6D8754
:1022E0007E878F87988B6FA978AD89AD9AAD279639
:1022F0002CAD3DAD4EAD5FAD27970E94C52E0E941F
:10230000622E69877A878B879C876BAD7CAD8DAD9C
:102310009EAD23962CAD3DAD4EAD5FAD23970E9493
:10232000C52E0E94622E6D837E838F839887E982FB
:10233000FA820B831C83EDA9FEA9608271828282DE
:102340009382AD80BE80CF80D88480911405909117
:102350001505A0911605B0911705A6019501281B3A
:10236000390B4A0B5B0BDA01C90157FDCBC2EDA952
:10237000FEA984839583A683B783209018053090A7
:10238000190540901A0550901B0569847A848B8446
:102390009C84D401C30182199309A409B509B7FD2E
:1023A000A9C2EDA9FEA980879187A287B387209152
:1023B0001C0530911D0540911E0550911F05298B6C
:1023C0003A8B4B8B5C8B4D855E856F8578892D961E
:1023D0004CAF5DAF6EAF7FAF2D977A018B016989EE
:1023E0007A898B899C89E61AF70A080B190B17FD65
:1023F0006FC2ADA9BEA91C96ED92FD920D931C93E0
:102400001F9718962D913D914D915C911B97FD0161
:1024100084819581A681B78182179307A407B507A8
:1024200048F1EDA9FEA920813181428153818217B3
:102430009307A407B507B0F08E159F05A007B10755
:1024400070F0EDA9FEA9818B928BA38BB48B0097C2
:10245000A105B10591F488E5809354059CCED8017F
:10246000C701EFCFDA01C9018E159F05A007B1079B
:1024700040F7F5CFDA01C901D4CF29813A814B81E8
:102480005C812D8F3E8F4F8F58A3809110059091C6
:102490001105A0911205B0911305281B390B4A0BA9
:1024A0005B0BCA01B9010E942F2D20919406309137
:1024B000950640919606509197060E94942C69AB20
:1024C0007AAB8BAB9CABA9A2BAA2CBA2DCA28091C7
:1024D000140590911505A0911605B0911705A60158
:1024E0009501281B390B4A0B5B0BCA01B9010E94ED
:1024F0002F2D209198063091990640919A0650917F
:102500009B060E94942C6DA77EA78FA798AB698E1F
:102510007A8E8B8E9C8EC401B30162197309840973
:1025200095090E942F2D20919C0630919D06409187
:102530009E0650919F060E94942C69A77AA78BA7AC
:102540009CA72D964CAD5DAD6EAD7FAD2D974D8B9F
:102550005E8B6F8B788FCB01BA0129893A894B89C1
:102560005C89621B730B840B950B0E942F2D2091AD
:10257000A0063091A1064091A2065091A3060E94A8
:10258000942C6DA37EA38FA398A769A97AA98BA980
:102590009CA90E948A2F3B014C016DA57EA58FA5A9
:1025A00098A90E948A2F7B018C0169A57AA58BA529
:1025B0009CA50E948A2F5B016C016DA17EA18FA159
:1025C00098A50E948A2F1B012C01C401B301A80108
:1025D00097010E94F12BA60195010E94F12BA20107
:1025E00091010E94F12B0E944C2FADA9BEA99D968E
:1025F0006D937D938D939C93D097A896EEADFFAD90
:10260000A897EF2B09F086C1A6962CAD3DAD4EAD37
:102610005FADA6970E94942C20E034E244E759E491
:102620000E94C52E0E94622EAC01CB01DA01BC01D2
:10263000CD010E942D2D9B01AC0160EC71EE84E672
:102640009CE40E94942C7B018C0169A97AA98BA936
:102650009CA9A80197010E94C52EADA9BEA95996B3
:102660006D937D938D939C935C976DA57EA58FA5AF
:1026700098A9A80197010E94C52EEDA9FEA9658F12
:10268000768F878F90A369A57AA58BA59CA5A801B5
:1026900097010E94C52EADA9BEA991966D937D9319
:1026A0008D939C9394976DA17EA18FA198A5A8016D
:1026B00097010E94C52EEDA9FEA965A376A387A365
:1026C00090A765A576A587A590A9A80197010E9466
:1026D000C52EADA9BEA999966D937D938D939C93BC
:1026E0009C9751966D917D918D919C9154970E94EC
:1026F0002F2D5B016C01A80197010E94C52E0E943D
:102700007D2C0E94012D3B014C01EDA9FEA9658B9A
:10271000768B878B908F80E090E0A0E0B0E081AB7B
:1027200092ABA3ABB4AB6091B2067091B30680914B
:10273000B4069091B50620E030E040E752E40E94F4
:10274000C52E20E030E040E252E40E94942C7B0150
:102750008C01ADA9BEA99D966D917D918D919C91A5
:10276000D097A60195010E94942C9B01AC01C80151
:10277000B7010E94942C0E947D2C0DA91EA9035C18
:102780001F4F0E94FC2CF801608371838283938326
:1027900020912005222309F0CAC0ADA9BEA9D59673
:1027A0006D927D928D929C92D897FD0161AE72AE32
:1027B00083AE94AEEF5BFF4F1082118212821382C0
:1027C000AD014B5B5F4FFD0181899289A389B4897B
:1027D000FA0180839183A283B383D8011D921D9255
:1027E0001D921C921397EDA9FEA9108A80911005E5
:1027F00090911105A0911205B09113054D8D5E8D3C
:102800006F8D78A1481759076A077B0714F482E097
:10281000808B8091140590911505A0911605B091BB
:10282000170549A15AA16BA17CA1481759076A074E
:102830007B0744F4ADA9BEA950968C91509788604F
:1028400050968C938091180590911905A0911A05C6
:10285000B0911B05498D5A8D6B8D7C8D481759079A
:102860006A077B0744F4ADA9BEA950968C91509796
:10287000806450968C934D895E896F89788D8989A3
:102880009A89AB89BC89481759076A077B0744F4C2
:10289000ADA9BEA950968C915097806850968C93A4
:1028A0002996EEADFFAD2997F0930D05E0930C0549
:1028B000A0E1B5E0FE01319680E101900D928150DA
:1028C000E1F7222311F00E9497100E94AC1763CC0D
:1028D00010950095F094E094E11CF11C011D111D70
:1028E00088CD9094809470946094611C711C811CBC
:1028F000911CEDCCB095A095909581959F4FAF4FD1
:10290000BF4F4FCDB095A095909581959F4FAF4FFC
:10291000BF4F2DCD60EC71EE84E69CE4A6962CAD05
:102920003DAD4EAD5FADA6970E94942C7BCE8DA998
:102930009EA90E94810B8B019C018DA99EA9B901C2
:10294000A8010E94F20E29813A814B815C812D8F72
:102950003E8F4F8F58A34D815E816F81788549A34B
:102960005AA36BA37CA369857A858B859C85698F27
:102970007A8F8B8F9C8F8D859E85AF85B8898D8B47
:102980009E8BAF8BB88F20911C0530911D05409117
:102990001E0550911F05298B3A8B4B8B5C8B209128
:1029A000200521CF0F931F9315E40FE40E94C41D4F
:1029B000982F8F3FE1F020915305222321F09A3088
:1029C000C9F09D30B9F091328CF3892F81568A314C
:1029D00068F5E22FF0E0EF5DFA4F905290832F5FA1
:1029E000209353050E94C41D982F8F3F21F71F91FC
:1029F0000F910895E22FF0E0EF5DFA4F108281E22F
:102A000095E00E948105982F809155058823B9F0A3
:102A100010935405943048F5913018F010925305F6
:102A2000C5CF0093540510925305C0CFE22FF0E0BC
:102A3000EF5DFA4F90832F5F20935305B7CF10932C
:102A4000540580E090E00E94B42180E090E00E9474
:102A5000B72080E090E00E946B1F1092550581E046
:102A60000E94B21710925305A1CF963019F0992306
:102A7000A9F2E7CF109254051092530597CF60E06A
:102A800076E980E090E00E946F1D089580E090E07C
:102A9000A0E2B2E48093940690939506A0939606E4
:102AA000B09397068093980690939906A0939A0600
:102AB000B0939B0680939C0690939D06A0939E06E0
:102AC000B0939F068093A0069093A106A093A206C0
:102AD000B093A30686E08093A50680E090E0A6E987
:102AE000B5E48093A6069093A706A093A806B0939A
:102AF000A90680E090E0A0EFB3E48093AA0690934B
:102B0000AB06A093AC06B093AD0680E090E0A0E4E5
:102B1000B2E48093B2069093B306A093B406B09348
:102B2000B5068DEC9CECACECBDE38093AE069093C7
:102B3000AF06A093B006B093B10680E090E0A8E4A1
:102B4000B2E48093B6069093B706A093B806B0930C
:102B5000B906089580E090E00E943A03873631F08C
:102B60008130A9F020E030E0C901089584E996E0C1
:102B700061E070E046E250E00E949F0320E0892B74
:102B800009F421E081E0282730E0C901089584E9B3
:102B900096E061E070E04BE150E00E949F03892BDA
:102BA00009F380E090E0A0E4B2E48093B206909351
:102BB000B306A093B406B093B50680E090E0A8E415
:102BC000B2E48093B6069093B706A093B806B0938C
:102BD000B90621E030E0C8CF80E090E067E60E94CF
:102BE000420381E090E064E976E046E250E00E9432
:102BF00063030895FC018630910509F46DC08730A8
:102C00009105A4F08830910509F448C088309105F9
:102C1000B4F18930910509F47BC0E85EF34009F412
:102C20006AC088E693E00E94041E089584309105EE
:102C300009F443C0853091059CF497FDF2CFEE0F67
:102C4000FF1FEE0FFF1FEC56F94F40835183628345
:102C500073830E94EC1583E593E00E94041E08959F
:102C60004093A6065093A7066093A8067093A90602
:102C70000E94EC1583E593E00E94041E08954093A2
:102C8000AE065093AF066093B0067093B1060E94F3
:102C9000EC1583E593E00E94041E08954093B2066C
:102CA0005093B3066093B4067093B5060E94EC157A
:102CB00083E593E00E94041E0895CB01BA010E94AF
:102CC000282F0E94012D6093A5060E94EC1583E534
:102CD00093E00E94041E08954093AA065093AB0609
:102CE0006093AC067093AD060E94EC1583E593E00B
:102CF0000E94041E0895CB01BA0120E030E040E0BC
:102D000050E00E94902C8823A9F00E94CD170895CE
:102D1000DB01CA01BF778093B6069093B706A093F4
:102D2000B806B093B9060E94EC1583E593E00E94C3
:102D3000041E08950E94CF1708958CE395E00E9429
:102D4000041E85E395E00E94041E82E395E00E9444
:102D5000041E8CE295E00E94041E6091940670911E
:102D6000950680919606909197060E94CA1E8CE166
:102D700095E00E94041E86E195E00E94041E609189
:102D800098067091990680919A0690919B060E94F0
:102D9000CA1E86E095E00E94041E80E095E00E9435
:102DA000041E60919C0670919D0680919E069091F4
:102DB0009F060E94CA1E80EF94E00E94041E8AEEC5
:102DC00094E00E94041E6091A0067091A10680917B
:102DD000A2069091A3060E94CA1E88ED94E00E946C
:102DE000041E82ED94E00E94041E6091A50670E02E
:102DF00080E090E00E94A71E85EB94E00E94041EF4
:102E00008FEA94E00E94041E6091A6067091A706C6
:102E10008091A8069091A9060E94CA1E81E994E0BB
:102E20000E94041E8BE894E00E94041E6091AA0692
:102E30007091AB068091AC069091AD060E94CA1EBF
:102E40008DE694E00E94041E87E694E00E94041E32
:102E50006091AE067091AF068091B0069091B10678
:102E60000E94CA1E83E594E00E94041E8DE494E053
:102E70000E94041E6091B2067091B3068091B40660
:102E80009091B5060E94CA1E8FE294E00E94041E33
:102E900089E294E00E94041E6091B6067091B70624
:102EA0008091B8069091B9060E94CA1E81EF93E006
:102EB0000E94041E88EE93E00E94041E0E94D11717
:102EC000AA2797FDA095BA2FBC01CD010E94A71E8D
:102ED0008FEB93E00E94041E8CE793E00E94041E97
:102EE00008950E94AA15892B09F008950E9446159D
:102EF0000E94EC150E949D160895E1E0F1E08081AA
:102F000080648083279A3E9A089597FD07C02F9882
:102F10008091020180648093020108952F9A80912C
:102F200002018064809302010895E2E0F1E0808173
:102F30008F7B8083089535E340E757E1469A232F3E
:102F40002A95F1F74698FA013197F1F701972FEF9B
:102F50008F3F920799F70895EFE6F0E08081826055
:102F60008083089590E090936E0580936D05089599
:102F700020916D0530916E05C90108951F920F9241
:102F80000FB60F9211248F9381B3856381BB8F910C
:102F90000F900FBE0F901F90189544980895449A73
:102FA00008953C9904C020E030E0C901089588B13B
:102FB00082958F7080958170282F30E0C901089527
:102FC000603020E0720721E0820720E0920708F4D9
:102FD0005CC0603020E0720728E0820720E09207A2
:102FE00078F1603020E0720720E4820720E0920749
:102FF00008F451C0603020E0720720E0820721E031
:10300000920708F46DC0603020E0720720E082076C
:1030100024E0920708F071C02AE09695879577958D
:1030200067952A95D1F7FB019B0140E050E08AE0CB
:10303000220F331F441F551F8A95D1F795E018C002
:1030400023E096958795779567952A95D1F7FB01AB
:103050009B0140E050E0220F331F441F551F220FF9
:10306000331F441F551F220F331F441F551F92E06B
:1030700080918100887F982B90938100F093890044
:10308000E0938800B901CA010895FB019B0140E06B
:1030900050E091E0EDCFB6E09695879577956795EE
:1030A000BA95D1F7FB019B0140E050E0220F331F9E
:1030B000441F551F220F331F441F551F220F331F5C
:1030C000441F551F220F331F441F551F220F331F4C
:1030D000441F551F220F331F441F551F93E0C8CFB5
:1030E000BB27A92F982F872FFC01A0E0B0E0222753
:1030F000382F492F5A2F94E0BBCFEFEFFFEF20E09E
:103100003CEF40E050E095E0B3CF9B01AC01203BA9
:1031100084E0380780E0480780E0580778F460E0F2
:1031200075E38CE090E00E94E01760936F05709368
:1031300070058093710590937205089560E070E7C3
:1031400088E399E30E94CD2FC901DA01BC01CD01CA
:10315000EACF80B3856380BB80B38A6C80BB81B3C8
:10316000856381BB3C9A449AE1E8F0E080818F7EE0
:103170008083808188608083E0E8F0E080818D7FBB
:10318000808380818E7F808380818F738083808124
:103190008F7C80831092B00082E08093B100E0E7E2
:1031A000F0E080818160808360E777E180E090E0FB
:1031B0000E948518EFE6F0E080818D7F8083109279
:1031C0007305109274051092750510927605789427
:1031D000089580B18071089582B3817008958091BF
:1031E0006F0090E0969587958170089511B882E000
:1031F00084B917B81AB81DB89FE890BB13BA1092DB
:103200000101109204013FEC3093070120EF20935D
:103210000A018CE982B982E285B983E188B99BB958
:1032200080E38EB991BB83E284BB83E0809302018B
:10323000809305013093080120930B0108954B9B67
:103240000CC082E84A9984604899886049998061F5
:103250000499806290998064089580E8F3CF1F9369
:1032600089B1182F127081FF06C01092550586E5AE
:1032700095E00E94041E812F1F910895FF920F93E5
:103280001F93CF93DF93EC0181B38573886081BB7B
:10329000209719F145E3F42E00E614E013C00E94D4
:1032A000AE20882399F481B38A7C846081BB8F2D02
:1032B0008A95F1F781B38A7C81BBC8010197F1F748
:1032C000219759F00E942F19882349F380E0DF915C
:1032D000CF911F910F91FF90089581E0DF91CF91E1
:1032E0001F910F91FF9008951F9389B1182F1170AE
:1032F00080FF06C0109255058DE695E00E94041EE1
:10330000812F1F910895FF920F931F93CF93DF9307
:10331000EC0181B3857381BB2097D9F055E3F52E7D
:1033200000E614E00FC081B38A7C846081BB8F2DDE
:103330008A95F1F781B38A7C81BBC8010197F1F7C7
:10334000219739F00E947419882369F70E94AE20F2
:10335000EACF81E0DF91CF911F910F91FF90089507
:103360001F9389B1182F147082FF06C01092550563
:1033700084E895E00E94041E812F1F910895FF921A
:103380000F931F93CF93DF93EC0181B3857382601A
:1033900081BB209719F165E3F62E00E614E013C017
:1033A0000E94AE20882399F481B38A7C816081BB1E
:1033B0008F2D8A95F1F781B38A7C81BBC801019773
:1033C000F1F7219759F00E94B019882349F380E062
:1033D000DF91CF911F910F91FF90089581E0DF91D0
:1033E000CF911F910F91FF9008951F9389B1182FCE
:1033F000187083FF06C0109255058BE995E00E9476
:10340000041E812F1F910895FF920F931F93CF9356
:10341000DF93EC0181B3857381BB209719F175E3CC
:10342000F72E00E614E013C00E94AE20882399F422
:1034300081B38A7C816081BB8F2D8A95F1F781B33E
:103440008A7C81BBC8010197F1F7219759F00E944E
:10345000F519882349F380E0DF91CF911F910F91F7
:10346000FF90089581E0DF91CF911F910F91FF9020
:103470000895109255050E944A0D0E9443050E942E
:10348000AE20882349F080E090E00E94B7200E949F
:10349000AE20882309F061C0F89480E090E00E949B
:1034A0006B1F80E090E00E94B4210E94F5198823F0
:1034B00089F088EE93E00E94BF19882309F44BC07D
:1034C00020ED37E040E951E0CA010197F1F72150C2
:1034D0003040D1F70E947419882361F5049908C01F
:1034E00081E090E00E94041A8823C1F7789408953F
:1034F00020ED37E040E951E0CA010197F1F7215092
:103500003040D1F7909B0FC0789489B190E08F70D4
:103510009070892B59F781E08093550510926E05C4
:1035200010926D05089581E090E00E948319882330
:1035300049F7DCCF88EE93E00E943E19882391F092
:1035400020ED37E040E951E0CA010197F1F7215041
:103550003040D1F7C3CF7894089588E495E00E9475
:10356000041E08957894089507C083B7816083BFCF
:10357000889583B78E7F83BF0E94AE0B892BA9F7F6
:1035800008951F920F920FB60F920BB60F9211244F
:10359000EF92FF920F931F932F933F934F935F935D
:1035A0006F937F938F939F93AF93BF93CF93DF934B
:1035B000EF93FF9380915505882349F189B190E0FD
:1035C0008F709070892B61F1109255058CE4809377
:1035D000540580916F008D7F80936F00FF91EF9174
:1035E000DF91CF91BF91AF919F918F917F916F911B
:1035F0005F914F913F912F911F910F91FF90EF900D
:103600000F900BBE0F900FBE0F901F90189588E47F
:103610008093540580916F008D7F80936F00DECF83
:103620000E94AE208823D1F680916D0590916E05A1
:10363000892BA1F691B38091BA068A7C9573892B68
:1036400081BB81B38A7C90915805892B81BB809185
:10365000A506880F845081958093B200B89A81E0C6
:1036600090E090936E0580936D057894E0915605F7
:10367000F0915705309709F4CBC180898093BA0641
:10368000109258052091590530915A0540915B05DB
:1036900050915C0580819181A281B381280F391FEF
:1036A0004A1F5B1F2093590530935A0540935B05D1
:1036B00050935C0512161306140615060CF046C14D
:1036C00081E080935805E188F288038914892E19D6
:1036D0003F09400B510B2093590530935A054093F5
:1036E0005B0550935C0520915D0530915E0540912E
:1036F0005F055091600584819581A681B781280F6F
:10370000391F4A1F5B1F20935D0530935E05409370
:103710005F055093600512161306140615068CF407
:10372000809158058460809358052E193F09400BFD
:10373000510B20935D0530935E0540935F055093D8
:1037400060052091610530916205409163055091BB
:10375000640580859185A285B385280F391F4A1F8E
:103760005B1F20936105309362054093630550937E
:10377000640512161306140615068CF4809158057C
:103780008061809358052E193F09400B510B2093FF
:103790006105309362054093630550936405209161
:1037A00065053091660540916705509168058485EF
:1037B0009585A685B785280F391F4A1F5B1F209363
:1037C00065053093660540936705509368051216AA
:1037D0001306140615068CF48091580580628093B8
:1037E00058052E193F09400B510B20936505309366
:1037F000660540936705509368058091690590912F
:103800006A05A0916B05B0916C050196A11DB11DD3
:103810008093690590936A05A0936B05B0936C053E
:103820008E159F05A007B10708F095C08091580537
:1038300095E38927809358058091BA069AEC8927E9
:103840008093BA0620916F05309170054091710503
:10385000509172058091730590917405A091750542
:10386000B0917605280F391F4A1F5B1F20937305FF
:1038700030937405409375055093760521380AE11D
:10388000300706E0400700E0500708F45AC020580F
:103890003A4146405040209373053093740540935D
:1038A000750550937605E0915605F09157053097D0
:1038B00009F447C02091690530916A0540916B0574
:1038C00050916C05EF5BFF4F80819181A281B381A4
:1038D000E154F040281739074A075B0708F042C057
:1038E000FD9680819181A281B381FD97209177051A
:1038F000309178054091790550917A05280F391F4C
:103900004A1F5B1F20937705309378054093790514
:1039100050937A0585899689A789B08D8217930778
:10392000A407B50750F48093770590937805A0938A
:103930007905B0937A059C01AD01CA01B9010E94D5
:10394000851810926E0510926D0548CEE188F288B8
:1039500003891489C8CE10925705109256050E940B
:10396000950B64CFEB5BFF4F80819181A281B38186
:10397000E554F04082179307A407B50770F5FD964C
:103980006081718182819381FD97209177053091CB
:1039900078054091790550917A056217730784077D
:1039A000950780F479018A01E61AF70A080B190BCA
:1039B000E0927705F09278050093790510937A05E7
:1039C000A801970181AD92ADA3ADB4AD2817390719
:1039D0004A075B0708F0B1CFA6CF2589368947890A
:1039E000508D8091770590917805A0917905B091DF
:1039F0007A05281739074A075B0709F4A2CF2093F5
:103A00007705309378054093790550937A0595CFE3
:103A10000E94AE0BEC0190935705809356050097DA
:103A200009F452C06DA97EA98FA998AD609377055E
:103A3000709378058093790590937A0510927305B9
:103A40001092740510927505109276050E948518E3
:103A500089899A89AB89BC89B595A79597958795EA
:103A6000B095A095909581959F4FAF4FBF4F809394
:103A7000590590935A05A0935B05B0935C0580931C
:103A80005D0590935E05A0935F05B09360058093FC
:103A9000610590936205A0936305B09364058093DC
:103AA000650590936605A0936705B093680510922D
:103AB000690510926A0510926B0510926C05E091F1
:103AC0005605F0915705D9CD80916F008D7F809379
:103AD0006F0088E58093540510925805A7CEEF92A9
:103AE000FF920F931F937B018C0122E030E040E0B6
:103AF00050E00E94EF2F205C3D4B404F5F4FCA01CA
:103B0000B901A80197010E94CD2FC901DA010197DF
:103B1000A109B109292F3A2F4B2F55270196A11D35
:103B2000B11D2093C50081508093C400E0ECF0E00B
:103B300080818D7F8083E1ECF0E0808180618083F3
:103B40008081886080838081806880831F910F914D
:103B5000FF90EF900895982F8091C00085FFFCCFD3
:103B60009093C600089580917B0590917C058050CC
:103B70009F4F20917D0530917E05821B930B60E065
:103B800071E00E94BA2F089540917D0550917E0505
:103B900080917B0590917C058417950789F0FA0147
:103BA000E158FA4F2081CA01019660E071E00E945D
:103BB000BA2F90937E0580937D0530E0C90108956A
:103BC0002FEF3FEFC901089580917D0590917E050B
:103BD00090937C0580937B050895982F8091C00079
:103BE00085FFFCCF9093C6000895FC019081992336
:103BF00051F031968091C00085FFFCCF9093C600B4
:103C000090819923B1F70895FC019491992351F083
:103C100031968091C00085FFFCCF9093C6009491AF
:103C20009923B1F708952F923F924F925F926F922E
:103C30007F928F929F92AF92BF92CF92DF92EF923C
:103C4000FF920F931F93DF93CF93CDB7DEB7A0976B
:103C50000FB6F894DEBF0FBECDBF6B017C0129010A
:103C60003A01611571058105910509F450C0882458
:103C7000992454011E010894211C311C8101080D56
:103C8000191DC701B601A30192010E94CD2FF801B1
:103C900060830894811C911CA11CB11CC701B60152
:103CA000A30192010E94CD2FC901DA016C017D01AF
:103CB000C114D104E104F10409F781149104A104B1
:103CC000B10461F19101280D391DD501C40101979D
:103CD000A109B109AC0148195909FA01E20FF31F12
:103CE000E081EA3090F4E05D8091C00085FFFCCF78
:103CF000E093C600215030402216330679F0FA01D5
:103D0000E20FF31FE081EA3070F3E95CEDCF8091C0
:103D1000C00085FFFCCF80E38093C600A0960FB65D
:103D2000F894DEBF0FBECDBFCF91DF911F910F91F1
:103D3000FF90EF90DF90CF90BF90AF909F908F90CB
:103D40007F906F905F904F903F902F9008959B01D0
:103D5000AC0197FD09C0CA01B9012AE030E040E09A
:103D600050E00E94131E08958091C00085FFFCCF93
:103D70008DE28093C60050954095309521953F4F38
:103D80004F4F5F4FE8CF22E030E040E050E00E942C
:103D9000131E0895EF92FF920F931F93DF93CF931B
:103DA00000D00F92CDB7DEB7AE014F5F5F4F0E94DC
:103DB000922E7B018C0169817A818B819C810E948A
:103DC000FC2C0E94A71E8091C00085FFFCCF8EE2D4
:103DD0008093C600C801B70120E030E04AE754E410
:103DE0000E94C52E0E94282F0E94FC2C97FD0DC01A
:103DF0000E94A71E0F900F900F900F90CF91DF9110
:103E00001F910F91FF90EF90089590958095709578
:103E100061957F4F8F4F9F4FEBCF1F920F920FB641
:103E20000F920BB60F9211242F933F934F935F93F2
:103E30006F937F938F939F93AF93BF93EF93FF9372
:103E40004091C600E0917B05F0917C05CF01019681
:103E500060E071E00E94BA2F9C0180917D059091F5
:103E60007E052817390739F0E158FA4F408330931F
:103E70007C0520937B054F3F99F0FF91EF91BF9117
:103E8000AF919F918F917F916F915F914F913F91F2
:103E90002F910F900BBE0F900FBE0F901F90189593
:103EA000F8940E94CF1710925505E7CF879AE7E064
:103EB000F1E0808181608083808182608083808165
:103EC0008460808380818860808380818064808337
:103ED000089580E00895CF93DF93EC01809155051C
:103EE000882319F4DF91CF91089581E00E94B217E1
:103EF000209729F180910801816080930801C330E7
:103F0000D10509F446C0C430D1058CF5C130D105C6
:103F100009F46DC0229709F466C0809108018E7F74
:103F20008093080128EE33E040E951E0CA0101978F
:103F3000F1F721503040D1F7DF91CF910895809172
:103F4000080181608093080180910801826080935C
:103F50000801809108018460809308018091080124
:103F600088608093080180E00E94B217BBCFC53003
:103F7000D10509F445C0C530D10504F1269769F68D
:103F800080910801826080930801809108018B7FF5
:103F90001DC0809108018D7F8093080180910801E8
:103FA00084608093080180910801877F80930801D5
:103FB000809108018E7F80930801AFCF8091080126
:103FC0008D7F8093080180910801846080930801AF
:103FD00080910801886080930801809108018E7F9C
:103FE000809308019ACF809108018D7FCCCF80917A
:103FF00008018D7F80930801809108018B7FD1CFCC
:1040000080910801826080930801809108018B7F74
:104010008093080180910801877F809308017DCFFC
:104020001F93182F80915505882319F483E61F915B
:10403000089581E090E00E94B720882319F485E07C
:104040001F910895812F90E00E946B1F80E090E007
:104050000E946B1F80E090E00E94B72080E01F91DB
:1040600008951F93182F80915505882319F483E62E
:104070001F91089581E090E00E94B720882319F4F1
:1040800085E01F910895812F90E00E94562080E0E6
:1040900090E00E94B72080E991E00197F1F780E07D
:1040A00090E00E94562080E01F910895CF93DF9307
:1040B000EC0180915505882371F0CF3FD10539F08F
:1040C0000E94DC21882359F08C2F0E94102080E070
:1040D000DF91CF91089583E6DF91CF9108958C2FE2
:1040E0000E94312080E0DF91CF91089580915505A5
:1040F000882311F483E608950E94AE208823A1F45A
:104100000E94162281E090E00E94B72081E090E0BA
:104110000E94B4210E94D621813059F080E090E0C5
:104120000E94B72080E0089580E090E00E94B720D0
:10413000E7CF80E090E00E94B72081E00895EAE0B8
:10414000F1E0808180628083EBE0F1E08081806239
:1041500080833898409A3998419A089586B1817041
:10416000089586B190E09695879581700895CF93D4
:10417000DF93EC0180915505882319F10E94EF1817
:104180008823E1F781E00E94B2172097E9F080913F
:104190000B018F7D80930B0120ED37E040E951E06A
:1041A000CA010197F1F721503040D1F786B18170F3
:1041B00090E08C179D0781F085EA95E00E94041E2F
:1041C00080E0DF91CF91089580910B018062809310
:1041D0000B0120ED37E0E2CF80E00E94B21781E0D2
:1041E000DF91CF91089525982D9A3C98449A69982B
:1041F000719A9D98A59AA4E0B1E08C918E7F8C93E2
:10420000E5E0F1E08081816080838C918F7E8C93EA
:10421000808180618083A1E0B1E08C918E7F8C935E
:10422000E2E0F1E08081816080838C918D7F8C93CE
:10423000808182608083E0E9F0E080818260808319
:104240008CE790E0909399008093980010929500ED
:104250001092940084E080939100E1E7F0E0808187
:104260008260808308958CB1829586958770809551
:104270008170089582B3829586958770809581704C
:1042800008958CB182958F7080958170089580918A
:104290000301869580958170089586B182958F700F
:1042A00080958170089580910001809581700895B6
:1042B0008091030180958170089583B182958695E0
:1042C0008770809581700895809100018695809512
:1042D000817008951F920F920FB60F9211240F90C4
:1042E0000FBE0F901F9018951D9B20C0809100015C
:1042F00080FF0BC0809180068130D9F0349B0EC0C6
:1043000080917F068130E1F0089581E080938006FE
:1043100081E090E00E94B4213499F2CF81E0809353
:104320007F0681E090E00E94B72008950E942A0B4A
:10433000DDCF1092800680E090E00E94B421DECFB5
:1043400010927F0680E090E00E94B7200895579871
:104350005F9AEAE0F1E0808180618083EBE0F1E048
:1043600080818061808308958130910591F0892B4F
:10437000A1F480910B01806180930B0128E833E167
:1043800040E951E0CA010197F1F721503040D1F7DF
:10439000089580915505882341F080910B018F7E0F
:1043A00080930B0128E833E1EBCF089589B1809524
:1043B000881F8827881F0895AF92BF92CF92DF92FF
:1043C000EF92FF920F931F9380915505882351F42C
:1043D00083E61F910F91FF90EF90DF90CF90BF90F9
:1043E000AF90089581E090E00E94B42163EC73EDFA
:1043F00081E491E42AE13BE84DE950E40F2EF0E03E
:10440000EF2EF0E0FF2EF0E80F2FFFEB1F2FF02D27
:10441000570168010E94F7030E94EF188823E1F713
:1044200080E991E00197F1F780E0D3CF8F929F92DE
:10443000AF92BF92CF92DF92EF92FF920F931F93B2
:1044400080915505882361F483E61F910F91FF90B9
:10445000EF90DF90CF90BF90AF909F908F90089596
:104460000E94AE20882309F020C163EC73ED81E443
:1044700091E42AE13BE84DE950E40F2EF0E0EF2E05
:10448000F0E0FF2EF0E80F2FFFEB1F2FF02D57016C
:1044900068010E94F7030E94EF188823E1F780E982
:1044A00091E00197F1F781E090E00E94B42128E8C3
:1044B00033E140E951E0CA010197F1F72150304062
:1044C000D1F781E090E00E94B720882309F4E7C08B
:1044D00020E137E240E951E0CA010197F1F72150AC
:1044E0003040D1F799B080E090E00E94B42180E0A4
:1044F00090E00E94B720882309F4C8C00E94AE2033
:104500008823E1F76DE37BE98DE491E42CED38E657
:1045100044E950E40F2EF0E0EF2EF0E0FF2EF0E83B
:104520000F2FFFEB1F2FF02D570168010E94F7039B
:104530000E94EF188823E1F780E991E00197F1F7F5
:1045400020EA3FE040E951E0CA010197F1F721502C
:104550003040D1F781E090E00E94B720882309F431
:1045600095C00E94AE208823E1F320E137E240E9C4
:1045700051E0CA010197F1F721503040D1F781E0B5
:1045800090E00E946B1F20E43FE140E951E0CA0146
:104590000197F1F721503040D1F7882497FC6BC088
:1045A0008824839428E833E140E951E0CA01019767
:1045B000F1F721503040D1F780E090E00E94B72021
:1045C000882309F463C00E94AE208130E1F328E91A
:1045D0003AE340E951E0CA010197F1F72150304038
:1045E000D1F763EC73ED81E491E42AE13BE84DE916
:1045F00050E40F2EF0E0EF2EF0E0FF2EF0E80F2F4A
:10460000FFEB1F2FF02D570168010E94F7030E9456
:10461000EF188823E1F780E991E00197F1F781E055
:1046200090E00E94B42128E833E140E951E0CA015A
:104630000197F1F721503040D1F781E090E00E94DE
:10464000B720882361F120E137E240E951E0CA0157
:104650000197F1F721503040D1F74F9919C08820C8
:1046600049F180E090E00E94B72080E090E00E9455
:10467000B42185E0EACE80E090E00E946B1F80E0EC
:1046800090E00E94B720882309F09DCF85E0DDCE21
:1046900081E0881679F080E090E00E94B72080E009
:1046A00090E00E94B42185E0D0CE80E090E00E94AE
:1046B000B720DBCE80E090E00E94B42180E090E063
:1046C0000E94B720882311F30E94AE208823E1F7CF
:1046D000BCCE8F929F92AF92BF92CF92DF92EF9219
:1046E000FF920F931F93CF93DF93809155058823FB
:1046F00071F483E6DF91CF911F910F91FF90EF90BE
:10470000DF90CF90BF90AF909F908F9008950E94C0
:10471000AE20882309F04AC088249924C0E9D1E05A
:104720000E9479308C010E9479306C01C8016CE0E4
:1047300070E00E94BA2FAA2797FDA095BA2FBC015E
:10474000CD010E942F2D7B018C01C6016EE070E02F
:104750000E94BA2FAA2797FDA095BA2FBC01CD01C0
:104760000E942F2D9B01AC01C801B7010F2EF0E074
:10477000EF2EF0E0FF2EF0E80F2FFFEB1F2FF02DB4
:10478000570168010E94F70328E833E1CE01019741
:10479000F1F721503040D1F70894811C911C88EC2E
:1047A0008816910409F0BCCF80E0A4CF80E090E0AF
:1047B0000E94B720B1CF4F9905C08BEB95E00E94C6
:1047C000041E089587EB95E00E94041E0895E7E01B
:1047D000F1E0808180688083089580915505882369
:1047E00041F10E94EF188823E1F781E00E94B2179F
:1047F000809108018F778093080120ED37E040E930
:1048000051E0CA010197F1F721503040D1F7809172
:10481000080180688093080120ED37E040E951E00D
:10482000CA010197F1F721503040D1F780E00E9492
:10483000B21708950E94AE20882309F03AC00E9462
:10484000EF188823E1F70E94B817892BE1F781E080
:104850000E94B21728EE33E040E951E0CA01019707
:10486000F1F721503040D1F781E090E00E94B7206D
:1048700024EC39E040E951E0CA010197F1F72150F9
:104880003040D1F780E090E00E94B42180E090E0D9
:104890000E94B72028E833E140E951E0CA010197BE
:1048A000F1F721503040D1F780E00E94B21780E04C
:1048B000089585E008950E94EF188823E1F70E948B
:1048C000B817892BE1F70E94AE20882311F085E00C
:1048D000089581E00E94B2170E94ED2381E090E0EC
:1048E0000E94B42181E090E00E94B72028E833E1E3
:1048F00040E951E0CA010197F1F721503040D1F76A
:1049000080E090E00E94B72028E833E140E951E0E0
:10491000CA010197F1F721503040D1F780E00E94A1
:10492000B21780E0089590938206809381060895DF
:10493000E0918106F091820619950895FC0160834B
:1049400080E4848380E185830895EF92FF920F9342
:104950001F93DF93CF9300D00F92CDB7DEB77C01CA
:104960000E948829C70160E040E024E030E08E0129
:104970000F5F1F4F0E942C2A3C8120E04B8150E0AA
:10498000242B352BF701358B248B90E00F900F9063
:104990000F900F90CF91DF911F910F91FF90EF90AB
:1049A0000895DF93CF93CDB7DEB762970FB6F89433
:1049B000DEBF0FBECDBFBE016F5F7F4F0E94112AC9
:1049C00062960FB6F894DEBF0FBECDBFCF91DF91D8
:1049D00008952C9882608EBD0DB407FEFDCF6EBD8C
:1049E0000DB407FEFDCF2C9A08952C9882608EBDE1
:1049F0000DB407FEFDCF662389F06150FA0170E027
:104A00006F5F7F4F640F751F80818EBD0DB407FEF1
:104A1000FDCF3196E617F707B9F7AF012C9ACA0117
:104A200008952C988EBD0DB407FEFDCF1EBC0DB4AD
:104A300007FEFDCF2C9A8EB508952C988EBD0DB42F
:104A400007FEFDCF662389F06150FA0170E06F5FC9
:104A50007F4F640F751F1EBC0DB407FEFDCF8EB5D2
:104A60008193E617F707B9F7AF012C9ACA010895A9
:104A700080918306089588EF0E941125807C803400
:104A800081F0813428F08038C9F0803C31F00895FD
:104A9000882309F510928306089581E080938306A8
:104AA000089588ED0E94112581FD0DC088ED6BEC05
:104AB0000E94E92483E080938306089588ED0E9494
:104AC000112581FDF3CF88ED69EC0E94E92482E095
:104AD00080938306089508951F9388EC0E94112502
:104AE00086FD0DC010E085FF03C00E943B251062CB
:104AF00088EC612F0E94E924812F1F91089510E412
:104B0000F2CF80EB0E94112508951F93809102013E
:104B100086FF0AC010E08091020185FD02C00E945C
:104B20008125812F1F9108950E946C25182FF3CFA6
:104B30001F9388E760E20E94E92488E760E00E9412
:104B4000E9246AE070E080E090E00E94972610E09F
:104B500002C0115041F088E60E94112580FFF9CF74
:104B600081E01F91089580E01F91089588E86AE12F
:104B70000E94E9240E9498258823E1F088ED61EDE8
:104B80000E94E92480ED60E60E94E92488EE64E05A
:104B90000E94E92488EE0E94112582FFFBCF0E942B
:104BA0003B2588EC60E20E94E92480E861E00E94F5
:104BB000E924089580EC95E00E94041EDFCF0E9456
:104BC000F125E1E0F1E080818F798083249A808172
:104BD000806180832C9AE2E0F1E0808180618083B3
:104BE000089584B1876084B9239885B1897F85B998
:104BF000289A8CB580618CBD8CB580648CBD08957D
:104C00001F920F920FB60F9211242F933F938F9301
:104C10009F93AF93BF938091880690918906A0914E
:104C20008A06B0918B0630918E060196A11DB11DAA
:104C3000232F2D5F2D3720F02D570196A11DB11D7B
:104C400020938E068093880690938906A0938A0607
:104C5000B0938B068091840690918506A09186067C
:104C6000B09187060196A11DB11D80938406909393
:104C70008506A0938606B0938706BF91AF919F915A
:104C80008F913F912F910F900FBE0F901F9018950D
:104C90008FB7F894209188063091890640918A0652
:104CA00050918B068FBF7894B901CA010895AF92D5
:104CB000BF92CF92DF92EF92FF920F931F93A0903B
:104CC0008406B0908506C0908606D090870686B58B
:104CD000DC2CCB2CBA2CAA24A80EB11CC11CD11CD4
:104CE000AA0CBB1CCC1CDD1CAA0CBB1CCC1CDD1CE8
:104CF000AA0CBB1CCC1CDD1CAA0CBB1CCC1CDD1CD8
:104D0000AA0CBB1CCC1CDD1CAA0CBB1CCC1CDD1CC7
:104D10009501A60160E070E080E090E01F910F91A6
:104D2000FF90EF90DF90CF90BF90AF900895EF92FB
:104D3000FF920F931F937B018C018FB7F8944091E2
:104D400088065091890660918A0670918B068FBF04
:104D500078942FB7F8948091880690918906A09155
:104D60008A06B0918B062FBF7894841B950BA60BF7
:104D7000B70BE816F9060A071B0758F71F910F91A2
:104D8000FF90EF900895809184009091850020918C
:104D90008C0630918D0640E050E0A9013327222790
:104DA000A0E0B0E0280F391F4A1F5B1F220F331FFE
:104DB000441F551F220F331F441F551F2C7F5F7048
:104DC000B901CA0108951F920F920FB60F921124D4
:104DD0008F939F9380918C0690918D06019690936E
:104DE0008D0680938C069F918F910F900FBE0F9030
:104DF0001F901895E1E8F0E08081826080838081D7
:104E000081608083EFE6F0E0808181608083089597
:104E100078940E94FA2685B5826085BD85B581604B
:104E200085BDEEE6F0E08081816080830895809109
:104E300000020895809300020895982F843040F472
:104E400086E1989F900111242454394FC901089597
:104E500020E030E0C90108952F923F924F925F9277
:104E60006F927F928F929F92AF92BF92CF92DF927A
:104E7000EF92FF920F931F93DF93CF9300D0CDB7A4
:104E8000DEB7FC015B012A01922E832E80EE608149
:104E90000E94E9240E9448266B017C0188E893E186
:104EA000A0E0B0E0C80ED91EEA1EFB1ED501129686
:104EB0001C911123C9F40EEF10E0C8010F900F9060
:104EC0000F90CF91DF911F910F91FF90EF90DF90A6
:104ED000CF90BF90AF909F908F907F906F905F909A
:104EE0004F903F902F90089588EEF50164810E94C5
:104EF000E9244114510409F474C0212E3324892D6E
:104F0000982D9C01390142012414350408F467C02E
:104F1000898280E1682DA3010E94F52488E3682D31
:104F20000E94E924D5016C91606280EF0E94E9241F
:104F300088EC0E94112587FFFBCF88EC60E80E9477
:104F4000E92488EF0E941125182F1F70E1F100E07D
:104F50001B821A820E9448266C157D058E059F05CE
:104F600090F5143029F01E30A1F1012F10E0A5CFEB
:104F7000EA81FB813196FB83EA83E050FD4709F427
:104F80003CC088E360E00E94E92480E1D3016C9199
:104F90000E94E92488E369810E94E924F501608187
:104FA000606280EF0E94E92488EC0E94112587FF4F
:104FB000FBCF88EC60E80E94E92488EF0E9411256D
:104FC000182F1F7039F648185908E1F0680C791C41
:104FD0009ACF0F5F0330A9F60EE010E06ECF4101CB
:104FE00097CF00E010E088EF0E94112585FD08C0F2
:104FF00080E4D50114968C9360CF04E010E05DCF7F
:1050000080E8F7CF012F10E0EECFFC01DB019A0121
:105010003E96BF01AD010E942C2708957F928F928A
:105020009F92AF92BF92CF92DF92EF92FF920F9337
:105030001F93CF93DF93782E5B014A010E9448268D
:105040007B018C0188E893E1A0E0B0E0E80EF91E56
:105050000A1F1B1FDD24C0E0D0E0CC240E9448269C
:105060006E157F058007910770F5D5016C91672952
:1050700080EF0E94E9240E9448266E157F05800774
:10508000910708F041C088EC0E94112587FFF3CFFB
:1050900088EC60E80E94E924DD240E9448266E1511
:1050A0007F058007910748F488EF0E9411259FE053
:1050B000D92ED822B1E0DB1681F3E4E0DE16E1F070
:1050C000FEE0DF1689F02D2D30E0C901DF91CF9190
:1050D0001F910F91FF90EF90DF90CF90BF90AF9016
:1050E0009F908F907F900895C39483E0C81609F035
:1050F000B5CF2EE030E0E9CF2196C815D90509F0EB
:10510000ADCF24E030E0E1CF2FEF30E0DECF6F9283
:105110007F928F929F92AF92BF92CF92DF92EF9247
:10512000FF920F931F93CF93DF93FC017B013A0112
:1051300069015801DB0112968D909C90139780EEC7
:1051400060810E94E92488EEF70165810E94E924CC
:10515000C0E0D0E080E0B701A5010E940E28892BB5
:10516000D1F588EC0E94112582FF38C080E30E94AF
:105170001125682F082F10E088E0A6010E941D2548
:105180006C0188EC64E00E94E924C00FD11F08156F
:10519000190518F0C615D705E8F288EF0E94112509
:1051A00084FF15C080E2D70115968C939E01C9013A
:1051B000DF91CF911F910F91FF90EF90DF90CF90F3
:1051C000BF90AF909F908F907F906F90089580E1F7
:1051D000F7018583EBCF2FEF3FEFE9CF2EEF3FEFC6
:1051E000E6CF0F931F93FC01662351F480E886837A
:1051F000CF013296BF010E942C271F910F91089575
:1052000080E28783CF013296BF0100E01DE70E9454
:1052100087281F910F9108955F926F927F928F92CE
:105220009F92AF92BF92CF92DF92EF92FF920F9335
:105230001F93DF93CF93CDB7DEB728970FB6F894BF
:10524000DEBF0FBECDBF3C01562E142F822E80EE46
:10525000F30160810E94E92459821A83902F80E033
:105260009924882999299C838B83FE82ED82D88694
:10527000CF8280E268E0AE014F5F5F4F0E94F5246D
:1052800083010E5F1F4F80E1B80140E05DE70E949F
:105290000E288823C9F02FEF3FEFC90128960FB6DB
:1052A000F894DEBF0FBECDBFCF91DF911F910F915C
:1052B000FF90EF90DF90CF90BF90AF909F908F9036
:1052C0007F906F905F900895F52CFF1CFF24FF1CCA
:1052D000A114B10431F0C3016F2DA60195010E9404
:1052E000F128FF2059F080EAB80140E05DE70E9414
:1052F0000E28882351F420E030E0CFCF80E8B801B9
:1053000040E05DE70E940E28F4CF2DEF3FEFC5CFC0
:10531000AF92BF92CF92DF92EF92FF920F93262F20
:1053200060E049E000E0EE24FF24CC24DD24AA2440
:10533000BB240E940C290F91FF90EF90DF90CF903B
:10534000BF90AF900895AF92BF92CF92DF92EF924D
:10535000FF920F93262F60E045E000E0EE24FF244B
:10536000CC24DD24AA24BB240E940C290F91FF9099
:10537000EF90DF90CF90BF90AF9008954F925F92E3
:105380006F927F928F929F92AF92BF92CF92DF9255
:10539000EF92FF920F931F93CF93DF934C01162F41
:1053A0003A01E90160E846E0212F02E0EE24FF2403
:1053B00034E0C32ED12C5E010E940C29892BA1F070
:1053C0002FEF3FEFC901DF91CF911F910F91FF9018
:1053D000EF90DF90CF90BF90AF909F908F907F9095
:1053E0006F905F904F9008959B8180E02A81422EBC
:1053F0005524482A592A6414750408F42301C40169
:1054000060E846E0212F02E0EE24FF2462015E0105
:105410000E940C29892B11F49201D4CF2EEF3FEF7B
:10542000D1CFAF92BF92CF92DF92EF92FF920F93C4
:105430005B0160E846E020E001E0EE24FF2452E159
:10544000C52ED12C0E940C290F91FF90EF90DF9078
:10545000CF90BF90AF9008952F923F924F925F925E
:105460006F927F928F929F92AF92BF92CF92DF9274
:10547000EF92FF920F931F93DF93CF930F92CDB7CD
:10548000DEB73C01362E242E49012801198260E83E
:1054900046E0232D03E0E22CFF2471E0C72ED12C3F
:1054A0005E010894A11CB11C0E940C2997FF17C033
:1054B0002FEF3FEFC9010F90CF91DF911F910F9117
:1054C000FF90EF90DF90CF90BF90AF909F908F9024
:1054D0007F906F905F904F903F902F900895C9807C
:1054E0008C2D90E08816990680F1C30160E846E0B3
:1054F000232D03E0E22CFF24DD2452010E940C291D
:1055000097FD26C08981282F30E0C901029797FDB9
:1055100022C0959587958983882301F1B201F20114
:1055200020E030E0482F50E02F5F3F4F8281DB01C9
:105530008D93BD013296DA0124173507ACF3A40D23
:10554000B51D1C9220E030E0B5CFC82C8982CDCFAC
:105550002EEF3FEFAFCFC9010197DBCFA82FB0E00F
:10556000EECF0F931F93CF93DF93FC01DB01EA0192
:10557000222371F400E01DE7CF013896BF01AD0191
:105580009E010E948728DF91CF911F910F9108956E
:1055900001E010E0F1CF0E94DF250E94B62581E1F5
:1055A000809300021092BD061092D3061092E90675
:1055B0001092BC068EEB96E060E00E949E24089557
:1055C0001F93DF93CF93CDB7DEB762970FB6F894F2
:1055D000DEBF0FBECDBF0E9485250E9438258130D9
:1055E00009F444C08130A0F410910002812F807F23
:1055F0008031C1F081E1809300028091D30688233D
:1056000009F0CEC00E94CB2A82E18093000231C013
:10561000843008F041C010910002812F807F8031DA
:1056200009F47EC01034E1F1113468F1103609F448
:1056300056C0103709F499C01035D9F488EC0E948F
:10564000112586FF16C00E944826209190063091B1
:105650009106409192065091930626173707480706
:10566000590738F480E68093000203C083E18093F9
:10567000000262960FB6F894DEBF0FBECDBFCF9189
:10568000DF911F910895103209F45BC0103309F4C3
:105690003FC0113171F7B1CF10910002103421F6E3
:1056A00088EE0E94112580FDE4CF88ED0E9411252F
:1056B000682F686088ED0E94E92480E580930002ED
:1056C0000E9448266C5E7F4F8F4F9F4F60939006DD
:1056D000709391068093920690939306CACF88E0C8
:1056E00090E09093C1068093C0068CEB96E0BE01DB
:1056F0006F5F7F4F0E94112A882309F04BC0888575
:105700008093C0061092C10680E780930002B1CF5B
:1057100088EE61E00E94E92480E480930002A9CF32
:105720000E94482668537F4F8F4F9F4F609390068B
:1057300070939106809392069093930680E28093F3
:1057400000020E94482620919006309191064091D7
:10575000920650919306261737074807590708F015
:1057600088CF80E38093000284CF8091D306882382
:10577000E9F088EE96E062E00E9498248EEF809334
:105780008F0680EA8093000274CF82ED96E062E09B
:105790000E94982410938F0680EA8093000269CFBC
:1057A00082ED96E061E00E9498242CCF81E0809306
:1057B000D2068093D30684ED96E060E00E949E249A
:1057C0008CEB96E061E00E94A3298823F1F682ED3C
:1057D00096E060E00E94982480E98093000249CF1F
:1057E0005058BB27AA270ED011C202D230F007D2E0
:1057F00020F031F49F3F11F41EF4D2C10EF4E09575
:10580000E7FB9FC1E92F13D280F3BA176207730732
:105810008407950718F071F49EF542C20EF4E095E6
:105820000B2EBA2FA02D0B01B90190010C01CA015A
:10583000A0011124FF27591B99F0593F50F4503E05
:1058400068F11A16F040A22F232F342F4427585FF7
:10585000F3CF469537952795A795F0405395C9F70F
:105860007EF41F16BA0B620B730B840BBAF09150C7
:10587000A1F0FF0FBB1F661F771F881FC2F70EC066
:10588000BA0F621F731F841F48F487957795679539
:10589000B795F7959E3F08F0B3CF9395880F08F022
:1058A0009927EE0F979587950895DF93DD27B92FF8
:1058B000BF7740E85FE31616170648075B0710F44A
:1058C000D92FF9D19F938F937F936F9323D3ECE1DB
:1058D000F2E069D19BD12F913F914F915F9161D2BD
:1058E000DD2349F09058A2EA2AED3FE049EC5FE35E
:1058F000D0785D2787DFDF9189C1BBD180F09F37EA
:1059000040F491110EF4CDC160E070E080E89FE3B7
:10591000089526F01B16611D711D811D18C132C12D
:10592000ECD008F481E008950CD070C168D140F04B
:105930005FD130F021F45F3F19F003C15111B1C1C3
:105940002FC175D198F39923C9F35523B1F3951B52
:10595000550BBB27AA2762177307840738F09F5F90
:105960005F4F220F331F441FAA1FA9F333D00E2EFF
:105970003AF0E0E830D091505040E695001CCAF76C
:1059800029D0FE2F27D0660F771F881FBB1F261731
:1059900037074807AB07B0E809F0BB0B802DBF0104
:1059A000FF2793585F4F2AF09E3F510568F0C9C00A
:1059B00078C15F3FECF3983EDCF386957795679569
:1059C000B795F7959F5FC9F7880F911D96958795B5
:1059D00097F90895E1E0660F771F881FBB1F6217D4
:1059E00073078407BA0720F0621B730B840BBA0B92
:1059F000EE1F88F7E095089504D06894B11151C165
:105A000008951DD188F09F5790F0B92F9927B7516D
:105A1000A0F0D1F0660F771F881F991F1AF0BA9572
:105A2000C9F712C0B13081F03BD1B1E0089538C15F
:105A3000672F782F8827B85F39F0B93FCCF3869568
:105A400077956795B395D9F73EF4909580957095C5
:105A500061957F4F8F4F9F4F0895E89409C097FB42
:105A60003EF490958095709561957F4F8F4F9F4F35
:105A70009923A9F0F92F96E9BB279395F695879579
:105A800077956795B795F111F8CFFAF4BB0F11F43C
:105A900060FF1BC06F5F7F4F8F4F9F4F16C08823E3
:105AA00011F096E911C0772321F09EE8872F762F19
:105AB00005C0662371F096E8862F70E060E02AF05A
:105AC0009A95660F771F881FDAF7880F9695879546
:105AD00097F90895CED080F09F3740F491110EF0E1
