:100000000C94BD020C94DE020C94DE020C94DE0211
:100010000C94DE020C94DE020C94DE020C94DE02E0
:100020000C94DE020C94DE020C94DE020C94DE02D0
:100030000C94DE020C94DE020C94DE020C94EF159C
:100040000C94DE020C9436180C94DE020C94DE0242
:100050000C94DE020C94DE020C94DE020C94DE02A0
:100060000C94DE020C94671B0C94DE020C94DE02EE
:100070000C94DE020C94DE020C94DE020C94DE0280
:100080000C94B11E0C94DE020C94DE020C94DE0281
:100090000C94DE020C94DE020C94DE020C94DE0260
:1000A0000C94DE020C94DE020C94DE020C94DE0250
:1000B0000C94DE020C94DE020C94DE020C94DE0240
:1000C0000C94DE020C94DE020C94DE020C94DE0230
:1000D0000C94DE020C94DE020C94DE020C94DE0220
:1000E0000C94DE022C072C072F07320739073E0736
:1000F000A107A10743074A074F07540759075C07A1
:100100005F076207650768076B07700775077A075F
:100110007D07820787078E0793079A07A107A10724
:100120002F07A107A107A107A107A107A107A10701
:10013000A107A107A107A107A107A107A107A1077F
:10014000A107A107A107A107A107A107A107A1076F
:10015000A107A107A107A107A107A1072F07084A27
:10016000D73B3BCE016E84BCBFFDC12F3D6C7431CB
:100170009ABD56833DDA3D00C77F11BED9E4BB4C22
:100180003E916BAAAABE000000803F595F484F4DC8
:10019000450D0A00585F484F4D450D0A00594C3235
:1001A0000D0A00594C310D0A00584C320D0A005806
:1001B0004C310D0A000D0A006765745F6275737932
:1001C000203D20000D0A00726F7461746564203D4B
:1001D00020000D0A0076616375756D5F737461743C
:1001E00065203D20000D0A00686561645F6D6F76D3
:1001F000696E67203D20000D0A0068656164206417
:100200006F776E203D20000D0A0050494E44206C4F
:10021000696D697473203D20000D0A00504F5254DF
:100220004420203D20000D0A0044495245435449D2
:100230004F4E5F504F525420203D20000D0A004485
:100240004952454354494F4E5F44445220203D207B
:10025000006F6B0A0D000A0D006572726F723A2012
:10026000006572726F723A204E6F7420686F6D6510
:10027000640A0D006572726F723A20436F6D6D6192
:100280006E64204661696C65640A0D006572726F68
:10029000723A20466C6F6174696E6720706F696E88
:1002A00074206572726F720A0D006572726F723A15
:1002B00020556E737570706F72746564207374610D
:1002C00074656D656E740A0D006572726F723A2006
:1002D000457870656374656420636F6D6D616E64ED
:1002E000206C65747465720A0D006572726F723AE3
:1002F00020426164206E756D62657220666F726D5A
:1003000061740A0D006F6B0A0D0053746F7265649F
:10031000206E65772073657474696E670D0A0055E9
:100320006E6B6E6F776E20706172616D6574657251
:100330000D0A002724783D76616C75652720746F5F
:100340002073657420706172616D65746572206FD1
:1003500072206A7573742027242720746F206475B7
:100360006D702063757272656E7420736574746944
:100370006E67730D0A002028737465707065727360
:100380003A2030203D2064697361626C65642C20E2
:1003900031203D20656E61626C6564290D0A002480
:1003A00031303030203D200020286D617820696E8A
:1003B0007374616E7420636F726E6572696E67200C
:1003C0007370656564206368616E676520696E207F
:1003D00064656C7461206D6D2F6D696E290D0A0066
:1003E0002439203D20002028616363656C657261BB
:1003F00074696F6E20696E206D6D2F7365635E3258
:10040000290D0A002438203D200020286D6D2F6121
:100410007263207365676D656E74290D0A00243759
:10042000203D200020286D6D2F6D696E206465666B
:1004300061756C74207365656B2072617465290D3C
:100440000A002436203D200020286D6D2F6D696E36
:100450002064656661756C742066656564207261F0
:100460007465290D0A002435203D200020286D697F
:1004700063726F7365636F6E64732073746570204D
:1004800070756C7365290D0A002434203D2000200E
:100490002873746570732F6465672E2063290D0AB5
:1004A000002433203D2000202873746570732F6D65
:1004B0006D207A290D0A002432203D200020287367
:1004C000746570732F6D6D2079290D0A0024312019
:1004D0003D2000202873746570732F6D6D2078297E
:1004E0000D0A002430203D20000D0A00302E373642
:1004F0005042002456455253494F4E203D2000683B
:100500006F6D65206661696C65640D0A00784C69E1
:100510006D6974310D0A00794C696D6974310D0A89
:10052000004865616420646F776E206572726F7237
:100530000A0D006E6F0D0A007965730D0A00494EB1
:1005400046494E4954594E414ECDCCCC3D0AD72355
:100550003C17B7D13877CC2B329595E6241FB14F95
:100560000A000020410000C84200401C4620BCBEDA
:100570004CCA1B0E5AAEC59D740011241FBECFEF8E
:10058000D1E2DEBFCDBF00E00CBF12E0A0E0B2E0E0
:10059000EAE3FDE400E00BBF02C007900D92A0303B
:1005A000B107D9F716E0A0E0B2E001C01D92AE3964
:1005B000B107E1F70E94FD090C949B260C94000002
:1005C000249A0895892B11F02C9A08952C98089557
:1005D000F999FECF92BD81BD81E08FBB80B50895B2
:1005E000F894F999FECF92BD81BD81E08FBB90B5A3
:1005F0009627892F862339F06F3F19F060BD84E07C
:1006000006C084E104C0992321F060BD84E28FBB61
:10061000F99A789408958F929F92AF92BF92CF9259
:10062000DF92EF92FF920F93DF93CF930F920F928F
:10063000CDB7DEB75C016B017A014A0100E01EC054
:10064000002319F021E030E008C0202F332727FDD8
:1006500030952227330F221F3327F60161916F0156
:10066000062F020F9C012F5F3F4F3A8329830E9480
:10067000F00208948108910889819A81811491047B
:10068000F9F6C7018A0D9B1D602F0E94F0020F90A2
:100690000F90CF91DF910F91FF90EF90DF90CF906F
:1006A000BF90AF909F908F900895CF93DF93EC0110
:1006B000FB019A0190E0B1E019C0F999FECFF2BDBB
:1006C000E1BDBFBBA0B5992319F081E090E008C05F
:1006D000892F992787FD90958827990F881F99273B
:1006E00031969A2F980FA99321503040211531054A
:1006F00021F7460F571FF999FECF52BD41BD81E04A
:100700008FBB80B520E030E0981711F421E030E095
:10071000C901DF91CF91089580932502609326024D
:100720004093270208952F923F924F925F926F92CB
:100730007F928F929F92AF92BF92CF92DF92EF9271
:10074000FF920F931F93DF93CF93CDB7DEB7289718
:100750000FB6F894DEBF0FBECDBF69837A838B835B
:100760009C832D833E834F835887370148011501B1
:10077000260120E030E040E85FEB0E947C218823E6
:1007800041F46090120270901302809014029090D5
:1007900015026D817E818F81988520E030E040E8F0
:1007A0005FEB0E947C21882341F420901602309058
:1007B00017024090180250901902C401B30120E0C2
:1007C00030E040E85FEB0E947C21882341F4609098
:1007D0001A0270901B0280901C0290901D02C201B0
:1007E000B10120E030E040E85FEB0E947C218823EB
:1007F00041F420901E0230901F0240902002509041
:10080000210200D000D080910E0290910F02A091A1
:100810001002B0911102EDB7FEB781839283A383DA
:10082000B4831682158269817A818B819C812D81A6
:100830003E814F81588584017301620151010E94FC
:100840005A0F89819A81AB81BC8180931202909367
:100850001302A0931402B09315028D819E81AF8183
:10086000B8858093160290931702A0931802B09354
:10087000190260921A0270921B0280921C029092DE
:100880001D0220921E0230921F02409220025092BE
:100890002102ADB7BEB716960FB6F894BEBF0FBE15
:1008A000ADBF28960FB6F894DEBF0FBECDBFCF9177
:1008B000DF911F910F91FF90EF90DF90CF90BF904D
:1008C000AF909F908F907F906F905F904F903F90F0
:1008D0002F900895AF92BF92CF92DF92EF92FF9246
:1008E0000F931F93DF93CF930F920F92CDB7DEB785
:1008F0006C015B017A01FB0100811181080F191F56
:10090000C801BE016F5F7F4F0E940A25F701608317
:1009100071838283938389819A818017910731F44F
:1009200081E08093000220E030E007C08C199D092F
:10093000F5019183808321E030E0C9010F900F9091
:10094000CF91DF911F910F91FF90EF90DF90CF90AB
:10095000BF90AF9008950F931F93CF93DF93EC0157
:100960008B01D901ED91FC911197E40FF51FE08106
:10097000EE2339F0E883E154EA3130F082E08093ED
:10098000000220E030E010C08D919C9111970196FB
:100990008D939C93CA01B901A8010E946A04009733
:1009A00011F081E090E09C01C901DF91CF911F918E
:1009B0000F91089588E2E0E0F2E0DF011D928A9550
:1009C000E9F7609187067091880680918906909179
:1009D0008A0620E030E040E752E40E9480216093E4
:1009E0000A0270930B0280930C0290930D026091A7
:1009F0008B0670918C0680918D0690918E0620E07A
:100A000030E040E752E40E94802160930E02709330
:100A10000F0280931002909311021092250291E030
:100A20009093260282E08093270290930402089517
:100A30002F923F924F925F926F927F928F929F92EE
:100A4000AF92BF92CF92DF92EF92FF920F931F93DC
:100A5000DF93CF93CDB7DEB7E2970FB6F894DEBF42
:100A60000FBECDBF5C011B821A8280E090E0A0E047
:100A7000B0E088879987AA87BB8780E1FE013C9612
:100A8000DF01982F1D929A95E9F7FE017C96DF0110
:100A90001D928A95E9F710920002F5018081883253
:100AA00041F18F3229F48A819B8101969B838A834D
:100AB000D5018C91843299F055241CA612E0212E88
:100AC000312C2C0E3D1EB3E09B2EDD24D394A2E0EE
:100AD000CA2EF4E08F2E66246A94762C3FC281E001
:100AE00090E09B838A83F5018181882321F40E9411
:100AF000D41480E02AC48E010E5F1F4FC501B801D7
:100B0000AE01485F5F4F0E946A048A819B81F501B4
:100B1000E80FF91F208101969B838A832D3309F00A
:100B200013C4C501B801AE014C5F5F4F0E946A0457
:100B3000EA81FB81EA0DFB1D8081882309F004C452
:100B4000688579858A859B850E94E821DC01CB0137
:100B50004C815D816E817F810E945814F2C36C814B
:100B60007D818E819F810E9479247B018C010E946E
:100B7000E821FB012981273409F4C5C0283420F479
:100B8000243409F0E7C107C02D3409F459C12435D4
:100B900009F0E0C1D9C18AB18FE392E00E94BD1B88
:100BA00060B370E080E090E00E94741C8CE392E0FF
:100BB0000E94BD1B89E292E00E94BD1B61B370E000
:100BC00080E090E00E94741C86E292E00E94BD1BCF
:100BD000EBB08CE192E00E94BD1BFF2400E010E02E
:100BE000C801B7010E94741C89E192E00E94BD1BFC
:100BF000E9B08AE092E00E94BD1BFF2400E010E013
:100C0000C801B7010E94741C87E092E00E94BD1BDE
:100C10008AEF91E00E94BD1B0E94FE1D90E0A0E0C3
:100C2000B0E0BC01CD010E94591C87EF91E00E9409
:100C3000BD1B88EE91E00E94BD1B0E94821790E0D0
:100C4000A0E0B0E0BC01CD010E94591C85EE91E00E
:100C50000E94BD1B85ED91E00E94BD1B0E94E71E16
:100C600090E0A0E0B0E0BC01CD010E94591C82EDF3
:100C700091E00E94BD1B87EC91E00E94BD1B0E9489
:100C8000011E90E0A0E0B0E0BC01CD010E94591C23
:100C900084EC91E00E94BD1B88EB91E00E94BD1B9B
:100CA0000E94E915AA2797FDA095BA2FBC01CD0196
:100CB0000E94591C85EB91E00E94BD1B4B9B04C018
:100CC0008FEA91E00E94BD1B4A9B04C089EA91E033
:100CD0000E94BD1B489B04C083EA91E00E94BD1B9B
:100CE000499B04C08DE991E00E94BD1B049B04C098
:100CF00084E991E00E94BD1B909B23C38BE891E0A7
:100D00000E94BD1B1EC36531710509F482C06631A6
:100D1000710584F56430710509F410C16530710501
:100D2000A4F46130710509F453C06230710524F4F4
:100D3000672B09F44AC005C16230710509F44BC044
:100D40006330710509F0FDC049C06231710509F4D5
:100D50004FC0633171052CF46131710509F0F1C0A8
:100D600040C06331710509F44AC06431710509F06E
:100D7000E8C04CC06A35710509F454C06B35710583
:100D80009CF46E317105F9F06F3171052CF46C3102
:100D9000710509F0D6C017C065337105E9F16035FA
:100DA000710509F0CEC03BC06C35710509F440C037
:100DB0006C357105D4F16D357105E1F16E35710554
:100DC00009F0BFC03AC0F2E0B3C010920102C2C045
:100DD000D0920102BFC0C0920102BCC09092010239
:100DE000B9C010922502D0922602C0922702B2C04A
:100DF00010922502C0922602D0922702ABC0D09258
:100E00002502C092260210922702A4C0D0920302AB
:100E1000A1C0109203029EC0552453949BC080929F
:100E2000010298C0D092040295C01092040292C0B0
:100E300093E066C0D09202028DC0109202028AC076
:100E40006D33710508F07DC0EE58FF4FEE0FFF1FA8
:100E50000590F491E02D1994D09205027BC0C092C8
:100E6000050278C081E090E090930702809306022B
:100E700071C070920702609206026CC01092070265
:100E80001092060267C081E090E09093090280937F
:100E9000080260C010920902109208025BC081E053
:100EA00090E00E94071E30C080E090E00E94071E84
:100EB00032C080E090E011C081E090E00EC082E09E
:100EC00090E00BC083E090E008C084E090E005C0B3
:100ED00085E090E002C086E090E00E94AC1D3AC040
:100EE00081E090E00E94CD1E1BC080E090E00E9457
:100EF000CD1E1DC00E94922021C00E94612091E061
:100F00009CA728C00E94C71DA1E0ACA723C00E94D7
:100F1000271F80930002B1E0BCA71CC00E94612083
:100F2000E1E0ECA717C00E94BD2080930002F1E031
:100F3000FCA710C00E9471208093000281E08CA762
:100F400009C09092000206C0C801B7010E94ED21BD
:100F50006093220280910002882361F4CE01019601
:100F6000BE016C5F7F4FA50191010E94AB04892BEC
:100F700009F0F5CD80910002882309F0E6C11B82BB
:100F80001A8280E1FE017C96DF011D928A95E9F7C5
:100F9000DE011C96E2E1F2E080E101900D928150C9
:100FA000E1F71DA61EA6B0E8BFA7EFEBE8AB6624ED
:100FB0007724E2E02E2E312C2C0E3D1E4E0108949B
:100FC000811C911C79E0472EC9C0CC80DD80EE8069
:100FD000FF8080910302882319F4A70196010AC0BB
:100FE000C701B60123E333E34BEC51E40E94B12384
:100FF0009B01AC0109810C3460F4093408F047C04E
:101000000634B1F0083409F4A2C0033409F0A6C0D4
:1010100088C0033509F44FC0043520F4003509F0C9
:101020009DC044C0802F8855833008F097C04CC0C5
:1010300080910202882329F02DA73EA74FA758AB25
:101040008DC080910102882389F4CA01B90120E092
:1010500030E040E752E40E94802160930E027093DA
:101060000F02809310029093110278C0CA01B90157
:1010700020E030E040E752E40E94802160930A02C1
:1010800070930B0280930C0290930D0267C0E02FC7
:10109000F0E0E954F040EE0FFF1FEE0FFF1FE80DE8
:1010A000F91D238F348F458F568F58C0C886D98637
:1010B000EA86FB8653C0C701B6010E94E8217093FF
:1010C0002402609323024AC080910402882311F411
:1010D000552079F0E02FF0E0E855F040EE0FFF1FCB
:1010E000EE0FFF1FE80DF91D2387348745875687CC
:1010F00035C010E008551040000F111F000F111FE0
:10110000080D191DD8011B966D917D918D919C91B3
:101110001E970E94DD20F801638774878587968774
:101120001DC080910402882311F4552029F0288FD6
:10113000398F4A8F5B8F12C0688D798D8A8D9B8D18
:101140000E94DD20688F798F8A8F9B8F07C0CA012C
:10115000B9010E94ED213B0140920102C401BE0190
:101160006C5F7F4FA50191010E94AB04892B09F0B0
:101170002CCF80910002882309F0E7C080910602FD
:1011800090910702009759F0409123025091240258
:10119000662757FD6095762F0E94BB1502C00E94FE
:1011A000C6158091080290910902892B19F081E0FF
:1011B00090E002C080E090E00E94E202FCA5F130E5
:1011C00091F0F130F8F0F23021F0F33009F0B0C0D6
:1011D0009DC00E942D0A80E1FE013C96DF011D9218
:1011E0008A95E9F7A5C0688579858A859B8520E081
:1011F00030E04AE754E40E94B1230E94ED210E94AE
:10120000300A96C080910102813099F1813020F03E
:10121000893009F08DC076C000D000D06C857D8506
:101220008E859F85288939894A895B89EC88FD8864
:101230000E891F89A88CB98CCA8CDB8C60900E0239
:1012400070900F028090100290901102EDB7FEB7DF
:101250006182728283829482168215820E945A0F62
:101260008DB79EB706960FB6F8949EBF0FBE8DBF82
:101270005FC02C843D844E845F84688879888A8826
:101280009B88EC88FD880E891F89A88CB98CCA8C34
:10129000DB8C60910202662361F490910A029DA7A3
:1012A000A0910B02AEA7B0910C02BFA7E0910D0276
:1012B000E8AB00D000D08DB79EB701969AAB89AB52
:1012C0002DA53EA54FA558A9C901DA01EDB7FEB776
:1012D00081839283A383B483A9A9BAA914966C933A
:1012E000149715961C92C201B101A40193010E94AA
:1012F0005A0FEDB7FEB736960FB6F894FEBF0FBE85
:10130000EDBF16C0C3010E94CC1512C06C857D854F
:101310008E859F85288939894A895B89EC88FD8873
:101320000E891F89A88CB98CCA8CDB8C0E94920B09
:10133000A2E1B2E0FE013C9680E101900D92815065
:10134000E1F78091000201C083E0E2960FB6F894C5
:10135000DEBF0FBECDBFCF91DF911F910F91FF90E8
:10136000EF90DF90CF90BF90AF909F908F907F9045
:101370006F905F904F903F902F900895AF92BF92E3
:10138000CF92DF92EF92FF920F931F9379018A0120
:101390005F770E9480210E9441215B016C01C8019E
:1013A000B70120E030E040E050E00E9443231816EF
:1013B000CCF0C601B50120E030E040E050E00E94F2
:1013C000432318162CF46BED7FE089E490E404C00D
:1013D0006BED7FE089E490ECA60195010E94DC2092
:1013E0005B016C01B501C6011F910F91FF90EF9059
:1013F000DF90CF90BF90AF9008950E949A130E9403
:10140000A8150E942F0C0E94C0160E9489170E94E6
:10141000B3150E94E0020E94BD1C0E94EF1D0E94B5
:10142000C01E0E943A1E0E94DA0481E592E00E94EA
:10143000BD1B83B7816083BF889583B78E7F83BFD1
:1014400080914A05882321F00E94261B10924A05AC
:101450000E9415130E94BB1EECCF0E94B217089584
:10146000AF92BF92CF92DF92EF92FF920F931F93B2
:101470007B018C010E942918C801B7010E94192222
:101480005B016C0120E030E04AE755E40E94B123A3
:101490007B018C0120E030E040E85FE30E947C218A
:1014A00088231CF461E070E024C0C801B70120E08B
:1014B0003FEF4FE757E40E9443231816B4F4C601E8
:1014C000B50120E030E040E251E40E94B1230E94E7
:1014D000ED2180E991E005C0FC013197F1F7615001
:1014E000704061157105C1F707C0C801B7010E94BE
:1014F000ED21CB010197F1F71F910F91FF90EF9034
:10150000DF90CF90BF90AF900895FC016091970657
:10151000709198068091990690919A0621A532A51E
:1015200043A554A50E94802108958091160590E05E
:101530000895209102053091030580910405909152
:1015400005052817390769F0809104059091050574
:1015500001966AE070E00E94A624909305058093AE
:10156000040508952091020530910305809104053A
:10157000909105052817390719F440E050E00FC095
:10158000209104053091050589E490E0289FA00191
:10159000299F500D389F500D1124485D5D4FCA01A1
:1015A00008954F925F926F927F928F929F92AF9227
:1015B000BF92CF92DF92EF92FF920F931F93CF9340
:1015C000DF93EC014B016115710509F45EC00097D2
:1015D00009F45BC0E9A8FAA80BA91CA9FB0141A862
:1015E00052A863A874A8C801B701A30192010E9480
:1015F0007C2188230CF049C0F401A1A4B2A4C3A4A7
:10160000D4A4C601B501A80197010E94B1239B0192
:10161000AC010E94B1237B018C0120919306309193
:10162000940640919506509196065058CA01B9010A
:101630000E94DD2020E030E040E752E40E94B12328
:1016400020E030E040E752EC0E94B1232DA53EA5FA
:101650004FA558A90E94B1239B01AC01C801B70155
:101660000E94DD200E943824A60195010E9480215D
:101670007B018C01A30192010E947C2188232CF420
:10168000F401E1AAF2AA03AB14ABDF91CF911F9151
:101690000F91FF90EF90DF90CF90BF90AF909F9011
:1016A0008F907F906F905F904F900895EF92FF9290
:1016B0000F931F93CF93DF938091040590910505BD
:1016C000482FC0E0D0E020E030E014C089E44802B8
:1016D00080011124085D1D4FC901BE01A8010E94AF
:1016E000D10AC70101966AE070E00E94A624482F43
:1016F0009E01E801E42EFF24E7FCF09480910205AE
:1017000090910305E816F90609F7C901BE0140E00A
:1017100050E00E94D10ADF91CF911F910F91FF906D
:10172000EF9008952F923F924F925F926F927F9227
:101730008F929F92AF92BF92CF92DF92EF92FF92E1
:101740000F931F933B014C0119012A010E94291894
:10175000C401B30120917506309176064091770659
:10176000509178060E94B1230E944E2326E0822EDB
:1017700025E0922E60930605709307058093080577
:1017800090930905C201B1012091790630917A0642
:1017900040917B0650917C060E94B1230E944E230B
:1017A000F401349660930A05718382839383C801A0
:1017B000B70120917D0630917E0640917F065091C1
:1017C00080060E94B1230E944E23F4013896609354
:1017D0000E05718382839383C601B5012091810632
:1017E0003091820640918306509184060E94B12375
:1017F0000E944E232CE030E0820E931E609312056F
:10180000F4017183828393831F910F91FF90EF9076
:10181000DF90CF90BF90AF909F908F907F906F9010
:101820005F904F903F902F900895CF93DF93EC01FE
:1018300090E080911605811191E080E0209709F0F9
:1018400081E0981749F00E94291810921605CD2BB7
:1018500019F081E080931605DF91CF9108951092E1
:10186000030510920205109205051092040581E00F
:1018700090E00E94150C80E1E6E0F5E0DF011D92AA
:101880008A95E9F708952F923F924F925F926F9257
:101890007F928F929F92AF92BF92CF92DF92EF9200
:1018A000FF920F931F93DF93CF9300D000D0CDB75B
:1018B000DEB78C017E836D83672B09F407C1411568
:1018C000510561F0DA01D1968D919D910D90BC91F9
:1018D000A02D89839A83AB83BC8308C08D819E81B0
:1018E0000E94850A69837A838B839C830115110585
:1018F00009F4E0C0F801618D728D838D948DAD8106
:10190000BE8159962D913D914D915C915C970E94BD
:10191000DC209B01AC010E94B1231B012C01F801CA
:10192000658D768D878D90A1AD81BE815D962D915F
:101930003D914D915C9190970E94DC209B01AC0100
:101940000E94B1233B014C01F80161A172A183A166
:1019500094A1AD81BE8191962D913D914D915C9167
:1019600094970E94DC209B01AC010E94B1235B0193
:101970006C01F80165A176A187A190A5AD81BE811A
:1019800095962D913D914D915C9198970E94DC2008
:101990009B01AC010E94B1237B018C01C201B1010A
:1019A000A40193010E94DD20A60195010E94DD2083
:1019B000A80197010E94DD200E9438245B016C0180
:1019C000E0909706F09098060091990610919A067B
:1019D000A80197010E94432318165CF00F2EF0E037
:1019E0006F2EF0E07F2EF0E88F2EFFE39F2EF02D7C
:1019F00008C0C801B701A60195010E9480213B01E2
:101A00004C01C401B30129813A814B815C810E9460
:101A1000432318160CF054C0ED81FE81A1A4B2A49A
:101A2000C3A4D4A4C601B50129813A814B815C814C
:101A30000E94B1239B01AC010E94B1237B018C0168
:101A40002091930630919406409195065091960608
:101A50005058CA01B9010E94DD2020E030E040E783
:101A600052E40E94B12320E030E040E752EC0E94B3
:101A7000B123AD81BE819D962D913D914D915C919B
:101A8000D0970E94B1239B01AC01C801B7010E940D
:101A9000DD200E943824A60195010E9480217B014F
:101AA0008C01A40193010E947C2188234CF437010E
:101AB000480106C08D819E810E94850A3B014C0130
:101AC000ED81FE8161AA72AA83AA94AA26960FB616
:101AD000F894DEBF0FBECDBFCF91DF911F910F9164
:101AE000FF90EF90DF90CF90BF90AF909F908F903E
:101AF0007F906F905F904F903F902F900895FF924E
:101B00000F931F93CF93DF9380910205909103056C
:101B1000F82EC0E0D0E040E050E012C0FA94F7FEAA
:101B200002C039E0F32E8F2D99E48902800111243F
:101B3000085D1D4FC801BE010E94430CAE01E801C3
:101B400020910405309105058F2D992787FD9095EB
:101B50008217930719F780E090E0BE010E94430CC2
:101B6000DF91CF911F910F91FF9008952F923F9297
:101B70004F925F926F927F928F929F92AF92BF929D
:101B8000CF92DF92EF92FF920F931F93DF93CF9349
:101B9000CDB7DEB762970FB6F894DEBF0FBECDBFEC
:101BA0009A8B898B6A017B0118012901FC016589E7
:101BB00076898789908D0E9419223B014C01A701EB
:101BC00096010E94B1230E9469210E94ED217B01B0
:101BD0008C01E989FA8965AB76AB87AB90AFC4011C
:101BE000B301A20191010E94B1230E9469210E94C8
:101BF000ED211B012C01E989FA8961AF72AF83AF36
:101C000094AFFD966081718182819381FD97FA8BFB
:101C1000E98B28E230E040E050E00E9487240E94F7
:101C20001B2220E030E040E752E40E94B1230E94F2
:101C3000E8215B016C01C801B7010E9419227B01F8
:101C40008C01C601B5010E941B226D837E838F83A8
:101C50009887C401B301A40193010E94B1233B0101
:101C60004C01C801B701A80197010E94B1236987FF
:101C70007A878B879C876D817E818F8198859B0178
:101C8000AC010E94DD206D877E878F87988BC40111
:101C9000B30129853A854B855C850E94DC202D8522
:101CA0003E854F8558890E9480210E9469210E94AB
:101CB000E82169837A838B839C83C201B1010E94EE
:101CC00019229B01AC010E94B1231B012C01A4012C
:101CD00093010E94DC207B018C01D094C094B094CD
:101CE000A094A11CB11CC11CD11CC601B5010E944D
:101CF0001B229B01AC010E94DD209B01AC01C801AD
:101D0000B7010E9480210E945622E989FA89A188A0
:101D1000B288C388D4888601750129813A814B81B4
:101D20005C81E21AF30A040B150B0E94E821A8015A
:101D30009701261B370B480B590BDA01C90157FFD6
:101D400034C0C601B5010E941B229B01AC016D8508
:101D50007E858F8598890E94B12329853A854B8598
:101D60005C850E94DC20A20191010E94DD207B01A4
:101D70008C016D817E818F81988520E030E040E884
:101D800050E40E94B1239B01AC01C801B7010E943D
:101D900080210E9469210E94E82169837A838B83D4
:101DA0009C8380E090E0A0E0B0E049895A894F5BD5
:101DB0005F4FFA0129813A814B815C8121933193F4
:101DC00041935193FA8BE98B820F931FA41FB51F88
:101DD00080839183A283B38362960FB6F894DEBFAB
:101DE0000FBECDBFCF91DF911F910F91FF90EF906C
:101DF000DF90CF90BF90AF909F908F907F906F902B
:101E00005F904F903F902F900895CF92DF92EF9286
:101E1000FF920F931F93CF93DF93809104059091CE
:101E20000505282FC0E0D0E01EC089E4280270011B
:101E30001124E8E2F2E0EE0EFF1E209761F049A9BE
:101E40005AA96BA97CA9F70101A912A923A934A950
:101E5000CE010E94B60DC60101966AE070E00E94B4
:101E6000A624282FE701C22EDD24C7FCD094809140
:101E7000020590910305C816D906B9F6CE010E9455
:101E8000850A8B019C0149A95AA96BA97CA9CE019D
:101E90000E94B60DDF91CF911F910F91FF90EF90AF
:101EA000DF90CF9008950E947F0D0E94560B0E94F4
:101EB000050F08952F923F924F925F926F927F92FB
:101EC0008F929F92AF92BF92CF92DF92EF92FF924A
:101ED0000F931F93DF93CF93CDB7DEB7E4970FB681
:101EE000F894DEBF0FBECDBF3B014C012FA338A736
:101EF00049A75AA7EBA6FCA60DA71EA7AFA6B8AA8E
:101F0000C9AADAAA80914B05882309F475C3C401D4
:101F1000B301209175063091760640917706509175
:101F200078060E94B1230E944E237B018C012091F0
:101F3000790630917A0640917B0650917C062BA35E
:101F40003CA34DA35EA320907D0630907E0640907A
:101F50007F0650908006A0908106B0908206C090C7
:101F60008306D09084068091020590910305019626
:101F70006AE070E00E94A6248BAB9CAB07C083B7DD
:101F8000816083BF889583B78E7F83BF809104056E
:101F9000909105054BA95CA98417950781F32091C1
:101FA00002053091030589E490E0289FD001299F24
:101FB000B00D389FB00D1124A85DBD4FBAA3A9A3E1
:101FC0008091060590910705A0910805B09109053B
:101FD00037014801681A790A8A0A9B0A97FE08C0E5
:101FE0009094809470946094611C711C811C911C6D
:101FF0006FA578A989A99AA9A60195010E94B12384
:102000000E944E236D877E878F87988B6BA57CA55A
:102010008DA59EA5A20191010E94B1230E944E238D
:1020200069877A878B879C876FA178A589A59AA5F0
:102030002BA13CA14DA15EA10E94B1230E944E2381
:102040006D837E838F839887E982FA820B831C835A
:10205000E9A1FAA160827182828293822D813E8100
:102060004F81588580910A0590910B05A0910C0530
:10207000B0910D05281B390B4A0B5B0B57FF07C0AE
:1020800050954095309521953F4F4F4F5F4FA9A1F7
:10209000BAA114962D933D934D935C931797298580
:1020A0003A854B855C8580910E0590910F05A09136
:1020B0001005B0911105281B390B4A0B5B0B57FF1C
:1020C00007C050954095309521953F4F4F4F5F4F3A
:1020D000E9A1FAA12087318742875387A090120592
:1020E000B0901305C0901405D09015052D853E8540
:1020F0004F8558892A193B094C095D0957FF07C0CC
:1021000050954095309521953F4F4F4F5F4FA9A176
:10211000BAA11C962D933D934D935C931F971896EF
:10212000ED90FD900D911C911B97FD01848195818F
:10213000A681B7818E159F05A007B10710F4D801BD
:10214000C701E9A1FAA1E080F180028113818E1517
:102150009F05A007B10710F4D801C70182179307A4
:10216000A407B50710F4DA01C901E9A1FAA1818B2E
:10217000928BA38BB48B0097A105B10521F488E560
:102180000E94261B39C269817A818B819C812091B2
:102190000605309107054091080550910905621B1D
:1021A000730B840B950B0E941B22209175063091B6
:1021B000760640917706509178060E9480216D8FB7
:1021C0007E8F8F8F98A36D817E818F8198852091DE
:1021D0000A0530910B0540910C0550910D05621BCD
:1021E000730B840B950B0E941B2220917906309172
:1021F0007A0640917B0650917C060E948021698F6F
:102200007A8F8B8F9C8F69857A858B859C852091B1
:102210000E0530910F054091100550911105621B7C
:10222000730B840B950B0E941B2220917D0630912D
:102230007E0640917F06509180060E9480216D8B22
:102240007E8B8F8B988F6D857E858F8598896A1997
:102250007B098C099D090E941B22209181063091E7
:10226000820640918306509184060E948021698BEA
:102270007A8B8B8B9C8B6D8D7E8D8F8D98A10E9420
:1022800076243B014C01698D7A8D8B8D9C8D0E944B
:1022900076247B018C016D897E898F89988D0E94BF
:1022A00076245B016C0169897A898B899C890E94FB
:1022B00076241B012C01C401B301A80197010E94DF
:1022C000DD20A60195010E94DD20A20191010E945E
:1022D000DD200E9438249B01AC01A9A1BAA19D96E2
:1022E0006D937D938D939C93D09760968EAD9FADAB
:1022F0006097892B89F4CA01B9012E962CAD3DADAA
:102300004EAD5FAD2E970E94802120E034E244E77D
:1023100059E40E94B1230CC060EC71EE84E69CE4A9
:102320002E962CAD3DAD4EAD5FAD2E970E94802117
:102330000E944E23AC01CB01DA01BC01CD010E9409
:1023400019229B01AC0160EC71EE84E69CE40E94D2
:1023500080217B018C016D8D7E8D8F8D98A1A801D0
:1023600097010E94B123E9A1FAA1618F728F838F37
:10237000948F698D7A8D8B8D9C8DA80197010E9419
:10238000B123A9A1BAA15D966D937D938D939C9382
:1023900090976D897E898F89988DA80197010E94F9
:1023A000B123E9A1FAA161A372A383A394A36989CC
:1023B0007A898B899C89A80197010E94B123A9A1E0
:1023C000BAA195966D937D938D939C9398979D96C6
:1023D0006D917D918D919C91D097A80197010E945C
:1023E000B123E9A1FAA161A772A783A794A7618984
:1023F0007289838994890E941B225B016C01A80168
:1024000097010E94B1230E9469210E94ED213B01A6
:102410004C01A9A1BAA155966D937D938D939C9380
:10242000589780E090E0A0E0B0E0E9A1FAA181AB8C
:1024300092ABA3ABB4AB609193067091940680917C
:1024400095069091960620E030E040E752E40E9425
:10245000B12320E030E040E252E40E9480217B0181
:102460008C01A9A1BAA19D966D917D918D919C91B0
:10247000D097A60195010E9480219B01AC01C80163
:10248000B7010E9480210E94692109A11AA1035C61
:102490001F4F0E94E821F801608371838283938338
:1024A00080911605882369F089A19AA10E94850A66
:1024B0008B019C0189A19AA1B901A8010E94B60DC6
:1024C00026C0A9A1BAA1D5966D927D928D929C92BB
:1024D000D897FD0161AE72AE83AE94AEEF5BFF4F55
:1024E00010821182128213829D012B5B3F4FFD01EE
:1024F00081899289A389B489F90180839183A28318
:10250000B383D8011D921D921D921C921397E9A1CD
:10251000FAA1108A29813A814B815C81809106055C
:1025200090910705A0910805B09109052817390772
:102530004A075B0714F482E0808B2D813E814F8136
:10254000588580910A0590910B05A0910C05B091DA
:102550000D05281739074A075B0744F4A9A1BAA15A
:1025600050968C915097886050968C9329853A8527
:102570004B855C8580910E0590910F05A09110050B
:10258000B0911105281739074A075B072CF4E9A118
:10259000FAA180898064808B2D853E854F8558897E
:1025A0008091120590911305A0911405B091150525
:1025B000281739074A075B0744F4A9A1BAA1509626
:1025C0008C915097806850968C93EBA9FCA9F0935E
:1025D0000305E0930205A6E0B5E0FE01319680E137
:1025E00001900D928150E1F780911605882311F03A
:1025F0000E94530F0E94DD15E4960FB6F894DEBFDB
:102600000FBECDBFCF91DF911F910F91FF90EF9043
:10261000DF90CF90BF90AF909F908F907F906F9002
:102620005F904F903F902F9008950F931F9379C024
:10263000E0914905EE2309F462C09A3019F09D300B
:1026400009F05DC0F0E0E95EFA4F108287E195E0A5
:102650000E941805082F80914B05882331F1033023
:10266000C9F0043028F4013069F0023070F407C07A
:102670000530B1F0053088F00336D1F416C085E09E
:1026800093E005C08AEE92E002C089EC92E00E94DD
:10269000BD1B32C08AEA92E0FACF8CE892E002C019
:1026A00084E792E00E94BD1B15C081E692E0FACF5C
:1026B00010E089E592E00E94BD1BB801882777FDF4
:1026C0008095982F0E94591C86E592E00E94BD1BC0
:1026D000012B91F080E090E00E94CD1E80E090E020
:1026E0000E94071E80E090E00E94D21C10924B05D1
:1026F00081E090E00E94E3151092490512C09132EA
:1027000084F0892F8156AE2FB0E0EF5F8A3120F43C
:10271000A95EBA4F905202C0A95EBA4F9C93E09353
:1027200049050E943F1B982F8F3F09F081CF1F91D1
:102730000F91089560E076E980E090E00E94EA1A47
:10274000089580E090E0AEE7B4E48093750690933E
:102750007606A0937706B0937806809379069093D7
:102760007A06A0937B06B0937C0684EF99EFACE3E6
:10277000B4E480937D0690937E06A0937F06B09389
:10278000800681EC9AECA1E3B2E4809381069093F9
:102790008206A0938306B093840688E08093860621
:1027A00080E090E0A0EFB3E48093870690938806E2
:1027B000A0938906B0938A0680938B0690938C062B
:1027C000A0938D06B0938E068AE999E9A9E9B0E451
:1027D0008093930690939406A0939506B0939606E3
:1027E0008DEC9CECACECBDE380938F06909390064F
:1027F000A0939106B093920680E090E0A8E4B2E442
:102800008093970690939806A0939906B0939A06A2
:10281000089580E090E00E94E802873681F485E721
:1028200096E061E070E046E250E00E94550320E04F
:10283000892B09F421E081E0282730E029C081308C
:1028400029F585E796E061E070E04BE150E00E94F9
:102850005503892BD9F08AE999E9A9E9B0E4809375
:10286000930690939406A0939506B093960680E005
:1028700090E0A8E4B2E48093970690939806A09322
:102880009906B0939A0621E030E002C020E030E0E3
:10289000C901089580E090E067E60E94F00281E0BF
:1028A00090E065E776E046E250E00E940B03089571
:1028B000FC0186309105B9F1873091054CF48430E4
:1028C0009105F9F0853091052CF597FF0FC062C096
:1028D00088309105D1F18830910574F189309105E6
:1028E000E9F1E85EF34009F055C044C0EE0FFF1F68
:1028F000EE0FFF1FEB58F94F4083518362837383C0
:102900004CC0CB01BA010E9414240E94ED216093B7
:10291000860643C0409387065093880660938906D5
:1029200070938A063AC040938B0650938C0660934E
:102930008D0670938E0631C040938F06509390069B
:10294000609391067093920628C04093930650932B
:10295000940660939506709396061FC0DB01CA012A
:10296000BF778093970690939806A0939906B093AB
:102970009A0613C0CB01BA0120E030E040E050E0FD
:102980000E947C21882319F00E94FE1508950E9460
:10299000001608958FE193E004C00E944A148AE073
:1029A00093E00E94BD1B089583EF94E00E94BD1B3D
:1029B0008CEE94E00E94BD1B89EE94E00E94BD1B4A
:1029C00083EE94E00E94BD1B6091750670917606BF
:1029D00080917706909178060E947B1C83ED94E0AD
:1029E0000E94BD1B8DEC94E00E94BD1B6091790696
:1029F00070917A0680917B0690917C060E947B1CE8
:102A00008DEB94E00E94BD1B87EB94E00E94BD1B00
:102A100060917D0670917E0680917F069091800680
:102A20000E947B1C87EA94E00E94BD1B81EA94E02F
:102A30000E94BD1B60918106709182068091830681
:102A4000909184060E947B1C8FE894E00E94BD1B3D
:102A500089E894E00E94BD1B6091860670E080E0EA
:102A600090E00E94591C8CE694E00E94BD1B86E613
:102A700094E00E94BD1B609187067091880680914A
:102A8000890690918A060E947B1C88E494E00E944B
:102A9000BD1B82E494E00E94BD1B60918B06709187
:102AA0008C0680918D0690918E060E947B1C84E29C
:102AB00094E00E94BD1B8EE194E00E94BD1B6091DA
:102AC0008F067091900680919106909192060E94D7
:102AD0007B1C8AE094E00E94BD1B84E094E00E948D
:102AE000BD1B60919306709194068091950690911C
:102AF00096060E947B1C86EE93E00E94BD1B80EE32
:102B000093E00E94BD1B609197067091980680919A
:102B1000990690919A060E947B1C88EA93E00E9495
:102B2000BD1B8FE993E00E94BD1B0E940216AA27DD
:102B300097FDA095BA2FBC01CD010E94591C86E7D4
:102B400093E00E94BD1B83E393E00E94BD1B0895A8
:102B50000E940914892B31F40E94A1130E944A1487
:102B60000E94D4140895E1E0F1E0808180648083C4
:102B7000279A3E9A089597FD02C02F9801C02F9A78
:102B8000809102018064809302010895E2E0F1E007
:102B900080818F7B8083089535E340E757E1469A33
:102BA000232F2A95F1F74698FA013197F1F701970B
:102BB0002FEF8F3F920799F70895EFE6F0E08081BD
:102BC00082608083089590E090936405809363050C
:102BD00008952091630530916405C90108951F92FD
:102BE0000F920FB60F9211248F9381B38A7C81BB11
:102BF0008F910F900FBE0F901F90189544980895D5
:102C0000449A08953C9903C020E030E007C088B1A1
:102C100082958F7080958170282F30E0C9010895CA
:102C2000603020E0720721E0820720E0920730F454
:102C30009B0140E050E0E0E0F0E072C0603020E056
:102C4000720728E0820720E09207A0F4B3E096958F
:102C5000879577956795BA95D1F79B0140E050E04D
:102C6000A3E0220F331F441F551FAA95D1F7E1E0BF
:102C7000F0E056C0603020E0720720E4820720E0D8
:102C80009207A0F4F6E09695879577956795FA9563
:102C9000D1F79B0140E050E0E6E0220F331F441FD4
:102CA000551FEA95D1F7E2E0F0E03AC0603020E04D
:102CB000720720E0820721E0920770F4BB27A92F5A
:102CC000982F872FBC01A0E0B0E02227382F492F92
:102CD0005A2FE3E0F0E024C0603020E0720720E0EB
:102CE000820724E0920748F06FEF7FEFE4E0F0E026
:102CF00020E03CEF40E050E013C02AE09695879535
:102D0000779567952A95D1F79B0140E050E08AE0DE
:102D1000220F331F441F551F8A95D1F7E4E0F0E0DE
:102D2000809181009E2F9F5F887F982B90938100D8
:102D30007093890060938800B901CA0108959B01CE
:102D4000AC01203B84E0380780E0480780E058076A
:102D500020F420EB34E040E050E060E070E788E3EE
:102D600099E30E94B924CA01B9010E941016609328
:102D700065057093660580936705909368050895CF
:102D800080B3856380BB80B38A6C80BB81B38A7C4F
:102D900081BB3C9A449AE1E8F0E080818F7E808399
:102DA000808188608083E0E8F0E080818D7F80838F
:102DB00080818E7F808380818F73808380818F7CF0
:102DC00080831092B00082E08093B100E0E7F0E0F1
:102DD00080818160808360E777E180E090E00E94FD
:102DE0009F16EFE6F0E080818D7F80831092690569
:102DF00010926A0510926B0510926C0578940895F4
:102E00009C0181B3857381BB95E340E654E013C018
:102E1000215030404B9B02C080E0089581B38A7CF2
:102E2000816081BB892F8A95F1F781B38A7C81BB50
:102E3000FA013197F1F72115310551F781E0089535
:102E40009C0181B38573826081BB95E340E654E0C9
:102E500013C0215030404A9B02C080E0089581B3E6
:102E60008A7C816081BB892F8A95F1F781B38A7C46
:102E700081BBFA013197F1F72115310551F781E056
:102E800008959C0181B3857381BB95E340E654E0CE
:102E900013C021503040489B02C080E0089581B3A8
:102EA0008A7C846081BB892F8A95F1F781B38A7C03
:102EB00081BBFA013197F1F72115310551F781E016
:102EC00008959C0181B38573886081BB95E340E6DA
:102ED00054E013C021503040499B02C080E0089567
:102EE00081B38A7C846081BB892F8A95F1F781B395
:102EF0008A7C81BBFA013197F1F72115310551F731
:102F000081E0089580916F0090E09695879581709B
:102F1000089511B882E084B917B81AB81DB89FE8AF
:102F200090BB13BA10920101109204013FEC309350
:102F3000070120EF20930A018CE982B982E285B96A
:102F400083E188B99BB980E38EB991BB83E284BBEE
:102F500083E0809302018093050130930801209360
:102F60000B01089510924B050E942F0C0E94DA0469
:102F70000E94FE1D882369F080E090E00E94071EF9
:102F80000E94FE1D882329F08FEF94E00E94BD1B54
:102F90000895F89480E090E00E94D21C4B9B17C0EB
:102FA00010924B058DE095E00E94BD1B88EE93E0EA
:102FB0000E942017882311F47894089580ED97E0FB
:102FC00020E931E0F9013197F1F70197D9F7489BF2
:102FD00017C010924B0587E195E00E94BD1B88EE5B
:102FE00093E00E946117882311F47894089580ED8E
:102FF00097E020E931E0F9013197F1F70197D9F72E
:10300000049907C081E090E00E9400178823C1F76F
:1030100011C080ED97E020E931E0F9013197F1F737
:103020000197D9F7909906C081E090E00E9441177E
:103030008823C1F7789489B190E08F709070892BC4
:1030400039F481E080934B0510926405109263057A
:10305000089507C083B7816083BF889583B78E7F4B
:1030600083BF0E94B20A892BA9F708951F920F927D
:103070000FB60F920BB60F921124EF92FF920F939F
:103080001F932F933F934F935F936F937F938F93F0
:103090009F93AF93BF93CF93DF93EF93FF93809171
:1030A0004B05882311F488E415C00E94FE1D882377
:1030B00009F077C28091630590916405892B09F02E
:1030C00070C289B190E08F709070892B59F0109286
:1030D0004B058CE480934A0580916F008D7F80932F
:1030E0006F005FC291B380919B068A7C9573892B98
:1030F00081BB81B38A7C90914E05892B81BB8091E5
:103100008606880F845081958093B200B89A81E03A
:1031100090E09093640580936305789480914C05CA
:1031200090914D05892B09F060C00E94B20AEC0114
:1031300090934D0580934C05009709F44EC06DA9FE
:103140007EA98FA998AD60936D0570936E058093ED
:103150006F05909370051092690510926A051092A0
:103160006B0510926C050E949F1689899A89AB891C
:10317000BC89B595A79597958795B095A09590959D
:1031800081959F4FAF4FBF4F80934F059093500550
:10319000A0935105B0935205809353059093540525
:1031A000A0935505B0935605809357059093580505
:1031B000A0935905B0935A0580935B0590935C05E5
:1031C000A0935D05B0935E0510925F0510926005B7
:1031D000109261051092620508C080916F008D7F8A
:1031E00080936F0088E580934A05E0914C05F0914B
:1031F0004D05309709F4EEC0808980939B061092AC
:103200004E0520914F053091500540915105509148
:10321000520580819181A281B381280F391F4A1FF5
:103220005B1F20934F0530935005409351055093F9
:10323000520512161306140615069CF481E08093BD
:103240004E0581899289A389B489281B390B4A0BC1
:103250005B0B20934F0530935005409351055093DD
:1032600052052091530530915405409155055091D8
:10327000560584819581A681B781280F391F4A1F81
:103280005B1F20935305309354054093550550938D
:1032900056051216130614061506ACF480914E0559
:1032A000846080934E0581899289A389B489281B03
:1032B000390B4A0B5B0B2093530530935405409315
:1032C000550550935605209157053091580540916A
:1032D000590550915A0580859185A285B385280F9F
:1032E000391F4A1F5B1F20935705309358054093A1
:1032F000590550935A051216130614061506ACF418
:1033000080914E05806180934E0581899289A389C1
:10331000B489281B390B4A0B5B0B2093570530935C
:1033200058054093590550935A0520915B053091FB
:103330005C0540915D0550915E0584859585A68567
:10334000B785280F391F4A1F5B1F20935B053093F9
:103350005C0540935D0550935E0512161306140636
:103360001506ACF480914E05806280934E058189EC
:103370009289A389B489281B390B4A0B5B0B2093D4
:103380005B0530935C0540935D0550935E0580912D
:103390005F0590916005A0916105B091620501966D
:1033A000A11DB11D80935F0590936005A0936105F9
:1033B000B093620521893289438954898217930722
:1033C000A407B50748F010924D0510924C050E94D5
:1033D000990A02C010924E0580919B069AE08927B7
:1033E00080939B06209165053091660540916705A5
:1033F000509168058091690590916A05A0916B05CF
:10340000B0916C05280F391F4A1F5B1F2093690577
:1034100030936A0540936B0550936C0521388AE11F
:10342000380786E0480780E0580708F4B6C02058FF
:103430003A41464050402093690530936A054093D5
:103440006B0550936C05E0914C05F0914D0530975C
:1034500009F4A3C0E0905F05F0906005009161055C
:1034600010916205EF5BFF4F80819181A281B38152
:10347000E154F040E816F9060A071B0768F5FD96C7
:103480002081318142815381FD9780916D0590911A
:103490006E05A0916F05B0917005280F391F4A1F66
:1034A0005B1F20936D0530936E0540936F0550931D
:1034B000700585899689A789B08D82179307A4071F
:1034C000B50708F04EC080936D0590936E05A093EC
:1034D0006F05B093700545C0EB5BFF4F8081918114
:1034E000A281B381E554F04020916D0530916E05C5
:1034F00040916F05509170058E159F05A007B1078B
:10350000C8F5FD9680819181A281B381FD978217D4
:103510009307A407B50760F4281B390B4A0B5B0B14
:1035200020936D0530936E0540936F0550937005A1
:1035300021AD32AD43AD54AD80916D0590916E05D6
:10354000A0916F05B091700582179307A407B50786
:1035500040F420936D0530936E0540936F055093B2
:10356000700560916D0570916E0580916F05909169
:10357000700511C0658976898789908D2617370770
:103580004807590751F060936D0570936E0580935D
:103590006F05909370050E949F161092640510921B
:1035A0006305FF91EF91DF91CF91BF91AF919F9113
:1035B0008F917F916F915F914F913F912F911F91CB
:1035C0000F91FF90EF900F900BBE0F900FBE0F90DA
:1035D0001F901895EF92FF920F931F937B018C0120
:1035E00022E030E040E050E00E94DB24205C3D4BD4
:1035F000404F5F4FCA01B901A80197010E94B92449
:10360000C901DA010197A109B109292F3A2F4B2FDE
:1036100055270196A11DB11D2093C50081508093AF
:10362000C400E0ECF0E080818D7F8083E1ECF0E08D
:1036300080818061808380818860808380818068D0
:1036400080831F910F91FF90EF900895982F8091A4
:10365000C00085FFFCCF9093C6000895809171054E
:103660009091720580509F4F2091730530917405A1
:10367000821B930B60E071E00E94A62408954091A4
:1036800073055091740580917105909172058417AE
:10369000950719F42FEF3FEF0FC0FA01EB58FA4FDF
:1036A0002081CA01019660E071E00E94A6249093F7
:1036B00074058093730530E0C90108958091730506
:1036C00090917405909372058093710508951F92EF
:1036D0000F920FB60F920BB60F9211242F933F93B8
:1036E0004F935F936F937F938F939F93AF93BF930A
:1036F000EF93FF934091C600E0917105F091720540
:10370000CF01019660E071E00E94A6249C018091A7
:103710007305909174052817390739F0EB58FA4F63
:1037200040833093720520937105FF91EF91BF9113
:10373000AF919F918F917F916F915F914F913F9149
:103740002F910F900BBE0F900FBE0F901F901895EA
:10375000982F8091C00085FFFCCF9093C6000895FC
:10376000FC0107C08091C00085FFFCCF319690938B
:10377000C60090819923B1F708959C0106C08091FD
:10378000C00085FFFCCF9093C600F9012F5F3F4F2B
:1037900094919923A1F708952F923F924F925F92AF
:1037A0006F927F928F929F92AF92BF92CF92DF9251
:1037B000EF92FF920F931F93DF93CF93CDB7DEB7B6
:1037C000A0970FB6F894DEBF0FBECDBF6B017C0192
:1037D00029013A01611571058105910541F4809136
:1037E000C00085FFFCCF80E38093C60049C08824D9
:1037F000992454011E010894211C311C8101080DDB
:10380000191DC701B601A30192010E94B924F80154
:1038100060830894811C911CA11CB11CC701B601D6
:10382000A30192010E94B924C901DA016C017D0152
:10383000C114D104E104F10409F79101280D391DE7
:10384000BE016F5F7F4FD501C4010197A109B10986
:10385000AC014819590911C0FA01E20FF31FE081C8
:10386000EA3010F4E05D01C0E95C8091C00085FFA2
:10387000FCCFE093C600215030406217730761F718
:10388000A0960FB6F894DEBF0FBECDBFCF91DF91EB
:103890001F910F91FF90EF90DF90CF90BF90AF906E
:1038A0009F908F907F906F905F904F903F902F9060
:1038B00008959B01AC0197FF0EC08091C00085FF69
:1038C000FCCF8DE28093C6005095409530952195B0
:1038D0003F4F4F4F5F4FCA01B9012AE030E040E04F
:1038E00050E00E94CC1B089522E030E040E050E020
:1038F0000E94CC1B0895EF92FF920F931F93DF93CA
:10390000CF9300D00F92CDB7DEB7AE014F5F5F4FC0
:103910000E947E237B018C0169817A818B819C814D
:103920000E94E8210E94591C8091C00085FFFCCFB5
:103930008EE28093C600C801B70120E030E04AE77C
:1039400054E40E94B1230E9414240E94E82197FFAE
:1039500007C090958095709561957F4F8F4F9F4FD1
:103960000E94591C0F900F900F900F90CF91DF91F4
:103970001F910F91FF90EF900895879AE7E0F1E093
:103980008081816080838081826080838081846087
:1039900080838081886080838081806480830895B3
:1039A00080E00895CF93DF93EC0180914B0588234D
:1039B00009F48DC081E00E94E3152097C1F4809145
:1039C00008018160809308018091080182608093E2
:1039D00008018091080184608093080180910801AA
:1039E00088608093080180E00E94E31570C0809198
:1039F0000801816080930801C330D10509F1C4300A
:103A0000D1053CF4C130D10571F0229709F051C0C5
:103A100013C0C530D10559F1C530D105FCF026974A
:103A200009F047C032C0809108018D7F8093080162
:103A3000809108018B7F0CC0809108018D7F28C088
:103A4000809108018D7F8093080180910801846036
:103A50008093080180910801877F24C0809108012C
:103A60008D7F8093080180910801846016C0809149
:103A70000801826080930801809108018B7F809308
:103A8000080180910801877F12C08091080182603F
:103A900080930801809108018B7F809308018091B9
:103AA0000801886080930801809108018E7F8093CF
:103AB0000801809108018E7F8093080188EE93E0D1
:103AC00020E931E0F9013197F1F70197D9F7DF915A
:103AD000CF9108951F93182F80914B05882311F4DF
:103AE00083E615C081E090E00E94071E882311F450
:103AF00085E00DC0812F90E00E94D21C80E090E014
:103B00000E94D21C80E090E00E94071E80E01F917E
:103B100008951F93182F80914B05882311F483E695
:103B200019C081E090E00E94071E882311F485E00F
:103B300011C0812F90E00E94AC1D80E090E00E94B7
:103B4000071E80E991E00197F1F780E090E00E9484
:103B5000AC1D80E01F910895CF93DF93EC0180911D
:103B60004B05882311F483E60FC0CF3FD10559F0F0
:103B70000E94ED1E882321F48C2F0E94891D03C012
:103B80008C2F0E946A1D80E0DF91CF910895809173
:103B90004B05882311F483E608950E94FE1D8823B7
:103BA00021F080E090E00E94071E0E94271F81E024
:103BB00090E00E94071E81E090E00E94CD1E0E94CE
:103BC000E71E813031F480E090E00E94071E81E022
:103BD000089580E090E00E94071E80E00895EAE0EA
:103BE000F1E0808180628083EBE0F1E0808180629F
:103BF00080833898409A3998419A089586B18170A7
:103C0000089586B190E09695879581700895CF9339
:103C1000DF93EC0180914B05882349F181E090E02E
:103C20000E94E315209721F480910B01806203C06C
:103C300080910B018F7D80930B0180ED97E020E94F
:103C400031E0F9013197F1F70197D9F786B1817029
:103C500090E08C179D0731F081E295E00E94BD1B3A
:103C600080E005C080E090E00E94E31581E0DF91F4
:103C7000CF91089525982D9A3C98449A6998719A05
:103C80009D98A59AA4E0B1E08C918E7F8C93E5E09D
:103C9000F1E08081816080838C918F7E8C93808124
:103CA00080618083A1E0B1E08C918E7F8C93E2E013
:103CB000F1E08081816080838C918D7F8C93808105
:103CC00082608083E0E9F0E08081826080838CE71D
:103CD00090E0909399008093980010929500109234
:103CE000940084E080939100E1E7F0E080818260BD
:103CF000808308958CB182958695877080958170B8
:103D0000089582B382958695877080958170089515
:103D10008CB182958F708095817008958091030198
:103D2000869580958170089586B182958F70809573
:103D3000817008958091000180958170089580912F
:103D4000030180958170089583B18295869587706F
:103D5000809581700895809100018695809581708D
:103D600008951F920F920FB60F9211240F900FBE5D
:103D70000F901F9018951D9902C00E942D0A08955A
:103D800057985F9AEAE0F1E0808180618083EBE000
:103D9000F1E080818061808308959C0180914B05D2
:103DA0008823A1F0232B21F480910B01806103C0B3
:103DB00080910B018F7E80930B0188E893E120E9CD
:103DC00031E0F9013197F1F70197D9F7089589B1F9
:103DD0008095881F8827881F0895AF92BF92CF9241
:103DE000DF92EF92FF920F931F9380914B058823F0
:103DF00011F483E623C081E090E00E94CD1E63ECC5
:103E000073ED81E491E42AE13BE84DE950E40F2EA3
:103E1000F0E0EF2EF0E0FF2EF0E80F2FFFEB1F2F6A
:103E2000F02D570168010E9493030E948217892B8D
:103E3000E1F780E991E00197F1F780E01F910F91A0
:103E4000FF90EF90DF90CF90BF90AF9008958F924A
:103E50009F92AF92BF92CF92DF92EF92FF920F9319
:103E60001F9380914B05882311F483E61FC10E94A4
:103E7000FE1D882321F080E090E00E94071E63EC85
:103E800073ED81E491E42AE13BE84DE950E40F2E23
:103E9000F0E0EF2EF0E0FF2EF0E80F2FFFEB1F2FEA
:103EA000F02D570168010E9493030E948217892B0D
:103EB000E1F780E991E00197F1F781E090E00E945D
:103EC000CD1E88E893E120E931E0F9013197F1F75F
:103ED0000197D9F781E090E00E94071E882309F43A
:103EE000D0C080E197E220E931E0F9013197F1F7A4
:103EF0000197D9F789B080E090E00E94CD1E80E064
:103F000090E00E94071E882309F4CFC00E94FE1D86
:103F10008823E1F76DE37BE98DE491E42CED38E64D
:103F200044E950E40F2EF0E0EF2EF0E0FF2EF0E831
:103F30000F2FFFEB1F2FF02D570168010E949303F5
:103F40000E948217892BE1F780E991E00197F1F750
:103F500080EA9FE020E931E0F9013197F1F701971C
:103F6000D9F781E090E00E94071E882309F49DC0E4
:103F70000E94FE1D8823E1F380E197E220E931E011
:103F8000F9013197F1F70197D9F781E090E00E94AC
:103F9000D21C80E49FE120E931E0F9013197F1F78B
:103FA0000197D9F7992487FC07C09924939428E8AE
:103FB00033E140E951E005C080E090E00E94D21C6E
:103FC00006C0CA010197F1F721503040D1F780E0D7
:103FD00090E00E94071E882309F467C00E94FE1D1E
:103FE0008130E1F388E99AE320E931E0F901319782
:103FF000F1F70197D9F763EC73ED81E491E42AE1DD
:104000003BE84DE950E40F2EF0E0EF2EF0E0FF2EFC
:10401000F0E80F2FFFEB1F2FF02D570168010E94D2
:1040200093030E948217892BE1F780E991E00197C1
:10403000F1F781E090E00E94CD1E88E893E120E94D
:1040400031E0F9013197F1F70197D9F781E090E07C
:104050000E94071E8823A9F080E197E220E931E061
:10406000F9013197F1F70197D9F74F9903C09920DA
:1040700069F003C081E0981649F080E090E00E946A
:10408000071E80E090E00E94CD1E0FC080E090E00F
:104090000E94CD1E80E090E00E94071E882329F038
:1040A0000E94FE1D8823E1F701C085E01F910F915A
:1040B000FF90EF90DF90CF90BF90AF909F908F9048
:1040C00008954F9903C088E395E002C083E395E02B
:1040D0000E94BD1B0895E7E0F1E080818068808345
:1040E00008950E94FE1D882311F085E008950E9426
:1040F00082178823E1F781E090E00E94071E88E89C
:1041000093E120E931E0F9013197F1F70197D9F70F
:1041100080E090E00E94CD1E80E090E00E94071EAB
:1041200080E0089580914B05882331F10E94821729
:104130008823E1F781E00E94E315809108018F77E1
:104140008093080180ED97E020E931E0F901319793
:10415000F1F70197D9F780910801806880930801F1
:1041600080ED97E020E931E0F9013197F1F701970F
:10417000D9F780E00E94E31508950E94FE1D882370
:1041800011F085E008950E94922081E090E00E9465
:10419000CD1E81E090E00E94071E88E893E120E9AF
:1041A00031E0F9013197F1F70197D9F780E090E01C
:1041B0000E94071E80E008955058BB27AA270ED002
:1041C00011C202D230F007D220F031F49F3F11F437
:1041D0001EF4D2C10EF4E095E7FB9FC1E92F13D284
:1041E00080F3BA17620773078407950718F071F414
:1041F0009EF542C20EF4E0950B2EBA2FA02D0B01B6
:10420000B90190010C01CA01A0011124FF27591B1B
:1042100099F0593F50F4503E68F11A16F040A22F21
:10422000232F342F4427585FF3CF46953795279592
:10423000A795F0405395C9F77EF41F16BA0B620B91
:10424000730B840BBAF09150A1F0FF0FBB1F661FD8
:10425000771F881FC2F70EC0BA0F621F731F841F1B
:1042600048F4879577956795B795F7959E3F08F041
:10427000B3CF9395880F08F09927EE0F9795879500
:104280000895DF93DD27B92FBF7740E85FE3161667
:10429000170648075B0710F4D92FF9D19F938F9326
:1042A0007F936F9323D3EEE5F1E069D19BD12F91FA
:1042B0003F914F915F9161D2DD2349F09058A2EA7E
:1042C0002AED3FE049EC5FE3D0785D2787DFDF919F
:1042D00089C1BBD180F09F3740F491110EF4CDC15C
:1042E00060E070E080E89FE3089526F01B16611DF2
:1042F000711D811D18C132C1ECD008F481E0089510
:104300000CD070C168D140F05FD130F021F45F3F34
:1043100019F003C15111B1C12FC175D198F399237F
:10432000C9F35523B1F3951B550BBB27AA27621779
:104330007307840738F09F5F5F4F220F331F441FBE
:10434000AA1FA9F333D00E2E3AF0E0E830D09150F6
:104350005040E695001CCAF729D0FE2F27D0660FE3
:10436000771F881FBB1F261737074807AB07B0E822
:1043700009F0BB0B802DBF01FF2793585F4F2AF038
:104380009E3F510568F0C9C078C15F3FECF3983E8D
:10439000DCF3869577956795B795F7959F5FC9F795
:1043A000880F911D9695879597F90895E1E0660F1E
:1043B000771F881FBB1F621773078407BA0720F097
:1043C000621B730B840BBA0BEE1F88F7E095089500
:1043D00004D06894B11151C108951DD188F09F5740
:1043E00090F0B92F9927B751A0F0D1F0660F771F41
:1043F000881F991F1AF0BA95C9F712C0B13081F021
:104400003BD1B1E0089538C1672F782F8827B85F76
:1044100039F0B93FCCF3869577956795B395D9F781
:104420003EF490958095709561957F4F8F4F9F4F8B
:104430000895E89409C097FB3EF490958095709597
:1044400061957F4F8F4F9F4F9923A9F0F92F96E9E0
:10445000BB279395F695879577956795B795F11155
:10446000F8CFFAF4BB0F11F460FF1BC06F5F7F4FF2
:104470008F4F9F4F16C0882311F096E911C0772304
:1044800021F09EE8872F762F05C0662371F096E80D
:10449000862F70E060E02AF09A95660F771F881FDC
:1044A000DAF7880F9695879597F90895CED080F022
:1044B0009F3740F491110EF0E0C060E070E080E8BA
:1044C0009FEB089526F41B16611D711D811D2BC0E5
:1044D00045C0990F0008550FAA0BE0E8FEEF16162D
:1044E0001706E807F907C0F012161306E407F507E8
:1044F00098F0621B730B840B950B39F40A2661F05C
:10450000232B242B252B21F408950A2609F4A140FE
:10451000A6958FEF811D811D089597F99F6780E80B
:1045200070E060E00895882371F4772321F09850BB
:10453000872B762F07C0662311F499270DC0905161
:10454000862B70E060E02AF09A95660F771F881F2F
:10455000DAF7880F9695879597F908959F3F31F080
:10456000915020F4879577956795B795880F911DA1
:104570009695879597F908959FEF80EC0895DF93BE
:10458000CF931F930F93FF92EF92DF927B018C01E9
:10459000689405C0DA2EEF01F0D0FE01E894A591F1
:1045A0002591359145915591AEF3EF0117DEFE014E
:1045B0009701A801DA9479F7DF90EF90FF900F91BF
:1045C0001F91CF91DF91089500240A9416161706C3
:1045D00018060906089500240A94121613061406F4
:1045E00005060895092E0394000C11F4882352F057
:1045F000BB0F40F4BF2B11F460FF04C06F5F7F4F0F
:104600008F4F9F4F089557FD9058440F551F59F0F5
:104610005F3F71F04795880F97FB991F61F09F3FAF
:1046200079F087950895121613061406551FF2CFD8
:104630004695F1DF08C0161617061806991FF1CF28
:1046400086957105610508940895E5DFA0F0BEE741
:10465000B91788F4BB279F3860F41616B11D672F71
:10466000782F8827985FF7CF869577956795B11D46
:1046700093959639C8F30895E894BB276627772762
:10468000CB0197F9089525DF08F48FEF08959B017A
:10469000AC0160E070E080E89FE332CEBCDF58F10F
:1046A0009E5758F19851A0F0E9F0983020F5092E66
:1046B0009927660F771F881F991F0A94D1F712C098
:1046C000062E672F782F8827985F11F4000C07C0FB
:1046D000993FB4F38695779567959395D9F7611DC2
:1046E000711D811D3EF490958095709561957F4F69
:1046F0008F4F9F4F08956894C0CFBECFFA01DC0161
:10470000AA0FBB1F9B01AC01BF5728F422273327F8
:10471000442750781FC0B75188F4AB2F002446952A
:1047200037952795011CA395D2F3002069F0220F3D
:10473000331F441FB395DAF30DD03ECD61307105C0
:10474000A0E88A07B94630F49B01AC0166277727B9
:1047500088279078309621F02083318342835383D9
:1047600008950BD03FCF30DF28F035DF18F09523C8
:1047700009F0D3CE01CF112480CF45DFA0F3959F60
:10478000D1F3950F50E0551F629FF001729FBB2738
:10479000F00DB11D639FAA27F00DB11DAA1F649FE4
:1047A0006627B00DA11D661F829F2227B00DA11D97
:1047B000621F739FB00DA11D621F839FA00D611D1D
:1047C000221F749F3327A00D611D231F849F600D3E
:1047D000211D822F762F6A2F11249F5750408AF077
:1047E000E1F088234AF0EE0FFF1FBB1F661F771F03
:1047F000881F91505040A9F79E3F510570F08DCE13
:104800003CCF5F3FECF3983EDCF386957795679558
:10481000B795F795E7959F5FC1F7FE2B880F911D20
:104820009695879597F90895F6DEE0F09E37D8F0D3
:104830009639B8F49E3848F4672F782F8827985F08
:10484000F9CF86957795679593959539D0F3B62FDF
:10485000B1706B0F711D811D20F487957795679559
:10486000939561CE7BCE09CF11F40EF485CE76CE32
:10487000D2DED0F39923D9F3CEF39F57550B87FFA0
:104880003FD00024A0E640EA9001805856959795C5
:1048900028F4805C660F771F881F20F026173707E3
:1048A000480730F4621B730B840B202931294A2BF3
:1048B000A69517940794202531254A2758F7660FA7
:1048C000771F881F20F026173707480730F4620B40
:1048D000730B840B200D311D411DA09581F7B9018B
:1048E000842F9158880F9695879508959B01AC0168
:1048F00038CFABDE20F09F3708F4BFCE14CE2ECEDB
:1049000091505040660F771F881FD2F70895629F1D
:10491000D001739FF001829FE00DF11D649FE00DB7
:10492000F11D929FF00D839FF00D749FF00D659F18
:10493000F00D9927729FB00DE11DF91F639FB00D17
:10494000E11DF91FBD01CF011124089597FB092E28
:1049500007260AD077FD04D049D006D000201AF4EB
:10496000709561957F4F0895F6F7909581959F4FCB
:104970000895A1E21A2EAA1BBB1BFD010DC0AA1FA0
:10498000BB1FEE1FFF1FA217B307E407F50720F0B8
:10499000A21BB30BE40BF50B661F771F881F991F33
:1049A0001A9469F760957095809590959B01AC017C
:1049B000BD01CF01089597FB092E05260ED057FDA6
:1049C00004D0D7DF0AD0001C38F4509540953095BC
:1049D00021953F4F4F4F5F4F0895F6F79095809583
:1049E000709561957F4F8F4F9F4F0895AA1BBB1BFA
:1049F00051E107C0AA1FBB1FA617B70710F0A61BDF
:104A0000B70B881F991F5A95A9F780959095BC01FF
:104A1000CD0108958F929F92AF92BF92CF92DF9275
:104A2000EF92FF920F931F93CF93DF93EC015B0103
:104A30006115710519F0FB0191838083F9908F2D29
:104A400090E00E947826892BC9F7FDE2FF1621F439
:104A5000F990EE24E39405C02BE2F21609F4F990E4
:104A6000EE248E0101501040C8016EE375E043E072
:104A700050E00E948026892B01F58E010E5F1F4FAA
:104A8000C80161E475E045E050E00E948026892B72
:104A900019F48E01095F1F4FA114B10419F0F5013B
:104AA00011830083E0FC04C070E090E080E814C053
:104AB00070E090E080E86FEF08C1C80166E475E03F
:104AC00043E050E00E948026892B69F4A114B104D0
:104AD00029F470E090E080EC6FE7F7C02296F501D2
:104AE000D183C083F6CF8824992440E050E060E071
:104AF00070E0EF2DE053EA30A0F5F2E0EF2A8E2DC2
:104B000090E09C0128703070E2FE06C0232B79F5FE
:104B10000894811C911C2BC0232B19F00894810848
:104B20009108DB01CA0112E0880F991FAA1FBB1F61
:104B30001A95D1F7480F591F6A1F7B1F440F551F45
:104B4000661F771F4E0F511D611D711D483929E9E0
:104B5000520729E9620729E1720748F084E0E82A50
:104B600006C0EE3F31F4E3FC39C098E0E92AF99041
:104B7000C0CFE53311F0E53189F529912D3219F4D3
:104B8000E0E1EE2A05C02B3219F081E090E003C08D
:104B9000299182E090E0E22FE053EA3018F0C81B40
:104BA000D90B1CC020E030E0FCE020383F075CF46B
:104BB000C901880F991F880F991F280F391F220FCD
:104BC000331F2E0F311DE991E053EA3068F3E4FE04
:104BD00003C0309521953F4F820E931ECE2CDD24CD
:104BE000E1FE07C0A114B10421F02197F501D183A2
:104BF000C083CB01BA010E9419227B018C01F3E032
:104C0000CF22DD2423E0C216D10421F417FB109536
:104C100017F9109557016801C801B70120E030E08D
:104C200040E050E00E947C21882309F44AC097FEAE
:104C30000DC02DE5E22E25E0F22E9094819491088E
:104C40009394C0E2D0E000E010E012C095E7E92EB6
:104C500095E0F92EF6CFF7012591359145915491C4
:104C6000C601B5010E94B1235B016C018C1A9D0A3B
:104C70008C169D0684F7D595C7950F5F1F4F06309C
:104C8000110529F08CEF9FEFE80EF91EF1CFC50159
:104C9000D6017C018D018C2D880F8D2D881F8F3FB3
:104CA00051F0C601B50120E030E040E050E00E9444
:104CB0007C21882331F482E290E090939D068093DA
:104CC0009C067E2D9F2D802F612F272F392F482F57
:104CD000562FB901CA01DF91CF911F910F91FF901B
:104CE000EF90DF90CF90BF90AF909F908F900895FE
:104CF00091111EC0803219F089508550D0F7089567
:104D0000FB01DC014150504088F08D9181341CF052
:104D10008B350CF4805E659161341CF06B350CF4BE
:104D2000605E861B611171F3990B0895881BFCCF9F
:0A4D3000992788270895F894FFCF13
:00000001FF
