:100000000C941C030C943D030C943D030C943D0391
:100010000C943D030C943D030C943D030C943D0360
:100020000C943D030C943D030C943D030C943D0350
:100030000C943D030C943D030C943D030C948617E3
:100040000C943D030C941A1A0C943D030C943D033C
:100050000C943D030C943D030C943D030C943D0320
:100060000C943D030C94671E0C943D030C943D03CB
:100070000C943D030C943D030C943D030C943D0300
:100080000C94C4200C943D030C943D030C943D034C
:100090000C943D030C943D030C943D030C943D03E0
:1000A0000C943D030C943D030C943D030C943D03D0
:1000B0000C943D030C943D030C943D030C943D03C0
:1000C0000C943D030C943D030C943D030C943D03B0
:1000D0000C943D030C943D030C943D030C943D03A0
:1000E0000C943D0372076E076A0766075A07FD0600
:1000F000FD06FD06FD06FD06FD06FD06FD06FD06E8
:10010000FD06FD06FD065D0793078A078607830740
:10011000FD06FD06FD06FD06FD06FD068007FD0643
:100120008007FD06FD06FD06FD06FD06FD06FD0633
:10013000FD06FD06FD06FD06FD06FD06FD06FD06A7
:10014000FD06FD06FD06FD06FD06FD06FD067D0716
:10015000FD06FD06FD06FD06FD06FD06FD06FD0687
:10016000FD06FD06FD06FD06FD06FD06FD06FD0677
:10017000FD06FD06FD06FD06FD06FD06FD06FD0667
:10018000FD06FD067907FD06FD06FD06FD06FD06DA
:10019000FD06FD06FD06FD067507A607A3079F07DA
:1001A0009C07BB07BB07B707B007A907E807FD0611
:1001B000FD06E107DC07D507CE07C907C407BF075F
:1001C00014080F080A080508FE07F707F207ED07ED
:1001D0003D08360831082A08190856072008B707CD
:1001E000FD06FD06FD06FD06FD06FD06FD06FD06F7
:1001F000FD06FD06FD06FD06FD06FD06FD06FD06E7
:10020000FD06FD06FD06FD06FD06FD06FD06FD06D6
:10021000FD06FD06FD06FD06FD06B707084AD73BAD
:100220003BCE016E84BCBFFDC12F3D6C74319ABDC5
:1002300056833DDA3D00C77F11BED9E4BB4C3E91E9
:100240006BAAAABE000000803F595F484F4D450D84
:100250000A00585F484F4D450D0A00594C320D0AAF
:1002600000594C310D0A00584C320D0A00584C31DF
:100270000D0A000D0A006765745F62757379203D91
:1002800020000D0A00726F7461746564203D2000C7
:100290000D0A0076616375756D5F73746174652016
:1002A0003D20000D0A00686561645F6D6F76696EC0
:1002B00067203D20000D0A006865616420646F7747
:1002C0006E203D20000D0A0050494E44206C696D9F
:1002D000697473203D20000D0A00504F5254442091
:1002E000203D20000D0A00444952454354494F4ED9
:1002F0005F504F525420203D20000D0A00444952C7
:10030000454354494F4E5F44445220203D20006FE6
:100310006B0A0D000A0D006572726F723A2000655B
:1003200072726F723A204E6F7420686F6D65640A46
:100330000D006572726F723A20436F6D6D616E646D
:10034000204661696C65640A0D006572726F723ACD
:1003500020466C6F6174696E6720706F696E7420DF
:100360006572726F720A0D006572726F723A205573
:100370006E737570706F72746564207374617465E8
:100380006D656E740A0D006572726F723A20457861
:1003900070656374656420636F6D6D616E64206C5D
:1003A00065747465720A0D006572726F723A20424C
:1003B0006164206E756D62657220666F726D617426
:1003C0000A0D006F6B0A0D0053746F726564206E26
:1003D00065772073657474696E670D0A00556E6BDE
:1003E0006E6F776E20706172616D657465720D0A53
:1003F000002724783D76616C75652720746F207323
:10040000657420706172616D65746572206F722011
:100410006A7573742027242720746F2064756D70AB
:100420002063757272656E742073657474696E678B
:10043000730D0A00202873746570706572733A201A
:1004400030203D2064697361626C65642C2031202A
:100450003D20656E61626C6564290D0A00243130AF
:100460003030203D200020286D617820696E737443
:10047000616E7420636F726E6572696E672073704F
:10048000656564206368616E676520696E206465D8
:100490006C7461206D6D2F6D696E290D0A00243911
:1004A000203D20002028616363656C65726174697A
:1004B0006F6E20696E206D6D2F7365635E32290D3E
:1004C0000A002438203D200020286D6D2F617263C2
:1004D000207365676D656E74290D0A002437203D11
:1004E000200020286D6D2F6D696E20646566617532
:1004F0006C74207365656B2072617465290D0A0048
:100500002436203D200020286D6D2F6D696E2064FB
:10051000656661756C7420666565642072617465DA
:10052000290D0A002435203D200020286D696372C2
:100530006F7365636F6E647320737465702070757C
:100540006C7365290D0A002434203D200020287397
:10055000746570732F6465672E2063290D0A00246B
:1005600033203D2000202873746570732F6D6D203B
:100570007A290D0A002432203D200020287374655A
:1005800070732F6D6D2079290D0A002431203D20D4
:1005900000202873746570732F6D6D2078290D0A03
:1005A000002430203D20000D0A00302E3736504206
:1005B000002456455253494F4E203D2000686F6D30
:1005C00065206661696C65640D0A00784C696D6927
:1005D00074310D0A00794C696D6974310D0A004857
:1005E00065616420646F776E206572726F720A0DA8
:1005F000006E6F0D0A007965730D0A00494E464979
:100600004E4954594E414ECDCCCC3D0AD7233C17D0
:10061000B7D13877CC2B329595E6241FB14F0A001D
:100620000020410000C84200401C4620BCBE4CCA0D
:100630001B0E5AAEC59D740011241FBECFEFD1E230
:10064000DEBFCDBF00E00CBF12E0A0E0B2E0EAEDFB
:10065000F3E500E00BBF02C007900D92A430B10794
:10066000D9F716E0A4E0B2E001C01D92A83AB107A4
:10067000E1F70E948F0A0C94EB290C940000249A55
:100680000895892B11F42C9808952C9A0895F999BE
:10069000FECF92BD81BD81E08FBB80B50895F894F7
:1006A000F999FECF92BD81BD81E08FBB90B59627B1
:1006B000892F862339F06F3F19F060BD84E006C0B2
:1006C00084E104C0992321F060BD84E28FBBF99AD4
:1006D000789408958F929F92AF92BF92CF92DF92BB
:1006E000EF92FF920F93DF93CF930F920F92CDB7BC
:1006F000DEB75C016B017A014A0100E01EC00023F5
:1007000019F021E030E008C0202F332727FD309575
:100710002227330F221F3327F60161916F01062F25
:10072000020F9C012F5F3F4F3A8329830E944F03A2
:1007300008948108910889819A8181149104F9F6BD
:10074000C7018A0D9B1D602F0E944F030F900F90D1
:10075000CF91DF910F91FF90EF90DF90CF90BF90FE
:10076000AF909F908F900895CF93DF93EC01FB01A2
:100770009A0190E0B1E019C0F999FECFF2BDE1BD58
:10078000BFBBA0B5992319F081E090E008C0892F84
:10079000992787FD90958827990F881F992731966B
:1007A0009A2F980FA993215030402115310521F738
:1007B000460F571FF999FECF52BD41BD81E08FBB57
:1007C00080B520E030E0981711F421E030E0C90155
:1007D000DF91CF91089580932D0260932E02409374
:1007E0002F0208956093040270930502809306021D
:1007F000909307020895609304027093050280931A
:1008000006029093070208952F923F924F925F92B3
:100810006F927F928F929F92AF92BF92CF92DF9210
:10082000EF92FF920F931F93DF93CF93CDB7DEB775
:1008300028970FB6F894DEBF0FBECDBF69837A83C9
:100840008B839C832D833E834F8358871701280118
:100850003501460120E030E040E85FEB0E94612472
:10086000882341F420901A0230901B0240901C0211
:1008700050901D026D817E818F81988520E030E04F
:1008800040E85FEB0E946124882341F460901E02DF
:1008900070901F028090200290902102C201B1014D
:1008A00020E030E040E85FEB0E946124882341F4BF
:1008B0002090220230902302409024025090250282
:1008C000C401B30120E030E040E85FEB0E94612406
:1008D000882341F4609026027090270280902802BD
:1008E0009090290200D000D08091160290911702BA
:1008F000A0911802B0911902EDB7FEB781839283DF
:10090000A383B4831682158269817A818B819C814D
:100910002D813E814F81588582017101640153010F
:100920000E94341089819A81AB81BC8180931A0224
:1009300090931B02A0931C02B0931D028D819E8197
:10094000AF81B88580931E0290931F02A09320026E
:10095000B09321022092220230922302409224027C
:1009600050922502609226027092270280922802FD
:1009700090922902ADB7BEB716960FB6F894BEBFD7
:100980000FBEADBF28960FB6F894DEBF0FBECDBF29
:10099000CF91DF911F910F91FF90EF90DF90CF905B
:1009A000BF90AF909F908F907F906F905F904F908F
:1009B0003F902F900895AF92BF92CF92DF92EF9227
:1009C000FF920F931F93DF93CF930F920F92CDB7A8
:1009D000DEB76C015B017A01FB0100811181080F18
:1009E000191FC801BE016F5F7F4F0E945A28F7018F
:1009F000608371838283938389819A8180179107B1
:100A0000A9F08C199D09F5019183808321E030E0E4
:100A1000C9010F900F90CF91DF911F910F91FF901F
:100A2000EF90DF90CF90BF90AF90089581E08093DA
:100A3000080220E030E0ECCF0F931F93CF93DF93B9
:100A4000EC018B01D901ED91FC911197E40FF51F99
:100A5000E081EE2339F0E883E154EA3158F082E096
:100A60008093080220E030E0C901DF91CF911F910F
:100A70000F9108958D919C91119701968D939C9360
:100A8000CA01B901A8010E94DB04009711F081E0BE
:100A900090E09C01C901DF91CF911F910F910895C2
:100AA00088E2E8E0F2E0DF011D928A95E9F76091C3
:100AB000910670919206809193069091940620E0A1
:100AC00030E040E752E40E94652460931202709384
:100AD0001302809314029093150260919506709111
:100AE0009606809197069091980620E030E040E7C6
:100AF00052E40E946524609316027093170280935B
:100B000018029093190210922D0291E090932E02F8
:100B100082E080932F0290930C0208952F923F92CF
:100B20004F925F926F927F928F929F92AF92BF92FD
:100B3000CF92DF92EF92FF920F931F93DF93CF93A9
:100B4000CDB7DEB7E7970FB6F894DEBF0FBECDBFC7
:100B50005C011B821A8280E090E0A0E0B0E0888710
:100B60009987AA87BB87ACE02A2E312C2C0E3D1E1C
:100B700080E1D101E82F1D92EA95E9F7FCE1CF2E43
:100B8000D12CCC0EDD1ED6011D928A95E9F710926C
:100B90000802F5018081883209F486C08F3209F499
:100BA0006EC0843209F44AC019AA18AAE2E06E2E77
:100BB000712C6C0E7D1E74E0472E512C4C0E5D1E68
:100BC0004E010894811C911CC401B201A50193013E
:100BD0000E941C05892B09F455C26C817D818E8190
:100BE0009F810E945E277B018C010E94CD24298178
:100BF000273409F406C1283408F047C0243409F426
:100C000055C0809108028823F9F2E7960FB6F89450
:100C1000DEBF0FBECDBFCF91DF911F910F91FF902F
:100C2000EF90DF90CF90BF90AF909F908F907F908C
:100C30006F905F904F903F902F90089581E090E0EB
:100C40009B838A83D50111968C91882359F18E015B
:100C50000E5F1F4FC501B801AE01485F5F4F0E9494
:100C6000DB048A819B81F501E80FF91F2081019641
:100C70009B838A832D3309F4F9C083E0C6CF8A8130
:100C80009B8101969B838A838FCF2D3409F4B0C05A
:100C9000243509F0B6CFC801B7010E94D224609371
:100CA0002A02AFCF0E94651680E0AFCF8AB18DEFE8
:100CB00092E00E945E1D60B370E080E090E00E94D0
:100CC0001D1E8AEF92E00E945E1D87EE92E00E9458
:100CD0005E1D61B370E080E090E00E941D1E84EE16
:100CE00092E00E945E1DEBB08AED92E00E945E1DD4
:100CF000FF2400E010E0C801B7010E941D1E87ED2F
:100D000092E00E945E1DE9B088EC92E00E945E1DB8
:100D1000FF2400E010E0C801B7010E941D1E85EC11
:100D200092E00E945E1D88EB92E00E945E1D0E9490
:100D3000082090E0A0E0B0E0BC01CD010E94011EBF
:100D400085EB92E00E945E1D86EA92E00E945E1DA5
:100D50000E944F1990E0A0E0B0E0BC01CD010E94DC
:100D6000011E83EA92E00E945E1D83E992E00E94E8
:100D70005E1D0E942D2190E0A0E0B0E0BC01CD01FD
:100D80000E94011E80E992E00E945E1D85E892E0CB
:100D90000E945E1D0E940B2090E0A0E0B0E0BC012C
:100DA000CD010E94011E82E892E00E945E1D86E74E
:100DB00092E00E945E1D0E948017AA2797FDA095D1
:100DC000BA2FBC01CD010E94011E83E792E00E9470
:100DD0005E1D4B9946C04A993FC0489938C0499911
:100DE00031C004992AC0909921C0809108020DCF8A
:100DF000E62FF72FED33F10588F083E080930802AA
:100E0000F4CFE62FF72FEF35F105B8F7EE58FF4F87
:100E1000EE0FFF1F0590F491E02D1994EF52FF4F54
:100E2000EE0FFF1F0590F491E02D199489E492E0F4
:100E30000E945E1D80910802E8CE82E592E00E9449
:100E40005E1DD1CF8BE592E00E945E1DCACF81E688
:100E500092E00E945E1DC3CF87E692E00E945E1D75
:100E6000BCCF8DE692E00E945E1DB5CFC501B801F2
:100E7000AE014C5F5F4F0E94DB04EA81FB81EA0D0B
:100E8000FB1D8081882309F0F8CE688579858A85E5
:100E90009B850E94CD24DC01CB014C815D816E815C
:100EA0007F810E94C21580910802AFCE0E94C022AD
:100EB00080930802E1E0E8ABA4CE10922D02A1E0FD
:100EC000A0932E02B2E0B0932F029BCE93E09093BA
:100ED000090297CE82E08093090293CEF1E0F0936D
:100EE00009028FCE109209028CCEF1E0F0930C0231
:100EF00088CEE4E0E093090284CEB1E0B9AB81CEC4
:100F0000B2E0B8AB7ECE10920B027BCEA1E0A093F4
:100F10000B0277CE81E080932D0292E090932E0217
:100F200010922F026ECE10922D02E2E0E0932E027C
:100F3000F1E0F0932F0265CE10920A0262CE91E0AA
:100F400090930A025ECE83E088AB5BCE10920C02D7
:100F500058CEEFEFFFEFF0930F02E0930E0251CE69
:100F600081E090E090930F0280930E024ACEB2E0AF
:100F7000B0930D0246CEA1E0A0930D0242CE82E0D6
:100F800090E00E94B01F3DCE81E090E00E94B01F33
:100F900038CE80E090E00E94B01F33CE80E090E039
:100FA0000E94112081E088AB2CCE81E090E00E946D
:100FB0001120F1E0F8AB25CE109211021092100230
:100FC00020CE81E090E0909311028093100219CE20
:100FD00010920F0210920E0214CE0E943223E1E012
:100FE000E8AB0FCE0E947023B1E0B8AB0ACE80E030
:100FF00090E00E940E21A1E0A8AB03CE81E090E03A
:101000000E940E2191E098ABFCCD86E090E00E941A
:10101000B01FF7CD85E090E00E94B01FF2CD84E0D4
:1010200090E00E94B01FEDCD83E090E00E94B01FE1
:10103000E8CD0E94442380930802B1E0B8ABE1CD33
:10104000F6E0F09308020E947F190E94051D81E0DE
:1010500088ABD7CD0E949D2380930802A1E0A8AB66
:10106000D0CD0E94322391E098ABCBCD0E946D2170
:101070008093080281E088ABC4CD0E94D01FF1E0CC
:10108000F8ABBFCD80910802882309F0BECD1B824A
:101090001A8280E1D6011D928A95E9F7D101EAE131
:1010A000F2E080E101900D928150E1F71CAA1DAAA7
:1010B000B0E8BEABEFEBEFAB1BAA1AAAC401B201BA
:1010C000A50193010E941C05892B09F4EDC0CC8079
:1010D000DD80EE80FF8080910B028823D9F4A70188
:1010E000960109810D3419F10E3460F5083409F4C4
:1010F0007AC00934B8F5033409F48AC00634F1F62D
:1011000080910A02882309F4A9C02CAB3DAB4EABF9
:101110005FABD4CFC701B60123E333E34BEC51E41B
:101120000E9496269B01AC0109810D34E9F62093BB
:101130000402309305024093060250930702A1E097
:10114000A8ABBCCF033509F445C00435E8F40E3430
:1011500009F453C0003509F0B1CFC886D986EA86B4
:10116000FB86ACCF0C3408F0A9CFE02FF0E0E954B7
:10117000F040EE0FFF1FEE0FFF1FE80DF91D238F4C
:10118000348F458F568F9ACF802F8855833008F043
:1011900095CF80910C02882309F04CC0F9A9FF2358
:1011A00009F048C010E008551040000F111F000F53
:1011B000111F080D191DD8011B966D917D918D9100
:1011C0009C911E970E94C223F801638774878587CC
:1011D000968774CFC701B6010E94CD2470932C026C
:1011E00060932B026BCFCA01B9010E94D2247BAB62
:1011F0006AAB89E08093090261CF209304023093A7
:101200000502409306025093070291E098AB56CF37
:1012100080910C028823E9F4F9A9FF23D1F4688DA9
:10122000798D8A8D9B8D0E94C223688F798F8A8FDA
:101230009B8F44CFE02FF0E0E855F040EE0FFF1F0A
:10124000EE0FFF1FE80DF91D23873487458756876A
:1012500035CF288F398F4A8F5B8F30CF809109022D
:10126000882389F4CA01B90120E030E040E752E464
:101270000E946524609316027093170280931802EF
:10128000909319021BCFCA01B90120E030E040E77A
:1012900052E40E94652460931202709313028093BB
:1012A0001402909315020ACF80910802882309F056
:1012B000ACCC80910E0290910F02009709F45DC0B2
:1012C00040912B0250912C02662757FD6095762F96
:1012D0000E944D178091100290911102892B09F400
:1012E0004FC081E090E00E944103B8A9B13009F4F9
:1012F00063C0B13008F049C080910902813009F41F
:101300007AC0813008F06FC000D000D06C857D8538
:101310008E859F85288939894A895B89EC88FD8873
:101320000E891F89A88CB98CCA8CDB8C6090160240
:10133000709017028090180290901902ADB7BEB756
:1013400011966D927D928D929C92149716961C9296
:101350001E9215970E943410EDB7FEB736960FB661
:10136000F894FEBF0FBEEDBFAAE1B2E0F10180E14B
:1013700001900D928150E1F738CD0E945D17AACF00
:1013800080E090E00E944103B0CFB23021F1B33051
:1013900059F76C857D858E859F85288939894A898D
:1013A0005B89EC88FD880E891F89A88CB98CCA8C52
:1013B000DB8C0E94400CD8CF688579858A859B8517
:1013C00020E030E04AE754E40E9496260E94D224AE
:1013D0000E94C30AC9CF0E94C00A80E1F1011192A4
:1013E0008A95E9F7C1CF893009F0BECF8AA99BA9B8
:1013F0000E946317B9CF8C859D85AE85BF858CA76C
:101400009DA7AEA7BFA7688879888A889B88EC8843
:10141000FD880E891F89A88CB98CCA8CDB8C6091E1
:101420000A02662361F4909112029CABA091130210
:10143000ADABB0911402BEABE0911502EFAB00D0A2
:1014400000D04DB65EB60894411C511C2CA93DA994
:101450004EA95FA9C901DA01EDB7FEB78183928376
:10146000A383B483D20114966C93149715961C929F
:101470006CA57DA58EA59FA5A40193010E943410A3
:10148000EDB7FEB736960FB6F894FEBF0FBEEDBFB0
:101490006BCFAF92BF92CF92DF92EF92FF920F93FA
:1014A0001F9379018A015F770E9465240E94262498
:1014B0005B016C01C801B70120E030E040E050E082
:1014C0000E94282618165CF4B501C6011F910F91E1
:1014D000FF90EF90DF90CF90BF90AF900895C6013E
:1014E000B50120E030E040E050E00E9428261816C8
:1014F0005CF46BED7FE089E490E4A60195010E9425
:10150000C1235B016C01E0CF6BED7FE089E490ECDF
:10151000A60195010E94C1235B016C01D5CF0E94F9
:1015200003150E9439170E94E00C0E9471180E9456
:1015300056190E9445170E943F030E94B01E0E9448
:10154000F91F0E9401210E944D200E9450058FE04A
:1015500093E00E945E1D04C00E946D140E94CE2084
:1015600083B7816083BF889583B78E7F83BF809167
:101570005205882389F30E94051D10925205ECCF75
:101580000E948F190895AF92BF92CF92DF92EF928F
:10159000FF920F931F937B018C010E940D1AC801CB
:1015A000B7010E94FE245B016C0120E030E04AE7B5
:1015B00055E40E9496267B018C0120E030E040E853
:1015C0005FE30E94612488237CF1C801B70120E019
:1015D0003FEF4FE757E40E9428261816ACF4C601E7
:1015E000B50120E030E040E251E40E9496260E94DE
:1015F000D224CB01672B79F020E931E0F901319752
:10160000F1F70197D9F707C0C801B7010E94D224AA
:10161000CB010197F1F71F910F91FF90EF90DF90B1
:10162000CF90BF90AF90089561E070E0F1CFFC01E2
:101630006091A1067091A2068091A3069091A406E4
:1016400021A532A543A554A50E9465240895809143
:101650001E0590E0089520910A0530910B058091B8
:101660000C0590910D052817390769F080910C053C
:1016700090910D0501966AE070E00E948B2790938F
:101680000D0580930C05089520910A0530910B05F6
:1016900080910C0590910D0528173907D1F0209104
:1016A0000C0530910D05C901880F991F880F991FEE
:1016B000880F991FAC01440F551F440F551F440F4D
:1016C000551F480F591F420F531F405D5D4FCA0100
:1016D000089540E050E0CA0108954F925F926F92E2
:1016E0007F928F929F92AF92BF92CF92DF92EF92B2
:1016F000FF920F931F93CF93DF93EC014B01611582
:10170000710599F0009789F0E9A8FAA80BA91CA91E
:10171000FB0141A852A863A874A8C801B701A3019E
:1017200092010E94612488238CF0DF91CF911F9158
:101730000F91FF90EF90DF90CF90BF90AF909F9070
:101740008F907F906F905F904F900895F401A1A4C7
:10175000B2A4C3A4D4A4C801B701A60195010E94F4
:1017600096269B01AC010E9496267B018C0120915C
:101770009D0630919E0640919F065091A0065058BC
:10178000CA01B9010E94C22320E030E040E752E4E0
:101790000E94962620E030E040E752EC0E94962618
:1017A0002DA53EA54FA558A90E9496269B01AC01E8
:1017B000C801B7010E94C2230E941D27A6019501FE
:1017C0000E9465247B018C01C301B201A80197012D
:1017D0000E94282618160CF0A8CFF401E1AAF2AA5C
:1017E00003AB14ABA2CFEF92FF920F931F93CF9353
:1017F000DF9380910C0590910D05482F082F11273C
:1018000007FD109580910A0590910B05081719079F
:1018100091F1EE24FF2420E030E001C07E0189E454
:101820004802E0011124C05DDD4FC901B701AE01DE
:101830000E946D0BC80101966AE070E00E948B2740
:10184000482F082F112707FD109580910A059091C8
:101850000B0597010817190709F7B701CB01BE015E
:1018600040E050E00E946D0BDF91CF911F910F91EE
:10187000FF90EF900895C0E0D0E060E070E0EECF20
:101880002F923F924F925F926F927F928F929F9290
:10189000AF92BF92CF92DF92EF92FF920F931F937E
:1018A0003B014C0119012A010E940D1AC401B30128
:1018B00020917F06309180064091810650918206EA
:1018C0000E9496260E943326EEE08E2EE5E09E2EA4
:1018D00060930E0570930F0580931005909311058A
:1018E000C201B101209183063091840640918506A2
:1018F000509186060E9496260E943326F401349663
:1019000060931205718382839383C801B70120918C
:101910008706309188064091890650918A060E9478
:1019200096260E943326F40138966093160571833B
:1019300082839383C601B50120918B0630918C067A
:1019400040918D0650918E060E9496260E94332665
:101950002CE030E0820E931E60931A05F40171832F
:10196000828393831F910F91FF90EF90DF90CF9030
:10197000BF90AF909F908F907F906F905F904F90AF
:101980003F902F900895CF93DF93EC0190E08091EA
:101990001E05811191E080E0209709F081E0981701
:1019A00031F00E940D1A10921E05CD2B19F4DF9113
:1019B000CF91089581E080931E05DF91CF91089526
:1019C00010920B0510920A0510920D0510920C054D
:1019D00081E090E00E94C30C80E1EEE0F5E0DF01E1
:1019E0001D928A95E9F708952F923F924F925F9248
:1019F0006F927F928F929F92AF92BF92CF92DF921F
:101A0000EF92FF920F931F93DF93CF9300D000D0FC
:101A1000CDB7DEB78C017E836D83672B09F4A3C03D
:101A20004115510509F419C1DA01D1968D919D91A5
:101A30000D90BC91A02D89839A83AB83BC83011543
:101A4000110509F403C1F801618D728D838D948DA8
:101A5000AD81BE8159962D913D914D915C915C97E0
:101A60000E94C1239B01AC010E9496261B012C0100
:101A7000F801658D768D878D90A1AD81BE815D96D3
:101A80002D913D914D915C9190970E94C1239B01B6
:101A9000AC010E9496263B014C01F80161A172A1A4
:101AA00083A194A1AD81BE8191962D913D914D91DF
:101AB0005C9194970E94C1239B01AC010E949626E1
:101AC0005B016C01F80165A176A187A190A5AD81AC
:101AD000BE8195962D913D914D915C9198970E9474
:101AE000C1239B01AC010E9496267B018C01C2019F
:101AF000B101A40193010E94C223A60195010E9495
:101B0000C223A80197010E94C2230E941D275B01E6
:101B10006C01E090A106F090A2060091A30610913E
:101B2000A406C801B701A60195010E94612487FDA2
:101B300033C00F2EF0E06F2EF0E07F2EF0E88F2EF6
:101B4000FFE39F2EF02DC401B30129813A814B811F
:101B50005C810E942826181644F1ED81FE8161AA5D
:101B600072AA83AA94AA26960FB6F894DEBF0FBE77
:101B7000CDBFCF91DF911F910F91FF90EF90DF903C
:101B8000CF90BF90AF909F908F907F906F905F901D
:101B90004F903F902F900895C801B701A60195017D
:101BA0000E9465243B014C01CECFED81FE81A1A4B2
:101BB000B2A4C3A4D4A4C601B50129813A814B8142
:101BC0005C810E9496269B01AC010E9496267B01B7
:101BD0008C0120919D0630919E0640919F06509168
:101BE000A0065058CA01B9010E94C22320E030E08B
:101BF00040E752E40E94962620E030E040E752ECB5
:101C00000E949626AD81BE819D962D913D914D916C
:101C10005C91D0970E9496269B01AC01C801B70148
:101C20000E94C2230E941D27A60195010E946524DF
:101C30007B018C01C401B301A80197010E942826F1
:101C400018160CF08ACF3701480187CF8D819E810D
:101C50000E94170B3B014C0180CF8D819E810E9419
:101C6000170B69837A838B839C83E9CECF92DF92B3
:101C7000FF920F931F93CF93DF9380910A0590916A
:101C80000B05F82E20910C0530910D05992787FD45
:101C9000909582179307B9F100E010E040E050E022
:101CA00019C08F2D99E48902B0011124CF2CDD24B5
:101CB000C7FCD094EB01C05DDD4FCE01B8010E949E
:101CC000F40C80910C0590910D05A8018C159D05D3
:101CD00061F08E01FA94F7FEE4CFA9E0FA2E61E9F3
:101CE00072E0F9E0CF2ED12CE5CFA80180E090E0A2
:101CF000BE010E94F40CDF91CF911F910F91FF90D4
:101D0000DF90CF900895C0E0D0E040E050E0EECF0B
:101D10002F923F924F925F926F927F928F929F92FB
:101D2000AF92BF92CF92DF92EF92FF920F931F93E9
:101D3000DF93CF93CDB7DEB762970FB6F894DEBFCF
:101D40000FBECDBF9A8B898B6A017B0118012901D7
:101D5000FC01658976898789908D0E94FE243B016C
:101D60004C01A70196010E9496260E944E240E94D3
:101D7000D2247B018C01E989FA8965AB76AB87AB0C
:101D800090AFC401B301A20191010E9496260E9466
:101D90004E240E94D2241B012C01E989FA8961AFEB
:101DA00072AF83AF94AFFD96608171818281938120
:101DB000FD97FA8BE98B28E230E040E050E00E948A
:101DC0006C270E94002520E030E040E752E40E94AA
:101DD00096260E94CD245B016C01C801B7010E94C8
:101DE000FE247B018C01C601B5010E9400256D8394
:101DF0007E838F839887C401B301A40193010E945D
:101E000096263B014C01C801B701A80197010E9429
:101E1000962669877A878B879C876D817E818F81E3
:101E200098859B01AC010E94C2236D877E878F87B6
:101E3000988BC401B30129853A854B855C850E9446
:101E4000C1232D853E854F8558890E9465240E94B7
:101E50004E240E94CD2469837A838B839C83C201A4
:101E6000B1010E94FE249B01AC010E9496261B0139
:101E70002C01A40193010E94C1237B018C01D09409
:101E8000C094B094A094A11CB11CC11CD11CC6016B
:101E9000B5010E9400259B01AC010E94C2239B0159
:101EA000AC01C801B7010E9465240E943B25E98965
:101EB000FA89A188B288C388D488860175012981EE
:101EC0003A814B815C81E21AF30A040B150B0E94E4
:101ED000CD24A8019701261B370B480B590BDA01BB
:101EE000C90157FD30C049895A894F5B5F4FFA01DC
:101EF00029813A814B815C812193319341935193A4
:101F0000FA8BE98B820F931FA41FB51F80839183E7
:101F1000A283B38362960FB6F894DEBF0FBECDBF27
:101F2000CF91DF911F910F91FF90EF90DF90CF90B5
:101F3000BF90AF909F908F907F906F905F904F90E9
:101F40003F902F900895C601B5010E9400252D8570
:101F50003E854F8558890E94962629853A854B856E
:101F60005C850E94C1239B01AC01C201B1010E94AA
:101F7000C2237B018C016D817E818F81988520E059
:101F800030E040E850E40E9496269B01AC01C80175
:101F9000B7010E9465240E944E240E94CD246983CB
:101FA0007A838B839C8380E090E0A0E0B0E09BCFBD
:101FB000EF92FF920F931F93CF93DF9380910C05C5
:101FC00090910D05282FE82EFF24E7FCF0948091D6
:101FD0000A0590910B05E816F906E1F1E0E0F0E062
:101FE00001C0FE0189E42802E0011124C05DDD4F3B
:101FF000309759F041A952A963A974A909A91AA94E
:102000002BA93CA9CF010E94880EC70101966AE066
:1020100070E00E948B27282FE82EFF24E7FCF09425
:1020200080910A0590910B05E816F906D1F6CE01CC
:102030000E94170B8B019C0149A95AA96BA97CA985
:10204000CE010E94880EDF91CF911F910F91FF90DA
:10205000EF900895C0E0D0E0EACF0E94360E0E94D3
:10206000F30B0E94D80F08952F923F924F925F92E8
:102070006F927F928F929F92AF92BF92CF92DF9298
:10208000EF92FF920F931F93DF93CF93CDB7DEB7FD
:10209000CC54D0400FB6F894DEBF0FBECDBF3B018D
:1020A0004C0123962CAF3DAF4EAF5FAF23972796E1
:1020B000ECAEFDAE0EAF1FAF27978091530588237E
:1020C000D1F4C45BDF4F0FB6F894DEBF0FBECDBFB7
:1020D000CF91DF911F910F91FF90EF90DF90CF9004
:1020E000BF90AF909F908F907F906F905F904F9038
:1020F0003F902F900895C401B30120917F06309145
:10210000800640918106509182060E9496260E9488
:1021100033267B018C012091830630918406409107
:102120008506509186062BAF3CAF4DAF5EAF409118
:102130008706509188066091890670918A064FAB98
:1021400058AF69AF7AAF20908B0630908C064090E4
:102150008D0650908E0680910A0590910B05019690
:102160006AE070E00E948B2728968FAF2897299607
:102170009FAF299720910C0530910D0529966EADE2
:102180007FAD29972617370771F483B7816083BF26
:10219000889583B78E7F83BF80910C0590910D0544
:1021A0008217930791F320910A0530910B05C9011D
:1021B000880F991F880F991F880F991FDC01AA0F9C
:1021C000BB1FAA0FBB1FAA0FBB1FA80FB91FA20FCF
:1021D000B31FA05DBD4FBEABADAB80910E0590911E
:1021E0000F05A0911005B091110537014801681A3B
:1021F000790A8A0A9B0A97FC2CC3C201B101A60185
:1022000095010E9496260E9433266D877E878F87D0
:10221000988B6FA978AD89AD9AAD27962CAD3DAD61
:102220004EAD5FAD27970E9496260E9433266987A0
:102230007A878B879C876BAD7CAD8DAD9EAD2396E9
:102240002CAD3DAD4EAD5FAD23970E9496260E940A
:1022500033266D837E838F839887E982FA820B838E
:102260001C83EDA9FEA96082718282829382AD8077
:10227000BE80CF80D8848091120590911305A091E3
:102280001405B0911505A6019501281B390B4A0BC1
:102290005B0BDA01C90157FDD4C2EDA9FEA9848305
:1022A0009583A683B783209016053090170540903C
:1022B00018055090190569847A848B849C84D40114
:1022C000C30182199309A409B509B7FDB2C2EDA9EA
:1022D000FEA980879187A287B38720911A05309144
:1022E0001B0540911C0550911D05298B3A8B4B8B8A
:1022F0005C8B4D855E856F8578892D964CAF5DAF83
:102300006EAF7FAF2D977A018B0169897A898B89AE
:102310009C89E61AF70A080B190B17FD81C2ADA9B3
:10232000BEA91C96ED92FD920D931C931F971896D3
:102330002D913D914D915C911B97FD01848195817B
:10234000A681B78182179307A407B50708F454C282
:10235000EDA9FEA920813181428153818217930723
:10236000A407B50708F43FC28E159F05A007B10763
:1023700008F436C2EDA9FEA9818B928BA38BB48B96
:102380000097A105B10509F43AC229813A814B8130
:102390005C812D8F3E8F4F8F58A380910E059091B9
:1023A0000F05A0911005B0911105281B390B4A0BA0
:1023B0005B0BCA01B9010E94002520917F06309174
:1023C000800640918106509182060E94652469AB87
:1023D0007AAB8BAB9CABA9A2BAA2CBA2DCA28091B8
:1023E000120590911305A0911405B0911505A60151
:1023F0009501281B390B4A0B5B0BCA01B9010E94DE
:1024000000252091830630918406409185065091E5
:1024100086060E9465246DA77EA78FA798AB698E5C
:102420007A8E8B8E9C8EC401B30162197309840964
:1024300095090E94002520918706309188064091D9
:10244000890650918A060E94652469A77AA78BA7FE
:102450009CA72D964CAD5DAD6EAD7FAD2D974D8B90
:102460005E8B6F8B788FCB01BA0129893A894B89B2
:102470005C89621B730B840B950B0E9400252091D5
:102480008B0630918C0640918D0650918E060E94ED
:1024900065246DA37EA38FA398A769A97AA98BA9A8
:1024A0009CA90E945B273B014C016DA57EA58FA5D1
:1024B00098A90E945B277B018C0169A57AA58BA551
:1024C0009CA50E945B275B016C016DA17EA18FA181
:1024D00098A50E945B271B012C01C401B301A80130
:1024E00097010E94C223A60195010E94C223A20166
:1024F00091010E94C2230E941D27ADA9BEA99D96ED
:102500006D937D938D939C93D097A896EEADFFAD80
:10251000A897EF2B09F077C1A6962CAD3DAD4EAD37
:102520005FADA6970E94652420E034E244E759E4B9
:102530000E9496260E943326AC01CB01DA01BC0131
:10254000CD010E94FE249B01AC0160EC71EE84E69B
:102550009CE40E9465247B018C0169A97AA98BA95E
:102560009CA9A80197010E949626ADA9BEA95996DB
:102570006D937D938D939C935C976DA57EA58FA5A0
:1025800098A9A80197010E949626EDA9FEA9658F3A
:10259000768F878F90A369A57AA58BA59CA5A801A6
:1025A00097010E949626ADA9BEA991966D937D9341
:1025B0008D939C9394976DA17EA18FA198A5A8015E
:1025C00097010E949626EDA9FEA965A376A387A38D
:1025D00090A765A576A587A590A9A80197010E9457
:1025E0009626ADA9BEA999966D937D938D939C93E4
:1025F0009C9751966D917D918D919C9154970E94DD
:1026000000255B016C01A80197010E9496260E949B
:102610004E240E94D2243B014C01EDA9FEA9658BFA
:10262000768B878B908F80E090E0A0E0B0E081AB6C
:1026300092ABA3ABB4AB60919D0670919E06809166
:102640009F069091A00620E030E040E752E40E940F
:10265000962620E030E040E252E40E9465247B01AF
:102660008C01ADA9BEA99D966D917D918D919C9196
:10267000D097A60195010E9465249B01AC01C80179
:10268000B7010E9465240E944E240DA91EA9035C77
:102690001F4F0E94CD24F80160837183828393834E
:1026A00020911E05222309F0DDC0ADA9BEA9D59653
:1026B0006D927D928D929C92D897FD0161AE72AE23
:1026C00083AE94AEEF5BFF4F1082118212821382B1
:1026D000AD014B5B5F4FFD0181899289A389B4896C
:1026E000FA0180839183A283B383D8011D921D9246
:1026F0001D921C921397EDA9FEA9108A80910E05D8
:1027000090910F05A0911005B09111054D8D5E8D32
:102710006F8D78A1481759076A077B0714F482E088
:10272000808B8091120590911305A0911405B091B2
:10273000150549A15AA16BA17CA1481759076A0741
:102740007B0744F4ADA9BEA950968C915097886040
:1027500050968C938091160590911705A0911805BD
:10276000B0911905498D5A8D6B8D7C8D481759078D
:102770006A077B0744F4ADA9BEA950968C91509787
:10278000806450968C934D895E896F89788D898994
:102790009A89AB89BC89481759076A077B0744F4B3
:1027A000ADA9BEA950968C915097806850968C9395
:1027B0002996EEADFFAD2997F0930B05E0930A053E
:1027C000AEE0B5E0FE01319680E101900D928150BE
:1027D000E1F7222311F00E942D100E94741771CC92
:1027E000D801C701C7CDDA01C9018E159F05A00721
:1027F000B10708F0BFCDF4CFDA01C901A9CD88E552
:102800000E94051D5ECC60EC71EE84E69CE4A69609
:102810002CAD3DAD4EAD5FADA6970E9465248ACE2E
:1028200010950095F094E094E11CF11C011D111D20
:1028300076CDB095A095909581959F4FAF4FBF4FA6
:1028400046CDB095A095909581959F4FAF4FBF4FC6
:1028500024CD9094809470946094611C711C811CB0
:10286000911CCBCC8DA99EA90E94170B8B019C01BA
:102870008DA99EA9B901A8010E94880E29813A81DB
:102880004B815C812D8F3E8F4F8F58A34D815E8190
:102890006F81788549A35AA36BA37CA369857A8548
:1028A0008B859C85698F7A8F8B8F9C8F8D859E857C
:1028B000AF85B8898D8B9E8BAF8BB88F20911A0511
:1028C00030911B0540911C0550911D05298B3A8BB9
:1028D0004B8B5C8B20911E050ECF0F931F930E9494
:1028E0001E1D982F8F3FE1F020915105222321F0EA
:1028F0009A30C9F09D30B9F091328CF3892F81560E
:102900008A31B8F5E22FF0E0E15EFA4F9052908301
:102910002F5F209351050E941E1D982F8F3F21F796
:102920001F910F910895E22FF0E0E15EFA4F1082BF
:102930008FE195E00E948E05082F80915305882332
:1029400009F58FE193E00E945E1D80E090E00E9417
:102950000E2180E090E00E94112080E090E00E9433
:10296000C51E1092530581E00E947A1710925105FE
:10297000B6CFE22FF0E0E15EFA4F90832F5F209315
:102980005105ADCF0330D1F10430D8F0053089F1D5
:10299000053000F1063051F3033699F210E087E17B
:1029A00093E00E945E1DB801882777FD8095982FDF
:1029B0000E94011E84E193E00E945E1D012BB1F292
:1029C000C4CF013089F0023050F087E893E00E94D4
:1029D0005E1DCCCF8AE493E00E945E1DB6CF83ECEF
:1029E00093E00E945E1DC2CF88EA93E00E945E1DC4
:1029F000BDCF82E393E00E945E1DA7CF88E693E0FF
:102A00000E945E1DB3CF60E076E980E090E00E9416
:102A1000C91C089580E090E0AEE7B4E480937F069F
:102A200090938006A0938106B093820680938306DC
:102A300090938406A0938506B093860684EF99EF61
:102A4000ACE3B4E48093870690938806A09389064C
:102A5000B0938A0681EC9AECA1E3B2E480938B06F2
:102A600090938C06A0938D06B0938E0688E0809399
:102A7000900680E090E0A0EFB3E4809391069093FD
:102A80009206A0939306B093940680939506909334
:102A90009606A0939706B09398068AE999E9A9E962
:102AA000B0E480939D0690939E06A0939F06B093FA
:102AB000A0068DEC9CECACECBDE380939906909362
:102AC0009A06A0939B06B0939C0680E090E0A8E451
:102AD000B2E48093A1069093A206A093A306B093BC
:102AE000A406089580E090E00E944703873631F005
:102AF0008130A9F020E030E0C90108958FE796E029
:102B000061E070E046E250E00E94B40320E0892BCF
:102B100009F421E081E0282730E0C90108958FE71A
:102B200096E061E070E04BE150E00E94B403892B35
:102B300009F38AE999E9A9E9B0E480939D069093A5
:102B40009E06A0939F06B093A00680E090E0A8E4C4
:102B5000B2E48093A1069093A206A093A306B0933B
:102B6000A40621E030E0C8CF80E090E067E60E9454
:102B70004F0381E090E06FE776E046E250E00E948C
:102B80006A030895FC018630910509F46DC0873011
:102B90009105A4F08830910509F448C0883091056A
:102BA000B4F18930910509F47BC0E85EF34009F483
:102BB0006AC08DED93E00E945E1D089584309105FA
:102BC00009F443C0853091059CF497FDF2CFEE0FD8
:102BD000FF1FEE0FFF1FE158F94F408351836283BF
:102BE00073830E94B41588EC93E00E945E1D0895E3
:102BF00040939106509392066093930670939406C7
:102C00000E94B41588EC93E00E945E1D08954093E5
:102C1000990650939A0660939B0670939C060E94B7
:102C2000B41588EC93E00E945E1D089540939D06C4
:102C300050939E0660939F067093A0060E94B41561
:102C400088EC93E00E945E1D0895CB01BA010E94BA
:102C5000F9260E94D224609390060E94B41588EC55
:102C600093E00E945E1D089540939506509396064A
:102C700060939706709398060E94B41588EC93E0D1
:102C80000E945E1D0895CB01BA0120E030E040E0D3
:102C900050E00E9461248823A9F00E9495170895AE
:102CA000DB01CA01BF778093A1069093A206A0938F
:102CB000A306B093A4060E94B41588EC93E00E948A
:102CC0005E1D08950E949717089581EB95E00E947C
:102CD0005E1D8AEA95E00E945E1D87EA95E00E94EB
:102CE0005E1D81EA95E00E945E1D60917F067091F5
:102CF000800680918106909182060E94241E81E9BF
:102D000095E00E945E1D8BE895E00E945E1D60913B
:102D100083067091840680918506909186060E94B4
:102D2000241E8BE795E00E945E1D85E795E00E94DA
:102D30005E1D60918706709188068091890690914A
:102D40008A060E94241E85E695E00E945E1D8FE59E
:102D500095E00E945E1D60918B0670918C068091BB
:102D60008D0690918E060E94241E8DE495E00E94AF
:102D70005E1D87E495E00E945E1D6091900670E004
:102D800080E090E00E94011E8AE295E00E945E1DB4
:102D900084E295E00E945E1D60919106709192061A
:102DA00080919306909194060E94241E86E095E0FF
:102DB0000E945E1D80E095E00E945E1D6091950678
:102DC0007091960680919706909198060E94241E15
:102DD00082EE94E00E945E1D8CED94E00E945E1DE8
:102DE0006091990670919A0680919B0690919C063D
:102DF0000E94241E88EC94E00E945E1D82EC94E008
:102E00000E945E1D60919D0670919E0680919F06B6
:102E10009091A0060E94241E84EA94E00E945E1D08
:102E20008EE994E00E945E1D6091A1067091A20659
:102E30008091A3069091A4060E94241E86E694E049
:102E40000E945E1D8DE594E00E945E1D0E94991710
:102E5000AA2797FDA095BA2FBC01CD010E94011EA3
:102E600084E394E00E945E1D81EF93E00E945E1D6A
:102E700008950E947215892B09F008950E940A1581
:102E80000E94B4150E9465160895E1E0F1E080818A
:102E900080648083279A3E9A089597FD07C02F98F3
:102EA0008091020180648093020108952F9A80919D
:102EB00002018064809302010895E2E0F1E08081E4
:102EC0008F7B8083089535E340E757E1469A232FAF
:102ED0002A95F1F74698FA013197F1F701972FEF0C
:102EE0008F3F920799F70895EFE6F0E080818260C6
:102EF0008083089590E090936C0580936B0508950E
:102F000020916B0530916C05C90108951F920F92B5
:102F10000FB60F9211248F9381B3856381BB8F917C
:102F20000F900FBE0F901F90189544980895449AE3
:102F300008953C9904C020E030E0C901089588B1AB
:102F400082958F7080958170282F30E0C901089597
:102F5000603020E0720721E0820720E0920708F449
:102F60005CC0603020E0720728E0820720E0920712
:102F700078F1603020E0720720E4820720E09207B9
:102F800008F451C0603020E0720720E0820721E0A1
:102F9000920708F46DC0603020E0720720E08207DD
:102FA00024E0920708F071C02AE0969587957795FE
:102FB00067952A95D1F7FB019B0140E050E08AE03C
:102FC000220F331F441F551F8A95D1F795E018C073
:102FD00023E096958795779567952A95D1F7FB011C
:102FE0009B0140E050E0220F331F441F551F220F6A
:102FF000331F441F551F220F331F441F551F92E0DC
:1030000080918100887F982B90938100F0938900B4
:10301000E0938800B901CA010895FB019B0140E0DB
:1030200050E091E0EDCFB6E096958795779567955E
:10303000BA95D1F7FB019B0140E050E0220F331F0E
:10304000441F551F220F331F441F551F220F331FCC
:10305000441F551F220F331F441F551F220F331FBC
:10306000441F551F220F331F441F551F93E0C8CF25
:10307000BB27A92F982F872FFC01A0E0B0E02227C3
:10308000382F492F5A2F94E0BBCFEFEFFFEF20E00E
:103090003CEF40E050E095E0B3CF9B01AC01203B1A
:1030A00084E0380780E0480780E0580778F460E063
:1030B00075E38CE090E00E94A81760936D05709313
:1030C0006E0580936F0590937005089560E070E73A
:1030D00088E399E30E949E27C901DA01BC01CD0172
:1030E000EACF80B3856380BB80B38A6C80BB81B339
:1030F000856381BB3C9A449AE1E8F0E080818F7E51
:103100008083808188608083E0E8F0E080818D7F2B
:10311000808380818E7F808380818F738083808194
:103120008F7C80831092B00082E08093B100E0E752
:10313000F0E080818160808360E777E180E090E06B
:103140000E944D18EFE6F0E080818D7F8083109221
:10315000710510927205109273051092740578949F
:1031600008959C0181B3857381BB21153105E1F080
:103170004B991CC02150304095E340E654E004C018
:10318000215030404B9912C081B38A7C816081BB51
:10319000892F8A95F1F781B38A7C81BBFA01319737
:1031A000F1F72115310561F781E0089580E0089578
:1031B0009C0181B38573826081BB21153105E1F0EB
:1031C0004A991CC02150304095E340E654E004C0C9
:1031D000215030404A9912C081B38A7C816081BB02
:1031E000892F8A95F1F781B38A7C81BBFA013197E7
:1031F000F1F72115310561F781E0089580E0089528
:103200009C0181B3857381BB21153105E1F048999B
:103210001CC02150304095E340E654E004C02150EA
:103220003040489912C081B38A7C846081BB892F69
:103230008A95F1F781B38A7C81BBFA013197F1F766
:103240002115310561F781E0089580E008959C0122
:1032500081B38573886081BB21153105E1F04999FF
:103260001CC02150304095E340E654E004C021509A
:103270003040499912C081B38A7C846081BB892F18
:103280008A95F1F781B38A7C81BBFA013197F1F716
:103290002115310561F781E0089580E0089580915E
:1032A0006F0090E0969587958170089511B882E03F
:1032B00084B917B81AB81DB89FE890BB13BA10921A
:1032C0000101109204013FEC3093070120EF20939D
:1032D0000A018CE982B982E285B983E188B99BB998
:1032E00080E38EB991BB83E284BB83E080930201CB
:1032F000809305013093080120930B0108954B9BA7
:103300000CC082E04A99846048998860499980613C
:103310000499806290998064089580E0F3CF1092C0
:1033200053050E94E00C0E9450050E94082088234B
:1033300049F080E090E00E9411200E94082088233C
:1033400009F062C0F89480E090E00E94C51E4B999D
:103350002CC0489942C0049915C081E090E00E94B9
:10336000B1188823C1F7789489B190E08F7090707C
:10337000892B39F481E08093530510926C051092EB
:103380006B05089520ED37E040E951E0CA0101974F
:10339000F1F721503040D1F79099E5CF81E090E0EE
:1033A0000E9400198823C1F7DECF109253058BECE1
:1033B00095E00E945E1D88EE93E00E94D818882355
:1033C00041F120ED37E040E951E0CA010197F1F702
:1033D00021503040D1F7489BBECF1092530585ED68
:1033E00095E00E945E1D88EE93E00E9427198823D5
:1033F00091F020ED37E040E951E0CA010197F1F783
:1034000021503040D1F7A7CF8DEB95E00E945E1D93
:103410000895789408957894089507C083B78160DB
:1034200083BF889583B78E7F83BF0E94440B892B0F
:10343000A9F708951F920F920FB60F920BB60F9235
:103440001124EF92FF920F931F932F933F934F936B
:103450005F936F937F938F939F93AF93BF93CF931C
:10346000DF93EF93FF9380915305882309F588E458
:103470008093520580916F008D7F80936F00FF9144
:10348000EF91DF91CF91BF91AF919F918F917F91FC
:103490006F915F914F913F912F911F910F91FF90ED
:1034A000EF900F900BBE0F900FBE0F901F901895CE
:1034B0000E940820882319F780916B0590916C0574
:1034C000892BE9F689B190E08F709070892B09F013
:1034D00091C191B38091A5068A7C9573892B81BB9C
:1034E00081B38A7C90915605892B81BB809190068F
:1034F000880F845081958093B200B89A81E090E063
:1035000090936C0580936B057894E0915405F0914D
:103510005505309709F4D6C180898093A50610928D
:103520005605209157053091580540915905509105
:103530005A0580819181A281B381280F391F4A1FCA
:103540005B1F2093570530935805409359055093BE
:103550005A0512161306140615060CF046C181E032
:1035600080935605E188F288038914892E193F0952
:10357000400B510B20935705309358054093590544
:1035800050935A0520915B0530915C0540915D0593
:1035900050915E0584819581A681B781280F391FDE
:1035A0004A1F5B1F20935B0530935C0540935D05CC
:1035B00050935E0512161306140615068CF48091BE
:1035C00056058460809356052E193F09400B510B18
:1035D00020935B0530935C0540935D0550935E0539
:1035E00020915F0530916005409161055091620521
:1035F00080859185A285B385280F391F4A1F5B1FDF
:1036000020935F05309360054093610550936205F8
:1036100012161306140615068CF480915605806167
:10362000809356052E193F09400B510B20935F05DF
:1036300030936005409361055093620520916305C6
:1036400030916405409165055091660584859585A6
:10365000A685B785280F391F4A1F5B1F2093630576
:103660003093640540936505509366051216130662
:10367000140615068CF480915605806280935605D9
:103680002E193F09400B510B2093630530936405BD
:103690004093650550936605809167059091680594
:1036A000A0916905B0916A050196A11DB11D809395
:1036B000670590936805A0936905B0936A058E1518
:1036C0009F05A007B10708F0A0C08091560595E3BB
:1036D0008927809356058091A5069AE089278093D3
:1036E000A50620916D0530916E0540916F055091B2
:1036F00070058091710590917205A0917305B0914C
:103700007405280F391F4A1F5B1F209371053093E2
:103710007205409373055093740521380AE1300710
:1037200006E0400700E0500708F45AC020583A412C
:1037300046405040209371053093720540937305C5
:1037400050937405E0915405F0915505309709F4B4
:1037500047C02091670530916805409169055091F7
:103760006A05EF5BFF4F80819181A281B381E154B3
:10377000F040281739074A075B0708F04DC0FD964F
:1037800080819181A281B381FD972091750530914F
:1037900076054091770550917805280F391F4A1F0B
:1037A0005B1F209375053093760540937705509302
:1037B000780585899689A789B08D82179307A40714
:1037C000B50750F48093750590937605A09377051F
:1037D000B09378059C01AD01CA01B9010E944D1852
:1037E00010926C0510926B054ACEE188F28803892D
:1037F0001489C8CE109253058CE4809352058091B1
:103800006F008D7F80936F003ACE10925505109215
:1038100054050E942B0B59CFEB5BFF4F80819181A8
:10382000A281B381E554F04082179307A407B5073E
:1038300070F5FD966081718182819381FD97209161
:10384000750530917605409177055091780562179E
:1038500073078407950780F479018A01E61AF70A4D
:10386000080B190BE0927505F09276050093770529
:1038700010937805A801970181AD92ADA3ADB4ADC9
:10388000281739074A075B0708F0A6CF9BCF258981
:1038900036894789508D8091750590917605A09164
:1038A0007705B0917805281739074A075B0709F4AF
:1038B00097CF209375053093760540937705509305
:1038C00078058ACF0E94440BEC01909355058093B4
:1038D0005405009709F452C06DA97EA98FA998AD2F
:1038E00060937505709376058093770590937805BE
:1038F0001092710510927205109273051092740562
:103900000E944D1889899A89AB89BC89B595A7957C
:1039100097958795B095A095909581959F4FAF4FBE
:10392000BF4F8093570590935805A0935905B093C6
:103930005A0580935B0590935C05A0935D05B09359
:103940005E0580935F0590936005A0936105B09339
:1039500062058093630590936405A0936505B09319
:10396000660510926705109268051092690510921D
:103970006A05E0915405F0915505CECD80916F0018
:103980008D7F80936F0088E58093520510925605D5
:103990009CCEEF92FF920F931F937B018C0122E04C
:1039A00030E040E050E00E94C027205C3D4B404F9B
:1039B0005F4FCA01B901A80197010E949E27C90162
:1039C000DA010197A109B109292F3A2F4B2F552769
:1039D0000196A11DB11D2093C50081508093C400A4
:1039E000E0ECF0E080818D7F8083E1ECF0E080818D
:1039F000806180838081886080838081806880830B
:103A00001F910F91FF90EF900895982F8091C00023
:103A100085FFFCCF9093C600089580917905909121
:103A20007A0580509F4F20917B0530917C05821B49
:103A3000930B60E071E00E948B27089540917B0515
:103A400050917C058091790590917A0584179507AE
:103A500089F0FA01E358FA4F2081CA01019660E02B
:103A600071E00E948B2790937C0580937B0530E06A
:103A7000C90108952FEF3FEFC901089580917B059B
:103A800090917C0590937A05809379050895982FFD
:103A90008091C00085FFFCCF9093C6000895FC0183
:103AA0009081992351F031968091C00085FFFCCF21
:103AB0009093C60090819923B1F70895FC019491E9
:103AC000992351F031968091C00085FFFCCF9093EF
:103AD000C60094919923B1F708952F923F924F9287
:103AE0005F926F927F928F929F92AF92BF92CF928E
:103AF000DF92EF92FF920F931F93DF93CF93CDB797
:103B0000DEB7A0970FB6F894DEBF0FBECDBF6B0136
:103B10007C0129013A01611571058105910509F4BE
:103B200050C08824992454011E010894211C311C82
:103B30008101080D191DC701B601A30192010E9460
:103B40009E27F80160830894811C911CA11CB11C64
:103B5000C701B601A30192010E949E27C901DA01A3
:103B60006C017D01C114D104E104F10409F7811451
:103B70009104A104B10461F19101280D391DD50111
:103B8000C4010197A109B109AC0148195909FA0109
:103B9000E20FF31FE081EA3090F4E05D8091C00015
:103BA00085FFFCCFE093C60021503040221633063B
:103BB00079F0FA01E20FF31FE081EA3070F3E95C7B
:103BC000EDCF8091C00085FFFCCF80E38093C600DD
:103BD000A0960FB6F894DEBF0FBECDBFCF91DF9198
:103BE0001F910F91FF90EF90DF90CF90BF90AF901B
:103BF0009F908F907F906F905F904F903F902F900D
:103C000008959B01AC0197FD09C0CA01B9012AE0E2
:103C100030E040E050E00E946D1D08958091C000AA
:103C200085FFFCCF8DE28093C6005095409530957E
:103C300021953F4F4F4F5F4FE8CF22E030E040E00B
:103C400050E00E946D1D0895EF92FF920F931F9315
:103C5000DF93CF9300D00F92CDB7DEB7AE014F5FA9
:103C60005F4F0E9463267B018C0169817A818B8181
:103C70009C810E94CD240E94011E8091C00085FF7E
:103C8000FCCF8EE28093C600C801B70120E030E08F
:103C90004AE754E40E9496260E94F9260E94CD2409
:103CA00097FD0DC00E94011E0F900F900F900F9076
:103CB000CF91DF911F910F91FF90EF900895909514
:103CC0008095709561957F4F8F4F9F4FEBCF1F92DF
:103CD0000F920FB60F920BB60F9211242F933F93B2
:103CE0004F935F936F937F938F939F93AF93BF9304
:103CF000EF93FF934091C600E0917905F0917A052A
:103D0000CF01019660E071E00E948B279C018091B9
:103D10007B0590917C052817390739F0E358FA4F55
:103D2000408330937A05209379054F3F99F0FF91B6
:103D3000EF91BF91AF919F918F917F916F915F9123
:103D40004F913F912F910F900BBE0F900FBE0F9090
:103D50001F901895F8940E94971710925305E7CF7B
:103D6000879AE7E0F1E080818160808380818260D2
:103D7000808380818460808380818860808380816B
:103D800080648083089580E00895CF93DF93EC01F1
:103D900080915305882319F4DF91CF91089581E034
:103DA0000E947A17209729F1809108018160809301
:103DB0000801C330D10509F446C0C430D1058CF5E3
:103DC000C130D10509F46DC0229709F466C0809115
:103DD00008018E7F8093080128EE33E040E951E02E
:103DE000CA010197F1F721503040D1F7DF91CF910F
:103DF00008958091080181608093080180910801F5
:103E0000826080930801809108018460809308019A
:103E10008091080188608093080180E00E947A17F1
:103E2000BBCFC530D10509F445C0C530D10504F17B
:103E3000269769F68091080182608093080180913D
:103E400008018B7F1DC0809108018D7F8093080140
:103E50008091080184608093080180910801877F28
:103E600080930801809108018E7F80930801AFCF75
:103E7000809108018D7F8093080180910801846002
:103E800080930801809108018860809308018091E7
:103E900008018E7F809308019ACF809108018D7F61
:103EA000CCCF809108018D7F80930801809108011B
:103EB0008B7FD1CF8091080182608093080180912F
:103EC00008018B7F8093080180910801877F809390
:103ED00008017DCF1F93182F80915305882319F473
:103EE00083E61F91089581E090E00E9411208823CD
:103EF00019F485E01F910895812F90E00E94C51E5E
:103F000080E090E00E94C51E80E090E00E941120B9
:103F100080E01F9108951F93182F809153058823E7
:103F200019F483E61F91089581E090E00E9411202A
:103F3000882319F485E01F910895812F90E00E9455
:103F4000B01F80E090E00E94112080E991E001978D
:103F5000F1F780E090E00E94B01F80E01F9108958B
:103F6000CF93DF93EC0180915305882371F0CF3F0D
:103F7000D10539F00E943321882359F08C2F0E94FB
:103F80006A1F80E0DF91CF91089583E6DF91CF91A2
:103F900008958C2F0E948B1F80E0DF91CF910895B0
:103FA00080915305882311F483E608950E94082028
:103FB0008823A1F40E946D2181E090E00E941120ED
:103FC00081E090E00E940E210E942D21813059F065
:103FD00080E090E00E94112080E0089580E090E071
:103FE0000E941120E7CF80E090E00E94112081E044
:103FF0000895EAE0F1E0808180628083EBE0F1E007
:104000008081806280833898409A3998419A0895D7
:1040100086B18170089586B190E0969587958170FC
:104020000895CF93DF93EC0180915305882319F114
:104030000E944F198823E1F781E00E947A172097A8
:10404000E9F080910B018F7D80930B0120ED37E02B
:1040500040E951E0CA010197F1F721503040D1F712
:1040600086B1817090E08C179D0781F08FED95E00F
:104070000E945E1D80E0DF91CF91089580910B0139
:10408000806280930B0120ED37E0E2CF80E00E9458
:104090007A1781E0DF91CF91089525982D9A3C9869
:1040A000449A6998719A9D98A59AA4E0B1E08C9180
:1040B0008E7F8C93E5E0F1E08081816080838C913C
:1040C0008F7E8C93808180618083A1E0B1E08C91B0
:1040D0008E7F8C93E2E0F1E08081816080838C911F
:1040E0008D7F8C93808182608083E0E9F0E0808125
:1040F000826080838CE790E0909399008093980091
:10410000109295001092940084E080939100E1E772
:10411000F0E080818260808308958CB182958695DD
:10412000877080958170089582B382958695877097
:104130008095817008958CB182958F708095817083
:10414000089580910301869580958170089586B1C8
:1041500082958F708095817008958091000180957F
:10416000817008958091030180958170089583B1D5
:104170008295869587708095817008958091000161
:1041800086958095817008951F920F920FB60F92B9
:1041900011240F900FBE0F901F9018951D9B20C0EB
:1041A0008091000180FF0BC080917E068130D9F0A4
:1041B000349B0EC080917D068130E1F0089581E04E
:1041C00080937E0681E090E00E940E213499F2CF28
:1041D00081E080937D0681E090E00E9411200895A7
:1041E0000E94C00ADDCF10927E0680E090E00E941F
:1041F0000E21DECF10927D0680E090E00E9411201B
:10420000089557985F9AEAE0F1E0808180618083A9
:10421000EBE0F1E080818061808308959C018091D2
:104220005305882389F0232B81F080910B018F7E29
:1042300080930B0128E833E140E951E0CA0101977E
:10424000F1F721503040D1F7089580910B01806142
:1042500080930B0128E833E1EFCF89B18095881F67
:104260008827881F0895AF92BF92CF92DF92EF9276
:10427000FF920F931F9380915305882351F483E697
:104280001F910F91FF90EF90DF90CF90BF90AF9074
:10429000089581E090E00E940E2163EC73ED81E4CB
:1042A00091E42AE13BE84DE950E40F2EF0E0EF2ED7
:1042B000F0E0FF2EF0E80F2FFFEB1F2FF02D57013E
:1042C00068010E9404040E944F198823E1F780E9E5
:1042D00091E00197F1F780E0D3CF8F929F92AF9258
:1042E000BF92CF92DF92EF92FF920F931F93809134
:1042F0005305882361F483E61F910F91FF90EF909F
:10430000DF90CF90BF90AF909F908F9008950E94C4
:104310000820882309F020C163EC73ED81E491E467
:104320002AE13BE84DE950E40F2EF0E0EF2EF0E0FB
:10433000FF2EF0E80F2FFFEB1F2FF02D5701680124
:104340000E9404040E944F198823E1F780E991E05C
:104350000197F1F781E090E00E940E2128E833E117
:1043600040E951E0CA010197F1F721503040D1F7FF
:1043700081E090E00E941120882309F4E7C020E149
:1043800037E240E951E0CA010197F1F7215030408E
:10439000D1F799B080E090E00E940E2180E090E09B
:1043A0000E941120882309F4C8C00E940820882395
:1043B000E1F76DE37BE98DE491E42CED38E644E927
:1043C00050E40F2EF0E0EF2EF0E0FF2EF0E80F2F7C
:1043D000FFEB1F2FF02D570168010E9404040E947B
:1043E0004F198823E1F780E991E00197F1F720EA7E
:1043F0003FE040E951E0CA010197F1F72150304018
:10440000D1F781E090E00E941120882309F495C043
:104410000E9408208823E1F320E137E240E951E0DF
:10442000CA010197F1F721503040D1F781E090E0C7
:104430000E94C51E20E43FE140E951E0CA01019716
:10444000F1F721503040D1F7882497FC6BC08824C5
:10445000839428E833E140E951E0CA010197F1F77C
:1044600021503040D1F780E090E00E941120882355
:1044700009F463C00E9408208130E1F328E93AE39F
:1044800040E951E0CA010197F1F721503040D1F7DE
:1044900063EC73ED81E491E42AE13BE84DE950E4FB
:1044A0000F2EF0E0EF2EF0E0FF2EF0E80F2FFFEBE5
:1044B0001F2FF02D570168010E9404040E944F191C
:1044C0008823E1F780E991E00197F1F781E090E03E
:1044D0000E940E2128E833E140E951E0CA0101972A
:1044E000F1F721503040D1F781E090E00E94112097
:1044F000882361F120E137E240E951E0CA010197E8
:10450000F1F721503040D1F74F9919C0882049F177
:1045100080E090E00E94112080E090E00E940E2157
:1045200085E0EACE80E090E00E94C51E80E090E049
:104530000E941120882309F09DCF85E0DDCE81E027
:10454000881679F080E090E00E94112080E090E0F1
:104550000E940E2185E0D0CE80E090E00E941120E4
:10456000DBCE80E090E00E940E2180E090E00E948F
:104570001120882311F30E9408208823E1F7BCCE84
:104580008F929F92AF92BF92CF92DF92EF92FF9263
:104590000F931F93CF93DF9380915305882371F47A
:1045A00083E6DF91CF911F910F91FF90EF90DF9005
:1045B000CF90BF90AF909F908F9008950E94082059
:1045C000882309F04AC088249924C0E9D1E00E94D8
:1045D0004A288C010E944A286C01C8016CE070E0F6
:1045E0000E948B27AA2797FDA095BA2FBC01CD0169
:1045F0000E9400257B018C01C6016EE070E00E94E4
:104600008B27AA2797FDA095BA2FBC01CD010E9448
:1046100000259B01AC01C801B7010F2EF0E0EF2E81
:10462000F0E0FF2EF0E80F2FFFEB1F2FF02D5701CA
:1046300068010E94040428E833E1CE010197F1F7F4
:1046400021503040D1F70894811C911C88EC8816C9
:10465000910409F0BCCF80E0A4CF80E090E00E94FC
:104660001120B1CF4F9905C086EF95E00E945E1DE5
:10467000089581EF95E00E945E1D0895E7E0F1E066
:1046800080818068808308950E940820882331F506
:104690000E944F198823E1F728EE33E040E951E00A
:1046A000CA010197F1F721503040D1F781E090E045
:1046B0000E94112024EC39E040E951E0CA01019741
:1046C000F1F721503040D1F780E090E00E940E21B8
:1046D00080E090E00E94112080E0089585E0089538
:1046E00080915305882341F10E944F198823E1F7F7
:1046F00081E00E947A17809108018F7780930801EA
:1047000020ED37E040E951E0CA010197F1F721506F
:104710003040D1F78091080180688093080120ED36
:1047200037E040E951E0CA010197F1F721503040EC
:10473000D1F780E00E947A1708950E944F198823CC
:10474000E1F70E940820882311F085E008950E9477
:10475000702381E090E00E940E2181E090E00E94B1
:10476000112028E833E140E951E0CA010197F1F74F
:1047700021503040D1F780E090E00E94112080E08D
:1047800008955058BB27AA270ED011C202D230F08C
:1047900007D220F031F49F3F11F41EF4D2C10EF481
:1047A000E095E7FB9FC1E92F13D280F3BA176207A8
:1047B00073078407950718F071F49EF542C20EF452
:1047C000E0950B2EBA2FA02D0B01B90190010C0121
:1047D000CA01A0011124FF27591B99F0593F50F439
:1047E000503E68F11A16F040A22F232F342F442791
:1047F000585FF3CF469537952795A795F040539589
:10480000C9F77EF41F16BA0B620B730B840BBAF058
:104810009150A1F0FF0FBB1F661F771F881FC2F7C3
:104820000EC0BA0F621F731F841F48F487957795D7
:104830006795B795F7959E3F08F0B3CF9395880F8E
:1048400008F09927EE0F979587950895DF93DD2758
:10485000B92FBF7740E85FE31616170648075B07D6
:1048600010F4D92FF9D19F938F937F936F9323D314
:10487000ECE1F2E069D19BD12F913F914F915F9193
:1048800061D2DD2349F09058A2EA2AED3FE049ECDD
:104890005FE3D0785D2787DFDF9189C1BBD180F0EE
:1048A0009F3740F491110EF4CDC160E070E080E8D4
:1048B0009FE3089526F01B16611D711D811D18C10F
:1048C00032C1ECD008F481E008950CD070C168D1F9
:1048D00040F05FD130F021F45F3F19F003C1511176
:1048E000B1C12FC175D198F39923C9F35523B1F301
:1048F000951B550BBB27AA2762177307840738F04F
:104900009F5F5F4F220F331F441FAA1FA9F333D0AD
:104910000E2E3AF0E0E830D091505040E695001C61
:10492000CAF729D0FE2F27D0660F771F881FBB1F1D
:10493000261737074807AB07B0E809F0BB0B802DF7
:10494000BF01FF2793585F4F2AF09E3F510568F043
:10495000C9C078C15F3FECF3983EDCF3869577954C
:104960006795B795F7959F5FC9F7880F911D969545
:10497000879597F90895E1E0660F771F881FBB1FA1
:10498000621773078407BA0720F0621B730B840B4E
:10499000BA0BEE1F88F7E095089504D06894B11122
:1049A00051C108951DD188F09F5790F0B92F9927D4
:1049B000B751A0F0D1F0660F771F881F991F1AF02A
:1049C000BA95C9F712C0B13081F03BD1B1E008957A
:1049D00038C1672F782F8827B85F39F0B93FCCF3FB
:1049E000869577956795B395D9F73EF49095809520
:1049F000709561957F4F8F4F9F4F0895E89409C040
:104A000097FB3EF490958095709561957F4F8F4F01
:104A10009F4F9923A9F0F92F96E9BB279395F69517
:104A2000879577956795B795F111F8CFFAF4BB0F95
:104A300011F460FF1BC06F5F7F4F8F4F9F4F16C0F9
:104A4000882311F096E911C0772321F09EE8872F83
:104A5000762F05C0662371F096E8862F70E060E03F
:104A60002AF09A95660F771F881FDAF7880F9695B8
:104A7000879597F90895CED080F09F3740F4911133
:104A80000EF0E0C060E070E080E89FEB089526F44F
:104A90001B16611D711D811D2BC045C0990F00089B
:104AA000550FAA0BE0E8FEEF16161706E807F90700
:104AB000C0F012161306E407F50798F0621B730B9B
:104AC000840B950B39F40A2661F0232B242B252B1C
:104AD00021F408950A2609F4A140A6958FEF811DBF
:104AE000811D089597F99F6780E870E060E0089560
:104AF000882371F4772321F09850872B762F07C0F5
:104B0000662311F499270DC09051862B70E060E068
:104B10002AF09A95660F771F881FDAF7880F969507
:104B2000879597F908959F3F31F0915020F487952C
:104B300077956795B795880F911D9695879597F905
:104B400008959FEF80EC0895DF93CF931F930F9309
:104B5000FF92EF92DF927B018C01689405C0DA2E00
:104B6000EF01F0D0FE01E894A59125913591459192
:104B70005591AEF3EF0117DEFE019701A801DA941B
:104B800079F7DF90EF90FF900F911F91CF91DF9118
:104B9000089500240A9416161706180609060895A3
:104BA00000240A9412161306140605060895092E09
:104BB0000394000C11F4882352F0BB0F40F4BF2B78
:104BC00011F460FF04C06F5F7F4F8F4F9F4F0895B8
:104BD00057FD9058440F551F59F05F3F71F04795AE
:104BE000880F97FB991F61F09F3F79F08795089593
:104BF000121613061406551FF2CF4695F1DF08C0B2
:104C0000161617061806991FF1CF869571056105CE
:104C100008940895E5DFA0F0BEE7B91788F4BB2734
:104C20009F3860F41616B11D672F782F8827985F7C
:104C3000F7CF869577956795B11D93959639C8F30B
:104C40000895E894BB2766277727CB0197F9089545
:104C500025DF08F48FEF08959B01AC0160E070E060
:104C600080E89FE332CEBCDF58F19E5758F198514F
:104C7000A0F0E9F0983020F5092E9927660F771FEC
:104C8000881F991F0A94D1F712C0062E672F782F1C
:104C90008827985F11F4000C07C0993FB4F38695FC
:104CA000779567959395D9F7611D711D811D3EF428
:104CB00090958095709561957F4F8F4F9F4F089588
:104CC0006894C0CFBECFFA01DC01AA0FBB1F9B01C5
:104CD000AC01BF5728F422273327442750781FC040
:104CE000B75188F4AB2F0024469537952795011CC2
:104CF000A395D2F3002069F0220F331F441FB39510
:104D0000DAF30DD03ECD61307105A0E88A07B946CF
:104D100030F49B01AC01662777278827907830967E
:104D200021F0208331834283538308950BD03FCFFA
:104D300030DF28F035DF18F0952309F0D3CE01CF0E
:104D4000112480CF45DFA0F3959FD1F3950F50E05C
:104D5000551F629FF001729FBB27F00DB11D639F2D
:104D6000AA27F00DB11DAA1F649F6627B00DA11DD3
:104D7000661F829F2227B00DA11D621F739FB00D79
:104D8000A11D621F839FA00D611D221F749F3327E9
:104D9000A00D611D231F849F600D211D822F762F82
:104DA0006A2F11249F5750408AF0E1F088234AF07F
:104DB000EE0FFF1FBB1F661F771F881F91505040CB
:104DC000A9F79E3F510570F08DCE3CCF5F3FECF3CD
:104DD000983EDCF3869577956795B795F795E795B7
:104DE0009F5FC1F7FE2B880F911D9695879597F9C8
:104DF0000895F6DEE0F09E37D8F09639B8F49E3884
:104E000048F4672F782F8827985FF9CF8695779594
:104E1000679593959539D0F3B62FB1706B0F711DCF
:104E2000811D20F4879577956795939561CE7BCE0C
:104E300009CF11F40EF485CE76CED2DED0F39923CD
:104E4000D9F3CEF39F57550B87FF3FD00024A0E640
:104E500040EA900180585695979528F4805C660F3B
:104E6000771F881F20F026173707480730F4621B8A
:104E7000730B840B202931294A2BA695179407948C
:104E8000202531254A2758F7660F771F881F20F005
:104E900026173707480730F4620B730B840B200D7D
:104EA000311D411DA09581F7B901842F9158880FBC
:104EB0009695879508959B01AC0138CFABDE20F025
:104EC0009F3708F4BFCE14CE2ECE91505040660FBF
:104ED000771F881FD2F70895629FD001739FF0015A
:104EE000829FE00DF11D649FE00DF11D929FF00D7A
:104EF000839FF00D749FF00D659FF00D9927729FB1
:104F0000B00DE11DF91F639FB00DE11DF91FBD013B
:104F1000CF011124089597FB092E07260AD077FDAB
:104F200004D049D006D000201AF4709561957F4FC7
:104F30000895F6F7909581959F4F0895A1E21A2E56
:104F4000AA1BBB1BFD010DC0AA1FBB1FEE1FFF1F2D
:104F5000A217B307E407F50720F0A21BB30BE40B7D
:104F6000F50B661F771F881F991F1A9469F76095C4
:104F70007095809590959B01AC01BD01CF0108957E
:104F800097FB092E05260ED057FD04D0D7DF0AD097
:104F9000001C38F450954095309521953F4F4F4F68
:104FA0005F4F0895F6F790958095709561957F4FC6
:104FB0008F4F9F4F0895AA1BBB1B51E107C0AA1F2B
:104FC000BB1FA617B70710F0A61BB70B881F991FAA
:104FD0005A95A9F780959095BC01CD010895AF929F
:104FE000BF92CF92DF92EF92FF920F931F93CF93D6
:104FF000DF93EC01A880B980CA80DB80A114B104E2
:10500000C104D10441F484E2A82E89EDB82E8BE5C9
:10501000C82E87E0D82EC601B5012DE133EF41E05F
:1050200050E00E94C02727EA31E440E050E00E94AF
:105030006C277B018C01C601B5012DE133EF41E006
:1050400050E00E94C027CA01B9012CEE34EF4FEFA7
:105050005FEF0E946C276E0D7F1D801F911F97FFD1
:1050600004C06150704080409048688379838A838F
:105070009B839B013F77C901DF91CF911F910F91D6
:10508000FF90EF90DF90CF90BF90AF9008950E9477
:10509000EF27089580E092E00E94EF270895A0E0B6
:1050A000B0E08093000290930102A0930202B093BB
:1050B000030208958F929F92AF92BF92CF92DF9298
:1050C000EF92FF920F931F93CF93DF93EC015B015D
:1050D0006115710519F0FB0191838083F9908F2D83
:1050E00090E00E94C829892BC9F7FDE2FF1621F440
:1050F000F990EE24E39405C02BE2F21609F4F9903E
:10510000EE248E0101501040C8016CEF75E043E0C1
:1051100050E00E94D029892B01F58E010E5F1F4FB0
:10512000C8016FEF75E045E050E00E94D029892B5F
:1051300019F48E01095F1F4FA114B10419F0F50194
:1051400011830083E0FC04C070E090E080E814C0AC
:1051500070E090E080E86FEF08C1C80164E076E09D
:1051600043E050E00E94D029892B69F4A114B104D6
:1051700029F470E090E080EC6FE7F7C02296F5012B
:10518000D183C083F6CF8824992440E050E060E0CA
:1051900070E0EF2DE053EA30A0F5F2E0EF2A8E2D1B
:1051A00090E09C0128703070E2FE06C0232B79F558
:1051B0000894811C911C2BC0232B19F008948108A2
:1051C0009108DB01CA0112E0880F991FAA1FBB1FBB
:1051D0001A95D1F7480F591F6A1F7B1F440F551F9F
:1051E000661F771F4E0F511D611D711D483929E93A
:1051F000520729E9620729E1720748F084E0E82AAA
:1052000006C0EE3F31F4E3FC39C098E0E92AF9909A
:10521000C0CFE53311F0E53189F529912D3219F42C
:10522000E0E1EE2A05C02B3219F081E090E003C0E6
:10523000299182E090E0E22FE053EA3018F0C81B99
:10524000D90B1CC020E030E0FCE020383F075CF4C4
:10525000C901880F991F880F991F280F391F220F26
:10526000331F2E0F311DE991E053EA3068F3E4FE5D
:1052700003C0309521953F4F820E931ECE2CDD2426
:10528000E1FE07C0A114B10421F02197F501D183FB
:10529000C083CB01BA010E94FE247B018C01F3E0A4
:1052A000CF22DD2423E0C216D10421F417FB109590
:1052B00017F9109557016801C801B70120E030E0E7
:1052C00040E050E00E946124882309F44AC097FE20
:1052D0000DC02BE1E22E26E0F22E909481949108ED
:1052E0009394C0E2D0E000E010E012C093E3E92E16
:1052F00096E0F92EF6CFF70125913591459154911D
:10530000C601B5010E9496265B016C018C1A9D0AAC
:105310008C169D0684F7D595C7950F5F1F4F0630F5
:10532000110529F08CEF9FEFE80EF91EF1CFC501B2
:10533000D6017C018D018C2D880F8D2D881F8F3F0C
:1053400051F0C601B50120E030E040E050E00E949D
:105350006124882331F482E290E09093A706809341
:10536000A6067E2D9F2D802F612F272F392F482FA6
:10537000562FB901CA01DF91CF911F910F91FF9074
:10538000EF90DF90CF90BF90AF909F908F90089557
:1053900091111EC0803219F089508550D0F70895C0
:1053A000FB01DC014150504088F08D9181341CF0AC
:1053B0008B350CF4805E659161341CF06B350CF418
:1053C000605E861B611171F3990B0895881BFCCFF9
:0A53D000992788270895F894FFCF6D
:0453DA0001000000CE
:00000001FF
