:100000000C9408030C9429030C9429030C942903E1
:100010000C9429030C9429030C9429030C942903B0
:100020000C9429030C9429030C9429030C942903A0
:100030000C9429030C9429030C9429030C94F917AC
:100040000C9429030C94FC1A0C9429030C94290396
:100050000C941F270C9429030C9429030C943C2620
:100060000C9429030C94491F0C9429030C94290324
:100070000C9429030C9429030C9429030C94290350
:100080000C94A6210C9429030C9429030C942903A5
:100090000C9429030C9429030C9429030C94290330
:1000A0000C9429030C9429030C9429030C94290320
:1000B0000C9429030C9429030C9429030C94290310
:1000C0000C9429030C9429030C9429030C94290300
:1000D0000C9429030C9429030C9429030C942903F0
:1000E0000C9429037508750871086A0863085E088E
:1000F0004C064C06570852084B0844083D08360881
:100100002F08280821081A0813080C0805080008F9
:10011000FB07F607EF07EA07E30781074C06D90755
:100120007108D4074C064C064C064C064C064C068F
:100130004C064C064C064C064C064C064C064C062F
:100140004C064C064C064C064C064C064C064C061F
:100150004C064C064C064C064C064C067108D10762
:10016000CD07C907880785074C064C064C064C0688
:100170004C064C064C064C064C064C064C064C06EF
:10018000BD07B407AB07A707A4074C064C064C06EF
:100190004C064C064C06A1074C06A1074C064C0623
:1001A0004C064C064C064C064C064C064C064C06BF
:1001B0004C064C064C064C064C064C064C064C06AF
:1001C0004C064C064C064C069E074C064C064C064C
:1001D0004C064C064C064C064C064C064C064C068F
:1001E0004C064C064C064C064C064C064C064C067F
:1001F0004C064C064C064C064C064C064C069A0720
:100200004C064C064C064C064C064C064C064C065E
:100210004C069607930790078C07C607084AD73BFA
:100220003BCE016E84BCBFFDC12F3D6C74319ABDC5
:1002300056833DDA3D00C77F11BED9E4BB4C3E91E9
:100240006BAAAABE000000803F595F484F4D450D84
:100250000A00585F484F4D450D0A00594C320D0AAF
:1002600000594C310D0A00584C320D0A00584C31DF
:100270000D0A000D0A006765745F62757379203D91
:1002800020000D0A00726F7461746564203D2000C7
:100290000D0A0076616375756D5F73746174652016
:1002A0003D20000D0A00686561645F6D6F76696EC0
:1002B00067203D20000D0A006865616420646F7747
:1002C0006E203D20000D0A006176725F6D696C6CD6
:1002D00069732829203D20000D0A00746F5F6D6945
:1002E0006C6C696D65746572732831303029203DFE
:1002F00020000D0A0050494E44206C696D697473EA
:10030000203D20000D0A00504F52544420203D2033
:10031000000D0A00444952454354494F4E5F504F27
:10032000525420203D20000D0A00444952454354B8
:10033000494F4E5F44445220203D20006572720AAE
:10034000006F6B0A006E686F0A006C696D0A006FBF
:100350006B0A0053746F726564206E657720736555
:100360007474696E670D0A00556E6B6E6F776E2040
:10037000706172616D657465720D0A002724783DA5
:1003800076616C75652720746F20736574207061C9
:1003900072616D65746572206F72206A7573742066
:1003A00027242720746F2064756D70206375727226
:1003B000656E742073657474696E67730D0A00202E
:1003C0002873746570706572733A2030203D206424
:1003D000697361626C65642C2031203D20656E611B
:1003E000626C6564290D0A002431303030203D20D4
:1003F0000020286D617820696E7374616E742063CB
:100400006F726E6572696E672073706565642063D4
:1004100068616E676520696E2064656C7461206D2B
:100420006D2F6D696E290D0A002439203D200020B2
:1004300028616363656C65726174696F6E20696EB3
:10044000206D6D2F7365635E32290D0A00243820FC
:100450003D200020286D6D2F617263207365676DEC
:10046000656E74290D0A002437203D200020286D78
:100470006D2F6D696E2064656661756C742073659F
:10048000656B2072617465290D0A002436203D20B9
:100490000020286D6D2F6D696E2064656661756C36
:1004A0007420666565642072617465290D0A0024F4
:1004B00035203D200020286D6963726F7365636F7E
:1004C0006E647320737465702070756C7365290D8C
:1004D0000A002434203D2000202873746570732F97
:1004E0006465672E2063290D0A002433203D200017
:1004F000202873746570732F6D6D207A290D0A00A2
:100500002432203D2000202873746570732F6D6D98
:100510002079290D0A002431203D20002028737401
:100520006570732F6D6D2078290D0A002430203DF1
:1005300020000D0A00302E37365042002456455216
:1005400053494F4E203D2000794C696D6974323A11
:1005500020697320696E206C696D69740D0A0079D9
:100560004C696D6974313A20697320696E206C6939
:100570006D69740D0A00784C696D6974323A2069AE
:100580007320696E206C696D69740D0A00784C697E
:100590006D6974310D0A004865616420646F776E7F
:1005A000206572726F720A0D006E6F0A00796573B2
:1005B0000A004572726F723A204F53434F4B4952B3
:1005C00051206661696C656420746F206173736586
:1005D00072740A00494E46494E4954594E414ECD17
:1005E000CCCC3D0AD7233C17B7D13877CC2B3295EA
:1005F00095E6241FB14F0A000020410000C84200C8
:10060000401C4620BCBE4CCA1B0E5AAEC59D740091
:1006100011241FBECFEFD1E2DEBFCDBF00E00CBF83
:1006200012E0A0E0B2E0E0EBF4E600E00BBF02C0B5
:1006300007900D92A630B107D9F719E0A6E0B2E015
:1006400001C01D92AA3DB107E1F70E94DE0A0C9499
:1006500056320C940000249A0895892B11F42C989A
:1006600008952C9A0895F999FECF92BD81BD81E03D
:100670008FBB80B50895F894F999FECF92BD81BDE6
:1006800081E08FBB90B59627892F862341F06F3F7D
:1006900071F060BD84E08FBBF99A78940895992336
:1006A000E1F360BD84E28FBBF99A7894089584E108
:1006B0008FBBF99A78940895AF92BF92CF92DF9250
:1006C000FF920F931F93CF93DF936C018B015A011D
:1006D0004115510559F1FF24C0E0D0E00DC021E0E3
:1006E000F8016081F22EF60E0E943B032196CA1596
:1006F000DB0561F00F5F1F4FCE018C0D9D1DFF20AC
:1007000071F72F2D221F2227221FEACFCC0EDD1ECC
:10071000C6016F2D0E943B03DF91CF911F910F9176
:10072000FF90DF90CF90BF90AF900895FF24F0CF5F
:10073000FC0141155105C9F1A0E020E030E0B1E035
:10074000C901860F971FF999FECF92BD81BDBFBB2E
:1007500090B5AA2359F081E0A82FA90F90832F5FAD
:100760003F4F2417350771F03196EACF8A2F881F43
:100770008827881FA82FA90F90832F5F3F4F24172A
:10078000350791F7620F731FF999FECF72BD61BDF6
:1007900081E08FBB80B520E030E0A81711F0C901DF
:1007A000089521E030E0C9010895A0E0EDCF8093E5
:1007B0002F02609330024093310208956093060245
:1007C0007093070280930802909309020895609342
:1007D000060270930702809308029093090208951D
:1007E0002F923F924F925F926F927F928F929F9241
:1007F000AF92BF92CF92DF92EF92FF920F931F932F
:10080000DF93CF93CDB7DEB728970FB6F894DEBF4E
:100810000FBECDBF69837A838B839C832D833E83F8
:100820004F835887170128013501460120E030E049
:1008300040E85FEB0E94CC2C882341F420901C02FE
:1008400030901D0240901E0250901F026D817E81EB
:100850008F81988520E030E040E85FEB0E94CC2C4F
:10086000882341F46090200270902102809022023F
:1008700090902302C201B10120E030E040E85FEB3C
:100880000E94CC2C882341F4209024023090250231
:100890004090260250902702C401B30120E030E0CE
:1008A00040E85FEB0E94CC2C882341F46090280242
:1008B0007090290280902A0290902B0200D000D0E4
:1008C0008091180290911902A0911A02B0911B0216
:1008D000EDB7FEB781839283A383B483168215821A
:1008E00069817A818B819C812D813E814F815885E0
:1008F00082017101640153010E94BE1089819A81B5
:10090000AB81BC8180931C0290931D02A0931E02B8
:10091000B0931F028D819E81AF81B88580932002A4
:1009200090932102A0932202B093230220922402EA
:1009300030922502409226025092270260922802AD
:100940007092290280922A0290922B02ADB7BEB714
:1009500016960FB6F894BEBF0FBEADBF28960FB661
:10096000F894DEBF0FBECDBFCF91DF911F910F91E5
:10097000FF90EF90DF90CF90BF90AF909F908F90BF
:100980007F906F905F904F903F902F900895AF921F
:10099000BF92CF92DF92EF92FF920F931F93DF935C
:1009A000CF930F920F92CDB7DEB76C015B017A0146
:1009B000FB0100811181080F191FC801BE016F5F83
:1009C0007F4F0E94C530F7016083718382839383D8
:1009D00089819A8180179107A9F08C199D09F501E9
:1009E0009183808321E030E0C9010F900F90CF9177
:1009F000DF911F910F91FF90EF90DF90CF90BF900C
:100A0000AF90089581E080930A0220E030E0ECCFBF
:100A10000F931F93CF93DF93EC018B01D901ED91DD
:100A2000FC911197E40FF51FE081EE2339F0E88384
:100A3000E154EA3158F082E080930A0220E030E08D
:100A4000C901DF91CF911F910F9108958D919C91D4
:100A5000119701968D939C93CA01B901A8010E9438
:100A6000C704009711F081E090E09C01C901DF917B
:100A7000CF911F910F91089588E2EAE0F2E0DF0143
:100A80001D928A95E9F760918009709181098091A2
:100A900082099091830920E030E040E752E40E940F
:100AA000D02C6093140270931502809316029093D9
:100AB000170260918409709185098091860990914F
:100AC000870920E030E040E752E40E94D02C609398
:100AD00018027093190280931A0290931B021092CD
:100AE0002F0291E09093300282E080933102909344
:100AF0000E0208952F923F924F925F926F927F92D3
:100B00008F929F92AF92BF92CF92DF92EF92FF921D
:100B10000F931F93DF93CF93CDB7DEB7E7970FB651
:100B2000F894DEBF0FBECDBF5C011B821A8280E04D
:100B300090E0A0E0B0E088879987AA87BB87ACE007
:100B40002A2E312C2C0E3D1E80E1D101E82F1D9262
:100B5000EA95E9F7FCE1CF2ED12CCC0EDD1ED601B3
:100B60001D928A95E9F710920A02F5018081883278
:100B700009F48AC08F3209F46EC0843209F44DC082
:100B800019AA18AAE2E06E2E712C6C0E7D1E74E07C
:100B9000472E512C4C0E5D1E4E010894811C911C59
:100BA000C401B201A50193010E940805892B09F433
:100BB000A0C26C817D818E819F810E94C92F7B01A3
:100BC0008C010E94382D29812D3409F442C12E3424
:100BD00008F047C0243409F46AC0273409F456C029
:100BE00080910A028823E1F2E7960FB6F894DEBFFF
:100BF0000FBECDBFCF91DF911F910F91FF90EF906E
:100C0000DF90CF90BF90AF909F908F907F906F902C
:100C10005F904F903F902F90089581E090E09B83EC
:100C20008A83D50111968C91882361F18E010E5F24
:100C30001F4FC501B801AE01485F5F4F0E94C70456
:100C40002A813B81F501E20FF31F80818D3309F486
:100C500034C183E0C9CF8A819B8101969B838A83BB
:100C60008FCF2035F9F0243509F0BACFC801B7018C
:100C70000E943D2D60932C0280910A02882309F482
:100C80008FCFB2CF0E94D81680E0AECFE62FF72FDD
:100C9000EF35F10508F4EBC083E080930A02809100
:100CA0000A02A2CF0E94F21480910A029DCF8AB15B
:100CB0008AE293E00E94401E60B370E080E090E022
:100CC0000E94FF1E87E293E00E94401E84E193E0B1
:100CD0000E94401E61B370E080E090E00E94FF1E21
:100CE00081E193E00E94401EEBB087E093E00E9418
:100CF000401EFF2400E010E0C801B7010E94FF1E63
:100D000084E093E00E94401EE9B085EF92E00E94EB
:100D1000401EFF2400E010E0C801B7010E94FF1E42
:100D200082EF92E00E94401E8BED92E00E94401EF6
:100D300080910D02882309F4A2C06CEE79E080E076
:100D400090E00E94E31E88ED92E00E94401E88EC35
:100D500092E00E94401E0E9484260E94E31E85ECC1
:100D600092E00E94401E88EB92E00E94401E0E948A
:100D7000EA2090E0A0E0B0E0BC01CD010E94E31EBB
:100D800085EB92E00E94401E86EA92E00E94401E9F
:100D90000E942B1990E0A0E0B0E0BC01CD010E94C0
:100DA000E31E83EA92E00E94401E83E992E00E94E3
:100DB000401E0E94122290E0A0E0B0E0BC01CD01F4
:100DC0000E94E31E80E992E00E94401E85E892E0C6
:100DD0000E94401E0E94ED2090E0A0E0B0E0BC0127
:100DE000CD010E94E31E82E892E00E94401E86E749
:100DF00092E00E94401E0E94F317AA2797FDA0953B
:100E0000BA2FBC01CD010E94E31E83E792E00E944D
:100E1000401E0E94311A882309F040C00E94EC193C
:100E2000882309F045C00E94B0198823E1F50E948B
:100E30006B19882371F50E942519882329F50E94D2
:100E40002819882309F42BCF89E492E00E94401EE0
:100E500026CFE62FF72FED33F10508F01DCFEE5822
:100E6000FF4FEE0FFF1F0590F491E02D1994E1550F
:100E7000FF4FEE0FFF1F0590F491E02D199464E6EB
:100E800070E080E090E05DCF82E592E00E94401E3D
:100E9000D6CF8BE592E00E94401ECDCF8DE692E04A
:100EA0000E94401EBBCF81E692E00E94401EBFCF51
:100EB00087E692E00E94401EB6CF2F5F3F4F3B83F4
:100EC0002A83C501B801AE014C5F5F4F0E94C70481
:100ED000EA81FB81EA0DFB1D8081882309F0B9CEF0
:100EE000688579858A859B850E94382DDC01CB0138
:100EF0004C815D816E817F810E94351680910A024E
:100F000073CE0E94562480930A02E1E0E8AB68CEDB
:100F100093E090930B0264CE91E090930C0260CE2C
:100F200083E088AB5DCE10920E025ACEF1E0F093D2
:100F30000E0256CEE4E0E0930B0252CEB1E0B9AB24
:100F40004FCEB2E0B8AB4CCE10920D0249CEA1E02C
:100F5000A0930D0245CE81E080932F0292E0909302
:100F60003002109231023CCE10922F02E2E0E09368
:100F70003002F1E0F093310233CE10922F02A1E063
:100F8000A0933002B2E0B09331022ACE10920C024C
:100F900027CE82E080930B0223CEF1E0F0930B0288
:100FA0001FCE10920B021CCE0E94811591E098ABCF
:100FB00017CEF6E0F0930A020E945B190E94E71D2B
:100FC00081E088AB0DCE0E94972480930A02B1E0A5
:100FD000B8AB06CE0E941724A1E0A8AB01CE0E94B8
:100FE000522280930A0291E098ABFACD0E94B2207F
:100FF00081E088ABF5CD0E941724F1E0F8ABF0CD8D
:101000000E942924E1E0E8ABEBCD80E090E00E9473
:10101000F021B1E0B8ABE4CD81E090E00E94F02196
:10102000A1E0A8ABDDCD86E090E00E94922091E0A7
:1010300098ABD6CD85E090E00E94922081E088AB0D
:10104000CFCD84E090E00E949220F1E0F8ABC8CDD3
:1010500083E090E00E949220E1E0E8ABC1CD82E025
:1010600090E00E949220B1E0B8ABBACD81E090E070
:101070000E949220A1E0A8ABB3CD80E090E00E9456
:10108000922091E098ABACCD80E090E00E94F320FC
:1010900081E088ABA5CD81E090E00E94F320F1E0F3
:1010A000F8AB9ECD109213021092120299CD81E0FE
:1010B00090E0909313028093120292CD109211024D
:1010C000109210028DCDEFEFFFEFF0931102E0933D
:1010D000100286CD81E090E090931102809310027F
:1010E0007FCDB2E0B0930F027BCDA1E0A0930F02C1
:1010F00077CD80910A02882309F076CD1B821A826F
:1011000080E1D6011D928A95E9F7D101ECE1F2E088
:1011100080E101900D928150E1F71CAA1DAAB0E870
:10112000BEABEFEBEFAB1BAA1AAAC401B201A5013B
:1011300093010E940805892B09F405C1CC80DD804C
:10114000EE80FF8080910D028823D9F4A7019601DB
:1011500009810D3419F10E3460F5083409F47AC0B0
:101160000934B8F5033409F48AC00634F1F68091E5
:101170000C02882309F4C1C02CAB3DAB4EAB5FAB76
:10118000D4CFC701B60123E333E34BEC51E40E9413
:10119000012F9B01AC0109810D34E9F62093060271
:1011A000309307024093080250930902A1E0A8ABD4
:1011B000BCCF033509F445C00435E8F40E3409F416
:1011C00053C0003509F0B1CFC886D986EA86FB86C0
:1011D000ACCF0C3408F0A9CFE02FF0E0E954F04098
:1011E000EE0FFF1FEE0FFF1FE80DF91D238F348F49
:1011F000458F568F9ACF802F8855833008F095CF32
:1012000080910E02882309F05AC0F9A9FF2309F042
:1012100056C010E008551040000F111F000F111F9D
:10122000080D191DD8011B966D917D918D919C9192
:101230001E970E942D2CF8016387748785879687F7
:1012400074CFC701B6010E94382D70932E026093AF
:101250002D026BCFCA01B9010E943D2D7BAB6AAB59
:1012600089E080930B0261CF20930602309307023E
:10127000409308025093090291E098AB56CF8091B9
:101280000E02882359F5F9A9FF2341F5CA01B901D6
:10129000209128023091290240912A0250912B027C
:1012A0000E942D2C9B01AC01688D798D8A8D9B8DC0
:1012B0000E942D2C688F798F8A8F9B8F36CFE02FDD
:1012C000F0E0E855F040EE0FFF1FEE0FFF1FE80DB6
:1012D000F91D238734874587568727CF60912802D9
:1012E0007091290280912A0290912B020E942D2C4C
:1012F000688F798F8A8F9B8F18CF80910B028823FC
:1013000089F4CA01B90120E030E040E752E40E94CC
:10131000D02C609318027093190280931A02909354
:101320001B0203CFCA01B90120E030E040E752E4DC
:101330000E94D02C609314027093150280931602C1
:1013400090931702F2CE80910A02882309F04CCCC8
:101350008091100290911102009709F45DC04091B4
:101360002D0250912E02662757FD6095762F0E9420
:10137000C0178091120290911302892B09F44FC07B
:1013800081E090E00E942D03B8A9B13009F463C058
:10139000B13008F049C080910B02813009F47AC065
:1013A000813008F06FC000D000D06C857D858E85BF
:1013B0009F85288939894A895B89EC88FD880E894F
:1013C0001F89A88CB98CCA8CDB8C60901802709035
:1013D000190280901A0290901B02ADB7BEB7119609
:1013E0006D927D928D929C92149716961C921E92ED
:1013F00015970E94BE10EDB7FEB736960FB6F8945B
:10140000FEBF0FBEEDBFACE1B2E0F10180E10190A3
:101410000D928150E1F743CC0E94D017AACF80E013
:1014200090E00E942D03B0CFB23021F1B33059F7D4
:101430006C857D858E859F85288939894A895B8958
:10144000EC88FD880E891F89A88CB98CCA8CDB8C2E
:101450000E94CA0CD8CF688579858A859B8520E053
:1014600030E04AE754E40E94012F0E943D2D0E9483
:101470004D0BC9CF0E944A0B80E1F10111928A9570
:10148000E9F7C1CF893009F0BECF8AA99BA90E9494
:10149000D617B9CF8C859D85AE85BF858CA79DA7B6
:1014A000AEA7BFA7688879888A889B88EC88FD8862
:1014B0000E891F89A88CB98CCA8CDB8C60910C02B8
:1014C000662361F4909114029CABA0911502ADAB20
:1014D000B0911602BEABE0911702EFAB00D000D086
:1014E0004DB65EB60894411C511C2CA93DA94EA9CD
:1014F0005FA9C901DA01EDB7FEB781839283A383A7
:10150000B483D20114966C93149715961C926CA513
:101510007DA58EA59FA5A40193010E94BE10EDB7E5
:10152000FEB736960FB6F894FEBF0FBEEDBF6BCF79
:10153000AF92BF92CF92DF92EF92FF920F931F93E1
:1015400079018A015F770E94D02C0E94912C5B0167
:101550006C01C801B70120E030E040E050E00E949B
:10156000932E18165CF4B501C6011F910F91FF90E0
:10157000EF90DF90CF90BF90AF900895C601B50176
:1015800020E030E040E050E00E94932E18165CF41A
:101590006BED7FE089E490E4A60195010E942C2C7C
:1015A0005B016C01E0CF6BED7FE089E490ECA6017C
:1015B00095010E942C2C5B016C01D5CF0E94442721
:1015C0000E947A150E94AC170E946A0D0E94E518CD
:1015D0000E9432190E94072B87E39BE00E94CF24D0
:1015E0000E94B8170E942B030E94921F0E94DB20CA
:1015F0000E94E3210E942F210E943C058FE493E08A
:101600000E94401E10C0853441F1883421F485E4E5
:1016100093E00E94401E10922E080E940D150E9419
:10162000B0210E941C2B83B7816083BF889583B74C
:101630008E7F83BF80912E088C34A1F08D3418F3F7
:101640008F3411F0883539F70E942B19882319F748
:1016500081E493E00E94401EDECF8CE393E00E9481
:10166000401ED9CF8AE493E00E94401ED4CF662367
:1016700039F485E50E94E71D83E40E94E71D089583
:10168000613009F0089585E50E94E71D84E40E9419
:10169000E71D08950E94751A0895AF92BF92CF92E8
:1016A000DF92EF92FF920F931F937B018C010E94B8
:1016B000EF1AC801B7010E94692D5B016C0120E09F
:1016C00030E04AE755E40E94012F7B018C0120E0C5
:1016D00030E040E85FE30E94CC2C88237CF1C80115
:1016E000B70120E03FEF4FE757E40E94932E181612
:1016F000ACF4C601B50120E030E040E251E40E94C4
:10170000012F0E943D2DCB01672B79F020E931E0BC
:10171000F9013197F1F70197D9F707C0C801B7016F
:101720000E943D2DCB010197F1F71F910F91FF9082
:10173000EF90DF90CF90BF90AF90089561E070E0A0
:10174000F1CFFC016091900970919109809192090B
:101750009091930921A532A543A554A50E94D02CB0
:1017600008958091FA0790E008952091E60730915E
:10177000E7078091E8079091E9072817390769F092
:101780008091E8079091E907019664E170E00E947A
:10179000F62F9093E9078093E80708952091E607D4
:1017A0003091E7078091E8079091E90728173907FA
:1017B000D1F02091E8073091E907C901880F991FFE
:1017C000880F991F880F991FAC01440F551F440FB4
:1017D000551F440F551F480F591F420F531F4E5C92
:1017E0005D4FCA01089540E050E0CA0108954F924C
:1017F0005F926F927F928F929F92AF92BF92CF92A1
:10180000DF92EF92FF920F931F93CF93DF93EC0140
:101810004B016115710599F0009789F0E9A8FAA8C4
:101820000BA91CA9FB0141A852A863A874A8C80170
:10183000B701A30192010E94CC2C88238CF0DF9188
:10184000CF911F910F91FF90EF90DF90CF90BF90BD
:10185000AF909F908F907F906F905F904F90089582
:10186000F401A1A4B2A4C3A4D4A4C801B701A601E1
:1018700095010E94012F9B01AC010E94012F7B0169
:101880008C0120918C0930918D0940918E095091E5
:101890008F095058CA01B9010E942D2C20E030E078
:1018A00040E752E40E94012F20E030E040E752EC94
:1018B0000E94012F2DA53EA54FA558A90E94012FDA
:1018C0009B01AC01C801B7010E942D2C0E94882FFA
:1018D000A60195010E94D02C7B018C01C301B201AD
:1018E000A80197010E94932E18160CF0A8CFF401BE
:1018F000E1AAF2AA03AB14ABA2CFEF92FF920F932F
:101900001F93CF93DF938091E8079091E907482FC9
:10191000082F112707FD10958091E6079091E707A2
:101920000817190791F1EE24FF2420E030E001C0F0
:101930007E0189E44802E0011124CE5CDD4FC9013B
:10194000B701AE010E94F70BC801019664E170E097
:101950000E94F62F482F082F112707FD1095809120
:10196000E6079091E70797010817190709F7B701EC
:10197000CB01BE0140E050E00E94F70BDF91CF9118
:101980001F910F91FF90EF900895C0E0D0E060E0CC
:1019900070E0EECF2F923F924F925F926F927F92C4
:1019A0008F929F92AF92BF92CF92DF92EF92FF926F
:1019B0000F931F933B014C0119012A010E94EF1A5A
:1019C000C401B30120916E0930916F0940917009F3
:1019D000509171090E94012F0E949E2EEAEE8E2ED8
:1019E000E7E09E2E6093EA077093EB078093EC0785
:1019F0009093ED07C201B1012091720930917309F2
:101A000040917409509175090E94012F0E949E2EE9
:101A1000F40134966093EE07718382839383C80147
:101A2000B70120917609309177094091780950915A
:101A300079090E94012F0E949E2EF401389660932E
:101A4000F207718382839383C601B50120917A09DD
:101A500030917B0940917C0950917D090E94012FB2
:101A60000E949E2E2CE030E0820E931E6093F607BB
:101A7000F4017183828393831F910F91FF90EF9004
:101A8000DF90CF90BF90AF909F908F907F906F909E
:101A90005F904F903F902F900895CF93DF93EC018C
:101AA00090E08091FA07811191E080E0209709F0A1
:101AB00081E0981731F00E94EF1A1092FA07CD2BAF
:101AC00019F4DF91CF91089581E08093FA07DF91B7
:101AD000CF9108951092E7071092E6071092E90758
:101AE0001092E80781E090E00E944D0D80E1EAEE5F
:101AF000F7E0DF011D928A95E9F708952F923F9252
:101B00004F925F926F927F928F929F92AF92BF920D
:101B1000CF92DF92EF92FF920F931F93DF93CF93B9
:101B200000D000D0CDB7DEB78C017E836D83672BEC
:101B300009F4A3C04115510509F419C1DA01D19680
:101B40008D919D910D90BC91A02D89839A83AB833B
:101B5000BC830115110509F403C1F801618D728D73
:101B6000838D948DAD81BE8159962D913D914D917E
:101B70005C915C970E942C2C9B01AC010E94012F70
:101B80001B012C01F801658D768D878D90A1AD81AB
:101B9000BE815D962D913D914D915C9190970E94F3
:101BA0002C2C9B01AC010E94012F3B014C01F80140
:101BB00061A172A183A194A1AD81BE8191962D9165
:101BC0003D914D915C9194970E942C2C9B01AC010E
:101BD0000E94012F5B016C01F80165A176A187A12C
:101BE00090A5AD81BE8195962D913D914D915C91D1
:101BF00098970E942C2C9B01AC010E94012F7B0125
:101C00008C01C201B101A40193010E942D2CA601F7
:101C100095010E942D2CA80197010E942D2C0E9455
:101C2000882F5B016C01E0909009F0909109009180
:101C3000920910919309C801B701A60195010E946C
:101C4000CC2C87FD33C00F2EF0E06F2EF0E07F2EFE
:101C5000F0E88F2EFFE39F2EF02DC401B301298100
:101C60003A814B815C810E94932E181644F1ED81DC
:101C7000FE8161AA72AA83AA94AA26960FB6F89446
:101C8000DEBF0FBECDBFCF91DF911F910F91FF90AF
:101C9000EF90DF90CF90BF90AF909F908F907F900C
:101CA0006F905F904F903F902F900895C801B701BB
:101CB000A60195010E94D02C3B014C01CECFED81B5
:101CC000FE81A1A4B2A4C3A4D4A4C601B5012981F4
:101CD0003A814B815C810E94012F9B01AC010E94E3
:101CE000012F7B018C0120918C0930918D0940914D
:101CF0008E0950918F095058CA01B9010E942D2CAC
:101D000020E030E040E752E40E94012F20E030E084
:101D100040E752EC0E94012FAD81BE819D962D912E
:101D20003D914D915C91D0970E94012F9B01AC0198
:101D3000C801B7010E942D2C0E94882FA601950191
:101D40000E94D02C7B018C01C401B301A801970132
:101D50000E94932E18160CF08ACF3701480187CFC6
:101D60008D819E810E94A10B3B014C0180CF8D8112
:101D70009E810E94A10B69837A838B839C83E9CE29
:101D8000CF92DF92FF920F931F93CF93DF938091B7
:101D9000E6079091E707F82E2091E8073091E907D0
:101DA000992787FD909582179307B9F100E010E01D
:101DB00040E050E019C08F2D99E48902B001112450
:101DC000CF2CDD24C7FCD094EB01CE5CDD4FCE01DF
:101DD000B8010E947E0D8091E8079091E907A80163
:101DE0008C159D0561F08E01FA94F7FEE4CFA3E116
:101DF000FA2E6BE675E0F3E1CF2ED12CE5CFA801EA
:101E000080E090E0BE010E947E0DDF91CF911F9196
:101E10000F91FF90DF90CF900895C0E0D0E040E0B8
:101E200050E0EECF2F923F924F925F926F927F924F
:101E30008F929F92AF92BF92CF92DF92EF92FF92DA
:101E40000F931F93DF93CF93CDB7DEB762970FB693
:101E5000F894DEBF0FBECDBF9A8B898B6A017B01E0
:101E600018012901FC01658976898789908D0E9476
:101E7000692D3B014C01A70196010E94012F0E9490
:101E8000B92C0E943D2D7B018C01E989FA8965AB53
:101E900076AB87AB90AFC401B301A20191010E9460
:101EA000012F0E94B92C0E943D2D1B012C01E989B4
:101EB000FA8961AF72AF83AF94AFFD966081718193
:101EC00082819381FD97FA8BE98B28E230E040E034
:101ED00050E00E94D72F0E946B2D20E030E040E7B9
:101EE00052E40E94012F0E94382D5B016C01C80151
:101EF000B7010E94692D7B018C01C601B5010E94CA
:101F00006B2D6D837E838F839887C401B301A401F9
:101F100093010E94012F3B014C01C801B701A801A8
:101F200097010E94012F69877A878B879C876D8133
:101F30007E818F8198859B01AC010E942D2C6D873D
:101F40007E878F87988BC401B30129853A854B859D
:101F50005C850E942C2C2D853E854F8558890E94DA
:101F6000D02C0E94B92C0E94382D69837A838B83F0
:101F70009C83C201B1010E94692D9B01AC010E94AA
:101F8000012F1B012C01A40193010E942C2C7B0129
:101F90008C01D094C094B094A094A11CB11CC11C1D
:101FA000D11CC601B5010E946B2D9B01AC010E94A2
:101FB0002D2C9B01AC01C801B7010E94D02C0E94BE
:101FC000A62DE989FA89A188B288C388D4888601B8
:101FD000750129813A814B815C81E21AF30A040B75
:101FE000150B0E94382DA8019701261B370B480BB3
:101FF000590BDA01C90157FD30C049895A894F5B35
:102000005F4FFA0129813A814B815C8121933193A1
:1020100041935193FA8BE98B820F931FA41FB51F35
:1020200080839183A283B38362960FB6F894DEBF58
:102030000FBECDBFCF91DF911F910F91FF90EF9019
:10204000DF90CF90BF90AF909F908F907F906F90D8
:102050005F904F903F902F900895C601B5010E9468
:102060006B2D2D853E854F8558890E94012F29852E
:102070003A854B855C850E942C2C9B01AC01C201EA
:10208000B1010E942D2C7B018C016D817E818F819D
:10209000988520E030E040E850E40E94012F9B0149
:1020A000AC01C801B7010E94D02C0E94B92C0E943B
:1020B000382D69837A838B839C8380E090E0A0E055
:1020C000B0E09BCFEF92FF920F931F93CF93DF93DC
:1020D0008091E8079091E907282FE82EFF24E7FC7C
:1020E000F0948091E6079091E707E816F906E1F190
:1020F000E0E0F0E001C0FE0189E42802E0011124E3
:10210000CE5CDD4F309759F041A952A963A974A95B
:1021100009A91AA92BA93CA9CF010E94120FC70136
:10212000019664E170E00E94F62F282FE82EFF242C
:10213000E7FCF0948091E6079091E707E816F9062E
:10214000D1F6CE010E94A10B8B019C0149A95AA98D
:102150006BA97CA9CE010E94120FDF91CF911F9134
:102160000F91FF90EF900895C0E0D0E0EACF0E9479
:10217000C00E0E947D0C0E94621008952F923F9223
:102180004F925F926F927F928F929F92AF92BF9287
:10219000CF92DF92EF92FF920F931F93DF93CF9333
:1021A000CDB7DEB7CC54D0400FB6F894DEBF0FBE2B
:1021B000CDBF3B014C0123962CAF3DAF4EAF5FAF7F
:1021C00023972796ECAEFDAE0EAF1FAF27978091F9
:1021D0002F088823D1F4C45BDF4F0FB6F894DEBF1D
:1021E0000FBECDBFCF91DF911F910F91FF90EF9068
:1021F000DF90CF90BF90AF909F908F907F906F9027
:102200005F904F903F902F900895C401B3012091AB
:102210006E0930916F0940917009509171090E94C7
:10222000012F0E949E2E7B018C012091720930911A
:10223000730940917409509175092BAF3CAF4DAFB4
:102240005EAF40917609509177096091780970915D
:1022500079094FAB58AF69AF7AAF20907A093090C7
:102260007B0940907C0950907D098091E607909110
:10227000E707019664E170E00E94F62F28968FAF81
:10228000289729969FAF29972091E8073091E90771
:1022900029966EAD7FAD29972617370771F483B75E
:1022A000816083BF889583B78E7F83BF8091E80765
:1022B0009091E9078217930791F32091E6073091F7
:1022C000E707C901880F991F880F991F880F991F69
:1022D000DC01AA0FBB1FAA0FBB1FAA0FBB1FA80FB1
:1022E000B91FA20FB31FAE5CBD4FBEABADAB8091AB
:1022F000EA079091EB07A091EC07B091ED07370149
:102300004801681A790A8A0A9B0A97FC0AC3C20123
:10231000B101A60195010E94012F0E949E2E6D879A
:102320007E878F87988B6FA978AD89AD9AAD2796F8
:102330002CAD3DAD4EAD5FAD27970E94012F0E94A1
:102340009E2E69877A878B879C876BAD7CAD8DAD20
:102350009EAD23962CAD3DAD4EAD5FAD23970E9453
:10236000012F0E949E2E6D837E838F839887E98242
:10237000FA820B831C83EDA9FEA96082718282829E
:102380009382AD80BE80CF80D8848091EE079091FB
:10239000EF07A091F007B091F107A6019501281B66
:1023A000390B4A0B5B0BDA01C90157FDCBC2EDA912
:1023B000FEA984839583A683B7832090F20730908B
:1023C000F3074090F4075090F50769847A848B8472
:1023D0009C84D401C30182199309A409B509B7FDEE
:1023E000A9C2EDA9FEA980879187A287B387209112
:1023F000F6073091F7074091F8075091F907298BBC
:102400003A8B4B8B5C8B4D855E856F8578892D96DD
:102410004CAF5DAF6EAF7FAF2D977A018B016989AD
:102420007A898B899C89E61AF70A080B190B17FD24
:102430006FC2ADA9BEA91C96ED92FD920D931C939F
:102440001F9718962D913D914D915C911B97FD0121
:1024500084819581A681B78182179307A407B50768
:1024600048F1EDA9FEA92081318142815381821773
:102470009307A407B507B0F08E159F05A007B10715
:1024800070F0EDA9FEA9818B928BA38BB48B009782
:10249000A105B10591F488E580932E089CCED80162
:1024A000C701EFCFDA01C9018E159F05A007B1075B
:1024B00040F7F5CFDA01C901D4CF29813A814B81A8
:1024C0005C812D8F3E8F4F8F58A38091EA079091AA
:1024D000EB07A091EC07B091ED07281B390B4A0BD5
:1024E0005B0BCA01B9010E946B2D20916E093091DE
:1024F0006F0940917009509171090E94D02C69AB0D
:102500007AAB8BAB9CABA9A2BAA2CBA2DCA2809186
:10251000EE079091EF07A091F007B091F107A601A7
:102520009501281B390B4A0B5B0BCA01B9010E94AC
:102530006B2D20917209309173094091740950916B
:1025400075090E94D02C6DA77EA78FA798AB698EC6
:102550007A8E8B8E9C8EC401B30162197309840933
:1025600095090E946B2D2091760930917709409151
:102570007809509179090E94D02C69A77AA78BA776
:102580009CA72D964CAD5DAD6EAD7FAD2D974D8B5F
:102590005E8B6F8B788FCB01BA0129893A894B8981
:1025A0005C89621B730B840B950B0E946B2D209131
:1025B0007A0930917B0940917C0950917D090E94F4
:1025C000D02C6DA37EA38FA398A769A97AA98BA904
:1025D0009CA90E94C62F3B014C016DA57EA58FA52D
:1025E00098A90E94C62F7B018C0169A57AA58BA5AD
:1025F0009CA50E94C62F5B016C016DA17EA18FA1DD
:1026000098A50E94C62F1B012C01C401B301A8018B
:1026100097010E942D2CA60195010E942D2CA2014C
:1026200091010E942D2C0E94882FADA9BEA99D96D4
:102630006D937D938D939C93D097A896EEADFFAD4F
:10264000A897EF2B09F086C1A6962CAD3DAD4EADF7
:102650005FADA6970E94D02C20E034E244E759E415
:102660000E94012F0E949E2EAC01CB01DA01BC0119
:10267000CD010E94692D9B01AC0160EC71EE84E6F6
:102680009CE40E94D02C7B018C0169A97AA98BA9BA
:102690009CA9A80197010E94012FADA9BEA9599636
:1026A0006D937D938D939C935C976DA57EA58FA56F
:1026B00098A9A80197010E94012FEDA9FEA9658F95
:1026C000768F878F90A369A57AA58BA59CA5A80175
:1026D00097010E94012FADA9BEA991966D937D939C
:1026E0008D939C9394976DA17EA18FA198A5A8012D
:1026F00097010E94012FEDA9FEA965A376A387A3E8
:1027000090A765A576A587A590A9A80197010E9425
:10271000012FADA9BEA999966D937D938D939C933E
:102720009C9751966D917D918D919C9154970E94AB
:102730006B2D5B016C01A80197010E94012F0E9483
:10274000B92C0E943D2D3B014C01EDA9FEA9658BE2
:10275000768B878B908F80E090E0A0E0B0E081AB3B
:1027600092ABA3ABB4AB60918C0970918D09809151
:102770008E0990918F0920E030E040E752E40E94FA
:10278000012F20E030E040E252E40E94D02C7B0197
:102790008C01ADA9BEA99D966D917D918D919C9165
:1027A000D097A60195010E94D02C9B01AC01C801D5
:1027B000B7010E94D02C0E94B92C0DA91EA9035C60
:1027C0001F4F0E94382DF8016083718382839383A9
:1027D0002091FA07222309F0CAC0ADA9BEA9D59657
:1027E0006D927D928D929C92D897FD0161AE72AEF2
:1027F00083AE94AEEF5BFF4F108211821282138280
:10280000AD014B5B5F4FFD0181899289A389B4893A
:10281000FA0180839183A283B383D8011D921D9214
:102820001D921C921397EDA9FEA9108A8091EA07C8
:102830009091EB07A091EC07B091ED074D8D5E8D67
:102840006F8D78A1481759076A077B0714F482E057
:10285000808B8091EE079091EF07A091F007B091E7
:10286000F10749A15AA16BA17CA1481759076A0732
:102870007B0744F4ADA9BEA950968C91509788600F
:1028800050968C938091F2079091F307A091F407F2
:10289000B091F507498D5A8D6B8D7C8D481759077E
:1028A0006A077B0744F4ADA9BEA950968C91509756
:1028B000806450968C934D895E896F89788D898963
:1028C0009A89AB89BC89481759076A077B0744F482
:1028D000ADA9BEA950968C915097806850968C9364
:1028E0002996EEADFFAD2997F093E707E093E60751
:1028F000AAEEB7E0FE01319680E101900D92815081
:10290000E1F7222311F00E94B7100E94E71763CC71
:1029100010950095F094E094E11CF11C011D111D2F
:1029200088CD9094809470946094611C711C811C7B
:10293000911CEDCCB095A095909581959F4FAF4F90
:10294000BF4F4FCDB095A095909581959F4FAF4FBC
:10295000BF4F2DCD60EC71EE84E69CE4A6962CADC5
:102960003DAD4EAD5FADA6970E94D02C7BCE8DA91C
:102970009EA90E94A10B8B019C018DA99EA9B90162
:10298000A8010E94120F29813A814B815C812D8F11
:102990003E8F4F8F58A34D815E816F81788549A30B
:1029A0005AA36BA37CA369857A858B859C85698FE7
:1029B0007A8F8B8F9C8F8D859E85AF85B8898D8B07
:1029C0009E8BAF8BB88F2091F6073091F70740911F
:1029D000F8075091F907298B3A8B4B8B5C8B209130
:1029E000FA0721CF6091EA077091EB078091EC071D
:1029F0009091ED070E94E31E8CE20E94E71D60911A
:102A0000EE077091EF078091F0079091F1070E9417
:102A1000E31E8AE00E94E71D08950F931F9315E4BB
:102A20000FE40E94001E982F8F3FE1F020912D08A7
:102A3000222321F09A30C9F09D30B9F091328CF305
:102A4000892F81568A3168F5E22FF0E0E550F84F82
:102A5000905290832F5F20932D080E94001E982F84
:102A60008F3F21F71F910F910895E22FF0E0E5507D
:102A7000F84F10828BEF97E00E947A05982F809193
:102A80002F088823B9F010932E08943048F5913020
:102A900018F010922D08C5CF00932E0810922D0823
:102AA000C0CFE22FF0E0E550F84F90832F5F2093E6
:102AB0002D08B7CF10932E0880E090E00E94F021FF
:102AC00080E090E00E94F32080E090E00E94A71F49
:102AD00010922F0881E00E94ED1710922D08A1CFCF
:102AE000963019F09923A9F2E7CF10922E08109290
:102AF0002D0897CF60E076E980E090E00E94AB1D62
:102B0000089580E090E0A0E2B2E480936E09909393
:102B10006F09A0937009B093710980937209909323
:102B20007309A0937409B093750980937609909303
:102B30007709A0937809B093790980937A099093E3
:102B40007B09A0937C09B0937D0986E080937F097F
:102B500080E090E0A6E9B5E4809380099093810934
:102B6000A0938209B093830980E090E0A0EFB3E4E2
:102B70008093840990938509A0938609B09387096F
:102B800080E090E0A0E4B2E480938C0990938D09FA
:102B9000A0938E09B0938F098DEC9CECACECBDE357
:102BA0008093880990938909A0938A09B0938B092F
:102BB00080E090E0A8E4B2E48093900990939109BA
:102BC000A0939209B0939309089580E090E00E9449
:102BD0003303873631F08130A9F020E030E0C901BD
:102BE00008958EE699E061E070E046E250E00E94D0
:102BF000980320E0892B09F421E081E0282730E0C8
:102C0000C90108958EE699E061E070E04BE150E083
:102C10000E949803892B09F380E090E0A0E4B2E4DD
:102C200080938C0990938D09A0938E09B0938F099E
:102C300080E090E0A8E4B2E4809390099093910939
:102C4000A0939209B093930921E030E0C8CF80E0CF
:102C500090E067E60E943B0381E090E06EE679E059
:102C600046E250E00E945C030895FC018630910525
:102C700009F46DC087309105A4F08830910509F4FE
:102C800048C088309105B4F18930910509F47BC0C2
:102C9000E85EF34009F46AC088E693E00E94401EB3
:102CA00008958430910509F443C0853091059CF462
:102CB00097FDF2CFEE0FFF1FEE0FFF1FE259F64F09
:102CC00040835183628373830E94271683E593E0D8
:102CD0000E94401E0895409380095093810960939B
:102CE0008209709383090E94271683E593E00E946E
:102CF000401E0895409388095093890960938A097A
:102D000070938B090E94271683E593E00E94401E72
:102D1000089540938C0950938D0960938E097093A8
:102D20008F090E94271683E593E00E94401E0895B4
:102D3000CB01BA010E94642F0E943D2D60937F0950
:102D40000E94271683E593E00E94401E0895409359
:102D500084095093850960938609709387090E94BE
:102D6000271683E593E00E94401E0895CB01BA0127
:102D700020E030E040E050E00E94CC2C8823A9F015
:102D80000E9409180895DB01CA01BF77809390095A
:102D900090939109A0939209B09393090E942716EA
:102DA00083E593E00E94401E08950E940B18089549
:102DB0008CE395E00E94401E85E395E00E94401E52
:102DC00082E395E00E94401E8CE295E00E94401E46
:102DD00060916E0970916F098091700990917109ED
:102DE0000E94061F8CE195E00E94401E86E195E05E
:102DF0000E94401E6091720970917309809174095C
:102E0000909175090E94061F86E095E00E94401E81
:102E100080E095E00E94401E6091760970917709EC
:102E200080917809909179090E94061F80EF94E0C3
:102E30000E94401E8AEE94E00E94401E60917A0932
:102E400070917B0980917C0990917D090E94061FF9
:102E500088ED94E00E94401E82ED94E00E94401EA6
:102E600060917F0970E080E090E00E94E31E85EBB6
:102E700094E00E94401E8FEA94E00E94401E609100
:102E800080097091810980918209909183090E9443
:102E9000061F81E994E00E94401E8BE894E00E94A6
:102EA000401E6091840970918509809186099091F6
:102EB00087090E94061F8DE694E00E94401E87E667
:102EC00094E00E94401E6091880970918909809168
:102ED0008A0990918B090E94061F83E594E00E9465
:102EE000401E8DE494E00E94401E60918C09709118
:102EF0008D0980918E0990918F090E94061F8FE2A3
:102F000094E00E94401E89E294E00E94401E60917D
:102F100090097091910980919209909193090E9472
:102F2000061F81EF93E00E94401E88EE93E00E940E
:102F3000401E0E940D18AA2797FDA095BA2FBC012C
:102F4000CD010E94E31E8FEB93E00E94401E8CE7B0
:102F500093E00E94401E08950E94E515892B09F018
:102F600008950E9481150E9427160E94D816089580
:102F7000E1E0F1E0808180648083279A3E9A0895A1
:102F800097FD07C02F988091020180648093020111
:102F900008952F9A80910201806480930201089520
:102FA000E2E0F1E080818F7B8083089535E340E7A4
:102FB00057E1469A232F2A95F1F74698FA0131975F
:102FC000F1F701972FEF8F3F920799F70895EFE6FA
:102FD000F0E0808182608083089590E090934808BB
:102FE0008093470808952091470830914808C90107
:102FF00008951F920F920FB60F9211248F9381B3F1
:10300000856381BB46988F910F900FBE0F901F90E4
:10301000189544980895449A08953C9904C020E076
:1030200030E0C901089588B182958F7080958170D4
:10303000282F30E0C9010895603020E0720721E0B8
:10304000820720E0920708F45CC0603020E072073D
:1030500028E0820720E0920778F1603020E07207D4
:1030600020E4820720E0920708F451C0603020E09D
:10307000720720E0820721E0920708F46DC06030FB
:1030800020E0720720E0820724E0920708F071C078
:103090002AE096958795779567952A95D1F7FB0154
:1030A0009B0140E050E08AE0220F331F441F551F70
:1030B0008A95D1F795E018C023E096958795779586
:1030C00067952A95D1F7FB019B0140E050E0220F64
:1030D000331F441F551F220F331F441F551F220F3C
:1030E000331F441F551F92E080918100887F982BE9
:1030F00090938100F0938900E0938800B901CA01A0
:103100000895FB019B0140E050E091E0EDCFB6E077
:103110009695879577956795BA95D1F7FB019B01B1
:1031200040E050E0220F331F441F551F220F331F72
:10313000441F551F220F331F441F551F220F331FDB
:10314000441F551F220F331F441F551F220F331FCB
:10315000441F551F93E0C8CFBB27A92F982F872F57
:10316000FC01A0E0B0E02227382F492F5A2F94E02D
:10317000BBCFEFEFFFEF20E03CEF40E050E095E009
:10318000B3CF9B01AC01203B84E0380780E04807C7
:1031900080E0580778F460E075E38CE090E00E94EE
:1031A0001C186093490870934A0880934B089093C9
:1031B0004C08089560E070E788E399E30E940930C5
:1031C000C901DA01BC01CD01EACF80B3856380BBC0
:1031D00080B38A6C80BB81B3856381BB3C9A449A7F
:1031E000E1E8F0E080818F7E808380818860808349
:1031F000E0E8F0E080818D7F808380818E7F808316
:1032000080818F73808380818F7C80831092B00057
:1032100082E08093B100E0E7F0E08081816080830C
:1032200060E777E180E090E00E94C118EFE6F0E00F
:1032300080818D7F808310924D0810924E081092ED
:103240004F08109250087894089580B180710895C5
:1032500082B38170089580916F0090E09695879574
:103260008170089511B882E084B917B81AB81DB8F2
:103270009FE890BB13BA10920101109204013FEC39
:103280003093070120EF20930A018CE982B982E292
:1032900085B983E188B99BB980E38EB991BB83E29C
:1032A00084BB83E080930201809305013093080181
:1032B00020930B0108954B9B0CC082E84A998460CF
:1032C00048998860499980610499806290998064E6
:1032D000089580E8F3CF1F9389B1182F127081FFF2
:1032E00006C010922F0888E495E00E94401E812FAE
:1032F0001F910895FF920F931F93CF93DF93EC01DB
:1033000081B38573886081BB209719F145E3F42E62
:1033100000E614E013C00E94EA20882399F481B3E8
:103320008A7C846081BB8F2D8A95F1F781B38A7C7A
:1033300081BBC8010197F1F7219759F00E946B19E1
:10334000882349F380E0DF91CF911F910F91FF9087
:10335000089581E0DF91CF911F910F91FF90089523
:103360001F9389B1182F117080FF06C010922F088B
:103370008FE595E00E94401E812F1F910895FF92D6
:103380000F931F93CF93DF93EC0181B3857381BBC0
:103390002097D9F055E3F52E00E614E00FC081B375
:1033A0008A7C846081BB8F2D8A95F1F781B38A7CFA
:1033B00081BBC8010197F1F7219739F00E94B0193C
:1033C000882369F70E94EA20EACF81E0DF91CF915C
:1033D0001F910F91FF9008951F9389B1182F1470BA
:1033E00082FF06C010922F0886E795E00E94401EDB
:1033F000812F1F910895FF920F931F93CF93DF9317
:10340000EC0181B38573826081BB209719F165E37C
:10341000F62E00E614E013C00E94EA20882399F4F7
:1034200081B38A7C816081BB8F2D8A95F1F781B34E
:103430008A7C81BBC8010197F1F7219759F00E945E
:10344000EC19882349F380E0DF91CF911F910F9110
:10345000FF90089581E0DF91CF911F910F91FF9030
:1034600008951F9389B1182F187083FF06C010921A
:103470002F088DE895E00E94401E812F1F9108952E
:10348000FF920F931F93CF93DF93EC0181B385736A
:1034900081BB209719F175E3F72E00E614E013C005
:1034A0000E94EA20882399F481B38A7C816081BBE1
:1034B0008F2D8A95F1F781B38A7C81BBC801019772
:1034C000F1F7219759F00E94311A882349F380E0DF
:1034D000DF91CF911F910F91FF90089581E0DF91CF
:1034E000CF911F910F91FF90089510922F080E9485
:1034F0006A0D0E943C050E94EA20882349F080E082
:1035000090E00E94F3200E94EA20882309F04EC038
:10351000F89480E090E00E94A71F80E090E00E9475
:10352000F0210E94311A882389F088EE93E00E94EE
:10353000FB19882309F44FC020ED37E040E951E042
:10354000CA010197F1F721503040D1F70E94B0191C
:10355000882381F5049908C081E090E00E94401A18
:103560008823C1F77894089520ED37E040E951E0D1
:10357000CA010197F1F721503040D1F7909B0FC05D
:10358000789489B190E08F709070892B59F781E021
:1035900080932F081092480810924708089581E000
:1035A00090E00E94BF19882349F7DCCF85E480931F
:1035B0002E08089588EE93E00E947A19882369F016
:1035C00020ED37E040E951E0CA010197F1F72150C1
:1035D0003040D1F7BFCF789408957894089507C00C
:1035E00083B7816083BF889583B78E7F83BF0E9436
:1035F000CE0B892BA9F708951F920F920FB60F9249
:103600000BB60F921124EF92FF920F931F932F93FB
:103610003F934F935F936F937F938F939F93AF935A
:10362000BF93CF93DF93EF93FF9380912F0888236D
:1036300049F189B190E08F709070892B61F11092FF
:103640002F088CE480932E0880916F008D7F8093EB
:103650006F00FF91EF91DF91CF91BF91AF919F915B
:103660008F917F916F915F914F913F912F911F911A
:103670000F91FF90EF900F900BBE0F900FBE0F9029
:103680001F90189588E480932E0880916F008D7F9D
:1036900080936F00DECF0E94EA208823D1F68091CC
:1036A000470890914808892BA1F691B3809194091D
:1036B0008A7C9573892B81BB81B38A7C9091320877
:1036C000892B81BB80917F09880F845081958093DD
:1036D000B200B89A81E090E0909348088093470840
:1036E0007894E0913008F0913108309709F4CCC11A
:1036F0008089809394091092320820913308309188
:103700003408409135085091360880819181A2811A
:10371000B381280F391F4A1F5B1F20933308309352
:1037200034084093350850933608121613061406D1
:1037300015060CF047C181E080933208E188F288D9
:10374000038914892E193F09400B510B209333082C
:103750003093340840933508509336082091370849
:10376000309138084091390850913A088481958108
:10377000A681B781280F391F4A1F5B1F2093370886
:10378000309338084093390850933A0812161306BC
:10379000140615068CF480913208846080933208F8
:1037A0002E193F09400B510B2093370830933808EE
:1037B0004093390850933A0820913B0830913C08D7
:1037C00040913D0850913E0880859185A285B38542
:1037D000280F391F4A1F5B1F20933B0830933C087A
:1037E00040933D0850933E08121613061406150622
:1037F0008CF4809132088061809332082E193F0941
:10380000400B510B20933B0830933C0840933D08FC
:1038100050933E0820913F08309140084091410864
:103820005091420884859585A685B785280F391F54
:103830004A1F5B1F20933F08309340084093410884
:1038400050934208121613061406150694F480913C
:1038500032088062809332082E193F09400B510BC9
:1038600020933F083093400840934108509342080A
:10387000469A8091430890914408A0914508B091E0
:1038800046080196A11DB11D8093430890934408FA
:10389000A0934508B09346088E159F05A007B10771
:1038A00008F095C08091320895E38927809332080B
:1038B000809194099AEC8927809394092091490872
:1038C00030914A0840914B0850914C0880914D0826
:1038D00090914E08A0914F08B0915008280F391FC1
:1038E0004A1F5B1F20934D0830934E0840934F08AA
:1038F0005093500821380AE1300706E0400700E005
:10390000500708F45AC020583A414640504020938E
:103910004D0830934E0840934F0850935008E09163
:103920003008F0913108309709F447C020914308DE
:10393000309144084091450850914608EF5BFF4F95
:1039400080819181A281B381E154F0402817390729
:103950004A075B0708F042C0FD9680819181A281F1
:10396000B381FD972091510830915208409153083E
:1039700050915408280F391F4A1F5B1F209351088C
:103980003093520840935308509354088589968980
:10399000A789B08D82179307A407B50750F48093C9
:1039A000510890935208A0935308B09354089C0177
:1039B000AD01CA01B9010E94C118109248081092C5
:1039C000470847CEE188F28803891489C7CE109250
:1039D0003108109230080E94B50B64CFEB5BFF4FAB
:1039E00080819181A281B381E554F04082179307D1
:1039F000A407B50770F5FD9660817181828193817E
:103A0000FD972091510830915208409153085091F0
:103A10005408621773078407950780F479018A01B7
:103A2000E61AF70A080B190BE0925108F0925208B7
:103A30000093530810935408A801970181AD92ADEB
:103A4000A3ADB4AD281739074A075B0708F0B1CF1B
:103A5000A6CF258936894789508D8091510890914C
:103A60005208A0915308B0915408281739074A0703
:103A70005B0709F4A2CF209351083093520840937A
:103A800053085093540895CF0E94CE0BEC019093AD
:103A9000310880933008009709F452C06DA97EA9BF
:103AA0008FA998AD60935108709352088093530882
:103AB0009093540810924D0810924E0810924F089F
:103AC000109250080E94C11889899A89AB89BC89D3
:103AD000B595A79597958795B095A0959095819563
:103AE0009F4FAF4FBF4F8093330890933408A093FC
:103AF0003508B09336088093370890933808A09320
:103B00003908B0933A0880933B0890933C08A093FF
:103B10003D08B0933E0880933F0890934008A093DF
:103B20004108B09342081092430810924408109242
:103B3000450810924608E0913008F0913108D8CD40
:103B400080916F008D7F80936F0088E580932E08B1
:103B500010923208A7CEEF92FF920F931F937B0132
:103B60008C0122E030E040E050E00E942B30205CED
:103B70003D4B404F5F4FCA01B901A80197010E9418
:103B80000930C901DA010197A109B109292F3A2F9A
:103B90004B2F55270196A11DB11D2093C5008150C3
:103BA0008093C400E0ECF0E080818D7F8083E1ECC5
:103BB000F0E0808180618083808188608083808163
:103BC000806880831F910F91FF90EF900895982F48
:103BD0008091C00085FFFCCF9093C600089580912E
:103BE00055089091560880509F4F2091570830916A
:103BF0005808821B930B60E071E00E94F62F089535
:103C00004091570850915808809155089091560856
:103C10008417950789F0FA01E75AF74F2081CA0106
:103C2000019660E071E00E94F62F9093580880930F
:103C3000570830E0C90108952FEF3FEFC9010895FB
:103C40008091570890915808909356088093550892
:103C50000895982F8091C00085FFFCCF9093C600F7
:103C60000895FC019081992351F031968091C00014
:103C700085FFFCCF9093C60090819923B1F70895FA
:103C8000FC019491992351F031968091C00085FFF9
:103C9000FCCF9093C60094919923B1F708952F9289
:103CA0003F924F925F926F927F928F929F92AF92CC
:103CB000BF92CF92DF92EF92FF920F931F93DF9309
:103CC000CF93CDB7DEB7A0970FB6F894DEBF0FBE87
:103CD000CDBF6B017C0129013A0161157105810598
:103CE000910509F450C08824992454011E010894B8
:103CF000211C311C8101080D191DC701B601A3014A
:103D000092010E940930F80160830894811C911C83
:103D1000A11CB11CC701B601A30192010E94093088
:103D2000C901DA016C017D01C114D104E104F1047F
:103D300009F781149104A104B10461F19101280DE6
:103D4000391DD501C4010197A109B109AC01481978
:103D50005909FA01E20FF31FE081EA3090F4E05DC7
:103D60008091C00085FFFCCFE093C6002150304019
:103D70002216330679F0FA01E20FF31FE081EA30F0
:103D800070F3E95CEDCF8091C00085FFFCCF80E34C
:103D90008093C600A0960FB6F894DEBF0FBECDBFCD
:103DA000CF91DF911F910F91FF90EF90DF90CF9017
:103DB000BF90AF909F908F907F906F905F904F904B
:103DC0003F902F9008959B01AC0197FD09C0CA0157
:103DD000B9012AE030E040E050E00E944F1E089513
:103DE0008091C00085FFFCCF8DE28093C600509586
:103DF0004095309521953F4F4F4F5F4FE8CF22E0E0
:103E000030E040E050E00E944F1E0895EF92FF9294
:103E10000F931F93DF93CF9300D00F92CDB7DEB7F0
:103E2000AE014F5F5F4F0E94CE2E7B018C016981F6
:103E30007A818B819C810E94382D0E94E31E8091A3
:103E4000C00085FFFCCF8EE28093C600C801B70199
:103E500020E030E04AE754E40E94012F0E94642FE2
:103E60000E94382D97FD0DC00E94E31E0F900F9009
:103E70000F900F90CF91DF911F910F91FF90EF90D6
:103E8000089590958095709561957F4F8F4F9F4FC6
:103E9000EBCF1F920F920FB60F920BB60F92112419
:103EA0002F933F934F935F936F937F938F939F9342
:103EB000AF93BF93EF93FF934091C600E0915508F5
:103EC000F0915608CF01019660E071E00E94F62F54
:103ED0009C0180915708909158082817390739F0AC
:103EE000E75AF74F408330935608209355084F3FC9
:103EF00099F0FF91EF91BF91AF919F918F917F9139
:103F00006F915F914F913F912F910F900BBE0F904A
:103F10000FBE0F901F901895F8940E940B181092E6
:103F20002F08E7CF879AE7E0F1E080818160808306
:103F300080818260808380818460808380818860CA
:103F40008083808180648083089580E00895CF938A
:103F5000DF93EC0180912F08882319F4DF91CF9132
:103F6000089581E00E94ED17209729F180910801C2
:103F7000816080930801C330D10509F446C0C43084
:103F8000D1058CF5C130D10509F46DC0229709F433
:103F900066C0809108018E7F8093080128EE33E08F
:103FA00040E951E0CA010197F1F721503040D1F7C3
:103FB000DF91CF910895809108018160809308017D
:103FC00080910801826080930801809108018460DB
:103FD000809308018091080188608093080180E047
:103FE0000E94ED17BBCFC530D10509F445C0C530DF
:103FF000D10504F1269769F68091080182608093CB
:104000000801809108018B7F1DC0809108018D7F80
:104010008093080180910801846080930801809159
:104020000801877F80930801809108018E7F80932B
:104030000801AFCF809108018D7F809308018091A6
:104040000801846080930801809108018860809352
:104050000801809108018E7F809308019ACF80919A
:1040600008018D7FCCCF809108018D7F809308015E
:10407000809108018B7FD1CF80910801826080936D
:104080000801809108018B7F8093080180910801CD
:10409000877F809308017DCF1F93182F80912F0871
:1040A000882319F483E61F91089581E090E00E942F
:1040B000F320882319F485E01F910895812F90E063
:1040C0000E94A71F80E090E00E94A71F80E090E080
:1040D0000E94F32080E01F9108951F93182F809174
:1040E0002F08882319F483E61F91089581E090E05A
:1040F0000E94F320882319F485E01F910895812FF1
:1041000090E00E94922080E090E00E94F32080E9FD
:1041100091E00197F1F780E090E00E94922080E02A
:104120001F910895CF93DF93EC0180912F0888238E
:1041300071F0CF3FD10539F00E941822882359F041
:104140008C2F0E944C2080E0DF91CF91089583E670
:10415000DF91CF9108958C2F0E946D2080E0DF9138
:10416000CF91089580912F08882311F483E6089554
:104170000E94EA208823A1F40E94522281E090E06C
:104180000E94F32081E090E00E94F0210E94122220
:10419000813059F080E090E00E94F32080E00895A3
:1041A00080E090E00E94F320E7CF80E090E00E9462
:1041B000F32081E00895EAE0F1E08081806280836D
:1041C000EBE0F1E08081806280833898409A3998F2
:1041D000419A089586B18170089586B190E09695D0
:1041E000879581700895CF93DF93EC0180912F081C
:1041F000882319F10E942B198823E1F781E00E949E
:10420000ED172097E9F080910B018F7D80930B01D2
:1042100020ED37E040E951E0CA010197F1F7215064
:104220003040D1F786B1817090E08C179D0781F006
:1042300087E995E00E94401E80E0DF91CF910895CC
:1042400080910B01806280930B0120ED37E0E2CF7B
:1042500080E00E94ED1781E0DF91CF9108952598CD
:104260002D9A3C98449A6998719A9D98A59AA4E0D1
:10427000B1E08C918E7F8C93E5E0F1E080818160EC
:1042800080838C918F7E8C93808180618083A1E07C
:10429000B1E08C918E7F8C93E2E0F1E080818160CF
:1042A00080838C918D7F8C93808182608083E0E914
:1042B000F0E08081826080838CE790E090939900A9
:1042C00080939800109295001092940084E080935F
:1042D0009100E1E7F0E080818260808308958CB1F5
:1042E00082958695877080958170089582B38295B6
:1042F000869587708095817008958CB182958F70B6
:1043000080958170089580910301869580958170D4
:10431000089586B182958F708095817008958091FF
:1043200000018095817008958091030180958170CE
:10433000089583B1829586958770809581700895E0
:104340008091000186958095817008951F920F924B
:104350000FB60F9211240F900FBE0F901F9018955B
:104360001D9B20C08091000180FF0BC080915A09E5
:104370008130D9F0349B0EC0809159098130E1F031
:10438000089581E080935A0981E090E00E94F02135
:104390003499F2CF81E08093590981E090E00E9446
:1043A000F32008950E944A0BDDCF10925A0980E055
:1043B00090E00E94F021DECF1092590980E090E059
:1043C0000E94F320089557985F9AEAE0F1E0808117
:1043D00080618083EBE0F1E08081806180830895DB
:1043E0008130910591F0892BA1F480910B018061BE
:1043F00080930B0128E833E140E951E0CA010197BD
:10440000F1F721503040D1F7089580912F0888238B
:1044100041F080910B018F7E80930B0128E833E1FE
:10442000EBCF089589B18095881F8827881F08954C
:10443000AF92BF92CF92DF92EF92FF920F931F93B2
:1044400080912F08882351F483E61F910F91FF90EC
:10445000EF90DF90CF90BF90AF90089581E090E013
:104460000E94F02163EC73ED81E491E42AE13BE8E2
:104470004DE950E40F2EF0E0EF2EF0E0FF2EF0E8D3
:104480000F2FFFEB1F2FF02D570168010E94F00343
:104490000E942B198823E1F780E991E00197F1F759
:1044A00080E0D3CF8F929F92AF92BF92CF92DF9254
:1044B000EF92FF920F931F9380912F08882361F44E
:1044C00083E61F910F91FF90EF90DF90CF90BF9008
:1044D000AF909F908F9008950E94EA20882309F062
:1044E00020C163EC73ED81E491E42AE13BE84DE9FE
:1044F00050E40F2EF0E0EF2EF0E0FF2EF0E80F2F4B
:10450000FFEB1F2FF02D570168010E94F0030E945E
:104510002B198823E1F780E991E00197F1F781E019
:1045200090E00E94F02128E833E140E951E0CA011F
:104530000197F1F721503040D1F781E090E00E94DF
:10454000F320882309F4E7C020E137E240E951E095
:10455000CA010197F1F721503040D1F799B080E0BE
:1045600090E00E94F02180E090E00E94F3208823F8
:1045700009F4C8C00E94EA208823E1F76DE37BE9D3
:104580008DE491E42CED38E644E950E40F2EF0E0A0
:10459000EF2EF0E0FF2EF0E80F2FFFEB1F2FF02D96
:1045A000570168010E94F0030E942B198823E1F74C
:1045B00080E991E00197F1F720EA3FE040E951E01E
:1045C000CA010197F1F721503040D1F781E090E026
:1045D0000E94F320882309F495C00E94EA208823D2
:1045E000E1F320E137E240E951E0CA010197F1F738
:1045F00021503040D1F781E090E00E94A71F20E4D5
:104600003FE140E951E0CA010197F1F72150304004
:10461000D1F7882497FC6BC08824839428E833E181
:1046200040E951E0CA010197F1F721503040D1F73C
:1046300080E090E00E94F320882309F463C00E9488
:10464000EA208130E1F328E93AE340E951E0CA0188
:104650000197F1F721503040D1F763EC73ED81E41D
:1046600091E42AE13BE84DE950E40F2EF0E0EF2E13
:10467000F0E0FF2EF0E80F2FFFEB1F2FF02D57017A
:1046800068010E94F0030E942B198823E1F780E95A
:1046900091E00197F1F781E090E00E94F02128E895
:1046A00033E140E951E0CA010197F1F72150304070
:1046B000D1F781E090E00E94F320882361F120E1AE
:1046C00037E240E951E0CA010197F1F7215030404B
:1046D000D1F74F9919C0882049F180E090E00E94FD
:1046E000F32080E090E00E94F02185E0EACE80E0B7
:1046F00090E00E94A71F80E090E00E94F3208823B2
:1047000009F09DCF85E0DDCE81E0881679F080E06C
:1047100090E00E94F32080E090E00E94F02185E08C
:10472000D0CE80E090E00E94F320DBCE80E090E0ED
:104730000E94F02180E090E00E94F320882311F392
:104740000E94EA208823E1F7BCCE8F929F92AF921D
:10475000BF92CF92DF92EF92FF920F931F93CF936E
:10476000DF9380912F08882371F483E6DF91CF9146
:104770001F910F91FF90EF90DF90CF90BF90AF907F
:104780009F908F9008950E94EA20882309F04AC0E4
:1047900088249924C0E9D1E00E94B5308C010E94A0
:1047A000B5306C01C8016CE070E00E94F62FAA27BA
:1047B00097FDA095BA2FBC01CD010E946B2D7B0106
:1047C0008C01C6016EE070E00E94F62FAA2797FDCB
:1047D000A095BA2FBC01CD010E946B2D9B01AC01AD
:1047E000C801B7010F2EF0E0EF2EF0E0FF2EF0E849
:1047F0000F2FFFEB1F2FF02D570168010E94F003D0
:1048000028E833E1CE010197F1F721503040D1F78C
:104810000894811C911C88EC8816910409F0BCCF87
:1048200080E0A4CF80E090E00E94F320B1CF4F99C8
:1048300005C08DEA95E00E94401E089589EA95E042
:104840000E94401E0895E7E0F1E080818068808347
:10485000089580912F08882341F10E942B19882305
:10486000E1F781E00E94ED17809108018F77809336
:10487000080120ED37E040E951E0CA010197F1F766
:1048800021503040D1F78091080180688093080161
:1048900020ED37E040E951E0CA010197F1F72150DE
:1048A0003040D1F780E00E94ED1708950E94EA2081
:1048B000882309F03AC00E942B198823E1F70E944F
:1048C000F317892BE1F781E00E94ED1728EE33E022
:1048D00040E951E0CA010197F1F721503040D1F78A
:1048E00081E090E00E94F32024EF31E040E951E0C4
:1048F000CA010197F1F721503040D1F780E090E0F4
:104900000E94F02180E090E00E94F32028EE33E046
:1049100040E951E0CA010197F1F721503040D1F749
:1049200080E00E94ED1780E0089585E008950E94E0
:104930002B198823E1F70E94F317892BE1F70E94D6
:10494000EA20882311F085E0089581E00E94ED17A8
:1049500081E090E00E94F02181E090E00E94F3204D
:104960002CED35E040E951E0CA010197F1F7215003
:104970003040D1F780E090E00E94F3200E9429248B
:1049800028EE33E040E951E0CA010197F1F72150E8
:104990003040D1F780E00E94ED1780E008959093B9
:1049A0005C0980935B090895E0915B09F0915C09D3
:1049B00019950895FC01608380E4848380E18583F8
:1049C0000895EF92FF920F931F93DF93CF9300D040
:1049D0000F92CDB7DEB77C010E94C429C70160E009
:1049E00040E024E030E08E010F5F1F4F0E94682AF4
:1049F0003C8120E04B8150E0242B352BF701358B97
:104A0000248B90E00F900F900F900F90CF91DF913B
:104A10001F910F91FF90EF900895DF93CF93CDB743
:104A2000DEB762970FB6F894DEBF0FBECDBFBE01F2
:104A30006F5F7F4F0E944D2A62960FB6F894DEBFDB
:104A40000FBECDBFCF91DF9108952C9882608EBDAF
:104A50000DB407FEFDCF6EBD0DB407FEFDCF2C9A41
:104A600008952C9882608EBD0DB407FEFDCF66239D
:104A700089F06150FA0170E06F5F7F4F640F751F1E
:104A800080818EBD0DB407FEFDCF3196E617F70786
:104A9000B9F7AF012C9ACA0108952C988EBD0DB4B8
:104AA00007FEFDCF1EBC0DB407FEFDCF2C9A8EB5C0
:104AB00008952C988EBD0DB407FEFDCF662389F0B6
:104AC0006150FA0170E06F5F7F4F640F751F1EBC6D
:104AD0000DB407FEFDCF8EB58193E617F707B9F742
:104AE000AF012C9ACA01089580915D09089588EF5D
:104AF0000E944D25807C803481F0813428F08038FC
:104B0000C9F0803C31F00895882309F510925D09C1
:104B1000089581E080935D09089588ED0E944D25F8
:104B200081FD0DC088ED6BEC0E94252583E080930C
:104B30005D09089588ED0E944D2581FDF3CF88ED34
:104B400069EC0E94252582E080935D09089508950F
:104B50001F9388EC0E944D2586FD0DC010E085FF57
:104B600003C00E947725106288EC612F0E942525E2
:104B7000812F1F91089510E4F2CF80EB0E944D2504
:104B800008951F938091020186FF0AC010E0809172
:104B9000020185FD02C00E94BD25812F1F9108954D
:104BA0000E94A825182FF3CF1F9388E760E20E9488
:104BB000252588E760E00E9425256AE070E080E016
:104BC00090E00E94D32610E002C0115041F088E628
:104BD0000E944D2580FFF9CF81E01F91089580E06C
:104BE0001F91089588E86AE10E9425250E94D42536
:104BF0008823E1F088ED61ED0E94252580ED60E6D7
:104C00000E94252588EE64E00E94252588EE0E94FA
:104C10004D2582FFFBCF0E94772588EC60E20E9441
:104C2000252580E861E00E942525089582EB95E026
:104C30000E94401EDFCF0E942D26E1E0F1E080813E
:104C40008F798083249A8081806180832C9AE2E02E
:104C5000F1E0808180618083089584B1876084B9A8
:104C6000239885B1897F85B9289A8CB580618CBDE0
:104C70008CB580648CBD08951F920F920FB60F9271
:104C800011242F933F938F939F93AF93BF93809162
:104C9000620990916309A0916409B091650930910E
:104CA00068090196A11DB11D232F2D5F2D3720F01E
:104CB0002D570196A11DB11D2093680980936209AB
:104CC00090936309A0936409B093650980915E098C
:104CD00090915F09A0916009B09161090196A11DB1
:104CE000B11D80935E0990935F09A0936009B09312
:104CF0006109BF91AF919F918F913F912F910F903B
:104D00000FBE0F901F9018958FB7F89420916209ED
:104D10003091630940916409509165098FBF78947F
:104D2000B901CA010895AF92BF92CF92DF92EF927C
:104D3000FF920F931F93A0905E09B0905F09C090FF
:104D40006009D090610986B5DC2CCB2CBA2CAA2442
:104D5000A80EB11CC11CD11CAA0CBB1CCC1CDD1C98
:104D6000AA0CBB1CCC1CDD1CAA0CBB1CCC1CDD1C67
:104D7000AA0CBB1CCC1CDD1CAA0CBB1CCC1CDD1C57
:104D8000AA0CBB1CCC1CDD1C9501A60160E070E0E8
:104D900080E090E01F910F91FF90EF90DF90CF9017
:104DA000BF90AF900895EF92FF920F931F937B01F6
:104DB0008C018FB7F894409162095091630960911A
:104DC0006409709165098FBF78942FB7F89480912A
:104DD000620990916309A0916409B09165092FBFA0
:104DE0007894841B950BA60BB70BE816F9060A07F7
:104DF0001B0758F71F910F91FF90EF900895809136
:104E0000840090918500209166093091670940E007
:104E100050E0A90133272227A0E0B0E0280F391F76
:104E20004A1F5B1F220F331F441F551F220F331FC2
:104E3000441F551F2C7F5F70B901CA0108951F924E
:104E40000F920FB60F9211248F939F938091660952
:104E500090916709019690936709809366099F91E5
:104E60008F910F900FBE0F901F901895E1E8F0E022
:104E7000808182608083808181608083EFE6F0E0C2
:104E8000808181608083089578940E94362785B55B
:104E9000826085BD85B5816085BDEEE6F0E08081EC
:104EA00081608083089580910002089580930002BC
:104EB0000895982F843040F486E1989F9001112442
:104EC0002A56364FC901089520E030E0C9010895FF
:104ED0002F923F924F925F926F927F928F929F920A
:104EE000AF92BF92CF92DF92EF92FF920F931F93F8
:104EF000DF93CF9300D0CDB7DEB7FC015B012A0171
:104F0000922E832E80EE60810E9425250E948426A9
:104F10006B017C0188E893E1A0E0B0E0C80ED91EE7
:104F2000EA1EFB1ED50112961C911123C9F40EEF47
:104F300010E0C8010F900F900F90CF91DF911F915B
:104F40000F91FF90EF90DF90CF90BF90AF909F9028
:104F50008F907F906F905F904F903F902F9008952B
:104F600088EEF50164810E9425254114510409F45D
:104F700074C0212E3324892D982D9C0139014201C2
:104F80002414350408F467C0898280E1682DA301E8
:104F90000E94312588E3682D0E942525D5016C915A
:104FA000606280EF0E94252588EC0E944D2587FFD6
:104FB000FBCF88EC60E80E94252588EF0E944D25F4
:104FC000182F1F70E1F100E01B821A820E948426D4
:104FD0006C157D058E059F0590F5143029F01E3067
:104FE000A1F1012F10E0A5CFEA81FB813196FB836F
:104FF000EA83E050FD4709F43CC088E360E00E948A
:10500000252580E1D3016C910E94252588E36981E3
:105010000E942525F5016081606280EF0E942525B0
:1050200088EC0E944D2587FFFBCF88EC60E80E944A
:10503000252588EF0E944D25182F1F7039F6481836
:105040005908E1F0680C791C9ACF0F5F0330A9F67C
:105050000EE010E06ECF410197CF00E010E088EF46
:105060000E944D2585FD08C080E4D50114968C93DF
:1050700060CF04E010E05DCF80E8F7CF012F10E0B3
:10508000EECFFC01DB019A013E96BF01AD010E940B
:10509000682708957F928F929F92AF92BF92CF928E
:1050A000DF92EF92FF920F931F93CF93DF93782EAF
:1050B0005B014A010E9484267B018C0188E893E110
:1050C000A0E0B0E0E80EF91E0A1F1B1FDD24C0E0BF
:1050D000D0E0CC240E9484266E157F0580079107BE
:1050E00070F5D5016C91672980EF0E9425250E94FB
:1050F00084266E157F058007910708F041C088EC73
:105100000E944D2587FFF3CF88EC60E80E9425259B
:10511000DD240E9484266E157F058007910748F4E0
:1051200088EF0E944D259FE0D92ED822B1E0DB16F2
:1051300081F3E4E0DE16E1F0FEE0DF1689F02D2DCC
:1051400030E0C901DF91CF911F910F91FF90EF9057
:10515000DF90CF90BF90AF909F908F907F900895F9
:10516000C39483E0C81609F0B5CF2EE030E0E9CF54
:105170002196C815D90509F0ADCF24E030E0E1CF84
:105180002FEF30E0DECF6F927F928F929F92AF929F
:10519000BF92CF92DF92EF92FF920F931F93CF9324
:1051A000DF93FC017B013A0169015801DB01129692
:1051B0008D909C90139780EE60810E94252588EE4B
:1051C000F70165810E942525C0E0D0E080E0B701AD
:1051D000A5010E944A28892BD1F588EC0E944D2513
:1051E00082FF38C080E30E944D25682F082F10E011
:1051F00088E0A6010E9459256C0188EC64E00E94B9
:105200002525C00FD11F0815190518F0C615D7059B
:10521000E8F288EF0E944D2584FF15C080E2D70197
:1052200015968C939E01C901DF91CF911F910F912B
:10523000FF90EF90DF90CF90BF90AF909F908F90B6
:105240007F906F90089580E1F7018583EBCF2FEF7A
:105250003FEFE9CF2EEF3FEFE6CF0F931F93FC0117
:10526000662351F480E88683CF013296BF010E9405
:1052700068271F910F91089580E28783CF013296AE
:10528000BF0100E01DE70E94C3281F910F91089500
:105290005F926F927F928F929F92AF92BF92CF92C6
:1052A000DF92EF92FF920F931F93DF93CF93CDB7CF
:1052B000DEB728970FB6F894DEBF0FBECDBF3C0116
:1052C000562E142F822E80EEF30160810E94252538
:1052D00059821A83902F80E09924882999299C83E8
:1052E0008B83FE82ED82D886CF8280E268E0AE01B9
:1052F0004F5F5F4F0E94312583010E5F1F4F80E19A
:10530000B80140E05DE70E944A288823C9F02FEFEA
:105310003FEFC90128960FB6F894DEBF0FBECDBF90
:10532000CF91DF911F910F91FF90EF90DF90CF9081
:10533000BF90AF909F908F907F906F905F900895F7
:10534000F52CFF1CFF24FF1CA114B10431F0C30194
:105350006F2DA60195010E942D29FF2059F080EAAA
:10536000B80140E05DE70E944A28882351F420E01C
:1053700030E0CFCF80E8B80140E05DE70E944A28E6
:10538000F4CF2DEF3FEFC5CFAF92BF92CF92DF9218
:10539000EF92FF920F93262F60E049E000E0EE24A9
:1053A000FF24CC24DD24AA24BB240E9448290F9189
:1053B000FF90EF90DF90CF90BF90AF900895AF92A5
:1053C000BF92CF92DF92EF92FF920F93262F60E071
:1053D00045E000E0EE24FF24CC24DD24AA24BB24F5
:1053E0000E9448290F91FF90EF90DF90CF90BF90DF
:1053F000AF9008954F925F926F927F928F929F929B
:10540000AF92BF92CF92DF92EF92FF920F931F93D2
:10541000CF93DF934C01162F3A01E90160E846E093
:10542000212F02E0EE24FF2434E0C32ED12C5E01B4
:105430000E944829892BA1F02FEF3FEFC901DF918E
:10544000CF911F910F91FF90EF90DF90CF90BF9081
:10545000AF909F908F907F906F905F904F90089546
:105460009B8180E02A81422E5524482A592A6414BF
:10547000750408F42301C40160E846E0212F02E02E
:10548000EE24FF2462015E010E944829892B11F459
:105490009201D4CF2EEF3FEFD1CFAF92BF92CF92F8
:1054A000DF92EF92FF920F935B0160E846E020E00D
:1054B00001E0EE24FF2452E1C52ED12C0E944829A0
:1054C0000F91FF90EF90DF90CF90BF90AF90089535
:1054D0002F923F924F925F926F927F928F929F9204
:1054E000AF92BF92CF92DF92EF92FF920F931F93F2
:1054F000DF93CF930F92CDB7DEB73C01362E242E2B
:1055000049012801198260E846E0232D03E0E22CDE
:10551000FF2471E0C72ED12C5E010894A11CB11CA0
:105520000E94482997FF17C02FEF3FEFC9010F9046
:10553000CF91DF911F910F91FF90EF90DF90CF906F
:10554000BF90AF909F908F907F906F905F904F90A3
:105550003F902F900895C9808C2D90E08816990671
:1055600080F1C30160E846E0232D03E0E22CFF2434
:10557000DD2452010E94482997FD26C08981282FE9
:1055800030E0C901029797FD22C0959587958983E0
:10559000882301F1B201F20120E030E0482F50E011
:1055A0002F5F3F4F8281DB018D93BD013296DA017F
:1055B00024173507ACF3A40DB51D1C9220E030E094
:1055C000B5CFC82C8982CDCF2EEF3FEFAFCFC90129
:1055D0000197DBCFA82FB0E0EECF0F931F93CF93AF
:1055E000DF93FC01DB01EA01222371F400E01DE7F7
:1055F000CF013896BF01AD019E010E94C328DF9103
:10560000CF911F910F91089501E010E0F1CF0E941A
:105610001B260E94F22581E18093000210929709D7
:105620001092AD091092C3091092960988E999E089
:1056300060E00E94DA2408951F93DF93CF93CDB7E3
:10564000DEB762970FB6F894DEBF0FBECDBF0E94E3
:10565000C1250E947425813009F444C08130A0F432
:1056600010910002812F807F8031C1F081E1809311
:1056700000028091AD09882309F0CEC00E94072B5B
:1056800082E18093000231C0843008F041C0109163
:105690000002812F807F803109F47EC01034E1F157
:1056A000113468F1103609F456C0103709F499C066
:1056B0001035D9F488EC0E944D2586FF16C00E9453
:1056C000842620916A0930916B0940916C095091B0
:1056D0006D09261737074807590738F480E6809385
:1056E000000203C083E18093000262960FB6F89433
:1056F000DEBF0FBECDBFCF91DF911F910895103255
:1057000009F45BC0103309F43FC0113171F7B1CF18
:1057100010910002103421F688EE0E944D2580FD84
:10572000E4CF88ED0E944D25682F686088ED0E94C7
:10573000252580E5809300020E9484266C5E7F4FC1
:105740008F4F9F4F60936A0970936B0980936C0928
:1057500090936D09CACF88E090E090939B09809365
:105760009A0986E999E0BE016F5F7F4F0E944D2A3A
:10577000882309F04BC0888580939A0910929B0971
:1057800080E780930002B1CF88EE61E00E9425257A
:1057900080E480930002A9CF0E94842668537F4F43
:1057A0008F4F9F4F60936A0970936B0980936C09C8
:1057B00090936D0980E2809300020E9484262091DC
:1057C0006A0930916B0940916C0950916D09261757
:1057D00037074807590708F088CF80E38093000215
:1057E00084CF8091AD098823E9F082EC99E062E0F2
:1057F0000E94D4248EEF8093690980EA809300028E
:1058000074CF8CEA99E062E00E94D4241093690975
:1058100080EA8093000269CF8CEA99E061E00E94FF
:10582000D4242CCF81E08093AC098093AD098EEA1B
:1058300099E060E00E94DA2486E999E061E00E9444
:10584000DF298823F1F68CEA99E060E00E94D424F5
:1058500080E98093000249CF5058BB27AA270ED079
:1058600011C202D230F007D220F031F49F3F11F480
:105870001EF4D2C10EF4E095E7FB9FC1E92F13D2CD
:1058800080F3BA17620773078407950718F071F45D
:105890009EF542C20EF4E0950B2EBA2FA02D0B01FF
:1058A000B90190010C01CA01A0011124FF27591B65
:1058B00099F0593F50F4503E68F11A16F040A22F6B
:1058C000232F342F4427585FF3CF469537952795DC
:1058D000A795F0405395C9F77EF41F16BA0B620BDB
:1058E000730B840BBAF09150A1F0FF0FBB1F661F22
:1058F000771F881FC2F70EC0BA0F621F731F841F65
:1059000048F4879577956795B795F7959E3F08F08A
:10591000B3CF9395880F08F09927EE0F9795879549
:105920000895DF93DD27B92FBF7740E85FE31616B0
:10593000170648075B0710F4D92FF9D19F938F936F
:105940007F936F9323D3ECE1F2E069D19BD12F9148
:105950003F914F915F9161D2DD2349F09058A2EAC7
:105960002AED3FE049EC5FE3D0785D2787DFDF91E8
:1059700089C1BBD180F09F3740F491110EF4CDC1A5
:1059800060E070E080E89FE3089526F01B16611D3B
:10599000711D811D18C132C1ECD008F481E0089559
:1059A0000CD070C168D140F05FD130F021F45F3F7E
:1059B00019F003C15111B1C12FC175D198F39923C9
:1059C000C9F35523B1F3951B550BBB27AA276217C3
:1059D0007307840738F09F5F5F4F220F331F441F08
:1059E000AA1FA9F333D00E2E3AF0E0E830D0915040
:1059F0005040E695001CCAF729D0FE2F27D0660F2D
:105A0000771F881FBB1F261737074807AB07B0E86B
:105A100009F0BB0B802DBF01FF2793585F4F2AF081
:105A20009E3F510568F0C9C078C15F3FECF3983ED6
:105A3000DCF3869577956795B795F7959F5FC9F7DE
:105A4000880F911D9695879597F90895E1E0660F67
:105A5000771F881FBB1F621773078407BA0720F0E0
:105A6000621B730B840BBA0BEE1F88F7E095089549
:105A700004D06894B11151C108951DD188F09F5789
:105A800090F0B92F9927B751A0F0D1F0660F771F8A
:105A9000881F991F1AF0BA95C9F712C0B13081F06A
:105AA0003BD1B1E0089538C1672F782F8827B85FC0
:105AB00039F0B93FCCF3869577956795B395D9F7CB
:105AC0003EF490958095709561957F4F8F4F9F4FD5
:105AD0000895E89409C097FB3EF4909580957095E1
