:100000000C9416030C9437030C9437030C943703A9
:100010000C9437030C9437030C9437030C94370378
:100020000C9437030C9437030C9437030C94370368
:100030000C9437030C9437030C9437030C94C917B2
:100040000C9437030C94701A0C9437030C943703F8
:100050000C9493260C9437030C9437030C94B0251E
:100060000C9437030C94BC1E0C9437030C94370388
:100070000C9437030C9437030C9437030C94370318
:100080000C941A210C9437030C9437030C94370307
:100090000C9437030C9437030C9437030C943703F8
:1000A0000C9437030C9437030C9437030C943703E8
:1000B0000C9437030C9437030C9437030C943703D8
:1000C0000C9437030C9437030C9437030C943703C8
:1000D0000C9437030C9437030C9437030C943703B8
:1000E0000C943703A0079C079807940788072D07EF
:1000F0002D072D072D072D072D072D072D072D0760
:100100002D072D072D078B07C107B807B407B107C7
:100110002D072D072D072D072D072D07AE072D07BE
:10012000AE072D072D072D072D072D072D072D07AE
:100130002D072D072D072D072D072D072D072D071F
:100140002D072D072D072D072D072D072D07AB0791
:100150002D072D072D072D072D072D072D072D07FF
:100160002D072D072D072D072D072D072D072D07EF
:100170002D072D072D072D072D072D072D072D07DF
:100180002D072D07A7072D072D072D072D072D0755
:100190002D072D072D072D07A307D407D107CD075E
:1001A000CA07E907E907E507DE07D7071C082D0797
:1001B0002D071508100809080208FB07F407ED07CA
:1001C0004E0847084008390832082B08260821083D
:1001D000770870086B08640884072D075508E50741
:1001E0005F082D072D072D072D072D072D072D073C
:1001F0002D072D072D072D072D072D072D072D075F
:100200002D072D072D072D072D072D072D072D074E
:100210002D072D072D072D072D07E507084AD73B8A
:100220003BCE016E84BCBFFDC12F3D6C74319ABDC5
:1002300056833DDA3D00C77F11BED9E4BB4C3E91E9
:100240006BAAAABE000000803F595F484F4D450D84
:100250000A00585F484F4D450D0A00594C320D0AAF
:1002600000594C310D0A00584C320D0A00584C31DF
:100270000D0A000D0A006765745F62757379203D91
:1002800020000D0A00726F7461746564203D2000C7
:100290000D0A0076616375756D5F73746174652016
:1002A0003D20000D0A00686561645F6D6F76696EC0
:1002B00067203D20000D0A006865616420646F7747
:1002C0006E203D20000D0A006176725F6D696C6CD6
:1002D00069732829203D20000D0A00746F5F6D6945
:1002E0006C6C696D65746572732831303029203DFE
:1002F000200043415554494F4E3A53696D756C6126
:100300007465206D6F6465206973206F6E0A000D3F
:100310000A0050494E44206C696D697473203D2079
:10032000000D0A00504F52544420203D20000D0A79
:1003300000444952454354494F4E5F504F52542058
:10034000203D20000D0A00444952454354494F4E78
:100350005F44445220203D20006572720A006F6B9A
:100360000A006E686F0A006C696D0A006F6B0A0004
:1003700053746F726564206E657720736574746959
:100380006E670D0A00556E6B6E6F776E207061722E
:10039000616D657465720D0A002724783D76616C85
:1003A00075652720746F2073657420706172616DAC
:1003B00065746572206F72206A7573742027242714
:1003C00020746F2064756D702063757272656E7431
:1003D0002073657474696E67730D0A002028737446
:1003E0006570706572733A2030203D2064697361D6
:1003F000626C65642C2031203D20656E61626C6505
:1004000064290D0A002431303030203D200020289E
:100410006D617820696E7374616E7420636F726EA3
:100420006572696E67207370656564206368616ECC
:10043000676520696E2064656C7461206D6D2F6D39
:10044000696E290D0A002439203D200020286163AF
:1004500063656C65726174696F6E20696E206D6D85
:100460002F7365635E32290D0A002438203D200079
:1004700020286D6D2F617263207365676D656E74E2
:10048000290D0A002437203D200020286D6D2F6D96
:10049000696E2064656661756C74207365656B2098
:1004A00072617465290D0A002436203D2000202841
:1004B0006D6D2F6D696E2064656661756C74206664
:1004C0006565642072617465290D0A002435203D3C
:1004D000200020286D6963726F7365636F6E6473AB
:1004E00020737465702070756C7365290D0A002483
:1004F00034203D2000202873746570732F64656775
:100500002E2063290D0A002433203D20002028736B
:10051000746570732F6D6D207A290D0A00243220C6
:100520003D2000202873746570732F6D6D2079292C
:100530000D0A002431203D2000202873746570735B
:100540002F6D6D2078290D0A002430203D20000DEC
:100550000A00302E37365042002456455253494F38
:100560004E203D2000794C696D6974323A206973E0
:1005700020696E206C696D69740D0A00794C696D93
:100580006974313A20697320696E206C696D6974F1
:100590000D0A00784C696D6974323A2069732069DC
:1005A0006E206C696D69740D0A00784C696D697410
:1005B000310D0A004865616420646F776E206572B2
:1005C000726F720A0D006E6F0A007965730A00453A
:1005D00072726F723A204F53434F4B49525120660B
:1005E00061696C656420746F206173736572740A4D
:1005F00000494E46494E4954594E414ECDCCCC3D12
:100600000AD7233C17B7D13877CC2B329595E624FF
:100610001FB14F0A000020410000C84200401C46A4
:1006200020BCBE4CCA1B0E5AAEC59D7411241FBE01
:10063000CFEFD1E2DEBFCDBF00E00CBF12E0A0E003
:10064000B2E0E8E9F3E600E00BBF02C007900D92CC
:10065000A630B107D9F717E0A6E0B2E001C01D92BD
:10066000A130B107E1F70E94C90A0C94CA310C9479
:100670000000249A0895892B11F42C9808952C9A3F
:100680000895F999FECF92BD81BD81E08FBB80B501
:100690000895F894F999FECF92BD81BD81E08FBB9A
:1006A00090B59627892F862341F06F3F71F060BD8A
:1006B00084E08FBBF99A789408959923E1F360BDA3
:1006C00084E28FBBF99A7894089584E18FBBF99AFC
:1006D00078940895AF92BF92CF92DF92FF920F93DA
:1006E0001F93CF93DF936C018B015A014115510584
:1006F00059F1FF24C0E0D0E00DC021E0F801608195
:10070000F22EF60E0E9449032196CA15DB0561F010
:100710000F5F1F4FCE018C0D9D1DFF2071F72F2DF8
:10072000221F2227221FEACFCC0EDD1EC6016F2D0D
:100730000E944903DF91CF911F910F91FF90DF90AD
:10074000CF90BF90AF900895FF24F0CFFC014115EA
:100750005105C9F1A0E020E030E0B1E0C901860F09
:10076000971FF999FECF92BD81BDBFBB90B5AA235B
:1007700059F081E0A82FA90F90832F5F3F4F2417D6
:10078000350771F03196EACF8A2F881F8827881F96
:10079000A82FA90F90832F5F3F4F2417350791F79C
:1007A000620F731FF999FECF72BD61BD81E08FBBEF
:1007B00080B520E030E0A81711F0C901089521E0CC
:1007C00030E0C9010895A0E0EDCF80932F0260933F
:1007D000300240933102089560930602709307023D
:1007E0008093080290930902089560930602709323
:1007F0000702809308029093090208952F923F9276
:100800004F925F926F927F928F929F92AF92BF9220
:10081000CF92DF92EF92FF920F931F93DF93CF93CC
:10082000CDB7DEB728970FB6F894DEBF0FBECDBFA9
:1008300069837A838B839C832D833E834F83588780
:10084000170128013501460120E030E040E85FEB68
:100850000E94402C882341F420901C0230901D02FD
:1008600040901E0250901F026D817E818F8198857D
:1008700020E030E040E85FEB0E94402C882341F408
:1008800060902002709021028090220290902302BA
:10089000C201B10120E030E040E85FEB0E94402C53
:1008A000882341F4209024023090250240902602B3
:1008B00050902702C401B30120E030E040E85FEB34
:1008C0000E94402C882341F46090280270902902F5
:1008D00080902A0290902B0200D000D080911802C4
:1008E00090911902A0911A02B0911B02EDB7FEB7C8
:1008F00081839283A383B4831682158269817A816E
:100900008B819C812D813E814F81588582017101AF
:10091000640153010E94A91089819A81AB81BC8135
:1009200080931C0290931D02A0931E02B0931F029D
:100930008D819E81AF81B8858093200290932102A2
:10094000A0932202B0932302209224023092250227
:100950004092260250922702609228027092290249
:1009600080922A0290922B02ADB7BEB716960FB6B0
:10097000F894BEBF0FBEADBF28960FB6F894DEBF89
:100980000FBECDBFCF91DF911F910F91FF90EF90E0
:10099000DF90CF90BF90AF909F908F907F906F909F
:1009A0005F904F903F902F900895AF92BF92CF925B
:1009B000DF92EF92FF920F931F93DF93CF930F92EB
:1009C0000F92CDB7DEB76C015B017A01FB010081AC
:1009D0001181080F191FC801BE016F5F7F4F0E9470
:1009E0003930F701608371838283938389819A818F
:1009F00080179107A9F08C199D09F50191838083D7
:100A000021E030E0C9010F900F90CF91DF911F914D
:100A10000F91FF90EF90DF90CF90BF90AF9008952F
:100A200081E080930A0220E030E0ECCF0F931F9327
:100A3000CF93DF93EC018B01D901ED91FC911197DC
:100A4000E40FF51FE081EE2339F0E883E154EA3149
:100A500058F082E080930A0220E030E0C901DF9183
:100A6000CF911F910F9108958D919C9111970196AF
:100A70008D939C93CA01B901A8010E94D5040097E7
:100A800011F081E090E09C01C901DF91CF911F91AD
:100A90000F91089588E2EAE0F2E0DF011D928A9565
:100AA000E9F76091A7067091A8068091A906909138
:100AB000AA0620E030E040E752E40E94442C609314
:100AC000140270931502809316029093170260919E
:100AD000AB067091AC068091AD069091AE0620E019
:100AE00030E040E752E40E94442C60931802709377
:100AF000190280931A0290931B0210922F0291E028
:100B00009093300282E08093310290930E02089518
:100B10002F923F924F925F926F927F928F929F920D
:100B2000AF92BF92CF92DF92EF92FF920F931F93FB
:100B3000DF93CF93CDB7DEB7E7970FB6F894DEBF5C
:100B40000FBECDBF5C011B821A8280E090E0A0E066
:100B5000B0E088879987AA87BB87ACE02A2E312C22
:100B60002C0E3D1E80E1D101E82F1D92EA95E9F798
:100B7000FCE1CF2ED12CCC0EDD1ED6011D928A9524
:100B8000E9F710920A02F5018081883209F486C0E3
:100B90008F3209F46EC0843209F44AC019AA18AA27
:100BA000E2E06E2E712C6C0E7D1E74E0472E512CEF
:100BB0004C0E5D1E4E010894811C911CC401B201B3
:100BC000A50193010E941605892B09F495C26C8139
:100BD0007D818E819F810E943D2F7B018C010E942F
:100BE000AC2C2981273409F43CC1283408F047C0D3
:100BF000243409F455C080910A028823F9F2E7965B
:100C00000FB6F894DEBF0FBECDBFCF91DF911F911D
:100C10000F91FF90EF90DF90CF90BF90AF909F909B
:100C20008F907F906F905F904F903F902F9008959E
:100C300081E090E09B838A83D50111968C91882373
:100C400059F18E010E5F1F4FC501B801AE01485F1B
:100C50005F4F0E94D5048A819B81F501E80FF91F3F
:100C6000208101969B838A832D3309F42DC183E073
:100C7000C6CF8A819B8101969B838A838FCF2D3437
:100C800009F4E6C0243509F0B6CFC801B7010E94C7
:100C9000B12C60932C02AFCF0E94A81680E0AFCF9A
:100CA0008AB187E493E00E94B31D60B370E080E0F6
:100CB00090E00E94721E84E493E00E94B31D81E3E1
:100CC00093E00E94B31D61B370E080E090E00E9469
:100CD000721E8EE293E00E94B31DEBB084E293E0BB
:100CE0000E94B31DFF2400E010E0C801B7010E947C
:100CF000721E81E293E00E94B31DE9B082E193E0AD
:100D00000E94B31DFF2400E010E0C801B7010E945B
:100D1000721E8FE093E00E94B31D82EF92E00E946A
:100D2000B31D8BED92E00E94B31D80910D028823CC
:100D300009F0ACC064E670E080E090E00E94561ECE
:100D400088ED92E00E94B31D88EC92E00E94B31DF2
:100D50000E94F8250E94561E85EC92E00E94B31D69
:100D600088EB92E00E94B31D0E945D2090E0A0E01D
:100D7000B0E0BC01CD010E94561E85EB92E00E94BE
:100D8000B31D86EA92E00E94B31D0E94FA1890E01B
:100D9000A0E0B0E0BC01CD010E94561E83EA92E0C3
:100DA0000E94B31D83E992E00E94B31D0E94862138
:100DB00090E0A0E0B0E0BC01CD010E94561E80E9A9
:100DC00092E00E94B31D85E892E00E94B31D0E944C
:100DD000602090E0A0E0B0E0BC01CD010E94561E72
:100DE00082E892E00E94B31D86E792E00E94B31D64
:100DF0000E94C317AA2797FDA095BA2FBC01CD0169
:100E00000E94561E83E792E00E94B31D0E941F1AA3
:100E1000882309F040C00E94DA19882309F04FC0E6
:100E20000E949E19882309F045C00E945919882301
:100E3000E1F50E94F418882399F50E94F718882399
:100E400021F089E492E00E94B31D80910A02D7CE7E
:100E5000E62FF72FED33F10588F083E080930A0247
:100E6000F4CFE62FF72FEF35F105B8F7EE58FF4F27
:100E7000EE0FFF1F0590F491E02D1994EF52FF4FF4
:100E8000EE0FFF1F0590F491E02D19946CEE79E0C0
:100E900080E090E053CF8DE692E00E94B31DBBCF7F
:100EA00082E592E00E94B31DC8CF8BE592E00E94DC
:100EB000B31DBFCF81E692E00E94B31DB6CF87E697
:100EC00092E00E94B31DACCFC501B801AE014C5FEA
:100ED0005F4F0E94D504EA81FB81EA0DFB1D8081F2
:100EE000882309F0C4CE688579858A859B850E9410
:100EF000AC2CDC01CB014C815D816E817F810E9435
:100F0000051680910A027BCE0E94CA2380930A02B2
:100F1000E1E0E8AB70CE10922F02A1E0A093300286
:100F2000B2E0B093310267CE93E090930B0263CEB0
:100F300082E080930B025FCEF1E0F0930B025BCE78
:100F400010920B0258CEF1E0F0930E0254CEE4E082
:100F5000E0930B0250CEB1E0B9AB4DCEB2E0B8ABEE
:100F60004ACE10920D0247CEA1E0A0930D0243CECF
:100F700081E080932F0292E0909330021092310230
:100F80003ACE10922F02E2E0E0933002F1E0F093CB
:100F9000310231CE10920C022ECE91E090930C02D1
:100FA0002ACE83E088AB27CE10920E0224CEEFEF3C
:100FB000FFEFF0931102E09310021DCE81E090E06C
:100FC000909311028093100216CEB2E0B0930F02FC
:100FD00012CEA1E0A0930F020ECE82E090E00E941C
:100FE0000520B1E0B8AB07CE81E090E00E9405207B
:100FF000A1E0A8AB00CE80E090E00E94052091E047
:1010000098ABF9CD80E090E00E94662081E088AB4B
:10101000F2CD81E090E00E946620F1E0F8ABEBCDEC
:101020001092130210921202E6CD81E090E09093AC
:10103000130280931202DFCD10921102109210025F
:10104000DACD0E948B23F1E0F8ABD5CD0E949D2331
:10105000E1E0E8ABD0CD80E090E00E946421B1E017
:10106000B8ABC9CD81E090E00E946421A1E0A8ABBB
:10107000C2CD86E090E00E94052091E098ABBBCD08
:1010800085E090E00E94052081E088ABB4CD84E04B
:1010900090E00E940520F1E0F8ABADCD83E090E058
:1010A0000E940520E1E0E8ABA6CDF6E0F0930A024D
:1010B0000E942B190E945A1D81E088AB9CCD0E9492
:1010C000511591E098AB97CD0E940B2480930A02B2
:1010D000B1E0B8AB90CD0E948B23A1E0A8AB8BCD43
:1010E0000E94C62180930A0291E098AB84CD0E94B1
:1010F000252081E088AB7FCD80910A02882309F00A
:101100007ECD1B821A8280E1D6011D928A95E9F775
:10111000D101ECE1F2E080E101900D928150E1F724
:101120001CAA1DAAB0E8BEABEFEBEFAB1BAA1AAA34
:10113000C401B201A50193010E941605892B09F48F
:10114000EDC0CC80DD80EE80FF8080910D02882391
:10115000D9F4A701960109810D3419F10E3460F517
:10116000083409F47AC00934B8F5033409F48AC0A4
:101170000634F1F680910C02882309F4A9C02CAB47
:101180003DAB4EAB5FABD4CFC701B60123E333E336
:101190004BEC51E40E94752E9B01AC0109810D348A
:1011A000E9F6209306023093070240930802509319
:1011B0000902A1E0A8ABBCCF033509F445C0043552
:1011C000E8F40E3409F453C0003509F0B1CFC886F5
:1011D000D986EA86FB86ACCF0C3408F0A9CFE02F85
:1011E000F0E0E954F040EE0FFF1FEE0FFF1FE80D97
:1011F000F91D238F348F458F568F9ACF802F8855B6
:10120000833008F095CF80910E02882309F04CC0FE
:10121000F9A9FF2309F048C010E008551040000F5D
:10122000111F000F111F080D191DD8011B966D917C
:101230007D918D919C911E970E94A12BF80163874F
:1012400074878587968774CFC701B6010E94AC2C3E
:1012500070932E0260932D026BCFCA01B9010E94D8
:10126000B12C7BAB6AAB89E080930B0261CF2093FA
:10127000060230930702409308025093090291E05E
:1012800098AB56CF80910E028823E9F4F9A9FF2389
:10129000D1F4688D798D8A8D9B8D0E94A12B688FEA
:1012A000798F8A8F9B8F44CFE02FF0E0E855F04094
:1012B000EE0FFF1FEE0FFF1FE80DF91D2387348788
:1012C0004587568735CF288F398F4A8F5B8F30CF30
:1012D00080910B02882389F4CA01B90120E030E033
:1012E00040E752E40E94442C609318027093190264
:1012F00080931A0290931B021BCFCA01B90120E010
:1013000030E040E752E40E94442C60931402709352
:10131000150280931602909317020ACF80910A0259
:10132000882309F06CCC80911002909111020097F3
:1013300009F45DC040912D0250912E02662757FDA1
:101340006095762F0E94901780911202909113025F
:10135000892B09F44FC081E090E00E943B03B8A9BB
:10136000B13009F463C0B13008F049C080910B027C
:10137000813009F47AC0813008F06FC000D000D00D
:101380006C857D858E859F85288939894A895B8909
:10139000EC88FD880E891F89A88CB98CCA8CDB8CDF
:1013A000609018027090190280901A0290901B02AF
:1013B000ADB7BEB711966D927D928D929C921497A7
:1013C00016961C921E9215970E94A910EDB7FEB7B3
:1013D00036960FB6F894FEBF0FBEEDBFACE1B2E09B
:1013E000F10180E101900D928150E1F72ECD0E9434
:1013F000A017AACF80E090E00E943B03B0CFB230AC
:1014000021F1B33059F76C857D858E859F852889BC
:1014100039894A895B89EC88FD880E891F89A88CE7
:10142000B98CCA8CDB8C0E94B50CD8CF68857985C5
:101430008A859B8520E030E04AE754E40E94752EBF
:101440000E94B12C0E94380BC9CF0E94350B80E15D
:10145000F10111928A95E9F7C1CF893009F0BECF29
:101460008AA99BA90E94A617B9CF8C859D85AE85B8
:10147000BF858CA79DA7AEA7BFA7688879888A88F3
:101480009B88EC88FD880E891F89A88CB98CCA8C32
:10149000DB8C60910C02662361F4909114029CAB8A
:1014A000A0911502ADABB0911602BEABE091170250
:1014B000EFAB00D000D04DB65EB60894411C511C75
:1014C0002CA93DA94EA95FA9C901DA01EDB7FEB764
:1014D00081839283A383B483D20114966C9314976F
:1014E00015961C926CA57DA58EA59FA5A4019301C0
:1014F0000E94A910EDB7FEB736960FB6F894FEBF5E
:101500000FBEEDBF6BCFAF92BF92CF92DF92EF9243
:10151000FF920F931F9379018A015F770E94442CF9
:101520000E94052C5B016C01C801B70120E030E08E
:1015300040E050E00E94072E18165CF4B501C60189
:101540001F910F91FF90EF90DF90CF90BF90AF90E1
:101550000895C601B50120E030E040E050E00E946F
:10156000072E18165CF46BED7FE089E490E4A60189
:1015700095010E94A02B5B016C01E0CF6BED7FE039
:1015800089E490ECA60195010E94A02B5B016C01FF
:10159000D5CF0E94B8260E944A150E947C170E944F
:1015A000550D0E94B4180E9401190E947B2A82E204
:1015B0009BE00E9443240E9488170E9439030E94E6
:1015C000051F0E944E200E9457210E94A3200E94C6
:1015D0004A058CE693E00E94B31D10C0853441F1AA
:1015E000883421F482E693E00E94B31D10925405E2
:1015F0000E94DD140E9424210E94902A83B78160FA
:1016000083BF889583B78E7F83BF809154058C34C8
:10161000A1F08D3418F38F3411F0883539F70E941A
:10162000FA18882319F78EE593E00E94B31DDECFE8
:1016300089E593E00E94B31DD9CF87E693E00E942D
:10164000B31DD4CF662339F485E50E945A1D83E487
:101650000E945A1D0895613009F0089585E50E94A1
:101660005A1D84E40E945A1D08950E943B19089552
:10167000AF92BF92CF92DF92EF92FF920F931F93A0
:101680007B018C010E94631AC801B7010E94DD2C06
:101690005B016C0120E030E04AE755E40E94752EC2
:1016A0007B018C0120E030E040E85FE30E94402CA9
:1016B00088237CF1C801B70120E03FEF4FE757E4F2
:1016C0000E94072E1816ACF4C601B50120E030E0E8
:1016D00040E251E40E94752E0E94B12CCB01672B91
:1016E00079F020E931E0F9013197F1F70197D9F765
:1016F00007C0C801B7010E94B12CCB010197F1F7D7
:101700001F910F91FF90EF90DF90CF90BF90AF901F
:10171000089561E070E0F1CFFC016091B70670912F
:10172000B8068091B9069091BA0621A532A543A5C5
:1017300054A50E94442C08958091200590E00895BE
:1017400020910C0530910D0580910E0590910F05AB
:101750002817390769F080910E0590910F050196C1
:101760006AE070E00E946A2F90930F0580930E0547
:10177000089520910C0530910D0580910E059091F2
:101780000F0528173907D1F020910E0530910F056C
:10179000C901880F991F880F991F880F991FAC01E5
:1017A000440F551F440F551F440F551F480F591F15
:1017B000420F531F4E5C5D4FCA01089540E050E058
:1017C000CA0108954F925F926F927F928F929F927B
:1017D000AF92BF92CF92DF92EF92FF920F931F933F
:1017E000CF93DF93EC014B016115710599F00097E0
:1017F00089F0E9A8FAA80BA91CA9FB0141A852A8E5
:1018000063A874A8C801B701A30192010E94402CEB
:1018100088238CF0DF91CF911F910F91FF90EF9073
:10182000DF90CF90BF90AF909F908F907F906F9000
:101830005F904F900895F401A1A4B2A4C3A4D4A4CE
:10184000C801B701A60195010E94752E9B01AC014C
:101850000E94752E7B018C012091B3063091B40655
:101860004091B5065091B6065058CA01B9010E9480
:10187000A12B20E030E040E752E40E94752E20E0EA
:1018800030E040E752EC0E94752E2DA53EA54FA5F5
:1018900058A90E94752E9B01AC01C801B7010E9496
:1018A000A12B0E94FC2EA60195010E94442C7B01D5
:1018B0008C01C301B201A80197010E94072E1816DE
:1018C0000CF0A8CFF401E1AAF2AA03AB14ABA2CFAB
:1018D000EF92FF920F931F93CF93DF9380910E05AA
:1018E00090910F05482F082F112707FD1095809123
:1018F0000C0590910D050817190791F1EE24FF24AE
:1019000020E030E001C07E0189E44802E0011124BA
:10191000CE5CDD4FC901B701AE010E94E20BC801E8
:1019200001966AE070E00E946A2F482F082F112765
:1019300007FD109580910C0590910D0597010817F2
:10194000190709F7B701CB01BE0140E050E00E9442
:10195000E20BDF91CF911F910F91FF90EF900895CF
:10196000C0E0D0E060E070E0EECF2F923F924F9267
:101970005F926F927F928F929F92AF92BF92CF921F
:10198000DF92EF92FF920F931F933B014C011901DD
:101990002A010E94631AC401B30120919506309177
:1019A000960640919706509198060E94752E0E94C7
:1019B000122EE0E18E2EE5E09E2E609310057093CE
:1019C00011058093120590931305C201B101209176
:1019D000990630919A0640919B0650919C060E9470
:1019E000752E0E94122EF4013496609314057183B3
:1019F00082839383C801B70120919D0630919E0692
:101A000040919F065091A0060E94752E0E94122EB2
:101A1000F401389660931805718382839383C6011D
:101A2000B5012091A1063091A2064091A3065091E4
:101A3000A4060E94752E0E94122E2CE030E0820E29
:101A4000931E60931C05F4017183828393831F911D
:101A50000F91FF90EF90DF90CF90BF90AF909F904D
:101A60008F907F906F905F904F903F902F90089550
:101A7000CF93DF93EC0190E080912005811191E0FC
:101A800080E0209709F081E0981731F00E94631AF6
:101A900010922005CD2B19F4DF91CF91089581E0AC
:101AA00080932005DF91CF91089510920D0510923B
:101AB0000C0510920F0510920E0581E090E00E9437
:101AC000380D80E1E0E1F5E0DF011D928A95E9F74C
:101AD00008952F923F924F925F926F927F928F92D2
:101AE0009F92AF92BF92CF92DF92EF92FF920F93AD
:101AF0001F93DF93CF9300D000D0CDB7DEB78C011A
:101B00007E836D83672B09F4A3C04115510509F449
:101B100019C1DA01D1968D919D910D90BC91A02DA6
:101B200089839A83AB83BC830115110509F403C132
:101B3000F801618D728D838D948DAD81BE81599632
:101B40002D913D914D915C915C970E94A02B9B0142
:101B5000AC010E94752E1B012C01F801658D768D5C
:101B6000878D90A1AD81BE815D962D913D914D9166
:101B70005C9190970E94A02B9B01AC010E94752E56
:101B80003B014C01F80161A172A183A194A1AD8137
:101B9000BE8191962D913D914D915C9194970E94BB
:101BA000A02B9B01AC010E94752E5B016C01F8011A
:101BB00065A176A187A190A5AD81BE8195962D9155
:101BC0003D914D915C9198970E94A02B9B01AC0197
:101BD0000E94752E7B018C01C201B101A401930109
:101BE0000E94A12BA60195010E94A12BA80197019B
:101BF0000E94A12B0E94FC2E5B016C01E090B706B5
:101C0000F090B8060091B9061091BA06C801B70164
:101C1000A60195010E94402C87FD33C00F2EF0E0F5
:101C20006F2EF0E07F2EF0E88F2EFFE39F2EF02D39
:101C3000C401B30129813A814B815C810E94072E46
:101C4000181644F1ED81FE8161AA72AA83AA94AAB2
:101C500026960FB6F894DEBF0FBECDBFCF91DF91B1
:101C60001F910F91FF90EF90DF90CF90BF90AF90BA
:101C70009F908F907F906F905F904F903F902F90AC
:101C80000895C801B701A60195010E94442C3B01AB
:101C90004C01CECFED81FE81A1A4B2A4C3A4D4A4F3
:101CA000C601B50129813A814B815C810E94752E64
:101CB0009B01AC010E94752E7B018C012091B30623
:101CC0003091B4064091B5065091B6065058CA01FD
:101CD000B9010E94A12B20E030E040E752E40E94CD
:101CE000752E20E030E040E752EC0E94752EAD8169
:101CF000BE819D962D913D914D915C91D0970E9412
:101D0000752E9B01AC01C801B7010E94A12B0E9456
:101D1000FC2EA60195010E94442C7B018C01C4017C
:101D2000B301A80197010E94072E18160CF08ACF64
:101D30003701480187CF8D819E810E948C0B3B012A
:101D40004C0180CF8D819E810E948C0B69837A83A8
:101D50008B839C83E9CECF92DF92FF920F931F93E8
:101D6000CF93DF9380910C0590910D05F82E209173
:101D70000E0530910F05992787FD909582179307DF
:101D8000B9F100E010E040E050E019C08F2D99E477
:101D90008902B0011124CF2CDD24C7FCD094EB01C3
:101DA000CE5CDD4FCE01B8010E94690D80910E0519
:101DB00090910F05A8018C159D0561F08E01FA9494
:101DC000F7FEE4CFA9E0FA2E61E972E0F9E0CF2E48
:101DD000D12CE5CFA80180E090E0BE010E94690D02
:101DE000DF91CF911F910F91FF90DF90CF900895D9
:101DF000C0E0D0E040E050E0EECF2F923F924F9213
:101E00005F926F927F928F929F92AF92BF92CF928A
:101E1000DF92EF92FF920F931F93DF93CF93CDB793
:101E2000DEB762970FB6F894DEBF0FBECDBF9A8BB8
:101E3000898B6A017B0118012901FC01658976897A
:101E40008789908D0E94DD2C3B014C01A7019601F2
:101E50000E94752E0E942D2C0E94B12C7B018C01BA
:101E6000E989FA8965AB76AB87AB90AFC401B30162
:101E7000A20191010E94752E0E942D2C0E94B12C6E
:101E80001B012C01E989FA8961AF72AF83AF94AF6E
:101E9000FD966081718182819381FD97FA8BE98B38
:101EA00028E230E040E050E00E944B2F0E94DF2CFF
:101EB00020E030E040E752E40E94752E0E94AC2CF6
:101EC0005B016C01C801B7010E94DD2C7B018C0114
:101ED000C601B5010E94DF2C6D837E838F839887B6
:101EE000C401B301A40193010E94752E3B014C0172
:101EF000C801B701A80197010E94752E69877A87EA
:101F00008B879C876D817E818F8198859B01AC0139
:101F10000E94A12B6D877E878F87988BC401B301A8
:101F200029853A854B855C850E94A02B2D853E85B1
:101F30004F8558890E94442C0E942D2C0E94AC2C65
:101F400069837A838B839C83C201B1010E94DD2C5B
:101F50009B01AC010E94752E1B012C01A401930171
:101F60000E94A02B7B018C01D094C094B094A094CB
:101F7000A11CB11CC11CD11CC601B5010E94DF2CE3
:101F80009B01AC010E94A12B9B01AC01C801B701D0
:101F90000E94442C0E941A2DE989FA89A188B288EE
:101FA000C388D4888601750129813A814B815C817F
:101FB000E21AF30A040B150B0E94AC2CA80197013E
:101FC000261B370B480B590BDA01C90157FD30C0EE
:101FD00049895A894F5B5F4FFA0129813A814B81C8
:101FE0005C812193319341935193FA8BE98B820F5A
:101FF000931FA41FB51F80839183A283B38362962E
:102000000FB6F894DEBF0FBECDBFCF91DF911F9109
:102010000F91FF90EF90DF90CF90BF90AF909F9087
:102020008F907F906F905F904F903F902F9008958A
:10203000C601B5010E94DF2C2D853E854F8558894C
:102040000E94752E29853A854B855C850E94A02BC0
:102050009B01AC01C201B1010E94A12B7B018C014B
:102060006D817E818F81988520E030E040E850E4EA
:102070000E94752E9B01AC01C801B7010E94442C3F
:102080000E942D2C0E94AC2C69837A838B839C83C5
:1020900080E090E0A0E0B0E09BCFEF92FF920F9342
:1020A0001F93CF93DF9380910E0590910F05282FFA
:1020B000E82EFF24E7FCF09480910C0590910D052B
:1020C000E816F906E1F1E0E0F0E001C0FE0189E484
:1020D0002802E0011124CE5CDD4F309759F041A970
:1020E00052A963A974A909A91AA92BA93CA9CF01CE
:1020F0000E94FD0EC70101966AE070E00E946A2FFF
:10210000282FE82EFF24E7FCF09480910C05909195
:102110000D05E816F906D1F6CE010E948C0B8B0155
:102120009C0149A95AA96BA97CA9CE010E94FD0E68
:10213000DF91CF911F910F91FF90EF900895C0E034
:10214000D0E0EACF0E94AB0E0E94680C0E944D10B6
:1021500008952F923F924F925F926F927F928F924B
:102160009F92AF92BF92CF92DF92EF92FF920F9326
:102170001F93DF93CF93CDB7DEB7CC54D0400FB6CB
:10218000F894DEBF0FBECDBF3B014C0123962CAFB0
:102190003DAF4EAF5FAF23972796ECAEFDAE0EAFCF
:1021A0001FAF2797809155058823D1F4C45BDF4F7B
:1021B0000FB6F894DEBF0FBECDBFCF91DF911F9158
:1021C0000F91FF90EF90DF90CF90BF90AF909F90D6
:1021D0008F907F906F905F904F903F902F900895D9
:1021E000C401B3012091950630919606409197065F
:1021F000509198060E94752E0E94122E7B018C0130
:102200002091990630919A0640919B0650919C0628
:102210002BAF3CAF4DAF5EAF40919D0650919E06F7
:1022200060919F067091A0064FAB58AF69AF7AAF2F
:102230002090A1063090A2064090A3065090A406DC
:1022400080910C0590910D0501966AE070E00E9466
:102250006A2F28968FAF289729969FAF29972091AC
:102260000E0530910F0529966EAD7FAD2997261783
:10227000370771F483B7816083BF889583B78E7FFA
:1022800083BF80910E0590910F058217930791F3FC
:1022900020910C0530910D05C901880F991F880FF9
:1022A000991F880F991FDC01AA0FBB1FAA0FBB1F24
:1022B000AA0FBB1FA80FB91FA20FB31FAE5CBD4F63
:1022C000BEABADAB8091100590911105A0911205A8
:1022D000B091130537014801681A790A8A0A9B0AE6
:1022E00097FC0AC3C201B101A60195010E94752E97
:1022F0000E94122E6D877E878F87988B6FA978AD8D
:1023000089AD9AAD27962CAD3DAD4EAD5FAD27970B
:102310000E94752E0E94122E69877A878B879C8770
:102320006BAD7CAD8DAD9EAD23962CAD3DAD4EAD70
:102330005FAD23970E94752E0E94122E6D837E83BF
:102340008F839887E982FA820B831C83EDA9FEA90B
:102350006082718282829382AD80BE80CF80D88479
:102360008091140590911505A0911605B09117055F
:10237000A6019501281B390B4A0B5B0BDA01C90139
:1023800057FDCBC2EDA9FEA984839583A683B783AD
:10239000209018053090190540901A0550901B05A3
:1023A00069847A848B849C84D401C3018219930943
:1023B000A409B509B7FDA9C2EDA9FEA98087918737
:1023C000A287B38720911C0530911D0540911E0501
:1023D00050911F05298B3A8B4B8B5C8B4D855E850D
:1023E0006F8578892D964CAF5DAF6EAF7FAF2D971F
:1023F0007A018B0169897A898B899C89E61AF70AA7
:10240000080B190B17FD6FC2ADA9BEA91C96ED9262
:10241000FD920D931C931F9718962D913D914D9110
:102420005C911B97FD0184819581A681B7818217FC
:102430009307A407B50748F1EDA9FEA920813181D2
:102440004281538182179307A407B507B0F08E1518
:102450009F05A007B10770F0EDA9FEA9818B928BB3
:10246000A38BB48B0097A105B10591F488E5809307
:1024700054059CCED801C701EFCFDA01C9018E15F2
:102480009F05A007B10740F7F5CFDA01C901D4CF06
:1024900029813A814B815C812D8F3E8F4F8F58A3CC
:1024A0008091100590911105A0911205B09113052E
:1024B000281B390B4A0B5B0BCA01B9010E94DF2CA8
:1024C0002091950630919606409197065091980676
:1024D0000E94442C69AB7AAB8BAB9CABA9A2BAA28D
:1024E000CBA2DCA28091140590911505A091160550
:1024F000B0911705A6019501281B390B4A0B5B0B00
:10250000CA01B9010E94DF2C2091990630919A06E8
:1025100040919B0650919C060E94442C6DA77EA77B
:102520008FA798AB698E7A8E8B8E9C8EC401B30177
:1025300062197309840995090E94DF2C20919D0678
:1025400030919E0640919F065091A0060E94442C17
:1025500069A77AA78BA79CA72D964CAD5DAD6EADF4
:102560007FAD2D974D8B5E8B6F8B788FCB01BA0132
:1025700029893A894B895C89621B730B840B950B03
:102580000E94DF2C2091A1063091A2064091A30663
:102590005091A4060E94442C6DA37EA38FA398A7FC
:1025A00069A97AA98BA99CA90E943A2F3B014C01E9
:1025B0006DA57EA58FA598A90E943A2F7B018C015D
:1025C00069A57AA58BA59CA50E943A2F5B016C0199
:1025D0006DA17EA18FA198A50E943A2F1B012C010D
:1025E000C401B301A80197010E94A12BA601950186
:1025F0000E94A12BA20191010E94A12B0E94FC2EFE
:10260000ADA9BEA99D966D937D938D939C93D09714
:10261000A896EEADFFADA897EF2B09F086C1A69660
:102620002CAD3DAD4EAD5FADA6970E94442C20E091
:1026300034E244E759E40E94752E0E94122EAC0148
:10264000CB01DA01BC01CD010E94DD2C9B01AC0164
:1026500060EC71EE84E69CE40E94442C7B018C01CA
:1026600069A97AA98BA99CA9A80197010E94752E36
:10267000ADA9BEA959966D937D938D939C935C975C
:102680006DA57EA58FA598A9A80197010E94752E1A
:10269000EDA9FEA9658F768F878F90A369A57AA58E
:1026A0008BA59CA5A80197010E94752EADA9BEA976
:1026B00091966D937D938D939C9394976DA17EA13C
:1026C0008FA198A5A80197010E94752EEDA9FEA9DA
:1026D00065A376A387A390A765A576A587A590A9EE
:1026E000A80197010E94752EADA9BEA999966D9378
:1026F0007D938D939C939C9751966D917D918D9137
:102700009C9154970E94DF2C5B016C01A8019701FA
:102710000E94752E0E942D2C0E94B12C3B014C0171
:10272000EDA9FEA9658B768B878B908F80E090E07A
:10273000A0E0B0E081AB92ABA3ABB4AB6091B306C9
:102740007091B4068091B5069091B60620E030E015
:1027500040E752E40E94752E20E030E040E252E46F
:102760000E94442C7B018C01ADA9BEA99D966D9160
:102770007D918D919C91D097A60195010E94442C4A
:102780009B01AC01C801B7010E94442C0E942D2C72
:102790000DA91EA9035C1F4F0E94AC2CF801608399
:1027A00071838283938320912005222309F0CAC07C
:1027B000ADA9BEA9D5966D927D928D929C92D89727
:1027C000FD0161AE72AE83AE94AEEF5BFF4F10823F
:1027D000118212821382AD014B5B5F4FFD01818933
:1027E0009289A389B489FA0180839183A283B383F8
:1027F000D8011D921D921D921C921397EDA9FEA95E
:10280000108A8091100590911105A0911205B09148
:1028100013054D8D5E8D6F8D78A1481759076A0796
:102820007B0714F482E0808B80911405909115054C
:10283000A0911605B091170549A15AA16BA17CA1E1
:10284000481759076A077B0744F4ADA9BEA95096FB
:102850008C915097886050968C9380911805909138
:102860001905A0911A05B0911B05498D5A8D6B8DE4
:102870007C8D481759076A077B0744F4ADA9BEA9A8
:1028800050968C915097806450968C934D895E89B8
:102890006F89788D89899A89AB89BC8948175907CE
:1028A0006A077B0744F4ADA9BEA950968C91509756
:1028B000806850968C932996EEADFFAD2997F093E2
:1028C0000D05E0930C05A0E1B5E0FE01319680E135
:1028D00001900D928150E1F7222311F00E94A21085
:1028E0000E94B71763CC10950095F094E094E11C1A
:1028F000F11C011D111D88CD9094809470946094FA
:10290000611C711C811C911CEDCCB095A09590951B
:1029100081959F4FAF4FBF4F4FCDB095A0959095EC
:1029200081959F4FAF4FBF4F2DCD60EC71EE84E688
:102930009CE4A6962CAD3DAD4EAD5FADA6970E9432
:10294000442C7BCE8DA99EA90E948C0B8B019C01EF
:102950008DA99EA9B901A8010E94FD0E29813A8185
:102960004B815C812D8F3E8F4F8F58A34D815E81AF
:102970006F81788549A35AA36BA37CA369857A8567
:102980008B859C85698F7A8F8B8F9C8F8D859E859B
:10299000AF85B8898D8B9E8BAF8BB88F20911C052E
:1029A00030911D0540911E0550911F05298B3A8BD2
:1029B0004B8B5C8B2091200521CF0F931F9315E447
:1029C0000FE40E94731D982F8F3FE1F02091530573
:1029D000222321F09A30C9F09D30B9F091328CF366
:1029E000892F81568A3168F5E22FF0E0EF5DFA4FCA
:1029F000905290832F5F209353050E94731D982F50
:102A00008F3F21F71F910F910895E22FF0E0EF5DC6
:102A1000FA4F108281E295E00E948805982F8091FC
:102A200055058823B9F010935405943048F591303A
:102A300018F010925305C5CF00935405109253051A
:102A4000C0CFE22FF0E0EF5DFA4F90832F5F20932D
:102A50005305B7CF1093540580E090E00E946421A5
:102A600080E090E00E94662080E090E00E941A1FC3
:102A70001092550581E00E94BD1710925305A1CF19
:102A8000963019F09923A9F2E7CF109254051092CD
:102A9000530597CF60E076E980E090E00E941E1D2C
:102AA000089580E090E0A0E2B2E4809395069093D0
:102AB0009606A0939706B0939806809399069093F4
:102AC0009A06A0939B06B0939C0680939D069093D4
:102AD0009E06A0939F06B093A0068093A1069093B4
:102AE000A206A093A306B093A40686E08093A60650
:102AF00080E090E0A6E9B5E48093A7069093A8064D
:102B0000A093A906B093AA0680E090E0A0EFB3E4FA
:102B10008093AB069093AC06A093AD06B093AE063F
:102B200080E090E0A0E4B2E48093B3069093B40612
:102B3000A093B506B093B6068DEC9CECACECBDE36F
:102B40008093AF069093B006A093B106B093B206FF
:102B500080E090E0A8E4B2E48093B7069093B806D2
:102B6000A093B906B093BA06089580E090E00E9461
:102B70004103873631F08130A9F020E030E0C9010F
:102B8000089585E996E061E070E046E250E00E9439
:102B9000A60320E0892B09F421E081E0282730E01A
:102BA000C901089585E996E061E070E04BE150E0ED
:102BB0000E94A603892B09F380E090E0A0E4B2E430
:102BC0008093B3069093B406A093B506B093B6066F
:102BD00080E090E0A8E4B2E48093B7069093B80652
:102BE000A093B906B093BA0621E030E0C8CF80E0E8
:102BF00090E067E60E94490381E090E065E976E0B5
:102C000046E250E00E946A030895FC018630910577
:102C100009F46DC087309105A4F08830910509F45E
:102C200048C088309105B4F18930910509F47BC022
:102C3000E85EF34009F46AC085E893E00E94B31DA2
:102C400008958430910509F443C0853091059CF4C2
:102C500097FDF2CFEE0FFF1FEE0FFF1FEB56F94F60
:102C600040835183628373830E94F71580E793E06A
:102C70000E94B31D08954093A7065093A806609341
:102C8000A9067093AA060E94F71580E793E00E94B8
:102C9000B31D08954093AF065093B0066093B106FC
:102CA0007093B2060E94F71580E793E00E94B31D6F
:102CB00008954093B3065093B4066093B50670939D
:102CC000B6060E94F71580E793E00E94B31D0895B1
:102CD000CB01BA010E94D82E0E94B12C6093A606A7
:102CE0000E94F71580E793E00E94B31D089540937A
:102CF000AB065093AC066093AD067093AE060E948F
:102D0000F71580E793E00E94B31D0895CB01BA0147
:102D100020E030E040E050E00E94402C8823A9F001
:102D20000E94D8170895DB01CA01BF778093B706C8
:102D30009093B806A093B906B093BA060E94F7150F
:102D400080E793E00E94B31D08950E94DA1708956A
:102D500089E595E00E94B31D82E595E00E94B31DD0
:102D60008FE495E00E94B31D89E495E00E94B31DB5
:102D700060919506709196068091970690919806BD
:102D80000E94791E89E395E00E94B31D83E395E0DC
:102D90000E94B31D6091990670919A0680919B06DE
:102DA00090919C060E94791E83E295E00E94B31DDB
:102DB0008DE195E00E94B31D60919D0670919E0685
:102DC00080919F069091A0060E94791E8DE095E06B
:102DD0000E94B31D87E095E00E94B31D6091A1069B
:102DE0007091A2068091A3069091A4060E94791E7C
:102DF00085EF94E00E94B31D8FEE94E00E94B31D16
:102E00006091A60670E080E090E00E94561E82ED80
:102E100094E00E94B31D8CEC94E00E94B31D60917D
:102E2000A7067091A8068091A9069091AA060E9413
:102E3000791E8EEA94E00E94B31D88EA94E00E9415
:102E4000B31D6091AB067091AC068091AD06909178
:102E5000AE060E94791E8AE894E00E94B31D84E8C1
:102E600094E00E94B31D6091AF067091B00680910E
:102E7000B1069091B2060E94791E80E794E00E940C
:102E8000B31D8AE694E00E94B31D6091B306709171
:102E9000B4068091B5069091B6060E94791E8CE426
:102EA00094E00E94B31D86E494E00E94B31D6091FB
:102EB000B7067091B8068091B9069091BA060E9443
:102EC000791E8EE094E00E94B31D85E094E00E949C
:102ED000B31D0E94DC17AA2797FDA095BA2FBC014D
:102EE000CD010E94561E8CED93E00E94B31D89E92E
:102EF00093E00E94B31D08950E94B515892B09F037
:102F000008950E9451150E94F7150E94A816089571
:102F1000E1E0F1E0808180648083279A3E9A089501
:102F200097FD07C02F988091020180648093020171
:102F300008952F9A80910201806480930201089580
:102F4000E2E0F1E080818F7B8083089535E340E704
:102F500057E1469A232F2A95F1F74698FA013197BF
:102F6000F1F701972FEF8F3F920799F70895EFE65A
:102F7000F0E0808182608083089590E090936E05F8
:102F800080936D05089520916D0530916E05C901FE
:102F900008951F920F920FB60F9211248F9381B351
:102FA000856381BB8F910F900FBE0F901F90189576
:102FB00044980895449A08953C9904C020E030E074
:102FC000C901089588B182958F7080958170282FEE
:102FD00030E0C9010895603020E0720721E08207E7
:102FE00020E0920708F45CC0603020E0720728E01F
:102FF000820720E0920778F1603020E0720720E439
:10300000820720E0920708F451C0603020E0720788
:1030100020E0820721E0920708F46DC0603020E0D4
:10302000720720E0820724E0920708F071C02AE0CE
:1030300096958795779567952A95D1F7FB019B0122
:1030400040E050E08AE0220F331F441F551F8A954D
:10305000D1F795E018C023E0969587957795679509
:103060002A95D1F7FB019B0140E050E0220F331F6E
:10307000441F551F220F331F441F551F220F331F9C
:10308000441F551F92E080918100887F982B909378
:103090008100F0938900E0938800B901CA01089586
:1030A000FB019B0140E050E091E0EDCFB6E096954A
:1030B000879577956795BA95D1F7FB019B0140E01D
:1030C00050E0220F331F441F551F220F331F441F90
:1030D000551F220F331F441F551F220F331F441F3C
:1030E000551F220F331F441F551F220F331F441F2C
:1030F000551F93E0C8CFBB27A92F982F872FFC011E
:10310000A0E0B0E02227382F492F5A2F94E0BBCF00
:10311000EFEFFFEF20E03CEF40E050E095E0B3CF71
:103120009B01AC01203B84E0380780E0480780E049
:10313000580778F460E075E38CE090E00E94EB17AC
:1031400060936F057093700580937105909372057D
:10315000089560E070E788E399E30E947D2FC9013C
:10316000DA01BC01CD01EACF80B3856380BB80B3B7
:103170008A6C80BB81B3856381BB3C9A449AE1E849
:10318000F0E080818F7E8083808188608083E0E8AA
:10319000F0E080818D7F808380818E7F808380813D
:1031A0008F73808380818F7C80831092B00082E057
:1031B0008093B100E0E7F0E080818160808360E788
:1031C00077E180E090E00E949018EFE6F0E08081E7
:1031D0008D7F80831092730510927405109275058F
:1031E000109276057894089580B18071089582B325
:1031F0008170089580916F0090E096958795817019
:10320000089511B882E084B917B81AB81DB89FE8BC
:1032100090BB13BA10920101109204013FEC30935D
:10322000070120EF20930A018CE982B982E285B977
:1032300083E188B91BB819B880E38EB991BB83E2EA
:1032400084BB83E0809302018093050130930801E1
:1032500020930B0108954B9B0CC082E84A9984602F
:103260004899886049998061049980629099806446
:10327000089580E8F3CF109255050E94550D0E94E5
:103280004A050E945D20882341F481E08093550522
:1032900010926E0510926D05089580E090E00E94F6
:1032A00066200E945D20882381F385E48093540585
:1032B00008951F9389B1182F127081FF06C01092D4
:1032C000550585E695E00E94B31D812F1F91089555
:1032D000FF920F931F93CF93DF93EC0181B385731C
:1032E000886081BB209719F145E3F42E00E614E0D5
:1032F00013C00E945D20882399F481B38A7C846086
:1033000081BB8F2D8A95F1F781B38A7C81BBC8017F
:103310000197F1F7219759F00E945919882349F331
:1033200080E0DF91CF911F910F91FF90089581E090
:10333000DF91CF911F910F91FF9008951F9389B155
:10334000182F117080FF06C0109255058CE795E08C
:103350000E94B31D812F1F910895FF920F931F9319
:10336000CF93DF93EC0181B3857381BB2097D9F0B4
:1033700055E3F52E00E614E00FC081B38A7C84602B
:1033800081BB8F2D8A95F1F781B38A7C81BBC801FF
:103390000197F1F7219739F00E949E19882369F768
:1033A0000E945D20EACF81E0DF91CF911F910F91C4
:1033B000FF9008951F9389B1182F147082FF06C0E3
:1033C0001092550583E995E00E94B31D812F1F914E
:1033D0000895FF920F931F93CF93DF93EC0181B376
:1033E0008573826081BB209719F165E3F62E00E6B4
:1033F00014E013C00E945D20882399F481B38A7C75
:10340000816081BB8F2D8A95F1F781B38A7C81BB66
:10341000C8010197F1F7219759F00E94DA19882322
:1034200049F380E0DF91CF911F910F91FF900895B4
:1034300081E0DF91CF911F910F91FF9008951F932D
:1034400089B1182F187083FF06C0109255058AEABB
:1034500095E00E94B31D812F1F910895FF920F9355
:103460001F93CF93DF93EC0181B3857381BB2097CA
:1034700019F175E3F72E00E614E013C00E945D20F9
:10348000882399F481B38A7C816081BB8F2D8A95D2
:10349000F1F781B38A7C81BBC8010197F1F72197CD
:1034A00059F00E941F1A882349F380E0DF91CF91E1
:1034B0001F910F91FF90089581E0DF91CF911F91AF
:1034C0000F91FF90089507C083B7816083BF8895EF
:1034D00083B78E7F83BF0E94B90B892BA9F708950C
:1034E0001F920F920FB60F920BB60F921124EF920C
:1034F000FF920F931F932F933F934F935F936F937D
:103500007F938F939F93AF93BF93CF93DF93EF936B
:10351000FF9380915505882349F189B190E08F7020
:103520009070892B61F1109255058CE480935405BD
:1035300080916F008D7F80936F00FF91EF91DF91FD
:10354000CF91BF91AF919F918F917F916F915F913B
:103550004F913F912F911F910F91FF90EF900F90FE
:103560000BBE0F900FBE0F901F90189588E48093AC
:10357000540580916F008D7F80936F00DECF0E9495
:103580005D208823D1F680916D0590916E05892B81
:10359000A1F691B38091BB068A7C9573892B81BB80
:1035A00081B38A7C90915805892B81BB8091A606B6
:1035B000880F845081958093B200B89A81E090E0A2
:1035C00090936E0580936D057894E0915605F09187
:1035D0005705309709F4CBC180898093BB061092C0
:1035E00058052091590530915A0540915B0550913D
:1035F0005C0580819181A281B381280F391F4A1F08
:103600005B1F2093590530935A0540935B055093F7
:103610005C0512161306140615060CF046C181E06F
:1036200080935805E188F288038914892E193F098F
:10363000400B510B2093590530935A0540935B057D
:1036400050935C0520915D0530915E0540915F05CA
:103650005091600584819581A681B781280F391F1B
:103660004A1F5B1F20935D0530935E0540935F0505
:103670005093600512161306140615068CF48091FB
:1036800058058460809358052E193F09400B510B53
:1036900020935D0530935E0540935F055093600570
:1036A0002091610530916205409163055091640558
:1036B00080859185A285B385280F391F4A1F5B1F1E
:1036C0002093610530936205409363055093640530
:1036D00012161306140615068CF4809158058061A5
:1036E000809358052E193F09400B510B209361051B
:1036F00030936205409363055093640520916505FE
:1037000030916605409167055091680584859585DF
:10371000A685B785280F391F4A1F5B1F20936505B3
:10372000309366054093670550936805121613069B
:10373000140615068CF48091580580628093580514
:103740002E193F09400B510B2093650530936605F8
:1037500040936705509368058091690590916A05CB
:10376000A0916B05B0916C050196A11DB11D8093D0
:10377000690590936A05A0936B05B0936C058E154F
:103780009F05A007B10708F095C08091580595E303
:103790008927809358058091BB069AEC89278093EE
:1037A000BB0620916F0530917005409171055091D5
:1037B00072058091730590917405A0917505B09183
:1037C0007605280F391F4A1F5B1F2093730530931E
:1037D0007405409375055093760521380AE130074A
:1037E00006E0400700E0500708F45AC020583A416C
:1037F00046405040209373053093740540937505FF
:1038000050937605E0915605F0915705309709F4ED
:1038100047C02091690530916A0540916B05509130
:103820006C05EF5BFF4F80819181A281B381E154F0
:10383000F040281739074A075B0708F042C0FD9699
:1038400080819181A281B381FD972091770530918C
:1038500078054091790550917A05280F391F4A1F44
:103860005B1F20937705309378054093790550933B
:103870007A0585899689A789B08D82179307A40751
:10388000B50750F48093770590937805A093790558
:10389000B0937A059C01AD01CA01B9010E9490184C
:1038A00010926E0510926D0548CEE188F28803896A
:1038B0001489C8CE10925705109256050E94A00B8D
:1038C00064CFEB5BFF4F80819181A281B381E5548E
:1038D000F04082179307A407B50770F5FD96608145
:1038E000718182819381FD972091770530917805D0
:1038F0004091790550917A056217730784079507FF
:1039000080F479018A01E61AF70A080B190BE09294
:103910007705F09278050093790510937A05A80150
:10392000970181AD92ADA3ADB4AD281739074A0711
:103930005B0708F0B1CFA6CF258936894789508D1E
:103940008091770590917805A0917905B0917A05DD
:10395000281739074A075B0709F4A2CF2093770598
:10396000309378054093790550937A0595CF0E945E
:10397000B90BEC019093570580935605009709F415
:1039800052C06DA97EA98FA998AD609377057093F9
:1039900078058093790590937A05109273051092BB
:1039A000740510927505109276050E949018898909
:1039B0009A89AB89BC89B595A79597958795B09558
:1039C000A095909581959F4FAF4FBF4F809359051C
:1039D00090935A05A0935B05B0935C0580935D05B9
:1039E00090935E05A0935F05B09360058093610599
:1039F00090936205A0936305B09364058093650579
:103A000090936605A0936705B093680510926905C9
:103A100010926A0510926B0510926C05E0915605A4
:103A2000F0915705D9CD80916F008D7F80936F0005
:103A300088E58093540510925805A7CEEF92FF9227
:103A40000F931F937B018C0122E030E040E050E0B7
:103A50000E949F2F205C3D4B404F5F4FCA01B90130
:103A6000A80197010E947D2FC901DA010197A109E0
:103A7000B109292F3A2F4B2F55270196A11DB11DB2
:103A80002093C50081508093C400E0ECF0E0808179
:103A90008D7F8083E1ECF0E0808180618083808194
:103AA000886080838081806880831F910F91FF9060
:103AB000EF900895982F8091C00085FFFCCF9093E0
:103AC000C600089580917B0590917C0580509F4FA2
:103AD00020917D0530917E05821B930B60E071E0A3
:103AE0000E946A2F089540917D0550917E05809136
:103AF0007B0590917C058417950789F0FA01E158C0
:103B0000FA4F2081CA01019660E071E00E946A2F9D
:103B100090937E0580937D0530E0C90108952FEFD5
:103B20003FEFC901089580917D0590917E059093A6
:103B30007C0580937B050895982F8091C00085FFB8
:103B4000FCCF9093C6000895FC019081992351F019
:103B500031968091C00085FFFCCF9093C600908184
:103B60009923B1F70895FC019491992351F031966E
:103B70008091C00085FFFCCF9093C600949199235B
:103B8000B1F708952F923F924F925F926F927F927A
:103B90008F929F92AF92BF92CF92DF92EF92FF925D
:103BA0000F931F93DF93CF93CDB7DEB7A0970FB6D8
:103BB000F894DEBF0FBECDBF6B017C0129013A0135
:103BC000611571058105910509F450C08824992477
:103BD00054011E010894211C311C8101080D191D7E
:103BE000C701B601A30192010E947D2FF8016083F5
:103BF0000894811C911CA11CB11CC701B601A30132
:103C000092010E947D2FC901DA016C017D01C1146E
:103C1000D104E104F10409F781149104A104B10471
:103C200061F19101280D391DD501C4010197A10948
:103C3000B109AC0148195909FA01E20FF31FE081FB
:103C4000EA3090F4E05D8091C00085FFFCCFE09306
:103C5000C600215030402216330679F0FA01E20FF7
:103C6000F31FE081EA3070F3E95CEDCF8091C00092
:103C700085FFFCCF80E38093C600A0960FB6F89432
:103C8000DEBF0FBECDBFCF91DF911F910F91FF908F
:103C9000EF90DF90CF90BF90AF909F908F907F90EC
:103CA0006F905F904F903F902F9008959B01AC01D3
:103CB00097FD09C0CA01B9012AE030E040E050E0B8
:103CC0000E94C21D08958091C00085FFFCCF8DE247
:103CD0008093C60050954095309521953F4F4F4FAA
:103CE0005F4FE8CF22E030E040E050E00E94C21D8C
:103CF0000895EF92FF920F931F93DF93CF9300D01D
:103D00000F92CDB7DEB7AE014F5F5F4F0E94422EDC
:103D10007B018C0169817A818B819C810E94AC2C12
:103D20000E94561E8091C00085FFFCCF8EE28093DA
:103D3000C600C801B70120E030E04AE754E40E9421
:103D4000752E0E94D82E0E94AC2C97FD0DC00E94AB
:103D5000561E0F900F900F900F90CF91DF911F91F3
:103D60000F91FF90EF9008959095809570956195D3
:103D70007F4F8F4F9F4FEBCF1F920F920FB60F9237
:103D80000BB60F9211242F933F934F935F936F9332
:103D90007F938F939F93AF93BF93EF93FF93409144
:103DA000C600E0917B05F0917C05CF01019660E0B3
:103DB00071E00E946A2F9C0180917D0590917E05A3
:103DC0002817390739F0E158FA4F408330937C05C2
:103DD00020937B054F3F99F0FF91EF91BF91AF91F9
:103DE0009F918F917F916F915F914F913F912F9113
:103DF0000F900BBE0F900FBE0F901F901895F89468
:103E00000E94DA1710925505E7CF879AE7E0F1E0B4
:103E100080818160808380818260808380818460F2
:103E2000808380818860808380818064808308951E
:103E300080E00895CF93DF93EC01809155058823AE
:103E400019F4DF91CF91089581E00E94BD1720976A
:103E500029F180910801816080930801C330D10568
:103E600009F446C0C430D1058CF5C130D10509F440
:103E70006DC0229709F466C0809108018E7F8093FF
:103E8000080128EE33E040E951E0CA010197F1F75B
:103E900021503040D1F7DF91CF91089580910801F2
:103EA00081608093080180910801826080930801FD
:103EB00080910801846080930801809108018860E6
:103EC0008093080180E00E94BD17BBCFC530D105AB
:103ED00009F445C0C530D10504F1269769F68091F3
:103EE0000801826080930801809108018B7F1DC0CA
:103EF000809108018D7F8093080180910801846082
:103F00008093080180910801877F80930801809148
:103F100008018E7F80930801AFCF809108018D7FCB
:103F2000809308018091080184608093080180914A
:103F30000801886080930801809108018E7F80933A
:103F400008019ACF809108018D7FCCCF8091080124
:103F50008D7F80930801809108018B7FD1CF809164
:103F60000801826080930801809108018B7F809313
:103F7000080180910801877F809308017DCF1F93FE
:103F8000182F80915505882319F483E61F91089511
:103F900081E090E00E946620882319F485E01F915B
:103FA0000895812F90E00E941A1F80E090E00E9407
:103FB0001A1F80E090E00E94662080E01F91089523
:103FC0001F93182F80915505882319F483E61F91BC
:103FD000089581E090E00E946620882319F485E02E
:103FE0001F910895812F90E00E94052080E090E0CD
:103FF0000E94662080E991E00197F1F780E090E06F
:104000000E94052080E01F910895CF93DF93EC017B
:1040100080915505882371F0CF3FD10539F00E947A
:104020008C21882359F08C2F0E94BF1F80E0DF91E4
:10403000CF91089583E6DF91CF9108958C2F0E9450
:10404000E01F80E0DF91CF9108958091550588238E
:1040500011F483E608950E945D208823A1F40E9454
:10406000C62181E090E00E94662081E090E00E94FD
:1040700064210E948621813059F080E090E00E9406
:10408000662080E0089580E090E00E946620E7CFFF
:1040900080E090E00E94662081E00895EAE0F1E08F
:1040A000808180628083EBE0F1E0808180628083A8
:1040B0003898409A3998419A089580917F060895DA
:1040C00086B190E09695879581700895CF93DF93A0
:1040D000EC0180915505882321F10E94FA1888236C
:1040E000E1F781E00E94BD172097F1F080910B016C
:1040F0008F7D80930B0120ED37E040E951E0CA014C
:104100000197F1F721503040D1F7C0937F068C2FF3
:1041100090E08C179D0781F084EB95E00E94B31D21
:1041200080E0DF91CF91089580910B0180628093B0
:104130000B0120ED37E0E1CF80E00E94BD1781E068
:10414000DF91CF91089525982D9A3C98449A6998CB
:10415000719A9D98A59AA4E0B1E08C918E7F8C9382
:10416000E5E0F1E08081816080838C918F7E8C938B
:10417000808180618083A1E0B1E08C918E7F8C93FF
:10418000E2E0F1E08081816080838C918D7F8C936F
:10419000808182608083E0E9F0E0808182608083BA
:1041A0008CE790E09093990080939800109295008E
:1041B0001092940084E080939100E1E7F0E0808128
:1041C0008260808308958CB18295869587708095F2
:1041D0008170089582B382958695877080958170ED
:1041E00008958CB182958F7080958170089580912B
:1041F0000301869580958170089586B182958F70B0
:104200008095817008958091000180958170089556
:104210008091030180958170089583B18295869580
:1042200087708095817008958091000186958095B2
:10423000817008951F920F920FB60F9211240F9064
:104240000FBE0F901F9018951D9B20C080910001FC
:1042500080FF0BC0809181068130D9F0349B0EC065
:10426000809180068130E1F0089581E0809381069D
:1042700081E090E00E9464213499F2CF81E0809344
:10428000800681E090E00E94662008950E94350B30
:10429000DDCF1092810680E090E00E946421DECFA5
:1042A0001092800680E090E00E9466200895579862
:1042B0005F9AEAE0F1E0808180618083EBE0F1E0E9
:1042C00080818061808308958130910591F0892BF0
:1042D000A1F480910B01806180930B0128E833E108
:1042E00040E951E0CA010197F1F721503040D1F780
:1042F000089580915505882341F080910B018F7EB0
:1043000080930B0128E833E1EBCF089589B18095C4
:10431000881F8827881F0895AF92BF92CF92DF929F
:10432000EF92FF920F931F9380915505882351F4CC
:1043300083E61F910F91FF90EF90DF90CF90BF9099
:10434000AF90089581E090E00E94642163EC73EDEA
:1043500081E491E42AE13BE84DE950E40F2EF0E0DE
:10436000EF2EF0E0FF2EF0E80F2FFFEB1F2FF02DC8
:10437000570168010E94FE030E94FA188823E1F7A2
:1043800080E991E00197F1F780E0D3CF8F929F927F
:10439000AF92BF92CF92DF92EF92FF920F931F9353
:1043A00080915505882361F483E61F910F91FF905A
:1043B000EF90DF90CF90BF90AF909F908F90089537
:1043C0000E945D20882309F020C163EC73ED81E435
:1043D00091E42AE13BE84DE950E40F2EF0E0EF2EA6
:1043E000F0E0FF2EF0E80F2FFFEB1F2FF02D57010D
:1043F00068010E94FE030E94FA188823E1F780E911
:1044000091E00197F1F781E090E00E94642128E8B3
:1044100033E140E951E0CA010197F1F72150304002
:10442000D1F781E090E00E946620882309F4E7C07C
:1044300020E137E240E951E0CA010197F1F721504C
:104440003040D1F799B080E090E00E94642180E094
:1044500090E00E946620882309F4C8C00E945D2075
:104460008823E1F76DE37BE98DE491E42CED38E6F8
:1044700044E950E40F2EF0E0EF2EF0E0FF2EF0E8DC
:104480000F2FFFEB1F2FF02D570168010E94FE0335
:104490000E94FA188823E1F780E991E00197F1F78B
:1044A00020EA3FE040E951E0CA010197F1F72150CD
:1044B0003040D1F781E090E00E946620882309F423
:1044C00095C00E945D208823E1F320E137E240E9B6
:1044D00051E0CA010197F1F721503040D1F781E056
:1044E00090E00E941A1F20E43FE140E951E0CA0138
:1044F0000197F1F721503040D1F7882497FC6BC029
:104500008824839428E833E140E951E0CA01019707
:10451000F1F721503040D1F780E090E00E94662012
:10452000882309F463C00E945D208130E1F328E90B
:104530003AE340E951E0CA010197F1F721503040D8
:10454000D1F763EC73ED81E491E42AE13BE84DE9B6
:1045500050E40F2EF0E0EF2EF0E0FF2EF0E80F2FEA
:10456000FFEB1F2FF02D570168010E94FE030E94F0
:10457000FA188823E1F780E991E00197F1F781E0EB
:1045800090E00E94642128E833E140E951E0CA014B
:104590000197F1F721503040D1F781E090E00E947F
:1045A0006620882361F120E137E240E951E0CA0149
:1045B0000197F1F721503040D1F74F9919C0882069
:1045C00049F180E090E00E94662080E090E00E9447
:1045D000642185E0EACE80E090E00E941A1F80E02E
:1045E00090E00E946620882309F09DCF85E0DDCE13
:1045F00081E0881679F080E090E00E94662080E0FB
:1046000090E00E94642185E0D0CE80E090E00E949E
:104610006620DBCE80E090E00E94642180E090E0A4
:104620000E946620882311F30E945D208823E1F711
:10463000BCCE8F929F92AF92BF92CF92DF92EF92B9
:10464000FF920F931F93CF93DF938091550588239B
:1046500071F483E6DF91CF911F910F91FF90EF905E
:10466000DF90CF90BF90AF909F908F9008950E9461
:104670005D20882309F04AC088249924C0E9D1E04C
:104680000E9429308C010E9429306C01C8016CE025
:1046900070E00E946A2FAA2797FDA095BA2FBC014F
:1046A000CD010E94DF2C7B018C01C6016EE070E021
:1046B0000E946A2FAA2797FDA095BA2FBC01CD01B1
:1046C0000E94DF2C9B01AC01C801B7010F2EF0E066
:1046D000EF2EF0E0FF2EF0E80F2FFFEB1F2FF02D55
:1046E000570168010E94FE0328E833E1CE010197DB
:1046F000F1F721503040D1F70894811C911C88ECCF
:104700008816910409F0BCCF80E0A4CF80E090E04F
:104710000E946620B1CF4F9905C08AEC95E00E94B7
:10472000B31D089586EC95E00E94B31D0895E7E05F
:10473000F1E0808180688083089580915505882309
:1047400041F10E94FA188823E1F781E00E94BD1729
:10475000809108018F778093080120ED37E040E9D0
:1047600051E0CA010197F1F721503040D1F7809113
:10477000080180688093080120ED37E040E951E0AE
:10478000CA010197F1F721503040D1F780E00E9433
:10479000BD1708950E945D20882309F03AC00E9449
:1047A000FA188823E1F70E94C317892BE1F781E00B
:1047B0000E94BD1728EE33E040E951E0CA0101979D
:1047C000F1F721503040D1F781E090E00E9466205F
:1047D00024EC39E040E951E0CA010197F1F721509A
:1047E0003040D1F780E090E00E94642180E090E0CA
:1047F0000E94662028E833E140E951E0CA010197B0
:10480000F1F721503040D1F780E00E94BD1780E0E1
:10481000089585E008950E94FA188823E1F70E9420
:10482000C317892BE1F70E945D20882311F085E0F2
:10483000089581E00E94BD170E949D2381E090E0D1
:104840000E94642181E090E00E94662028E833E124
:1048500040E951E0CA010197F1F721503040D1F70A
:1048600080E090E00E94662028E833E140E951E0D2
:10487000CA010197F1F721503040D1F780E00E9442
:10488000BD1780E008959093830680938206089573
:10489000E0918206F091830619950895FC016083EA
:1048A00080E4848380E185830895EF92FF920F93E3
:1048B0001F93DF93CF9300D00F92CDB7DEB77C016B
:1048C0000E943829C70160E040E024E030E08E011A
:1048D0000F5F1F4F0E94DC293C8120E04B8150E09C
:1048E000242B352BF701358B248B90E00F900F9004
:1048F0000F900F90CF91DF911F910F91FF90EF904C
:104900000895DF93CF93CDB7DEB762970FB6F894D3
:10491000DEBF0FBECDBFBE016F5F7F4F0E94C129BA
:1049200062960FB6F894DEBF0FBECDBFCF91DF9178
:1049300008952C9882608EBD0DB407FEFDCF6EBD2C
:104940000DB407FEFDCF2C9A08952C9882608EBD81
:104950000DB407FEFDCF662389F06150FA0170E0C7
:104960006F5F7F4F640F751F80818EBD0DB407FE92
:10497000FDCF3196E617F707B9F7AF012C9ACA01B8
:1049800008952C988EBD0DB407FEFDCF1EBC0DB44E
:1049900007FEFDCF2C9A8EB508952C988EBD0DB4D0
:1049A00007FEFDCF662389F06150FA0170E06F5F6A
:1049B0007F4F640F751F1EBC0DB407FEFDCF8EB573
:1049C0008193E617F707B9F7AF012C9ACA0108954A
:1049D00080918406089588EF0E94C124807C8034F1
:1049E00081F0813428F08038C9F0803C31F008959E
:1049F000882309F510928406089581E08093840647
:104A0000089588ED0E94C12481FD0DC088ED6BECF6
:104A10000E94992483E080938406089588ED0E9483
:104A2000C12481FDF3CF88ED69EC0E94992482E0D6
:104A300080938406089508951F9388EC0E94C124F2
:104A400086FD0DC010E085FF03C00E94EB241062BC
:104A500088EC612F0E949924812F1F91089510E402
:104A6000F2CF80EB0E94C12408951F938091020130
:104A700086FF0AC010E08091020185FD02C00E94FD
:104A80003125812F1F9108950E941C25182FF3CFE7
:104A90001F9388E760E20E94992488E760E00E9403
:104AA00099246AE070E080E090E00E94472610E0E0
:104AB00002C0115041F088E60E94C12480FFF9CF66
:104AC00081E01F91089580E01F91089588E86AE1D0
:104AD0000E9499240E9448258823E1F088ED61ED29
:104AE0000E94992480ED60E60E94992488EE64E09B
:104AF0000E94992488EE0E94C12482FFFBCF0E946D
:104B0000EB2488EC60E20E94992480E861E00E9436
:104B1000992408958FEC95E00E94B31DDFCF0E9489
:104B2000A125E1E0F1E080818F798083249A808162
:104B3000806180832C9AE2E0F1E080818061808353
:104B4000089584B1876084B9239885B1897F85B938
:104B5000289A8CB580618CBD8CB580648CBD08951D
:104B60001F920F920FB60F9211242F933F938F93A2
:104B70009F93AF93BF938091890690918A06A091ED
:104B80008B06B0918C0630918F060196A11DB11D48
:104B9000232F2D5F2D3720F02D570196A11DB11D1C
:104BA00020938F068093890690938A06A0938B06A4
:104BB000B0938C068091850690918606A091870619
:104BC000B09188060196A11DB11D80938506909332
:104BD0008606A0938706B0938806BF91AF919F91F8
:104BE0008F913F912F910F900FBE0F901F901895AE
:104BF0008FB7F8942091890630918A0640918B06F0
:104C000050918C068FBF7894B901CA010895AF9274
:104C1000BF92CF92DF92EF92FF920F931F93A090DB
:104C20008506B0908606C0908706D090880686B527
:104C3000DC2CCB2CBA2CAA24A80EB11CC11CD11C74
:104C4000AA0CBB1CCC1CDD1CAA0CBB1CCC1CDD1C88
:104C5000AA0CBB1CCC1CDD1CAA0CBB1CCC1CDD1C78
:104C6000AA0CBB1CCC1CDD1CAA0CBB1CCC1CDD1C68
:104C70009501A60160E070E080E090E01F910F9147
:104C8000FF90EF90DF90CF90BF90AF900895EF929C
:104C9000FF920F931F937B018C018FB7F894409183
:104CA000890650918A0660918B0670918C068FBFA1
:104CB00078942FB7F8948091890690918A06A091F4
:104CC0008B06B0918C062FBF7894841B950BA60B96
:104CD000B70BE816F9060A071B0758F71F910F9143
:104CE000FF90EF900895809184009091850020912D
:104CF0008D0630918E0640E050E0A901332722272F
:104D0000A0E0B0E0280F391F4A1F5B1F220F331F9E
:104D1000441F551F220F331F441F551F2C7F5F70E8
:104D2000B901CA0108951F920F920FB60F92112474
:104D30008F939F9380918D0690918E06019690930C
:104D40008E0680938D069F918F910F900FBE0F90CE
:104D50001F901895E1E8F0E0808182608083808177
:104D600081608083EFE6F0E0808181608083089538
:104D700078940E94AA2685B5826085BD85B581603C
:104D800085BDEEE6F0E080818160808308958091AA
:104D900000020895809300020895982F843040F413
:104DA00086E1989F900111242354394FC901089539
:104DB00020E030E0C90108952F923F924F925F9218
:104DC0006F927F928F929F92AF92BF92CF92DF921B
:104DD000EF92FF920F931F93DF93CF9300D0CDB745
:104DE000DEB7FC015B012A01922E832E80EE6081EA
:104DF0000E9499240E94F8256B017C0188E893E1C8
:104E0000A0E0B0E0C80ED91EEA1EFB1ED501129626
:104E10001C911123C9F40EEF10E0C8010F900F9000
:104E20000F90CF91DF911F910F91FF90EF90DF9046
:104E3000CF90BF90AF909F908F907F906F905F903A
:104E40004F903F902F90089588EEF50164810E9465
:104E500099244114510409F474C0212E3324892D5E
:104E6000982D9C01390142012414350408F467C0CF
:104E7000898280E1682DA3010E94A52488E3682D22
:104E80000E949924D5016C91606280EF0E94992460
:104E900088EC0E94C12487FFFBCF88EC60E80E9469
:104EA000992488EF0E94C124182F1F70E1F100E0BF
:104EB0001B821A820E94F8256C157D058E059F05C0
:104EC00090F5143029F01E30A1F1012F10E0A5CF8C
:104ED000EA81FB813196FB83EA83E050FD4709F4C8
:104EE0003CC088E360E00E94992480E1D3016C918A
:104EF0000E94992488E369810E949924F5016081C8
:104F0000606280EF0E94992488EC0E94C12487FF90
:104F1000FBCF88EC60E80E94992488EF0E94C124AE
:104F2000182F1F7039F648185908E1F0680C791CE1
:104F30009ACF0F5F0330A9F60EE010E06ECF41016B
:104F400097CF00E010E088EF0E94C12485FD08C0E3
:104F500080E4D50114968C9360CF04E010E05DCF1F
:104F600080E8F7CF012F10E0EECFFC01DB019A01C2
:104F70003E96BF01AD010E94DC2608957F928F927C
:104F80009F92AF92BF92CF92DF92EF92FF920F93D8
:104F90001F93CF93DF93782E5B014A010E94F8257F
:104FA0007B018C0188E893E1A0E0B0E0E80EF91EF7
:104FB0000A1F1B1FDD24C0E0D0E0CC240E94F8258E
:104FC0006E157F058007910770F5D5016C916729F3
:104FD00080EF0E9499240E94F8256E157F058007B6
:104FE000910708F041C088EC0E94C12487FFF3CFED
:104FF00088EC60E80E949924DD240E94F8256E1553
:105000007F058007910748F488EF0E94C1249FE044
:10501000D92ED822B1E0DB1681F3E4E0DE16E1F010
:10502000FEE0DF1689F02D2D30E0C901DF91CF9130
:105030001F910F91FF90EF90DF90CF90BF90AF90B6
:105040009F908F907F900895C39483E0C81609F0D5
:10505000B5CF2EE030E0E9CF2196C815D90509F08B
:10506000ADCF24E030E0E1CF2FEF30E0DECF6F9224
:105070007F928F929F92AF92BF92CF92DF92EF92E8
:10508000FF920F931F93CF93DF93FC017B013A01B3
:1050900069015801DB0112968D909C90139780EE68
:1050A00060810E94992488EEF70165810E9499240D
:1050B000C0E0D0E080E0B701A5010E94BE27892BA7
:1050C000D1F588EC0E94C12482FF38C080E30E94A1
:1050D000C124682F082F10E088E0A6010E94CD248B
:1050E0006C0188EC64E00E949924C00FD11F081560
:1050F000190518F0C615D705E8F288EF0E94C124FB
:1051000084FF15C080E2D70115968C939E01C901DA
:10511000DF91CF911F910F91FF90EF90DF90CF9093
:10512000BF90AF909F908F907F906F90089580E197
:10513000F7018583EBCF2FEF3FEFE9CF2EEF3FEF66
:10514000E6CF0F931F93FC01662351F480E886831A
:10515000CF013296BF010E94DC261F910F91089566
:1051600080E28783CF013296BF0100E01DE70E94F5
:1051700037281F910F9108955F926F927F928F92BF
:105180009F92AF92BF92CF92DF92EF92FF920F93D6
:105190001F93DF93CF93CDB7DEB728970FB6F89460
:1051A000DEBF0FBECDBF3C01562E142F822E80EEE7
:1051B000F30160810E94992459821A83902F80E024
:1051C0009924882999299C838B83FE82ED82D88635
:1051D000CF8280E268E0AE014F5F5F4F0E94A5245E
:1051E00083010E5F1F4F80E1B80140E05DE70E9440
:1051F000BE278823C9F02FEF3FEFC90128960FB6CD
:10520000F894DEBF0FBECDBFCF91DF911F910F91FC
:10521000FF90EF90DF90CF90BF90AF909F908F90D6
:105220007F906F905F900895F52CFF1CFF24FF1C6A
:10523000A114B10431F0C3016F2DA60195010E94A4
:10524000A128FF2059F080EAB80140E05DE70E9404
:10525000BE27882351F420E030E0CFCF80E8B801AA
:1052600040E05DE70E94BE27F4CF2DEF3FEFC5CFB2
:10527000AF92BF92CF92DF92EF92FF920F93262FC1
:1052800060E049E000E0EE24FF24CC24DD24AA24E1
:10529000BB240E94BC280F91FF90EF90DF90CF902D
:1052A000BF90AF900895AF92BF92CF92DF92EF92EE
:1052B000FF920F93262F60E045E000E0EE24FF24EC
:1052C000CC24DD24AA24BB240E94BC280F91FF908B
:1052D000EF90DF90CF90BF90AF9008954F925F9284
:1052E0006F927F928F929F92AF92BF92CF92DF92F6
:1052F000EF92FF920F931F93CF93DF934C01162FE2
:105300003A01E90160E846E0212F02E0EE24FF24A3
:1053100034E0C32ED12C5E010E94BC28892BA1F061
:105320002FEF3FEFC901DF91CF911F910F91FF90B8
:10533000EF90DF90CF90BF90AF909F908F907F9035
:105340006F905F904F9008959B8180E02A81422E5C
:105350005524482A592A6414750408F42301C40109
:1053600060E846E0212F02E0EE24FF2462015E01A6
:105370000E94BC28892B11F49201D4CF2EEF3FEF6D
:10538000D1CFAF92BF92CF92DF92EF92FF920F9365
:105390005B0160E846E020E001E0EE24FF2452E1FA
:1053A000C52ED12C0E94BC280F91FF90EF90DF906A
:1053B000CF90BF90AF9008952F923F924F925F92FF
:1053C0006F927F928F929F92AF92BF92CF92DF9215
:1053D000EF92FF920F931F93DF93CF930F92CDB76E
:1053E000DEB73C01362E242E49012801198260E8DF
:1053F00046E0232D03E0E22CFF2471E0C72ED12CE0
:105400005E010894A11CB11C0E94BC2897FF17C024
:105410002FEF3FEFC9010F90CF91DF911F910F91B7
:10542000FF90EF90DF90CF90BF90AF909F908F90C4
:105430007F906F905F904F903F902F900895C9801C
:105440008C2D90E08816990680F1C30160E846E053
:10545000232D03E0E22CFF24DD2452010E94BC280E
:1054600097FD26C08981282F30E0C901029797FD5A
:1054700022C0959587958983882301F1B201F201B5
:1054800020E030E0482F50E02F5F3F4F8281DB016A
:105490008D93BD013296DA0124173507ACF3A40DC4
:1054A000B51D1C9220E030E0B5CFC82C8982CDCF4D
:1054B0002EEF3FEFAFCFC9010197DBCFA82FB0E0B0
:1054C000EECF0F931F93CF93DF93FC01DB01EA0133
:1054D000222371F400E01DE7CF013896BF01AD0132
:1054E0009E010E943728DF91CF911F910F9108955F
:1054F00001E010E0F1CF0E948F250E94662581E136
:10550000809300021092BE061092D4061092EA0612
:105510001092BD068FEB96E060E00E944E24089545
:105520001F93DF93CF93CDB7DEB762970FB6F89492
:10553000DEBF0FBECDBF0E9435250E94E82481301A
:1055400009F444C08130A0F410910002812F807FC3
:105550008031C1F081E1809300028091D4068823DC
:1055600009F0CEC00E947B2A82E18093000231C004
:10557000843008F041C010910002812F807F80317B
:1055800009F47EC01034E1F1113468F1103609F4E9
:1055900056C0103709F499C01035D9F488EC0E9430
:1055A000C12486FF16C00E94F825209191063091F3
:1055B00092064091930650919406261737074807A4
:1055C000590738F480E68093000203C083E180939A
:1055D000000262960FB6F894DEBF0FBECDBFCF912A
:1055E000DF911F910895103209F45BC0103309F464
:1055F0003FC0113171F7B1CF10910002103421F684
:1056000088EE0E94C12480FDE4CF88ED0E94C12471
:10561000682F686088ED0E94992480E580930002DD
:105620000E94F8256C5E7F4F8F4F9F4F60939106CD
:10563000709392068093930690939406CACF88E065
:1056400090E09093C2068093C1068DEB96E0BE0178
:105650006F5F7F4F0E94C129882309F04BC0888566
:105660008093C1061092C20680E780930002B1CFFA
:1056700088EE61E00E94992480E480930002A9CF23
:105680000E94F82568537F4F8F4F9F4F609391067C
:1056900070939206809393069093940680E2809391
:1056A00000020E94F82520919106309192064091C7
:1056B000930650919406261737074807590708F0B4
:1056C00088CF80E38093000284CF8091D406882322
:1056D000E9F089EE96E062E00E9448248EEF809324
:1056E000900680EA8093000274CF83ED96E062E03A
:1056F0000E9448241093900680EA8093000269CFAC
:1057000083ED96E061E00E9448242CCF81E08093F5
:10571000D3068093D40685ED96E060E00E944E2487
:105720008DEB96E061E00E9453298823F1F683ED2A
:1057300096E060E00E94482480E98093000249CF0F
:105740005058BB27AA270ED011C202D230F007D280
:1057500020F031F49F3F11F41EF4D2C10EF4E09515
:10576000E7FB9FC1E92F13D280F3BA1762077307D3
:105770008407950718F071F49EF542C20EF4E09587
:105780000B2EBA2FA02D0B01B90190010C01CA01FB
:10579000A0011124FF27591B99F0593F50F4503EA6
:1057A00068F11A16F040A22F232F342F4427585F98
:1057B000F3CF469537952795A795F0405395C9F7B0
:1057C0007EF41F16BA0B620B730B840BBAF0915068
:1057D000A1F0FF0FBB1F661F771F881FC2F70EC007
:1057E000BA0F621F731F841F48F4879577956795DA
:1057F000B795F7959E3F08F0B3CF9395880F08F0C3
:105800009927EE0F979587950895DF93DD27B92F98
:10581000BF7740E85FE31616170648075B0710F4EA
:10582000D92FF9D19F938F937F936F9323D3ECE17B
:10583000F2E069D19BD12F913F914F915F9161D25D
:10584000DD2349F09058A2EA2AED3FE049EC5FE3FE
:10585000D0785D2787DFDF9189C1BBD180F09F378A
:1058600040F491110EF4CDC160E070E080E89FE358
:10587000089526F01B16611D711D811D18C132C1CE
:10588000ECD008F481E008950CD070C168D140F0EC
:105890005FD130F021F45F3F19F003C15111B1C164
:1058A0002FC175D198F39923C9F35523B1F3951BF3
:1058B000550BBB27AA2762177307840738F09F5F31
:1058C0005F4F220F331F441FAA1FA9F333D00E2EA0
:1058D0003AF0E0E830D091505040E695001CCAF70D
:1058E00029D0FE2F27D0660F771F881FBB1F2617D2
:1058F00037074807AB07B0E809F0BB0B802DBF01A5
:10590000FF2793585F4F2AF09E3F510568F0C9C0AA
:1059100078C15F3FECF3983EDCF386957795679509
:10592000B795F7959F5FC9F7880F911D9695879555
:1059300097F90895E1E0660F771F881FBB1F621774
:1059400073078407BA0720F0621B730B840BBA0B32
:10595000EE1F88F7E095089504D06894B11151C105
:1059600008951DD188F09F5790F0B92F9927B7510E
:10597000A0F0D1F0660F771F881F991F1AF0BA9513
:10598000C9F712C0B13081F03BD1B1E0089538C100
:10599000672F782F8827B85F39F0B93FCCF3869509
:1059A00077956795B395D9F73EF490958095709566
:1059B00061957F4F8F4F9F4F0895E89409C097FBE3
:1059C0003EF490958095709561957F4F8F4F9F4FD6
:1059D0009923A9F0F92F96E9BB279395F69587951A
:1059E00077956795B795F111F8CFFAF4BB0F11F4DD
:1059F00060FF1BC06F5F7F4F8F4F9F4F16C0882384
:105A000011F096E911C0772321F09EE8872F762FB9
:105A100005C0662371F096E8862F70E060E02AF0FA
:105A20009A95660F771F881FDAF7880F96958795E6
:105A300097F90895CED080F09F3740F491110EF081
:105A4000E0C060E070E080E89FEB089526F41B164C
:105A5000611D711D811D2BC045C0990F0008550F98
:105A6000AA0BE0E8FEEF16161706E807F907C0F0E4
:105A700012161306E407F50798F0621B730B840BEC
:105A8000950B39F40A2661F0232B242B252B21F4C6
:105A900008950A2609F4A140A6958FEF811D811D66
:105AA000089597F99F6780E870E060E00895882383
:105AB00071F4772321F09850872B762F07C0662347
:105AC00011F499270DC09051862B70E060E02AF008
:105AD0009A95660F771F881FDAF7880F9695879536
