:100000000C949C020C94BD020C94BD020C94BD0295
:100010000C94BD020C94BD020C94BD020C94BD0264
:100020000C94BD020C94BD020C94BD020C94BD0254
:100030000C94BD020C94BD020C94BD020C94671587
:100040000C94BD020C94A4170C94BD020C94BD0238
:100050000C94BD020C94BD020C94BD020C94BD0224
:100060000C94BD020C94C91A0C94BD020C94BD02F0
:100070000C94BD020C94BD020C94BD020C94BD0204
:100080000C94BD020C94BD020C94BD020C94BD02F4
:100090000C94BD020C94BD020C94BD020C94BD02E4
:1000A0000C94BD020C94BD020C94BD020C94BD02D4
:1000B0000C94BD020C94BD020C94BD020C94BD02C4
:1000C0000C94BD020C94BD020C94BD020C94BD02B4
:1000D0000C94BD020C94BD020C94BD020C94BD02A4
:1000E0000C94BD02F506F506F806FC06FF060607A9
:1000F000470747070B07120717071A071F072207AB
:10010000250728072B072E073107360739073E0733
:100110004107440747074707470747074707470778
:10012000F8064707470747074707470747074707AF
:10013000470747074707470747074707470747074F
:10014000470747074707470747074707470747073F
:10015000470747074707470747074707F806084A7B
:10016000D73B3BCE016E84BCBFFDC12F3D6C7431CB
:100170009ABD56833DDA3D00C77F11BED9E4BB4C22
:100180003E916BAAAABE000000803F595F484F4DC8
:10019000450D0A00585F484F4D450D0A00594C3235
:1001A0000D0A00594C310D0A00584C320D0A005806
:1001B0004C310D0A000D0A00726F74617465642081
:1001C0003D20000D0A0076616375756D5F73746183
:1001D0007465203D20000D0A006865616420646F2D
:1001E000776E203D20000D0A0050494E44206C6976
:1001F0006D697473203D20000D0A00504F52544425
:1002000020203D20000D0A00444952454354494FE7
:100210004E5F504F525420203D20000D0A004449AB
:1002200052454354494F4E5F44445220203D2000E4
:100230006F6B0A0D000A0D006572726F723A200032
:100240006572726F723A20466C6F6174696E6720D6
:10025000706F696E74206572726F720A0D0065723C
:10026000726F723A20556E737570706F7274656438
:100270002073746174656D656E740A0D0065727229
:100280006F723A20457870656374656420636F6DA2
:100290006D616E64206C65747465720A0D00657220
:1002A000726F723A20426164206E756D62657220D1
:1002B000666F726D61740A0D006F6B0A0D000D0A96
:1002C0004E6F7420686F6D65640A0D0053746F7211
:1002D0006564206E65772073657474696E670D0AB6
:1002E00000556E6B6E6F776E20706172616D657414
:1002F00065720D0A002724783D76616C75652720AC
:10030000746F2073657420706172616D65746572BD
:10031000206F72206A7573742027242720746F2041
:1003200064756D702063757272656E742073657488
:1003300074696E67730D0A002028737465707065A8
:1003400072733A2030203D2064697361626C656489
:100350002C2031203D20656E61626C6564290D0A98
:10036000002431303030203D200020286D6178207D
:10037000696E7374616E7420636F726E6572696EFC
:1003800067207370656564206368616E67652069C6
:100390006E2064656C7461206D6D2F6D696E290D22
:1003A0000A002439203D20002028616363656C65C4
:1003B000726174696F6E20696E206D6D2F73656355
:1003C0005E32290D0A002438203D200020286D6D62
:1003D0002F617263207365676D656E74290D0A0065
:1003E0002437203D200020286D6D2F6D696E20641C
:1003F000656661756C74207365656B2072617465E8
:10040000290D0A002436203D200020286D6D2F6D17
:10041000696E2064656661756C742066656564202C
:1004200072617465290D0A002435203D20002028C2
:100430006D6963726F7365636F6E64732073746547
:10044000702070756C7365290D0A002434203D20DE
:1004500000202873746570732F6465672E206329EC
:100460000D0A002433203D2000202873746570732A
:100470002F6D6D207A290D0A002432203D200020A6
:100480002873746570732F6D6D2079290D0A00240F
:1004900031203D2000202873746570732F6D6D200E
:1004A00078290D0A002430203D20000D0A00302E4E
:1004B00037365042002456455253494F4E203D2076
:1004C00000686F6D65206661696C65640D0A00786F
:1004D0004C696D6974310D0A00794C696D6974312C
:1004E0000D0A004865616420646F776E2065727242
:1004F0006F720A0D006E0D0A00790D0A00494E4612
:10050000494E4954594E414ECDCCCC3D0AD7233C9F
:1005100017B7D13877CC2B329595E6241FB14F0A07
:10052000000020410000C84200401C4620BCBE4CD8
:10053000CA1B0E5AAEC59D7411241FBECFEFD1E267
:10054000DEBFCDBF00E00CBF12E0A0E0B2E0E0E60D
:10055000F8E400E00BBF02C007900D92A030B10795
:10056000D9F716E0A0E0B2E001C01D92AD39B107A5
:10057000E1F70E94A0090C942E240C940000249A08
:100580000895892B11F02C9A08952C980895F999C3
:10059000FECF92BD81BD81E08FBB80B50895F894F8
:1005A000F999FECF92BD81BD81E08FBB90B59627B2
:1005B000892F862339F06F3F19F060BD84E006C0B3
:1005C00084E104C0992321F060BD84E28FBBF99AD5
:1005D000789408958F929F92AF92BF92CF92DF92BC
:1005E000EF92FF920F93DF93CF930F920F92CDB7BD
:1005F000DEB75C016B017A014A0100E01EC00023F6
:1006000019F021E030E008C0202F332727FD309576
:100610002227330F221F3327F60161916F01062F26
:10062000020F9C012F5F3F4F3A8329830E94CF0224
:1006300008948108910889819A8181149104F9F6BE
:10064000C7018A0D9B1D602F0E94CF020F900F9053
:10065000CF91DF910F91FF90EF90DF90CF90BF90FF
:10066000AF909F908F900895CF93DF93EC01FB01A3
:100670009A0190E0B1E019C0F999FECFF2BDE1BD59
:10068000BFBBA0B5992319F081E090E008C0892F85
:10069000992787FD90958827990F881F992731966C
:1006A0009A2F980FA993215030402115310521F739
:1006B000460F571FF999FECF52BD41BD81E08FBB58
:1006C00080B520E030E0981711F421E030E0C90156
:1006D000DF91CF9108958093250260932602409385
:1006E000270208952F923F924F925F926F927F92CE
:1006F0008F929F92AF92BF92CF92DF92EF92FF9232
:100700000F931F93DF93CF93CDB7DEB728970FB624
:10071000F894DEBF0FBECDBF69837A838B839C8341
:100720002D833E834F8358873701480115012601E9
:1007300020E030E040E85FEB0E940F1F882341F487
:100740006090120270901302809014029090150233
:100750006D817E818F81988520E030E040E85FEBFD
:100760000E940F1F882341F4209016023090170238
:100770004090180250901902C401B30120E030E00B
:1007800040E85FEB0E940F1F882341F460901A023B
:1007900070901B0280901C0290901D02C201B1015A
:1007A00020E030E040E85FEB0E940F1F882341F417
:1007B00020901E0230901F02409020025090210293
:1007C00000D000D080910E0290910F02A0911002F3
:1007D000B0911102EDB7FEB781839283A383B483F6
:1007E0001682158269817A818B819C812D813E815F
:1007F0004F81588584017301620151010E94F30EFB
:1008000089819A81AB81BC818093120290931302FB
:10081000A0931402B09315028D819E81AF81B8859B
:100820008093160290931702A0931802B0931902B6
:1008300060921A0270921B0280921C0290921D021A
:1008400020921E0230921F024092200250922102FA
:10085000ADB7BEB716960FB6F894BEBF0FBEADBF0C
:1008600028960FB6F894DEBF0FBECDBFCF91DF91B3
:100870001F910F91FF90EF90DF90CF90BF90AF90BE
:100880009F908F907F906F905F904F903F902F90B0
:100890000895AF92BF92CF92DF92EF92FF920F93A3
:1008A0001F93DF93CF930F920F92CDB7DEB76C01FA
:1008B0005B017A01FB0100811181080F191FC8013A
:1008C000BE016F5F7F4F0E949D22F701608371839D
:1008D0008283938389819A818017910731F481E023
:1008E0008093000220E030E007C08C199D09F501DB
:1008F0009183808321E030E0C9010F900F90CF9168
:10090000DF911F910F91FF90EF90DF90CF90BF90FC
:10091000AF9008950F931F93CF93DF93EC018B015A
:10092000D901ED91FC911197E40FF51FE081EE23C1
:1009300039F0E883E154EA3130F082E0809300023C
:1009400020E030E010C08D919C91119701968D931D
:100950009C93CA01B901A8010E944904009711F0B3
:1009600081E090E09C01C901DF91CF911F910F912F
:10097000089588E2E0E0F2E0DF011D928A95E9F750
:10098000609186067091870680918806909189060D
:1009900020E030E040E752E40E94131F60930A0217
:1009A00070930B0280930C0290930D0260918A0663
:1009B00070918B0680918C0690918D0620E030E03E
:1009C00040E752E40E94131F60930E0270930F02DF
:1009D00080931002909311021092250291E090935F
:1009E000260282E0809327029093040208952F92BA
:1009F0003F924F925F926F927F928F929F92AF92AF
:100A0000BF92CF92DF92EF92FF920F931F93DF93EB
:100A1000CF93CDB7DEB7E2970FB6F894DEBF0FBE27
:100A2000CDBF5C011B821A8280E090E0A0E0B0E0C4
:100A300088879987AA87BB8780E1FE013C96DF0102
:100A4000982F1D929A95E9F7FE017C96DF011D9281
:100A50008A95E9F710920002F5018081883251F100
:100A60008F3229F48A819B8101969B838A83D501E9
:100A70008C918432A9F055241CA6B4E06B2E712C05
:100A80006C0E7D1EA2E02A2E312C2C0E3D1E4E0136
:100A90000894811C911CF3E0CF2EDD24D39404C272
:100AA00081E090E09B838A83F5018181882321F492
:100AB0000E94521480E0ECC38E010E5F1F4FC501EF
:100AC000B801AE01485F5F4F0E9449048A819B8153
:100AD000F501E80FF91F208101969B838A832D334E
:100AE00009F0D5C3C501B801AE014C5F5F4F0E944C
:100AF0004904EA81FB81EA0DFB1D8081882309F00E
:100B0000C6C3688579858A859B850E947B1FDC0129
:100B1000CB014C815D816E817F810E94D613B4C36D
:100B20006C817D818E819F810E940C227B018C01D2
:100B30000E947B1FFB012981273409F4A2C02834BD
:100B400020F4243409F0ACC107C02D3409F441C1AC
:100B5000243509F0A5C19EC18AB18EE192E00E94C0
:100B60001F1B60B370E080E090E00E94D61B8BE119
:100B700092E00E941F1B88E092E00E941F1B61B35D
:100B800070E080E090E00E94D61B85E092E00E9439
:100B90001F1BEBB08BEF91E00E941F1BFF2400E0B6
:100BA00010E0C801B7010E94D61B88EF91E00E94B7
:100BB0001F1BE9B089EE91E00E941F1BFF2400E09B
:100BC00010E0C801B7010E94D61B86EE91E00E949A
:100BD0001F1B89ED91E00E941F1B0E94471D90E0A2
:100BE000A0E0B0E0BC01CD010E94BB1B86ED91E00E
:100BF0000E941F1B86EC91E00E941F1B0E94011E99
:100C000090E0A0E0B0E0BC01CD010E94BB1B83ECF2
:100C100091E00E941F1B88EB91E00E941F1B0E9425
:100C20004A1D90E0A0E0B0E0BC01CD010E94BB1BDA
:100C300085EB91E00E941F1B4B9B04C08FEA91E063
:100C40000E941F1B4A9B04C089EA91E00E941F1B5F
:100C5000489B04C083EA91E00E941F1B499B04C08B
:100C60008DE991E00E941F1B049B04C084E991E080
:100C70000E941F1B909B14C18BE891E00E941F1BD8
:100C80000FC16531710509F48BC06631710584F5BA
:100C90006430710509F45BC065307105A4F46130FE
:100CA000710509F45AC06230710524F4672B09F408
:100CB00051C0EDC06230710509F452C06330710556
:100CC00009F0E5C04FC06231710509F456C06331C7
:100CD00071052CF46131710509F0D9C046C063314A
:100CE000710509F452C06431710509F0D0C055C0D6
:100CF0006A35710509F45EC06B357105A4F46E3177
:100D0000710511F16F3171052CF46C31710509F029
:100D1000BEC01AC06533710509F445C06035710560
:100D200009F0B5C043C06C35710509F449C06C3594
:100D300071050CF442C06D35710509F444C06E357F
:100D4000710509F0A4C042C0F2E0FCA7A9C081E08F
:100D50008CA7A6C010920102A3C0D0920102A0C02D
:100D600082E025C0C09201029BC010922502D09261
:100D7000260282E08093270293C01092250282E02F
:100D800080932602D09227028BC0D092250282E067
:100D9000809326021092270283C0D092030280C063
:100DA000109203027DC0552453947AC084E080934E
:100DB000010276C0D092040273C01092040270C087
:100DC00093E09CA76DC0D09202026AC0109202020A
:100DD00067C06D33710508F05AC0EE58FF4FEE0F33
:100DE000FF1F0590F491E02D1994D092050258C090
:100DF00082E08093050254C081E090E002C08FEF52
:100E00009FEF90930702809306024AC01092070258
:100E10001092060245C081E090E090930902809311
:100E200008023EC0109209021092080239C081E007
:100E300090E002C080E090E00E94501D31C080E050
:100E400090E011C081E090E00EC082E090E00BC025
:100E500083E090E008C084E090E005C085E090E089
:100E600002C086E090E00E94F71C1AC081E090E08A
:100E700002C080E090E00E94EC1D12C00E944A1E59
:100E80000FC00E943A1E0CC00E94161D09C0C092DD
:100E9000000206C0C801B7010E94801F60932202B1
:100EA00080910002882349F4C401B301A501910196
:100EB0000E948A04892B09F033CE80910002882396
:100EC00009F0E6C11B821A8280E1FE017C96DF01F7
:100ED0001D928A95E9F7DE011C96E2E1F2E080E1DD
:100EE00001900D928150E1F71DA61EA6B0E8BFA7A4
:100EF000EFEBE8AB66247724E2E02E2E312C2C0EAB
:100F00003D1E4E010894811C911C79E0472EC9C0FA
:100F1000CC80DD80EE80FF8080910302882319F46D
:100F2000A70196010AC0C701B60123E333E34BECE6
:100F300051E40E9444219B01AC0109810C3460F40E
:100F4000093408F047C00634B1F0083409F4A2C0EF
:100F5000033409F0A6C088C0033509F44FC0043536
:100F600020F4003509F09DC044C0802F885583309F
:100F700008F097C04CC080910202882329F02DA769
:100F80003EA74FA758AB8DC080910102882389F4FA
:100F9000CA01B90120E030E040E752E40E94131F8B
:100FA00060930E0270930F028093100290931102CF
:100FB00078C0CA01B90120E030E040E752E40E9465
:100FC000131F60930A0270930B0280930C0290939C
:100FD0000D0267C0E02FF0E0E954F040EE0FFF1F74
:100FE000EE0FFF1FE80DF91D238F348F458F568FAD
:100FF00058C0C886D986EA86FB8653C0C701B601A9
:101000000E947B1F70932402609323024AC0809148
:101010000402882311F4552079F0E02FF0E0E85520
:10102000F040EE0FFF1FEE0FFF1FE80DF91D2387A5
:1010300034874587568735C010E008551040000FAB
:10104000111F000F111F080D191DD8011B966D915E
:101050007D918D919C911E970E94701EF80163876F
:101060007487858796871DC080910402882311F4B8
:10107000552029F0288F398F4A8F5B8F12C0688DD9
:10108000798D8A8D9B8D0E94701E688F798F8A8FD3
:101090009B8F07C0CA01B9010E94801F3B0140928B
:1010A0000102C401BE016C5F7F4FA50191010E9446
:1010B0008A04892B09F02CCF80910002882309F043
:1010C000E7C08091060290910702009759F0409185
:1010D000230250912402662757FD6095762F0E94C7
:1010E000391502C00E9444158091080290910902AE
:1010F000892B19F081E090E002C080E090E00E942E
:10110000C102FCA5F13091F0F130F8F0F23021F09D
:10111000F33009F0B0C09DC00E94C60980E1FE0115
:101120003C96DF011D928A95E9F7A5C0688579850F
:101130008A859B8520E030E04AE754E40E94442100
:101140000E94801F0E94C90996C0809101028130CF
:1011500099F1813020F0893009F08DC076C000D03F
:1011600000D06C857D858E859F85288939894A893F
:101170005B89EC88FD880E891F89A88CB98CCA8C84
:10118000DB8C60900E0270900F02809010029090A5
:101190001102EDB7FEB76182728283829482168259
:1011A00015820E94F30E8DB79EB706960FB6F8947F
:1011B0009EBF0FBE8DBF5FC02C843D844E845F8474
:1011C000688879888A889B88EC88FD880E891F89C1
:1011D000A88CB98CCA8CDB8C60910202662361F406
:1011E00090910A029DA7A0910B02AEA7B0910C02AC
:1011F000BFA7E0910D02E8AB00D000D08DB79EB73D
:1012000001969AAB89AB2DA53EA54FA558A9C9015A
:10121000DA01EDB7FEB781839283A383B483A9A9D2
:10122000BAA914966C93149715961C92C201B10139
:10123000A40193010E94F30EEDB7FEB736960FB6E8
:10124000F894FEBF0FBEEDBF16C0C3010E944A1541
:1012500012C06C857D858E859F85288939894A894C
:101260005B89EC88FD880E891F89A88CB98CCA8C93
:10127000DB8C0E942B0BA2E1B2E0FE013C9680E1E8
:1012800001900D928150E1F78091000201C083E04E
:10129000E2960FB6F894DEBF0FBECDBFCF91DF91BF
:1012A0001F910F91FF90EF90DF90CF90BF90AF9084
:1012B0009F908F907F906F905F904F903F902F9076
:1012C0000895AF92BF92CF92DF92EF92FF920F9369
:1012D0001F9379018A015F770E94131F0E94D41E19
:1012E0005B016C01C801B70120E030E040E050E054
:1012F0000E94D6201816CCF0C601B50120E030E0DF
:1013000040E050E00E94D62018162CF46BED7FE0F0
:1013100089E490E404C06BED7FE089E490ECA601E1
:1013200095010E946F1E5B016C01B501C6011F9102
:101330000F91FF90EF90DF90CF90BF90AF90089506
:101340000E9418130E9426150E94C80B0E9438168E
:101350000E94FE160E9431150E94BF020E941F1CAF
:101360000E94381D0E94DF1D0E947F1D0E94B9044B
:1013700080E392E00E941F1B83B7816083BF889542
:1013800083B78E7F83BF0E94AB12F6CF0E942717D0
:101390000895AF92BF92CF92DF92EF92FF920F9398
:1013A0001F937B018C010E949717C801B7010E940F
:1013B000AC1F5B016C0120E030E04AE755E40E947D
:1013C00044217B018C0120E030E040E85FE30E9493
:1013D0000F1F88231CF461E070E024C0C801B7012E
:1013E00020E03FEF4FE757E40E94D6201816B4F4F0
:1013F000C601B50120E030E040E251E40E94442102
:101400000E94801F80E991E005C0FC013197F1F74F
:101410006150704061157105C1F707C0C801B7017F
:101420000E94801FCB010197F1F71F910F91FF9050
:10143000EF90DF90CF90BF90AF900895FC01609146
:10144000960670919706809198069091990621A52D
:1014500032A543A554A50E94131F08958091160537
:1014600090E00895209102053091030580910405D4
:10147000909105052817390769F08091040590912E
:10148000050501966AE070E00E94392290930505F7
:101490008093040508952091020530910305809101
:1014A0000405909105052817390719F440E050E02C
:1014B0000FC0209104053091050589E490E0289F34
:1014C000A001299F500D389F500D1124485D5D4F9C
:1014D000CA0108954F925F926F927F928F929F926E
:1014E000AF92BF92CF92DF92EF92FF920F931F9332
:1014F000CF93DF93EC014B016115710509F45EC0D8
:10150000009709F45BC0E9A8FAA80BA91CA9FB0184
:1015100041A852A863A874A8C801B701A301920109
:101520000E940F1F88230CF049C0F401A1A4B2A4AB
:10153000C3A4D4A4C601B501A80197010E94442107
:101540009B01AC010E9444217B018C0120919206F9
:101550003091930640919406509195065058CA01D7
:10156000B9010E94701E20E030E040E752E40E9482
:10157000442120E030E040E752EC0E9444212DA5B8
:101580003EA54FA558A90E9444219B01AC01C8016A
:10159000B7010E94701E0E94CB21A60195010E94F6
:1015A000131F7B018C01A30192010E940F1F88234E
:1015B0002CF4F401E1AAF2AA03AB14ABDF91CF91B2
:1015C0001F910F91FF90EF90DF90CF90BF90AF9061
:1015D0009F908F907F906F905F904F900895EF92C3
:1015E000FF920F931F93CF93DF9380910405909107
:1015F0000505482FC0E0D0E020E030E014C089E4C9
:10160000480280011124085D1D4FC901BE01A801D7
:101610000E946A0AC70101966AE070E00E943922BE
:10162000482F9E01E801E42EFF24E7FCF09480910E
:10163000020590910305E816F90609F7C901BE01F4
:1016400040E050E00E946A0ADF91CF911F910F9114
:10165000FF90EF9008952F923F924F925F926F927A
:101660007F928F929F92AF92BF92CF92DF92EF9232
:10167000FF920F931F933B014C0119012A010E9415
:101680009717C401B30120917406309175064091FB
:101690007606509177060E9444210E94E12026E0C0
:1016A000822E25E0922E60930605709307058093A5
:1016B000080590930905C201B10120917806309187
:1016C000790640917A0650917B060E9444210E943F
:1016D000E120F401349660930A0571838283938339
:1016E000C801B70120917C0630917D0640917E06AD
:1016F00050917F060E9444210E94E120F401389617
:1017000060930E05718382839383C601B501209196
:1017100080063091810640918206509183060E9496
:1017200044210E94E1202CE030E0820E931E609361
:101730001205F4017183828393831F910F91FF90AF
:10174000EF90DF90CF90BF90AF909F908F907F9061
:101750006F905F904F903F902F900895CF93DF93BD
:10176000EC0190E080911605811191E080E02097D6
:1017700009F081E0981749F00E949717109216051A
:10178000CD2B19F081E080931605DF91CF9108955C
:10179000109203051092020510920505109204059F
:1017A00081E090E00E94AE0B80E1E6E0F5E0DF0131
:1017B0001D928A95E9F708952F923F924F925F927A
:1017C0006F927F928F929F92AF92BF92CF92DF9251
:1017D000EF92FF920F931F93DF93CF9300D000D02F
:1017E000CDB7DEB78C017E836D83672B09F407C10B
:1017F0004115510561F0DA01D1968D919D910D90C1
:10180000BC91A02D89839A83AB83BC8308C08D8152
:101810009E810E941E0A69837A838B839C830115B3
:10182000110509F4E0C0F801618D728D838D948DEE
:10183000AD81BE8159962D913D914D915C915C9702
:101840000E946F1E9B01AC010E9444211B012C01D0
:10185000F801658D768D878D90A1AD81BE815D96F5
:101860002D913D914D915C9190970E946F1E9B012F
:10187000AC010E9444213B014C01F80161A172A11D
:1018800083A194A1AD81BE8191962D913D914D9101
:101890005C9194970E946F1E9B01AC010E944421B1
:1018A0005B016C01F80165A176A187A190A5AD81CE
:1018B000BE8195962D913D914D915C9198970E9496
:1018C0006F1E9B01AC010E9444217B018C01C2016F
:1018D000B101A40193010E94701EA60195010E940E
:1018E000701EA80197010E94701E0E94CB215B010F
:1018F0006C01E0909606F090970600919806109182
:101900009906A80197010E94D62018165CF00F2EA8
:10191000F0E06F2EF0E07F2EF0E88F2EFFE39F2E99
:10192000F02D08C0C801B701A60195010E94131F40
:101930003B014C01C401B30129813A814B815C8197
:101940000E94D62018160CF054C0ED81FE81A1A48F
:10195000B2A4C3A4D4A4C601B50129813A814B81A4
:101960005C810E9444219B01AC010E9444217B01C7
:101970008C012091920630919306409194065091EB
:1019800095065058CA01B9010E94701E20E030E04F
:1019900040E752E40E94442120E030E040E752EC6E
:1019A0000E944421AD81BE819D962D913D914D9126
:1019B0005C91D0970E9444219B01AC01C801B70102
:1019C0000E94701E0E94CB21A60195010E94131F48
:1019D0007B018C01A40193010E940F1F88234CF40A
:1019E0003701480106C08D819E810E941E0A3B017D
:1019F0004C01ED81FE8161AA72AA83AA94AA26965F
:101A00000FB6F894DEBF0FBECDBFCF91DF911F910F
:101A10000F91FF90EF90DF90CF90BF90AF909F908D
:101A20008F907F906F905F904F903F902F90089590
:101A3000FF920F931F93CF93DF93809102059091B4
:101A40000305F82EC0E0D0E040E050E012C0FA9468
:101A5000F7FE02C039E0F32E8F2D99E48902800150
:101A60001124085D1D4FC801BE010E94DC0BAE01B0
:101A7000E80120910405309105058F2D992787FDF8
:101A800090958217930719F780E090E0BE010E94BD
:101A9000DC0BDF91CF911F910F91FF9008952F9252
:101AA0003F924F925F926F927F928F929F92AF92EE
:101AB000BF92CF92DF92EF92FF920F931F93DF932B
:101AC000CF93CDB7DEB762970FB6F894DEBF0FBEE7
:101AD000CDBF9A8B898B6A017B0118012901FC011A
:101AE000658976898789908D0E94AC1F3B014C01E6
:101AF000A70196010E9444210E94FC1E0E94801FA3
:101B00007B018C01E989FA8965AB76AB87AB90AF35
:101B1000C401B301A20191010E9444210E94FC1E54
:101B20000E94801F1B012C01E989FA8961AF72AF05
:101B300083AF94AFFD966081718182819381FD971F
:101B4000FA8BE98B28E230E040E050E00E941A2254
:101B50000E94AE1F20E030E040E752E40E944421A2
:101B60000E947B1F5B016C01C801B7010E94AC1F82
:101B70007B018C01C601B5010E94AE1F6D837E837F
:101B80008F839887C401B301A40193010E9444216B
:101B90003B014C01C801B701A80197010E944421F3
:101BA00069877A878B879C876D817E818F819885F5
:101BB0009B01AC010E94701E6D877E878F87988B7A
:101BC000C401B30129853A854B855C850E946F1E4F
:101BD0002D853E854F8558890E94131F0E94FC1E4B
:101BE0000E947B1F69837A838B839C83C201B1012E
:101BF0000E94AC1F9B01AC010E9444211B012C01DF
:101C0000A40193010E946F1E7B018C01D094C094AB
:101C1000B094A094A11CB11CC11CD11CC601B5017B
:101C20000E94AE1F9B01AC010E94701E9B01AC0183
:101C3000C801B7010E94131F0E94E91FE989FA89B0
:101C4000A188B288C388D4888601750129813A8128
:101C50004B815C81E21AF30A040B150B0E947B1F77
:101C6000A8019701261B370B480B590BDA01C90154
:101C700057FF34C0C601B5010E94AE1F9B01AC01E5
:101C80006D857E858F8598890E94442129853A85B6
:101C90004B855C850E946F1EA20191010E94701EFF
:101CA0007B018C016D817E818F81988520E030E001
:101CB00040E850E40E9444219B01AC01C801B701F7
:101CC0000E94131F0E94FC1E0E947B1F69837A835F
:101CD0008B839C8380E090E0A0E0B0E049895A8942
:101CE0004F5B5F4FFA0129813A814B815C812193DF
:101CF000319341935193FA8BE98B820F931FA41F69
:101D0000B51F80839183A283B38362960FB6F89444
:101D1000DEBF0FBECDBFCF91DF911F910F91FF901E
:101D2000EF90DF90CF90BF90AF909F908F907F907B
:101D30006F905F904F903F902F900895CF92DF92D9
:101D4000EF92FF920F931F93CF93DF93809104053F
:101D500090910505282FC0E0D0E01EC089E428023C
:101D600070011124E8E2F2E0EE0EFF1E209761F010
:101D700049A95AA96BA97CA9F70101A912A923A90C
:101D800034A9CE010E944F0DC60101966AE070E0B1
:101D90000E943922282FE701C22EDD24C7FCD094EF
:101DA0008091020590910305C816D906B9F6CE01B7
:101DB0000E941E0A8B019C0149A95AA96BA97CA902
:101DC000CE010E944F0DDF91CF911F910F91FF9097
:101DD000EF90DF90CF9008950E94180D0E94EF0AB7
:101DE0000E949E0E08952F923F924F925F926F92A3
:101DF0007F928F929F92AF92BF92CF92DF92EF929B
:101E0000FF920F931F93DF93CF93CDB7DEB7E49785
:101E10000FB6F894DEBF0FBECDBF3B014C012FA320
:101E200038A749A75AA7EBA6FCA60DA71EA7AFA6E1
:101E3000B8AAC9AADAAA80914A05882309F472C30C
:101E4000C401B30120917406309175064091760665
:101E5000509177060E9444210E94E1207B018C0171
:101E6000209178063091790640917A0650917B0650
:101E70002BA33CA34DA35EA320907C0630907D064F
:101E800040907E0650907F06A0908006B09081061C
:101E9000C0908206D0908306809102059091030540
:101EA00001966AE070E00E9439228BAB9CAB07C0C0
:101EB00083B7816083BF889583B78E7F83BF80910E
:101EC0000405909105054BA95CA98417950781F33A
:101ED000209102053091030589E490E0289FD0010C
:101EE000299FB00D389FB00D1124A85DBD4FBAA336
:101EF000A9A38091060590910705A0910805B091CE
:101F0000090537014801681A790A8A0A9B0A97FE6F
:101F100008C09094809470946094611C711C811C22
:101F2000911C6FA578A989A99AA9A60195010E947B
:101F300044210E94E1206D877E878F87988B6BA557
:101F40007CA58DA59EA5A20191010E9444210E941D
:101F5000E12069877A878B879C876FA178A589A5FF
:101F60009AA52BA13CA14DA15EA10E9444210E94F3
:101F7000E1206D837E838F839887E982FA820B83C9
:101F80001C83E9A1FAA160827182828293822D81F1
:101F90003E814F81588580910A0590910B05A09153
:101FA0000C05B0910D05281B390B4A0B5B0B57FF35
:101FB00007C050954095309521953F4F4F4F5F4F4B
:101FC000A9A1BAA114962D933D934D935C931797B5
:101FD00029853A854B855C8580910E0590910F058A
:101FE000A0911005B0911105281B390B4A0B5B0B12
:101FF00057FF07C050954095309521953F4F4F4F63
:102000005F4FE9A1FAA12087318742875387A090CB
:102010001205B0901305C0901405D09015052D85BC
:102020003E854F8558892A193B094C095D0957FFA0
:1020300007C050954095309521953F4F4F4F5F4FCA
:10204000A9A1BAA11C962D933D934D935C931F9724
:102050001896ED90FD900D911C911B97FD018481C8
:102060009581A681B7818E159F05A007B10710F451
:10207000D801C701E9A1FAA1E080F18002811381B2
:102080008E159F05A007B10710F4D801C70182176C
:102090009307A407B50710F4DA01C901E9A1FAA171
:1020A000818B928BA38BB48B0097A105B10509F4AA
:1020B00039C269817A818B819C812091060530919A
:1020C00007054091080550910905621B730B840BAD
:1020D000950B0E94AE1F20917406309175064091B9
:1020E0007606509177060E94131F6D8F7E8F8F8F1B
:1020F00098A36D817E818F81988520910A0530910A
:102100000B0540910C0550910D05621B730B840B60
:10211000950B0E94AE1F2091780630917906409170
:102120007A0650917B060E94131F698F7A8F8B8FDE
:102130009C8F69857A858B859C8520910E053091D1
:102140000F054091100550911105621B730B840B14
:10215000950B0E94AE1F20917C0630917D06409128
:102160007E0650917F060E94131F6D8B7E8B8F8B96
:10217000988F6D857E858F8598896A197B098C0972
:102180009D090E94AE1F20918006309181064091EA
:102190008206509183060E94131F698B7A8B8B8B6A
:1021A0009C8B6D8D7E8D8F8D98A10E9409223B01A5
:1021B0004C01698D7A8D8B8D9C8D0E9409227B014B
:1021C0008C016D897E898F89988D0E9409225B011F
:1021D0006C0169897A898B899C890E9409221B017B
:1021E0002C01C401B301A80197010E94701EA60131
:1021F00095010E94701EA20191010E94701E0E9412
:10220000CB219B01AC01A9A1BAA19D966D937D93B1
:102210008D939C93D09760968EAD9FAD6097892BE0
:1022200089F4CA01B9012E962CAD3DAD4EAD5FAD1E
:102230002E970E94131F20E034E244E759E40E94E5
:1022400044210CC060EC71EE84E69CE42E962CAD2B
:102250003DAD4EAD5FAD2E970E94131F0E94E12051
:10226000AC01CB01DA01BC01CD010E94AC1F9B0186
:10227000AC0160EC71EE84E69CE40E94131F7B01CC
:102280008C016D8D7E8D8F8D98A1A80197010E9484
:102290004421E9A1FAA1618F728F838F948F698D98
:1022A0007A8D8B8D9C8DA80197010E944421A9A154
:1022B000BAA15D966D937D938D939C9390976D8954
:1022C0007E898F89988DA80197010E944421E9A1F8
:1022D000FAA161A372A383A394A369897A898B89E4
:1022E0009C89A80197010E944421A9A1BAA19596B1
:1022F0006D937D938D939C9398979D966D917D9111
:102300008D919C91D097A80197010E944421E9A149
:10231000FAA161A772A783A794A7618972898389AB
:1023200094890E94AE1F5B016C01A80197010E9475
:1023300044210E94FC1E0E94801F3B014C01A9A168
:10234000BAA155966D937D938D939C93589780E099
:1023500090E0A0E0B0E0E9A1FAA181AB92ABA3AB21
:10236000B4AB60919206709193068091940690911F
:10237000950620E030E040E752E40E94442120E04E
:1023800030E040E252E40E94131F7B018C01A9A1BE
:10239000BAA19D966D917D918D919C91D097A6014A
:1023A00095010E94131F9B01AC01C801B7010E9457
:1023B000131F0E94FC1E09A11AA1035C1F4F0E945B
:1023C0007B1FF8016083718382839383809116055C
:1023D000882369F089A19AA10E941E0A8B019C01A1
:1023E00089A19AA1B901A8010E944F0D26C0A9A1F7
:1023F000BAA1D5966D927D928D929C92D897FD014F
:1024000061AE72AE83AE94AEEF5BFF4F108211826D
:10241000128213829D012B5B3F4FFD0181899289BE
:10242000A389B489F90180839183A283B383D801FE
:102430001D921D921D921C921397E9A1FAA1108A78
:1024400029813A814B815C81809106059091070535
:10245000A0910805B0910905281739074A075B07BD
:1024600014F482E0808B2D813E814F8158858091CC
:102470000A0590910B05A0910C05B0910D05281748
:1024800039074A075B0744F4A9A1BAA150968C9179
:102490005097886050968C9329853A854B855C854A
:1024A00080910E0590910F05A0911005B091110536
:1024B000281739074A075B072CF4E9A1FAA180899C
:1024C0008064808B2D853E854F85588980911205CB
:1024D00090911305A0911405B0911505281739079F
:1024E0004A075B0744F4A9A1BAA150968C91509772
:1024F000806850968C93EBA9FCA9F0930305E093B8
:102500000205A6E0B5E0FE01319680E101900D9252
:102510008150E1F780911605882311F00E94EC0E9E
:102520000E945B15E4960FB6F894DEBF0FBECDBFD8
:10253000CF91DF911F910F91FF90EF90DF90CF909F
:10254000BF90AF909F908F907F906F905F904F90D3
:102550003F902F900895CF93DF9361C0E09149059C
:10256000EE2309F44AC09A3019F09D3009F045C0B5
:10257000F0E0E95EFA4F108287E195E00E94F704EF
:10258000682F80914A05882339F48EEB92E00E94EF
:102590001F1BC3E6D0E01FC0623091F0633028F407
:1025A000662341F06130A9F408C0633061F0643003
:1025B00081F40CC089EB92E01BC08EE992E018C058
:1025C0008DE792E015C08EE592E012C080E492E0C3
:1025D0000FC0C62FD0E088E392E00E941F1BBE010F
:1025E000882777FD8095982F0E94BB1B85E392E09A
:1025F0000E941F1B1092490512C0913284F0892F4E
:102600008156AE2FB0E0EF5F8A3120F4A95EBA4F59
:10261000905202C0A95EBA4F9C93E09349050E9474
:10262000A11A982F8F3F09F099CFDF91CF9108958C
:1026300060E076E980E090E00E944C1A089580E026
:1026400090E0AEE7B4E48093740690937506A0938F
:102650007606B09377068093780690937906A093D8
:102660007A06B0937B0684EF99EFACE3B4E48093F1
:102670007C0690937D06A0937E06B0937F0681EC46
:102680009AECA1E3B2E48093800690938106A09334
:102690008206B093830688E08093850680E090E010
:1026A000A0EFB3E48093860690938706A0938806F4
:1026B000B093890680938A0690938B06A0938C062C
:1026C000B0938D068AE999E9A9E9B0E4809392066E
:1026D00090939306A0939406B09395068DEC9CEC92
:1026E000ACECBDE380938E0690938F06A09390068A
:1026F000B093910680E090E0A8E4B2E4809396065F
:1027000090939706A0939806B0939906089580E059
:1027100090E00E94C702873681F484E796E061E08A
:1027200070E046E250E00E94340320E0892B09F477
:1027300021E081E0282730E029C0813029F584E7B5
:1027400096E061E070E04BE150E00E943403892B99
:10275000D9F08AE999E9A9E9B0E4809392069093C7
:102760009306A0939406B093950680E090E0A8E4C9
:10277000B2E48093960690939706A0939806B09340
:10278000990621E030E002C020E030E0C901089560
:1027900080E090E067E60E94CF0281E090E064E78D
:1027A00076E046E250E00E94EA020895FC0186309D
:1027B0009105B9F1873091054CF484309105F9F019
:1027C000853091052CF597FF0FC062C088309105C8
:1027D000D1F18830910574F189309105E9F1E85E15
:1027E000F34009F055C044C0EE0FFF1FEE0FFF1F6E
:1027F000EC58F94F40835183628373834CC0CB0103
:10280000BA010E94A7210E94801F6093850643C0E1
:1028100040938606509387066093880670938906D6
:102820003AC040938A0650938B0660938C0670934F
:102830008D0631C040938E0650938F0660939006AC
:102840007093910628C0409392065093930660932C
:102850009406709395061FC0DB01CA01BF77809371
:10286000960690939706A0939806B093990613C086
:10287000CB01BA0120E030E040E050E00E940F1FA1
:10288000882319F00E94761508950E9478150895FE
:1028900081EE92E004C00E94C8138CEC92E00E948A
:1028A0001F1B089585EB94E00E941F1B8EEA94E0A5
:1028B0000E941F1B8BEA94E00E941F1B85EA94E094
:1028C0000E941F1B609174067091750680917606B8
:1028D000909177060E94DD1B85E994E00E941F1B02
:1028E0008FE894E00E941F1B609178067091790632
:1028F00080917A0690917B060E94DD1B8FE794E021
:102900000E941F1B89E794E00E941F1B60917C06B8
:1029100070917D0680917E0690917F060E94DD1B5E
:1029200089E694E00E941F1B83E694E00E941F1B2F
:102930006091800670918106809182069091830655
:102940000E94DD1B81E594E00E941F1B8BE494E054
:102950000E941F1B6091850670E080E090E00E945D
:10296000BB1B8EE294E00E941F1B88E294E00E9451
:102970001F1B609186067091870680918806909152
:1029800089060E94DD1B8AE094E00E941F1B84E000
:1029900094E00E941F1B60918A0670918B068091C3
:1029A0008C0690918D060E94DD1B86EE93E00E94BE
:1029B0001F1B80EE93E00E941F1B60918E0670919A
:1029C0008F0680919006909191060E94DD1B8CEC01
:1029D00093E00E941F1B86EC93E00E941F1B6091F6
:1029E00092067091930680919406909195060E94AC
:1029F000DD1B88EA93E00E941F1B82EA93E00E949D
:102A00001F1B609196067091970680919806909191
:102A100099060E94DD1B8AE693E00E941F1B81E657
:102A200093E00E941F1B0E947A15AA2797FDA0958C
:102A3000BA2FBC01CD010E94BB1B88E393E00E942A
:102A40001F1B85EF92E00E941F1B08950E948713B1
:102A5000892B31F40E941F130E94C8130E94521444
:102A60000895E1E0F1E0808180648083279A3E9AB6
:102A7000089597FD02C02F9801C02F9A80910201FE
:102A80008064809302010895E2E0F1E080818F7B11
:102A90008083089535E340E757E1469A232F2A952E
:102AA000F1F74698FA013197F1F701972FEF8F3F31
:102AB000920799F70895EFE6F0E0808182608083C5
:102AC000089590E0909363058093620508951F92A6
:102AD0000F920FB60F9211248F9381B38A7C81BB22
:102AE0008F910F900FBE0F901F90189544980895E6
:102AF000449A08953C9903C020E030E007C088B1B3
:102B000082958F7080958170282F30E0C9010895DB
:102B1000603020E0720721E0820720E0920730F465
:102B20009B0140E050E0E0E0F0E072C0603020E067
:102B3000720728E0820720E09207A0F4B3E09695A0
:102B4000879577956795BA95D1F79B0140E050E05E
:102B5000A3E0220F331F441F551FAA95D1F7E1E0D0
:102B6000F0E056C0603020E0720720E4820720E0E9
:102B70009207A0F4F6E09695879577956795FA9574
:102B8000D1F79B0140E050E0E6E0220F331F441FE5
:102B9000551FEA95D1F7E2E0F0E03AC0603020E05E
:102BA000720720E0820721E0920770F4BB27A92F6B
:102BB000982F872FBC01A0E0B0E02227382F492FA3
:102BC0005A2FE3E0F0E024C0603020E0720720E0FC
:102BD000820724E0920748F06FEF7FEFE4E0F0E037
:102BE00020E03CEF40E050E013C02AE09695879546
:102BF000779567952A95D1F79B0140E050E08AE0F0
:102C0000220F331F441F551F8A95D1F7E4E0F0E0EF
:102C1000809181009E2F9F5F887F982B90938100E9
:102C20007093890060938800B901CA0108959B01DF
:102C3000AC01203B84E0380780E0480780E058077B
:102C400020F420EB34E040E050E060E070E788E3FF
:102C500099E30E944C22CA01B9010E948815609331
:102C600064057093650580936605909367050895E4
:102C700080B3856380BB80B38A6C80BB81B38A7C60
:102C800081BB3C9A449AE1E8F0E080818F7E8083AA
:102C9000808188608083E0E8F0E080818D7F8083A0
:102CA00080818E7F808380818F73808380818F7C01
:102CB00080831092B00082E08093B100E0E7F0E002
:102CC00080818160808360E777E180E090E00E940E
:102CD0001716EFE6F0E080818D7F80831092680503
:102CE0001092690510926A0510926B057894089508
:102CF0009C0181B3857381BB95E340E654E013C02A
:102D0000215030404B9B02C080E0089581B38A7C03
:102D1000816081BB892F8A95F1F781B38A7C81BB61
:102D2000FA013197F1F72115310551F781E0089546
:102D30009C0181B38573826081BB95E340E654E0DA
:102D400013C0215030404A9B02C080E0089581B3F7
:102D50008A7C816081BB892F8A95F1F781B38A7C57
:102D600081BBFA013197F1F72115310551F781E067
:102D700008959C0181B3857381BB95E340E654E0DF
:102D800013C021503040489B02C080E0089581B3B9
:102D90008A7C846081BB892F8A95F1F781B38A7C14
:102DA00081BBFA013197F1F72115310551F781E027
:102DB00008959C0181B38573886081BB95E340E6EB
:102DC00054E013C021503040499B02C080E0089578
:102DD00081B38A7C846081BB892F8A95F1F781B3A6
:102DE0008A7C81BBFA013197F1F72115310551F742
:102DF00081E0089580916F008270089511B882E09B
:102E000084B917B81AB81DB89FE890BB13BA1092CE
:102E10000101109204013FEC3093070120EF209351
:102E20000A018CE982B982E285B983E188B99BB94C
:102E300080E38EB991BB83E284BB83E0809302017F
:102E4000809305013093080120930B01089510929F
:102E50004A050E94C80B0E94B904F8940E94471DBD
:102E6000882369F080E090E00E94501D0E94471D79
:102E7000882329F081EC94E00E941F1B089580E0D4
:102E800090E00E94F71C4B9B16C010924A058FECF5
:102E900094E00E941F1B88EE93E00E9498168823FE
:102EA00009F444C080ED97E020E931E0F901319761
:102EB000F1F70197D9F7489B15C010924A0589EDA3
:102EC00094E00E941F1B88EE93E00E94D91688238D
:102ED00069F180ED97E020E931E0F9013197F1F7F0
:102EE0000197D9F7049907C081E090E00E94781615
:102EF0008823C1F711C080ED97E020E931E0F901A6
:102F00003197F1F70197D9F7909906C081E090E0E9
:102F10000E94B9168823C1F7789489B190E08F7028
:102F20009070892B19F481E080934A05089507C0B9
:102F300083B7816083BF889583B78E7F83BF0E94EC
:102F40004B0A892BA9F708951F920F920FB60F9283
:102F50000BB60F921124EF92FF920F931F932F93B2
:102F60003F934F935F936F937F938F939F93AF9311
:102F7000BF93CF93DF93EF93FF9380914A0588230C
:102F800009F471C20E94471D882309F06CC2809128
:102F9000620590916305892B09F065C289B190E0C3
:102FA0008F709070892B19F010924A055CC291B312
:102FB00080919A068A7C9573892B81BB81B38A7C28
:102FC00090914D05892B81BB80918506880F845097
:102FD00081958093B200B89A81E090E09093630568
:102FE00080936205789480914B0590914C05892BD4
:102FF00009F05DC00E944B0AEC0190934C05809350
:103000004B05009709F44EC06DA97EA98FA998AD14
:1030100060936C0570936D0580936E0590936F05BA
:10302000109268051092690510926A0510926B055E
:103030000E94171689899A89AB89BC89B595A7958D
:1030400097958795B095A095909581959F4FAF4F97
:10305000BF4F80934E0590934F05A0935005B093BA
:1030600051058093520590935305A0935405B09356
:1030700055058093560590935705A0935805B09336
:10308000590580935A0590935B05A0935C05B09316
:103090005D0510925E0510925F051092600510921A
:1030A000610505C080916F008D7F80936F00E09176
:1030B0004B05F0914C05309709F4EEC08089809360
:1030C0009A0610924D0520914E0530914F05409182
:1030D00050055091510580819181A281B381280FC3
:1030E000391F4A1F5B1F20934E0530934F054093B5
:1030F00050055093510512161306140615069CF43C
:1031000081E080934D0581899289A389B489281B28
:10311000390B4A0B5B0B20934E0530934F054093C0
:10312000500550935105209152053091530540911F
:1031300054055091550584819581A681B781280F4A
:10314000391F4A1F5B1F209352053093530540934C
:103150005405509355051216130614061506ACF4C3
:1031600080914D05846080934D0581899289A38962
:10317000B489281B390B4A0B5B0B20935205309303
:1031800053054093540550935505209156053091B1
:103190005705409158055091590580859185A28524
:1031A000B385280F391F4A1F5B1F209356053093A4
:1031B00057054093580550935905121613061406E7
:1031C0001506ACF480914D05806180934D05818991
:1031D0009289A389B489281B390B4A0B5B0B209376
:1031E0005605309357054093580550935905209143
:1031F0005A0530915B0540915C0550915D058485D1
:103200009585A685B785280F391F4A1F5B1F209318
:103210005A0530935B0540935C0550935D0512168B
:10322000130614061506ACF480914D058062809358
:103230004D0581899289A389B489281B390B4A0BD2
:103240005B0B20935A0530935B0540935C055093CC
:103250005D0580915E0590915F05A0916005B0913C
:1032600061050196A11DB11D80935E0590935F05D8
:10327000A0936005B09361052189328943895489FF
:1032800082179307A407B50748F010924C051092D7
:103290004B050E94320A02C010924D0580919A0699
:1032A0009AE0892780939A062091640530916505FC
:1032B0004091660550916705809168059091690578
:1032C000A0916A05B0916B05280F391F4A1F5B1F3B
:1032D000209368053093690540936A0550936B0508
:1032E00021388AE1380786E0480780E0580708F46B
:1032F000B6C020583A41464050402093680530936C
:10330000690540936A0550936B05E0914B05F09178
:103310004C05309709F4A3C0E0905E05F0905F057E
:103320000091600510916105EF5BFF4F80819181F5
:10333000A281B381E154F040E816F9060A071B07A1
:1033400068F5FD962081318142815381FD978091FE
:103350006C0590916D05A0916E05B0916F05280FD9
:10336000391F4A1F5B1F20936C0530936D054093F6
:103370006E0550936F0585899689A789B08D821750
:103380009307A407B50708F04EC080936C0590938F
:103390006D05A0936E05B0936F0545C0EB5BFF4FC5
:1033A00080819181A281B381E554F04020916C0528
:1033B00030916D0540916E0550916F058E159F05FA
:1033C000A007B107C8F5FD9680819181A281B381E4
:1033D000FD9782179307A407B50760F4281B390BE4
:1033E0004A0B5B0B20936C0530936D0540936E0583
:1033F00050936F0521AD32AD43AD54AD80916C0556
:1034000090916D05A0916E05B0916F05821793079D
:10341000A407B50740F420936C0530936D054093E5
:103420006E0550936F0560916C0570916D058091EC
:103430006E0590916F0511C0658976898789908D99
:10344000261737074807590751F060936C057093AA
:103450006D0580936E0590936F050E94171610926C
:10346000630510926205FF91EF91DF91CF91BF91BB
:10347000AF919F918F917F916F915F914F913F910C
:103480002F911F910F91FF90EF900F900BBE0F9017
:103490000FBE0F901F901895EF92FF920F931F93FE
:1034A0007B018C0122E030E040E050E00E946E227F
:1034B000205C3D4B404F5F4FCA01B901A801970105
:1034C0000E944C22C901DA010197A109B109292FF3
:1034D0003A2F4B2F55270196A11DB11D2093C500F2
:1034E00081508093C400E0ECF0E080818D7F808388
:1034F000E1ECF0E08081806180838081886080835E
:103500008081806880831F910F91FF90EF900895D4
:10351000982F8091C00085FFFCCF9093C60008953E
:10352000809170059091710580509F4F2091720598
:1035300030917305821B930B60E071E00E94392289
:103540000895409172055091730580917005909196
:1035500071058417950719F42FEF3FEF0FC0FA019B
:10356000EC58FA4F2081CA01019660E071E00E9498
:103570003922909373058093720530E0C901089554
:1035800080917205909173059093710580937005F9
:1035900008951F920F920FB60F920BB60F9211243F
:1035A0002F933F934F935F936F937F938F939F934B
:1035B000AF93BF93EF93FF934091C600E0917005E6
:1035C000F0917105CF01019660E071E00E9439220F
:1035D0009C0180917205909173052817390739F085
:1035E000EC58FA4F40833093710520937005FF919A
:1035F000EF91BF91AF919F918F917F916F915F916B
:103600004F913F912F910F900BBE0F900FBE0F90D7
:103610001F901895982F8091C00085FFFCCF909344
:10362000C6000895FC0107C08091C00085FFFCCF53
:1036300031969093C60090819923B1F708959C012B
:1036400006C08091C00085FFFCCF9093C600F901B1
:103650002F5F3F4F94919923A1F708952F923F92A6
:103660004F925F926F927F928F929F92AF92BF9292
:10367000CF92DF92EF92FF920F931F93DF93CF933E
:10368000CDB7DEB7A0970FB6F894DEBF0FBECDBFA3
:103690006B017C0129013A016115710581059105D4
:1036A00041F48091C00085FFFCCF80E38093C60089
:1036B00049C08824992454011E010894211C311CFE
:1036C0008101080D191DC701B601A30192010E94D5
:1036D0004C22F80160830894811C911CA11CB11C30
:1036E000C701B601A30192010E944C22C901DA016F
:1036F0006C017D01C114D104E104F10409F79101C9
:10370000280D391DBE016F5F7F4FD501C4010197A0
:10371000A109B109AC014819590911C0FA01E20F18
:10372000F31FE081EA3010F4E05D01C0E95C8091B4
:10373000C00085FFFCCFE093C600215030406217E7
:10374000730761F7A0960FB6F894DEBF0FBECDBF2A
:10375000CF91DF911F910F91FF90EF90DF90CF906D
:10376000BF90AF909F908F907F906F905F904F90A1
:103770003F902F9008959B01AC0197FF0EC0809160
:10378000C00085FFFCCF8DE28093C6005095409528
:10379000309521953F4F4F4F5F4FCA01B9012AE045
:1037A00030E040E050E00E942E1B089522E030E01F
:1037B00040E050E00E942E1B0895EF92FF920F937D
:1037C0001F93DF93CF9300D00F92CDB7DEB7AE013A
:1037D0004F5F5F4F0E9411217B018C0169817A81CB
:1037E0008B819C810E947B1F0E94BB1B8091C0002B
:1037F00085FFFCCF8EE28093C600C801B70120E0B0
:1038000030E04AE754E40E9444210E94A7210E942C
:103810007B1F97FF07C090958095709561957F4FAE
:103820008F4F9F4F0E94BB1B0F900F900F900F90D8
:10383000CF91DF911F910F91FF90EF900895879A9C
:10384000E7E0F1E080818160808380818260808315
:1038500080818460808380818860808380818064AF
:103860008083089580E00895CF93DF93EC0181E099
:103870000E9461152097C1F48091080181608093B6
:1038800008018091080182608093080180910801FD
:10389000846080930801809108018860809308010A
:1038A00080E00E94611570C0809108018160809362
:1038B0000801C330D10509F1C430D1053CF4C13051
:1038C000D10571F0229709F051C013C0C530D10560
:1038D00059F1C530D105FCF0269709F047C032C038
:1038E000809108018D7F80930801809108018B7F72
:1038F0000CC0809108018D7F28C0809108018D7FC8
:103900008093080180910801846080930801809170
:103910000801877F24C0809108018D7F8093080172
:1039200080910801846016C08091080182608093B4
:103930000801809108018B7F809308018091080124
:10394000877F12C080910801826080930801809176
:1039500008018B7F80930801809108018860809323
:103960000801809108018E7F8093080180910801F1
:103970008E7F8093080188EE93E020E931E0F90121
:103980003197F1F70197D9F7DF91CF9108951F9300
:10399000182F81E090E00E94501D882361F0812F54
:1039A00090E00E94341C80E090E00E94341C80E093
:1039B00090E00E94501D1F9108951F93182F81E0E1
:1039C00090E00E94501D882381F0812F90E00E949A
:1039D000F71C80E090E00E94501D80E991E0019783
:1039E000F1F780E090E00E94F71C1F910895CF93BB
:1039F000DF93EC018F3F910511F481E00BC00E9431
:103A0000071E882321F48C2F0E94DD1C03C08C2FFD
:103A10000E94C71CDF91CF9108950E94471D882303
:103A200021F080E090E00E94501D08950E94471D03
:103A3000882321F080E090E00E94501D0E940D1D1F
:103A400081E090E00E94501D81E090E00E94EC1D1A
:103A50000E94011E813031F480E090E00E94501DF0
:103A600081E0089580E090E00E94501D80E008957C
:103A7000EAE0F1E0808180628083EBE0F1E0808128
:103A8000806280833898409A3998419A089586B127
:103A90008170089586B190E096958795817008951C
:103AA000CF93DF93EC0181E090E00E9461152097B5
:103AB00021F480910B01806203C080910B018F7D06
:103AC00080930B0180ED97E020E931E0F901319717
:103AD000F1F70197D9F786B1817090E08C179D07B7
:103AE00031F083EE94E00E941F1B80E005C080E06F
:103AF00090E00E94611581E0DF91CF9108952598B3
:103B00002D9A3C98449A6998719A9D98A59AA4E038
:103B1000B1E08C918E7F8C93E5E0F1E08081816053
:103B200080838C918F7E8C93808180618083A1E0E3
:103B3000B1E08C918E7F8C93E2E0F1E08081816036
:103B400080838C918D7F8C938081826080830895A7
:103B50008CB182958695877080958170089582B327
:103B60008295869587708095817008958CB1829535
:103B70008F7080958170089580910301869580955E
:103B80008170089586B182958F70809581700895B7
:103B90008091000180958170089580910301809546
:103BA0008170089583B18295869587708095817024
:103BB00008958091000186958095817008955798A9
:103BC0005F9AEAE0F1E0808180618083EBE0F1E0E0
:103BD0008081806180830895892B21F480910B017D
:103BE000806103C080910B018F7E80930B0188E878
:103BF00093E120E931E0F9013197F1F70197D9F725
:103C0000089589B18095881F8827881F0895AF92ED
:103C1000BF92CF92DF92EF92FF920F931F9381E0BA
:103C200090E00E94EC1D66E676E686EA9FE32AE9CC
:103C300039E949E95FE30F2EF0E0EF2EF0E0FF2EC7
:103C4000F0E80F2FFFEB1F2FF02D570168010E94A6
:103C500072030E94FA16892BE1F780E991E001973F
:103C6000F1F71F910F91FF90EF90DF90CF90BF90F1
:103C7000AF9008954F9903C089EF94E002C085EF9B
:103C800094E00E941F1B0895E7E0F1E080818068C6
:103C90008083089581E090E00E9461158091080181
:103CA0008F778093080180ED97E020E931E0F901FA
:103CB0003197F1F70197D9F78091080180688093D7
:103CC000080180ED97E020E931E0F9013197F1F743
:103CD0000197D9F780E090E00E946115089550584F
:103CE000BB27AA270ED011C202D230F007D220F093
:103CF00031F49F3F11F41EF4D2C10EF4E095E7FBBE
:103D00009FC1E92F13D280F3BA17620773078407A4
:103D1000950718F071F49EF542C20EF4E0950B2E53
:103D2000BA2FA02D0B01B90190010C01CA01A0010D
:103D30001124FF27591B99F0593F50F4503E68F168
:103D40001A16F040A22F232F342F4427585FF3CFA9
:103D5000469537952795A795F0405395C9F77EF47A
:103D60001F16BA0B620B730B840BBAF09150A1F0C3
:103D7000FF0FBB1F661F771F881FC2F70EC0BA0F49
:103D8000621F731F841F48F4879577956795B795D1
:103D9000F7959E3F08F0B3CF9395880F08F09927C9
:103DA000EE0F979587950895DF93DD27B92FBF779D
:103DB00040E85FE31616170648075B0710F4D92F93
:103DC000F9D19F938F937F936F9323D3EEE5F1E027
:103DD00069D19BD12F913F914F915F9161D2DD23AA
:103DE00049F09058A2EA2AED3FE049EC5FE3D07831
:103DF0005D2787DFDF9189C1BBD180F09F3740F419
:103E000091110EF4CDC160E070E080E89FE3089569
:103E100026F01B16611D711D811D18C132C1ECD029
:103E200008F481E008950CD070C168D140F05FD1F2
:103E300030F021F45F3F19F003C15111B1C12FC11E
:103E400075D198F39923C9F35523B1F3951B550BFD
:103E5000BB27AA2762177307840738F09F5F5F4F5D
:103E6000220F331F441FAA1FA9F333D00E2E3AF09E
:103E7000E0E830D091505040E695001CCAF729D0B8
:103E8000FE2F27D0660F771F881FBB1F2617370707
:103E90004807AB07B0E809F0BB0B802DBF01FF2737
:103EA00093585F4F2AF09E3F510568F0C9C078C112
:103EB0005F3FECF3983EDCF3869577956795B79571
:103EC000F7959F5FC9F7880F911D9695879597F98C
:103ED0000895E1E0660F771F881FBB1F6217730705
:103EE0008407BA0720F0621B730B840BBA0BEE1F1A
:103EF00088F7E095089504D06894B11151C10895F0
:103F00001DD188F09F5790F0B92F9927B751A0F095
:103F1000D1F0660F771F881F991F1AF0BA95C9F75D
:103F200012C0B13081F03BD1B1E0089538C1672FA4
:103F3000782F8827B85F39F0B93FCCF3869577950D
:103F40006795B395D9F73EF49095809570956195F6
:103F50007F4F8F4F9F4F0895E89409C097FB3EF421
:103F600090958095709561957F4F8F4F9F4F9923C6
:103F7000A9F0F92F96E9BB279395F6958795779544
:103F80006795B795F111F8CFFAF4BB0F11F460FF04
:103F90001BC06F5F7F4F8F4F9F4F16C0882311F05C
:103FA00096E911C0772321F09EE8872F762F05C070
:103FB000662371F096E8862F70E060E02AF09A950B
:103FC000660F771F881FDAF7880F9695879597F900
:103FD0000895CED080F09F3740F491110EF0E0C0EC
:103FE00060E070E080E89FEB089526F41B16611DE9
:103FF000711D811D2BC045C0990F0008550FAA0BDC
:10400000E0E8FEEF16161706E807F907C0F01216EB
:104010001306E407F50798F0621B730B840B950BEE
:1040200039F40A2661F0232B242B252B21F4089543
:104030000A2609F4A140A6958FEF811D811D0895E0
:1040400097F99F6780E870E060E00895882371F435
:10405000772321F09850872B762F07C0662311F421
:1040600099270DC09051862B70E060E02AF09A9558
:10407000660F771F881FDAF7880F9695879597F94F
:1040800008959F3F31F0915020F48795779567957B
:10409000B795880F911D9695879597F908959FEF8D
:1040A00080EC0895DF93CF931F930F93FF92EF92CD
:1040B000DF927B018C01689405C0DA2EEF01F0D00D
:1040C000FE01E894A5912591359145915591AEF366
:1040D000EF0117DEFE019701A801DA9479F7DF906E
:1040E000EF90FF900F911F91CF91DF9108950024E1
:1040F0000A941616170618060906089500240A944D
:1041000012161306140605060895092E0394000CD2
:1041100011F4882352F0BB0F40F4BF2B11F460FF61
:1041200004C06F5F7F4F8F4F9F4F089557FD90588A
:10413000440F551F59F05F3F71F04795880F97FB6B
:10414000991F61F09F3F79F0879508951216130625
:104150001406551FF2CF4695F1DF08C01616170654
:104160001806991FF1CF8695710561050894089589
:10417000E5DFA0F0BEE7B91788F4BB279F3860F4ED
:104180001616B11D672F782F8827985FF7CF869571
:1041900077956795B11D93959639C8F30895E8947E
:1041A000BB2766277727CB0197F9089525DF08F409
:1041B0008FEF08959B01AC0160E070E080E89FE321
:1041C00032CEBCDF58F19E5758F19851A0F0E9F07B
:1041D000983020F5092E9927660F771F881F991FA1
:1041E0000A94D1F712C0062E672F782F8827985F80
:1041F00011F4000C07C0993FB4F386957795679545
:104200009395D9F7611D711D811D3EF490958095A0
:10421000709561957F4F8F4F9F4F08956894C0CFE1
:10422000BECFFA01DC01AA0FBB1F9B01AC01BF5737
:1042300028F422273327442750781FC0B75188F429
:10424000AB2F0024469537952795011CA395D2F3F3
:10425000002069F0220F331F441FB395DAF30DD00D
:104260003ECD61307105A0E88A07B94630F49B0164
:10427000AC016627772788279078309621F0208335
:1042800031834283538308950BD03FCF30DF28F032
:1042900035DF18F0952309F0D3CE01CF112480CF5C
:1042A00045DFA0F3959FD1F3950F50E0551F629F16
:1042B000F001729FBB27F00DB11D639FAA27F00D7F
:1042C000B11DAA1F649F6627B00DA11D661F829FA6
:1042D0002227B00DA11D621F739FB00DA11D621F8B
:1042E000839FA00D611D221F749F3327A00D611DA8
:1042F000231F849F600D211D822F762F6A2F11248A
:104300009F5750408AF0E1F088234AF0EE0FFF1FDC
:10431000BB1F661F771F881F91505040A9F79E3F13
:10432000510570F08DCE3CCF5F3FECF3983EDCF34F
:10433000869577956795B795F795E7959F5FC1F750
:10434000FE2B880F911D9695879597F90895F6DEB7
:10435000E0F09E37D8F09639B8F49E3848F4672FCD
:10436000782F8827985FF9CF8695779567959395ED
:104370009539D0F3B62FB1706B0F711D811D20F4EC
:10438000879577956795939561CE7BCE09CF11F48C
:104390000EF485CE76CED2DED0F39923D9F3CEF3C8
:1043A0009F57550B87FF3FD00024A0E640EA9001BD
:1043B00080585695979528F4805C660F771F881F64
:1043C00020F026173707480730F4621B730B840B65
:1043D000202931294A2BA6951794079420253125A9
:1043E0004A2758F7660F771F881F20F026173707D0
:1043F000480730F4620B730B840B200D311D411DF7
:10440000A09581F7B901842F9158880F96958795CB
:1044100008959B01AC0138CFABDE20F09F3708F444
:10442000BFCE14CE2ECE91505040660F771F881FFE
:10443000D2F70895629FD001739FF001829FE00D33
:10444000F11D649FE00DF11D929FF00D839FF00D13
:10445000749FF00D659FF00D9927729FB00DE11DBF
:10446000F91F639FB00DE11DF91FBD01CF0111249C
:10447000089597FB092E07260AD077FD04D049D06E
:1044800006D000201AF4709561957F4F0895F6F7D5
:10449000909581959F4F0895A1E21A2EAA1BBB1BF0
:1044A000FD010DC0AA1FBB1FEE1FFF1FA217B30700
:1044B000E407F50720F0A21BB30BE40BF50B661F16
:1044C000771F881F991F1A9469F7609570958095DA
:1044D00090959B01AC01BD01CF01089597FB092E7A
:1044E00005260ED057FD04D0D7DF0AD0001C38F4C3
:1044F00050954095309521953F4F4F4F5F4F089510
:10450000F6F790958095709561957F4F8F4F9F4FEF
:104510000895AA1BBB1B51E107C0AA1FBB1FA6170A
:10452000B70710F0A61BB70B881F991F5A95A9F75C
:1045300080959095BC01CD0108958F929F92AF9286
:10454000BF92CF92DF92EF92FF920F931F93CF9380
:10455000DF93EC015B016115710519F0FB0191839B
:104560008083F9908F2D90E00E940B24892BC9F74E
:10457000FDE2FF1621F4F990EE24E39405C02BE24E
:10458000F21609F4F990EE248E0101501040C80192
:104590006DEF74E043E050E00E941324892B01F595
:1045A0008E010E5F1F4FC80160E075E045E050E0EE
:1045B0000E941324892B19F48E01095F1F4FA11447
:1045C000B10419F0F50111830083E0FC04C070E030
:1045D00090E080E814C070E090E080E86FEF08C1E0
:1045E000C80165E075E043E050E00E941324892B88
:1045F00069F4A114B10429F470E090E080EC6FE755
:10460000F7C02296F501D183C083F6CF8824992480
:1046100040E050E060E070E0EF2DE053EA30A0F5BC
:10462000F2E0EF2A8E2D90E09C0128703070E2FEBF
:1046300006C0232B79F50894811C911C2BC0232BD9
:1046400019F0089481089108DB01CA0112E0880F73
:10465000991FAA1FBB1F1A95D1F7480F591F6A1F30
:104660007B1F440F551F661F771F4E0F511D611D85
:10467000711D483929E9520729E9620729E17207C2
:1046800048F084E0E82A06C0EE3F31F4E3FC39C08C
:1046900098E0E92AF990C0CFE53311F0E53189F5CA
:1046A00029912D3219F4E0E1EE2A05C02B3219F0E0
:1046B00081E090E003C0299182E090E0E22FE05396
:1046C000EA3018F0C81BD90B1CC020E030E0FCE039
:1046D00020383F075CF4C901880F991F880F991F84
:1046E000280F391F220F331F2E0F311DE991E05380
:1046F000EA3068F3E4FE03C0309521953F4F820E07
:10470000931ECE2CDD24E1FE07C0A114B10421F0DC
:104710002197F501D183C083CB01BA010E94AC1F60
:104720007B018C01F3E0CF22DD2423E0C216D1040B
:1047300021F417FB109517F9109557016801C8016E
:10474000B70120E030E040E050E00E940F1F8823D6
:1047500009F44AC097FE0DC02CE1E22E25E0F22EAE
:104760009094819491089394C0E2D0E000E010E02E
:1047700012C094E3E92E95E0F92EF6CFF7012591CA
:10478000359145915491C601B5010E9444215B01C8
:104790006C018C1A9D0A8C169D0684F7D595C795D9
:1047A0000F5F1F4F0630110529F08CEF9FEFE80EC9
:1047B000F91EF1CFC501D6017C018D018C2D880F2A
:1047C0008D2D881F8F3F51F0C601B50120E030E0EC
:1047D00040E050E00E940F1F882331F482E290E015
:1047E00090939C0680939B067E2D9F2D802F612F9A
:1047F000272F392F482F562FB901CA01DF91CF91AA
:104800001F910F91FF90EF90DF90CF90BF90AF90EE
:104810009F908F90089591111EC0803219F0895099
:104820008550D0F70895FB01DC014150504088F0DD
:104830008D9181341CF08B350CF4805E6591613470
:104840001CF06B350CF4605E861B611171F3990BE3
:104850000895881BFCCF992788270895F894FFCFE7
:00000001FF
