:1000000030C03DC03CC03BC007C139C038C037C05C
:1000100036C035C034C033C032C031C030C02FC04C
:100020002EC02DC02CC00FF10FF40FCD0FDC0F3DF3
:100030000F7C0CFD0DFC03FD07FC0FC70FD30F3722
:100040000F730CF70DF303F707F30F1F0F4F0CDFC0
:100050000DCF03DF07CF0C7F0D3F037F073F01FF6D
:1000600004FF11241FBECFEDCDBF10E0A0E6B0E02D
:1000700001C01D92A236B107E1F79ED14BC2C0CF9D
:10008000CF92DF92EF92FF920F931F93CF93DF9364
:1000900017BA11BA18BA12BAA8B307B36EE11AD2D6
:1000A000892F90E0880F991FFC01EA5DFF4FB49102
:1000B000895D9F4FFC0184912B2F30E0A9014C708A
:1000C00050704C30510511F48E9801C08E9A4B2F10
:1000D000469550E0EA01C170D07040FF05C020FF96
:1000E00003C0902F9E7F02C0902F9160482F441F25
:1000F0004427441F50E04115510549F0682F62958F
:1001000066956695637060FF02C09D7F01C0926036
:10011000682F62956695677070E08B0101701070B2
:1001200060FF07C0682F62956F7060FF02C09B7F01
:1001300001C09460682F66956695669570E0E1E071
:10014000EE2EF12CE622F72260FF07C0682F66959D
:10015000669560FF02C0977F01C09860682F669522
:1001600070E031E0C32ED12CC622D72260FF04C03C
:1001700080FF02C09F7E01C090616B2F66956695DF
:10018000669560FD04C0B695B695B17001C0B2E049
:10019000209729F420FD02C0AE7F01C0A160411567
:1001A000510551F4282F229526952695237020FD80
:1001B00002C0AD7F01C0A2600115110541F4282FD6
:1001C00022952F7020FD02C0AB7F01C0A460E11416
:1001D000F10441F4282F2695269520FD02C0A77F23
:1001E00001C0A860C114D10429F480FD02C0AF7E13
:1001F00001C0A061A8BB97BBB13011F4969A03C0AF
:10020000BB2309F49698DF91CF911F910F91FF9036
:10021000EF90DF90CF9008951F920F920FB60F923C
:1002200011240F900FBE0F901F901895A3E0969584
:10023000879577956795AA95D1F708C023E02A9509
:10024000F1F70000615070408040904061157105E9
:100250008105910599F70895EF92FF920F931F93EF
:10026000CF93DF9360ED77E023D1C0E0D0E07C0155
:100270000027F7FC0095102F8C2F02DFC801B70173
:10028000D5DFC801B701D2DFC801B701CFDFC80190
:10029000B701CCDFC801B701C9DFC801B701C6DFAC
:1002A000C801B701C3DFC801B701C0DF2196CE3155
:1002B000D10511F7DF91CF911F910F91FF90EF9032
:1002C0000895EF92FF920F931F93DF93CF930F92B6
:1002D000CDB7DEB760ED77E0EBD02DE17C010027F4
:1002E000F7FC0095102F822F2983CADEC801B701C1
:1002F0009DDF298122502F3FB1F72EE1822F2983E4
:10030000BFDEC801B70192DF29812250B9F70F90F3
:10031000CF91DF911F910F91FF90EF900895CF92B1
:10032000DF92EF92FF920F931F93DF93CF930F9281
:10033000CDB7DEB760ED77E0BBD021E07C010027D0
:10034000F7FC0095102F822F29839ADEC801B70190
:100350006DDF29812E5F2F31B1F7CC24DD248C2D68
:100360008FDEC801B70162DF22E030E0C20ED31E8B
:100370003EE1C316D10499F70F90CF91DF911F9101
:100380000F91FF90EF90DF90CF9008952EE030E036
:10039000281B390B822F880F8F5F72DE0895880F1C
:1003A0006FDE08959C012F5F3F4F2F30310514F011
:1003B00020E030E0C90108956F927F928F929F9262
:1003C000AF92BF92CF92DF92EF92FF920F931F9363
:1003D000CF93DF9389E08EBD88EE93E09BBD8ABD0D
:1003E00089B7806489BF8FEF81BB10BA80E182BB7F
:1003F00017BAEE24FF24CC24DD2421E0822E912C98
:1004000091E0692E712CC2E3D0E002E310E0AA244F
:10041000BB24C501BE016AD00097E9F40894C11C51
:10042000D11C8FE0C816D10414F0CC24DD2481E067
:100430006816710411F4219701C02196C130D105CD
:1004400021F0C436D10539F403C06624772403C0F3
:1004500081E0682E712C8C2D880F12DEC501B80149
:1004600045D00097F9F40894E11CF11C8FE0E816E0
:10047000F10414F0EE24FF2481E08816910419F4AD
:100480000150104002C00F5F1F4F0832110521F0CC
:100490000C33110539F403C08824992403C0B1E05A
:1004A0008B2E912CC70172DF0894A11CB11CB1CF17
:1004B0005527002480FF02C0060E571F660F771FC6
:1004C0006115710521F096958795009799F7952FFD
:1004D000802D0895991B79E004C0991F961708F0A4
:1004E000961B881F7A95C9F780950895AA1BBB1B98
:1004F00051E107C0AA1FBB1FA617B70710F0A61B24
:10050000B70B881F991F5A95A9F780959095BC0144
:08051000CD010895F894FFCF1E
:00000001FF
