:100000000C948C060C94A9060C94A9060C94A906D1
:100010000C94A9060C94A9060C94A9060C94A906A4
:100020000C94A9060C94A9060C94A9060C94A90694
:100030000C9462070C94A9060C94A9060C94A906CA
:100040000C94A9060C94A9060C9439070C94A906E3
:100050000C94A9060C94A9060C94A9060C94A90664
:100060000C94A9060C94A9060C94A9060C94A90654
:100070000C94A9060C94A9060C94A9060C94A90644
:100080000C94A9060C94A9060C94A906FFFFFFFF87
:10009000FFFFFFFFFFFF61FD28EFFFFFFFFFFFFFF7
:1000A000FFFFFFFFFFFF61FD28EFBCE110D51BC97B
:1000B000D1BD2AB31CA99E9FA896348E3886B07EE7
:1000C0009477DD70886A8D64E85E95598D54CE4FC3
:1000D000544B19471C43573FC93B6E384335463292
:1000E000742FCA2C462AE727A9258C238D21AB1F04
:1000F000E41D371CA11A2319B91764162315F3132D
:10010000D412C611C610D50FF20E1B0E500D910C55
:10011000DC0B320B910AF9096A09E2086308EA0765
:1001200078070D07A8064806EE0598054805FC0463
:10013000B40471043104F503BC03860353032303A1
:10014000F602CC02A3027D025A0238021802FA011A
:10015000DD01C201A90191017B01650151013E014F
:100160002C011B010B01FC00EE00E100D400C800D3
:10017000BD00B200A8009F0096008D0085007E00A3
:10018000770070006A0064005E005900007F031F62
:1001900003C703F1013F034F03D303F400F700DF6C
:1001A000033703CD01F301CF037303DC01FC00FD32
:1001B000037C033D904F7F804F00904D7F804D002A
:1001C000904A7F804A0090477F80470090437F801D
:1001D000430090417F804100903E7F803E00903BF5
:1001E0007F803B0090377F80370090367F803600DD
:1001F00090357F80350090327F803200902F7F8055
:100200002F00902B7F802B0090377F803700904706
:100210007F80470090437F80430090407F80400074
:1002200090437F80430090487F80480090407F80CB
:10023000400090437F804300903F7F803F00904389
:100240007F80430090477F804700903F7F803F0042
:1002500090437F80430090407F80400090457F80A6
:10026000450090477F80470090487F804800904A33
:100270007F804A0090407F80400090437F80430011
:1002800090487F80480090407F80400090437F806E
:100290004300903F7F803F0090437F804300904722
:1002A0007F80470090417F80410090437F804300E2
:1002B00090487F80480090377F80370090397F805A
:1002C000390090377F803700903B7F803B0090392A
:1002D0007F80390090377F803700903E7F803E00DE
:1002E00090437F80430090477F804700903E7F800F
:1002F0003E0090437F804300903D7F803D009043CF
:100300007F80430090467F804600903D7F803D0087
:1003100090437F804300903E7F803E0090457F80E9
:10032000450090477F80470090487F804800904973
:100330007F804900903E7F803E0090437F80430055
:1003400090477F804700903E7F803E0090437F80B3
:100350004300903B7F803B0090437F804300904769
:100360007F80470090417F80410090477F80470019
:1003700090487F80480090377F80370090397F8099
:10038000390090377F803700903B7F803B00903C66
:100390007F803C00903E7F803E00904C7F804C00F0
:1003A00090487F804800904C7F804C0090487F8030
:1003B0004800904A7F804A0090477F804700904ADB
:1003C0007F804A0090477F80470090497F804900A6
:1003D00090467F80460090497F80490090467F800C
:1003E000460090497F80490090497F8049009049AC
:1003F0007F804900904F7F804F00904A7F804A0065
:1004000090457F804500904A7F804A0090457F80DC
:10041000450090497F80490090457F804500904984
:100420007F80490090457F80450090487F8048004C
:1004300090457F80450090487F80480090457F80B0
:10044000450090477F80470090477F804700904756
:100450007F804700904D7F804D00903C7F803C0026
:1004600090437F80430090437F804300903C7F8097
:100470003C0090437F80430090417F804100904347
:100480007F80430090477F80470090477F804700F0
:1004900090477F80470090477F80470090417F8052
:1004A0004100903C7F803C0090377F803700903443
:1004B0007F80340090327F80320090307F80300027
:1004C000902B7F802B0090287F80280090267F80B3
:1004D000260090307F803000903A7F803A0090393B
:1004E0007F80390090387F80380090377F803700D8
:1004F00090367F80360090357F80350090347F8045
:10050000340090337F80330090327F80320090310E
:100510007F803100902F7F802F00902D7F802D00D5
:10052000902C7F802C00902B7F802B00902A7F8046
:100530002A00903F7F803F00903E7F803E00903DAC
:100540007F803D00903C7F803C00903B7F803B0063
:10055000903A7F803A0090397F80390090387F80D0
:10056000380090377F80370090367F803600903596
:100570007F80350090347F80340090327F8032005D
:1005800090317F80310090307F803000902F7F80CD
:100590002F00903E7F803E0090367F803600903B5B
:1005A0007F803B0090367F803600903E7F803E000B
:1005B00090367F803600903B7F803B0090367F8076
:1005C0003600903E7F803E0090367F803600903B24
:1005D0007F803B0090367F803600903E7F803E00DB
:1005E00090367F803600903B7F803B0090367F8046
:1005F0003600903E7F803E0090387F803800903BF0
:100600007F803B0090387F803800903E7F803E00A6
:1006100090387F803800903B7F803B0090387F800F
:100620003800903E7F803E0090387F803800903BBD
:100630007F803B0090387F803800903E7F803E0076
:1006400090387F803800903B7F803B0090387F80DF
:10065000380090437F804300903B7F803B00904078
:100660007F804000903B7F803B0090437F80430031
:10067000903B7F803B0090407F804000903B7F809C
:100680003B0090437F804300903B7F803B00904045
:100690007F804000903B7F803B0090437F80430001
:1006A000903B7F803B0090407F804000903B7F806C
:1006B0003B0090407F80400090397F803900903D22
:1006C0007F803D0090397F80390090407F804000DE
:1006D00090397F803900903D7F803D0090397F8048
:1006E000390090407F80400090397F803900903DF4
:1006F0007F803D0090397F80390090407F804000AE
:1007000090397F803900903D7F803D0090397F8017
:100710003900904A7F804A0090427F804200904793
:100720007F80470090427F804200904A7F804A004D
:1007300090427F80420090477F80470090427F80B8
:100740004200904A7F804A0090427F80420090475A
:100750007F80470090427F804200904A7F804A001D
:1007600090427F80420090477F80470090427F8088
:100770004200904A7F804A0090447F804400904726
:100780007F80470090447F804400904A7F804A00E9
:1007900090447F80440090477F80470090447F8052
:1007A0004400904A7F804A0090447F8044009047F4
:1007B0007F80470090447F804400904A7F804A00B9
:1007C00090447F80440090477F80470090447F8022
:1007D0004400904F7F804F0090477F804700904CAF
:1007E0007F804C0090477F804700904F7F804F0074
:1007F00090477F804700904C7F804C0090477F80DF
:100800004700904F7F804F0090477F804700904C7B
:100810007F804C0090477F804700904F7F804F0043
:1008200090477F804700904C7F804C0090477F80AE
:100830004700904C7F804C0090457F804500904958
:100840007F80490090457F804500904C7F804C0020
:1008500090457F80450090497F80490090457F808A
:100860004500904C7F804C0090457F80450090492A
:100870007F80490090457F804500904C7F804C00F0
:1008800090457F80450090497F80490090457F805A
:100890004500904A7F804A0090427F804200904706
:1008A0007F80470090427F804200904A7F804A00CC
:1008B00090427F80420090477F80470090427F8037
:1008C0004200904A7F804A0090427F8042009047D9
:1008D0007F80470090427F804200904A7F804A009C
:1008E00090427F80420090477F80470090427F8007
:1008F0004200904A7F804A0090447F8044009047A5
:100900007F80470090447F804400904A7F804A0067
:1009100090447F80440090477F80470090447F80D0
:100920004400904A7F804A0090447F804400904772
:100930007F80470090447F804400904A7F804A0037
:1009400090447F80440090477F80470090447F80A0
:100950004400904F7F804F0090477F804700904C2D
:100960007F804C0090477F804700904F7F804F00F2
:1009700090477F804700904C7F804C0090477F805D
:100980004700904F7F804F0090477F804700904CFA
:100990007F804C0090477F804700904F7F804F00C2
:1009A00090477F804700904C7F804C0090477F802D
:1009B0004700904C7F804C0090457F8045009049D7
:1009C0007F80490090457F804500904C7F804C009F
:1009D00090457F80450090497F80490090457F8009
:1009E0004500904C7F804C0090457F8045009049A9
:1009F0007F80490090457F804500904C7F804C006F
:100A000090457F80450090497F80490090457F80D8
:100A10004500904A7F804A0090427F804200904784
:100A20007F80470090427F804200904A7F804A004A
:100A300090427F80420090477F80470090427F80B5
:100A40004200904A7F804A0090427F804200904757
:100A50007F80470090427F804200904A7F804A001A
:100A600090427F80420090477F80470090427F8085
:100A70004200904A7F804A0090447F804400904723
:100A80007F80470090447F804400904A7F804A00E6
:100A900090447F80440090477F80470090447F804F
:100AA0004400904A7F804A0090447F8044009047F1
:100AB0007F80470090447F804400904A7F804A00B6
:100AC00090447F80440090477F80470090447F801F
:100AD0004400904F7F804F0090477F804700904CAC
:100AE0007F804C0090477F804700904F7F804F0071
:100AF00090477F804700904C7F804C0090477F80DC
:100B00004700904F7F804F0090477F804700904C78
:100B10007F804C0090477F804700904F7F804F0040
:100B200090477F804700904C7F804C0090477F80AB
:100B30004700904C7F804C0090457F804500904955
:100B40007F80490090457F804500904C7F804C001D
:100B500090457F80450090497F80490090457F8087
:100B60004500904C7F804C0090457F804500904927
:100B70007F80490090457F804500904C7F804C00ED
:100B800090457F80450090497F80490090457F8057
:100B90004500904A7F804A0090427F804200904703
:100BA0007F80470090427F804200904A7F804A00C9
:100BB00090427F80420090477F80470090427F8034
:100BC0004200904A7F804A0090427F8042009047D6
:100BD0007F80470090427F804200904A7F804A0099
:100BE00090427F80420090477F80470090427F8004
:100BF0004200904A7F804A0090447F8044009047A2
:100C00007F80470090447F804400904A7F804A0064
:100C100090447F80440090477F80470090447F80CD
:100C20004400904A7F804A0090447F80440090476F
:100C30007F80470090447F804400904A7F804A0034
:100C400090447F80440090477F80470090447F809D
:100C50004400904F7F804F0090477F804700904C2A
:100C60007F804C0090477F804700904F7F804F00EF
:100C700090477F804700904C7F804C0090477F805A
:100C80004700904F7F804F0090477F804700904CF7
:100C90007F804C0090477F804700904F7F804F00BF
:100CA00090477F804700904C7F804C0090477F802A
:100CB0004700904C7F804C0090457F8045009049D4
:100CC0007F80490090457F804500904C7F804C009C
:100CD00090457F80450090497F80490090457F8006
:100CE0004500904C7F804C0090457F8045009049A6
:100CF0007F80490090457F804500904C7F804C006C
:100D000090457F80450090497F80490090457F80D5
:100D10004500904A7F804A0011241FBECFEFD0E1EA
:100D2000DEBFCDBF11E0A0E0B1E0EEE3F6E102C02E
:100D300005900D92A232B107D9F711E0A2E2B1E01D
:100D400001C01D92AA37B107E1F70E94770A0C94FF
:100D50001D0B0C94000080911F01909120019C01BB
:100D600021703070309521953F4F2070347B9695DF
:100D70008795282739273093200120931F01C90127
:100D80000895109290008FE189B9599880E98AB945
:100D900086E0809395000895982F87FF20C081E01A
:100DA000809360019C3FA1F09D3F28F4903849F06A
:100DB000903981F409C09E3F09F45AC09F3F51F415
:100DC00007C0809362012EC082E0809362012BC035
:100DD00010926101109262011092630108952091B6
:100DE000630112164CF480917901809378019093FD
:100DF0007901215020936301809163011816C4F199
:100E00002091780180916201813019F0823081F562
:100E10000DC080910B01281729F4109261018FEF0A
:100E200080930B0182E080936301089580917901A2
:100E3000882351F480910B012817B9F410926101B5
:100E40008FEF80930B0111C081E080936101E22F4D
:100E5000F0E0EE0FFF1FE457FF4F859194919093C0
:100E600009018093080120930B0182E080936301C4
:100E700008951F920F920FB60F9211242F933F9354
:100E80004F935F936F937F938F939F93AF93BF9392
:100E9000EF93FF938CB180937501809175010E944F
:100EA000CC06FF91EF91BF91AF919F918F917F9170
:100EB0006F915F914F913F912F910F900FBE0F90C7
:100EC0001F9018951F920F920FB60F9211242F9317
:100ED0003F934F935F936F937F938F939F93AF93C2
:100EE000BF93EF93FF9380915F018730E1F02091F2
:100EF00076013091770180917601909177019695F6
:100F000087959093770180937601322F317020FF7F
:100F10000EC080917601909177019068909377014F
:100F20008093760104C00E94AB06382F3170209167
:100F30000C019091610180916101882349F0922315
:100F4000932329F080913B01809585BB01C015BAA0
:100F5000FF91EF91BF91AF919F918F917F916F9191
:100F60005F914F913F912F910F900FBE0F901F9067
:100F70001895FC0134B125B1922F80E0830F911DAB
:100F80009C0140E050E082819381A481B581280FCB
:100F9000391F4A1F5B1F228333834483558380910B
:100FA0002201882369F475E0569547953795279572
:100FB0007A95D1F7318320831282138214821582AD
:100FC00008958091600140916701509168012091DE
:100FD000080130910901882339F0440F551F440F4F
:100FE000551F241B350B08C02E5C3F4F241B350BAF
:100FF000220F331F220F331F8091640190916501EE
:101000002817390769F030936501209364018CB586
:101010009DB52817390710F41DBC1CBC3BBD2ABD6B
:10102000089540910A01433009F45AC0443060F4F5
:101030004130B1F1209166016091690170916A01BE
:10104000423008F041C00DC0453009F46CC0453055
:1010500008F453C0463009F485C0473009F0BBC0DE
:10106000AAC030E0269FC001279F900D369F900DAB
:101070001124492F552750936801409367018091AF
:10108000590190915A01969587952817390708F4C8
:10109000A2C080915B0190915C01841B950B97C06D
:1010A0008091660190E02091690130916A01AC0164
:1010B000429FC001439F900D529F900D1124909329
:1010C00067011092680187C0822F90E0869F90018F
:1010D000879F300D969F300D1124232F33275FC03B
:1010E0002091660130E08091590190915A019695C6
:1010F00087952817390790F40EC02091660130E0DB
:101100008091590190915A0196958795969587956A
:101110002817390718F080E090E059C080915B01F2
:1011200090915C0154C080916601282F30E080913D
:10113000590190915A019695879528173907B0F56E
:101140008091690190916A01AC01249FC001259FA3
:10115000900D349F900D1124880F892F881F990BB3
:10116000919535C080916601482F50E080915901DA
:1011700090915A019695879548175907B8F4809130
:10118000690190916A01489F9001499F300D589FD5
:10119000300D1124220F232F221F330B3195809104
:1011A0005B0190915C01821B930B11C0109268014E
:1011B0001092670110C080916601882361F40E943B
:1011C000AB0660915B0170915C010E94090B9093EA
:1011D000680180936701809166018F5F809366014B
:1011E00090E02091590130915A018217930710F035
:1011F00010926601089580916B018F5F80936B015F
:1012000090915D01891710F010926B0120E0909190
:101210006B0180915E01891708F021E020930C0199
:1012200080910C01089580916001882341F48091A0
:101230003B0190913C01909309018093080120911A
:10124000470130914801220F232F221F330B319584
:1012500080915F01821791F020935F01E0915F011F
:10126000F0E0EE0FFF1FE35FFE4F808191819093CE
:1012700077018093760181E080936C0120912301B6
:1012800030912401220F232F221F330B319580919F
:101290000A01821729F020930A0181E080936C01F2
:1012A00080916C01882319F0815080936C016091CA
:1012B00035017091360176956795769567957093AF
:1012C0005A016093590120912F01309130013695D8
:1012D00027953695279530935C0120935B01611526
:1012E000710519F480E090E005C080E0922F0E9423
:1012F000090BCB0190936A018093690180914101B0
:1013000090914201969587959695879580935D017A
:101310008091290190912A019695879596958795B8
:1013200080935E0108950F931F93CF93DF936530F1
:1013300008F060E0863008F080E02BB33AB3A82FC5
:10134000B0E0AA0FBB1FAA0FBB1FA60FB11DAA0FAB
:10135000BB1FCD0184579E4FFC014491A357BE4F44
:10136000FD015491842F869590E08C0101701070DE
:1013700080FF05C040FF03C0932F9B7F02C0932FC7
:10138000946057FF0AC0852F829586958695837055
:1013900080FF03C0392F3D7F02C0392F3260852F77
:1013A00082958695877090E0EC01C170D07080FFC7
:1013B00007C0852F82958F7080FF02C03E7F01C0DD
:1013C0003160852F86958695869590E0DC01A17029
:1013D000B07080FF07C0852F8695869580FF02C07C
:1013E0003F7E01C03061852F869590E0BC01617021
:1013F000707080FF05C050FF03C0932F977F02C01D
:10140000932F9860012B29F440FD02C02B7F01C06F
:10141000246057FD0AC0852F829586958695837036
:1014200080FD02C02D7F01C02260CD2B41F4852FAD
:1014300082958F7080FD02C02E7F01C02160AB2B92
:1014400041F4852F8695869580FD02C02F7E01C0D0
:101450002061672B29F450FD02C0277F01C028605E
:101460002BBB9ABBDF91CF911F910F9108950F93E2
:101470001F93CF93DF9380916D0190916E01019640
:1014800090936E0180936D010A9760F110926E0146
:1014900010926D0100916F0110917001C091710166
:1014A000D0917201802F6C2F0E9493090F5F1F4F04
:1014B0001093700100936F010530110549F41092EB
:1014C000700110926F012196D0937201C093710147
:1014D0008091710190917201049721F41092720130
:1014E00010927101DF91CF911F910F910895EF92AA
:1014F000FF921F93CF93DF93A09A8AB38C618ABB2C
:101500008D9A8FEF84BB8EB588608EBD87B7806162
:1015100087BF86B1876086B9379A0E94C1067894E2
:1015200010920A0110925F01E0915F01F0E0EE0F6E
:10153000FF1FE35FFE4F808191819093770180933D
:1015400076010E94E1078EB582608EBD1092220165
:10155000FDE2EF2EF12C809122018F5F809322011A
:10156000809122018F71809322019598C3E2D1E08E
:1015700010E0812F806487B9369A3699FECFCE016C
:101580000E94B9071F5F2696183099F780912201B3
:10159000882311F40E9413090E9411080E94FB087D
:1015A0000E94E1070E94370A80910601909107018D
:1015B000892B89F28091040190910501009719F51A
:1015C000E0917301F0917401EC54FE4FE4918E2F81
:1015D0000E94CC06809173019091740101969093C2
:1015E00074018093730180917301909174018E5DF9
:1015F000934021F41092740110927301F09205014E
:10160000E0920401A8CF0197909305018093040113
:10161000A2CFAA1BBB1B51E107C0AA1FBB1FA61765
:10162000B70710F0A61BB70B881F991F5A95A9F78B
:0E16300080959095BC01CD010895F894FFCFF0
:10163E00881392052D000100900108FF0100C000E3
:10164E00FFEFEFDBB67628D5AAAAAA00000000E1CC
:02165E00AC00DE
:00000001FF
