:200000000C9464020C9481020C9481020C9481020C9481020C9481020C9481020C948102E5
:200020000C9481020C9481020C9481020C9481020C9481020C943B030C9481020C948102ED
:200040000C9481020C9481020C94AE020C9481020C9481020C9481020C9481020C9481025B
:200060000C9481020C94810207634236B79BD8A71A39685618AEBAAB558C1D3CB7CC5763D4
:20008000BD6DEDFD753EF6177231BF000000803F05A84CCDB2D44EB93836A9020C50B99159
:2000A0008688083CA6AAAA2ABE000000803F000000000000808080008000A0A0000000000D
:2000C00050F850F8500070A070287000C8D0205898003050607098E08080000000004080F8
:2000E000808040008040404080005020F82050002020F82020000000004040800000F000C0
:20010000000000000000800008102040800060909090600040C04040E000E0106080F000D7
:20012000E0106010E000A0A0E0202000F080F010F000F080F090F000F01020404000F090BF
:20014000F090F000F090F010100000800080000000400040408020408040200000F000F03F
:200160000000804020408000E020600040007088B8B880786090F0909000E090E090E0001F
:20018000708080807000E0909090E000F080E080F000F080E0808000F080B090F0009090BF
:2001A000F0909000E0404040E00010101090600090A0C0A0900080808080F00088D8A888EF
:2001C000880090D0B0909000609090906000E090E0808000609090A05000E090E0909000C7
:2001E00070806010E000F820202020009090909060009090906060008888A8D888009090FF
:2002000060909000888850202000F0204080F000C0808080C000804020100800C040404086
:20022000C00020508800000000000000FC0040A04000000000709090700080E09090E0008A
:200240000070808070001070909070000060B0C070006040E04040000070907010E080E0AE
:200260009090900080008080800020002020A0408080A0C0A00080808080800000D0A8A8EE
:20028000880000E09090900000609090600000E09090E08000709090701000A0D080800086
:2002A0000070C030E00040E040404000009090906000009090A040000088A8A8D8000090CE
:2002C000606090000090907010E000F02040F00040804080400080808080808080408040CE
:2002E00080000050A000000020508888F800040204060606060203030606030502060504C7
:20030000050504050505050502030405040406050505050505050504050505060505050545
:20032000050506050506050605030603060704050505050504050502040402060505050523
:2003400005050405050605050503020305064E554C4C5350414345204C41425320303332BF
:200360002E4C412000000000000000303030003000D890000000006CFE6CFE6C007ED07C70
:2003800016FC00CC183060CC00609074D86C0030200000000060C0C0C06000180C0C0C18BF
:2003A000006C38FE386C000030FC30000000000030200000007C00000000000000C0000C03
:2003C000183060C000788484847800040C14040400788418207C007804380478008484FC29
:2003E000040400FC80F804F8003040F8847800FC040810100078847884780078847C0830D9
:20040000000030003000000030003020003060C0603000007C007C000030180C1830007810
:20042000CC1800180078CCDCC07C00304884FC8400F884F884F8007C8080807C00F8848480
:2004400084F800FC80F080FC00FC80F08080007C8084847C008484FC8484001010101010F0
:20046000000404048478008488F088840080808080FC0082C6AA92820084C4A4948C0078E6
:200480008484847800F884F8808000788484781C00F884F89088007C807804F800FE1010B6
:2004A000101000848484847800848484483000828292AA44008448304884008888502020A4
:2004C00000F8102040F8000011241FBECFEFD8E0DEBFCDBF11E0A0E0B1E0EEEFF5E202C093
:2004E00005900D92A830B107D9F714E0A8E0B1E001C01D92AE31B107E1F70E94B4030C9483
:20050000FD120C9400001092C50083E08093C400E1ECF0E088E1808386E08093C20088E9D6
:20052000808308958091C00087FFFCCF8091C6000895982F8091C00085FFFCCF9093C600B5
:200540000895FC0107C08091C00085FFFCCF9093C600319690819923B1F708951F920F9206
:200560000FB60F9211242F933F938F939F93EF93FF938091C0008091C60020910E013091BB
:200580000F01F901EE0FFF1FE25EFE4F90E082959295907F9827807F9827918380832F5FCA
:2005A0003F4F30930F0120930E012058314039F410920F0110920E0181E080931001FF918A
:2005C000EF919F918F913F912F910F900FBE0F901F901895089586B1829586958770809542
:2005E00081700895CF93DF93439820EA2A95F1F7AC01440F551F480F591F33E0440F551FF0
:200600003A95E1F7EB01C41BD50BA0E0B0E029C0CD01860F971F8417950710F4FB0101C07E
:20062000FE01EA0FFB1FEE0FFF1FE25EFE4F0190F081E02D2BE030E0CF01022E02C09695E9
:2006400087950A94E2F780FF02C0409A01C04098419A4198215030408FEF2F3F380761F73B
:200660001196A417B507A0F2439A80EA8A95F1F7DF91CF9108951F920F920FB60F92112422
:200680002F933F938F9386B182958F708095817080930C0180910C01882331F08091C00076
:2006A00085FFFCCF81E305C08091C00085FFFCCF80E38093C60080910D018F5F80930D0138
:2006C00081508330A1F420910A0130910B012F5F3F4F30930B0120930A018091C00085FF7A
:2006E000FCCF822F8F598093C60010920D018F913F912F910F900FBE0F901F90189581E095
:2007000080936F0010928000109285001092840084E0809381000895E1E8F0E080818160D8
:20072000808378940895CF93DF9316C0808191818330910530F09695879591838083C0E0E9
:20074000D0E0329684E0EE31F80781F780E190E00E940909CD2B29F4EEE1F1E0C1E0D0E09C
:20076000E5CFDF91CF9108952F923F924F925F926F927F928F929F92AF92BF92CF92DF922C
:20078000EF92FF920F931F93DF93CF93CDB7DEB7A0970FB6F894DEBF0FBECDBF1092C50021
:2007A00083E08093C40088E18093C10086E08093C20088E98093C1000E94580984EC99E056
:2007C00020E931E0F9013197F1F70197D9F780E190E00E9409090E946F0C10920B011092FB
:2007E0000A0181E080936F0010928000109285001092840084E08093810080918100816031
:200800008093810078942224332428E230E03E8F2D8FCE01079698A38F8F06C022243324D0
:20082000E8E2F0E0FE8FED8F20910A0130910B019091110135990EC0892F8F5F66E00E942F
:20084000D31140E157E2E0E9F1E03197F1F741505040C9F72730310509F441C02830310516
:20086000DCF42330310509F4E6C0243031056CF42130310509F491C0223031050CF03FC03A
:200880002115310509F440C0D5CF2530310591F12630310554F5E4C02B30310509F487C2EE
:2008A0002C3031054CF42930310509F4ABC12A3031050CF042C26DC12D30310549F02D3087
:2008C00031050CF4D5C22E30310509F0B3CF5FC390931101EE24FF24CC24DD244DC390938C
:2008E000110161E0E62EF12C4BC190931101EE24FF2423C190931101EE24FF24FCC09093D1
:200900001101EE24FF2494C0909311010F2EF0E0EF2EF0E0FF2EF0E80F2FFFE31F2FF02D7D
:20092000CC24DD24C801B7010E94731120E030E040E85FE30E946A0E20E030E040E752E41E
:200940000E9408110E94710F660F771F80E090E00E94A20FAB01BC0180E090E121E030E041
:200960000E94FE0A81E090E00E94090980E49CE90197F1F7C801B7012AE037ED43EA5DE3C3
:200980000E946A0E7B018C010894C11CD11CFBE6CF16F1E0DF0631F641CF909311018091D5
:2009A0000C01813031F482E090E090930B0180930A01C1010E9400092D8D3E8D220E331EC2
:2009C00030EA23163FE0330629F488ED9FEF9E8F8D8F08C098E22916310421F4E8E2F0E09E
:2009E000FE8FED8F80E190E00E94090980E49CE90197F1F719CFB801882777FD8095982F60
:200A00000E94A40FAB01BC0180E090E121E030E00E94AD0B0F5F1F4FF1E006331F0759F780
:200A20000894E11CF11C22E0E216F10409F4FCCE00EF10E0E0CF9093110180E090E00E9425
:200A400000090E943B0E80E190E00E94090980E991E0E0E9F1E03197F1F70197D1F7E4CEE7
:200A6000909311010E949303F101EE0FFF1FE25EFE4F8D8D9E8D918380830894211C311CED
:200A800091E8291691E0390680F0ED8DFE8DEF5FFF4039F0222433248FEF9FE09E8F8D8FE0
:200AA00004C0222433241E8E1D8E80E190E00E940909BACEB801882777FD8095982F0E9417
:200AC000A40FAB01BC0180E090E121E030E00E94FE0A81E090E00E9409090F5F1F4F91E09C
:200AE0000836190739F70894E11CF11CE5E0EE16F10409F499CE00E010E0DCCFB8018827BD
:200B000077FD8095982F0E94A40FAB01BC0180E090E196010E94FE0AC6010E9409090F5FCC
:200B20001F4FF1E008361F0749F70894E11CF11C25E0E216F10409F477CE6701D594C794CC
:200B400000E010E0DBCFB801882777FD8095982F0E94A40FAB01BC01C60121E030E00E942B
:200B6000FE0A81E090E00E9409090250104059F70894E11CF11C36E0E316F10409F454CE2D
:200B800080E090E1B7010E94F3116B0108E611E0DACF909311010E94930321E0C22ED12CD7
:200BA00028C0B70180E090E00E94A20FAB01BC01C50121E030E00E94FE0A01E010E081E056
:200BC00090E00E9409090F5F1F4F01311105B9F780E190E0E80EF91E90E7E91691E0F90659
:200BE00001F70894C11CD11CE6E0CE16D10409F41BCE80E090E1B6010E94DF115B01EE24AA
:200C0000FF24CFCF909311010E945B1266E470E00E94F311C296AA2797FDA095BA2FBC01F7
:200C2000CD010E94A40F698F7A8F8B8F9C8F0F2EF0E06F2EF0E07F2EF0E88F2EFFE39F2EE0
:200C4000F02D44245524C401B3010E94731120E030E040E85FE30E946A0E298D3A8D4B8D0E
:200C60005C8D0E9408110E94710F660F771F80E090E00E94A20FAB01BC0180E090E121E045
:200C800030E00E94FE0A81E090E00E940909C401B30120E030E040EC50E40E9408115B0115
:200CA0006C0120E030E04AE755E40E9408117B018C0120E030E040E85FE30E94D30E8823E1
:200CC0001CF461E070E023C0C801B70120E03FEF4FE757E40E948C101816ACF4C601B501E7
:200CE00020E030E040E251E40E9408110E94760F06C080E991E00197F1F7615070406115B4
:200D00007105B9F707C0C801B7010E94760FCB010197F1F7C401B3012DEC3CEC4CEC5DE3C0
:200D20000E946A0E3B014C010894411C511CFAE54F16510409F087CF77CD90931101809138
:200D40000C01813031F48BE090E090930B0180930A010E949303EE24FF2419C00E945B1233
:200D60006FEF77E00E94F311F801819391938F01F4E00E311F0791F780E190E00E94090911
:200D80000894E11CF11C22E3E216F10419F00EE111E0E4CF81E090E0909301018093000115
:200DA0008AE090E090930301809302013DCD90931101EE24FF2482EEA82E8FEFB82E0EE10F
:200DC000C02ED12C00910201109103018091000190910101080F191F109301010093000132
:200DE00037E1033A130724F0B0920301A09202010832110524F4D0920301C0920201B7011A
:200E000080E090E00E94A20FAB01BC01C80121E030E00E94FE0A009100011091010180EB22
:200E20009FEFE80EF91EB70180E090E0E0E5F0E0EE0EFF1E0E94A20FAB01BC01C80121E05B
:200E400030E00E94320A00E010E081E090E00E9409090F5F1F4F00311105B9F724E030E068
:200E6000E20EF31E30E5E316F10409F0ABCFDCCC9093110180910C01813031F48DE090E04D
:200E800090930B0180930A0111E0C12ED12C80E090E040E050E060E070E021E030E00E94C5
:200EA000AD0B80E090E1B6010E94DF115B01EE24FF24B70180E090E00E94A20FAB01BC018B
:200EC000C50121E030E00E94320A01E010E081E090E00E9409090F5F1F4F01311105B9F733
:200EE00080E190E0E80EF91E90E7E91691E0F90601F70894C11CD11CE6E0CE16D10439F622
:200F000093CC0E945B1260E074E00E94F311F801718360836F31710528F02FEF3FE031833A
:200F2000208306C06A30710518F4F801118210820894E11CF11C0E5F1F4FAE14BF040CF705
:200F400000E010E080E190E0B8010E94F20280E49CE90197F1F7085E1F4FF1E000381F0735
:200F600089F728E130E0C20ED31E760130E8C31631E0D30609F458CC8701000F111F025E7D
:200F80001E4FA7E1AA2EB12CAC0CBD1CD6CF9093110180E090E03CE021E0E1E0F0E0EC0FC3
:200FA000FD1FE80FF91F1082E7E0F0E0EC0FFD1FE80FF91F3083EDE0F0E0EC0FFD1FE80F59
:200FC000F91F2083E3E1F0E0EC0FFD1FE80FF91F108201968630910501F777246624639413
:200FE000F3C0F8016081718180E090E00E94A20F20E030E040E45FE30E9408110E94760FF7
:20100000F801619371938F01F4E00E311F0749F78E010F5F1F4FF7E0AF2EB12CAC0EBD1E45
:20102000EDE0CE2ED12CCC0EDD1E73E1E72EF12CEC0EFD1EF8014081F5015081842F992786
:2010400087FD9095252F332727FD3095FC01EE0FFF1FE80FF91F83E0EE0FFF1F8A95E1F7B4
:20106000E20FF31FEE0FFF1FE25EFE4F20ED37E031832083F6018080882D840FF80180830F
:20108000F7019080992D950FF501908380311CF08051F8018083F801808187FF02C0805F2A
:2010A000808398311CF09851F5019083F501808187FF02C0885E80830E945B12FCE781309B
:2010C0009F076CF0882021F0F6011082F70105C0992029F0F7011082F601608211C0815038
:2010E000984774F0882029F0F60110822FEFF70106C0992029F0F70110822FEFF601208373
:201100000F5F1F4F0894A11CB11C0894C11CD11C0894E11CF11C8F8D98A10817190709F034
:2011200089CF80E190E060E070E00E94F2020E945B1264E670E00E94F311AA2797FDA09577
:20114000BA2FBC01CD010E94A40F5B016C0120E030E04AE755E40E9408117B018C0120E0BF
:2011600030E040E85FE30E94D30E88231CF461E070E023C0C801B70120E03FEF4FE757E423
:201180000E948C101816ACF4C601B50120E030E040E251E40E9408110E94760F06C080E94E
:2011A00091E00197F1F76150704061157105B9F707C0C801B7010E94760FCB010197F1F786
:2011C00073949AEF791619F00EE111E00ACF10920B0110920A0128CBFC01EE0FFF1FE80FD1
:2011E000F91F93E0EE0FFF1F9A95E1F77096E61BF70BEE0FFF1FE25EFE4F5183408308955D
:20120000EEE1F1E08193919324E0EE31F207D1F70895AC01440F551F480F591FB0911101DF
:20122000A0910C01EEE1F1E064E0440F551F6A95E1F74E0F5F1F26C0608171810B2E02C05F
:20124000769567950A94E2F7AA2329F033E0769567953A95E1F72BE030E0CB01022E02C090
:20126000969587950A94E2F780FF02C0409A01C04098419A4198215030408FEF2F3F38073C
:2012800061F73296E417F507B9F688B18C6088B988B1837F88B9089583B7817F83BF83B753
:2012A000816083BF80E685BF80E485BF8895089587B18F6087B988B18F6088B988B18C7FEB
:2012C00088B9429887B18F7C87B9449A459A10927A001092110180E096E0EEE1F1E0DF018D
:2012E0009C011D9221503040E1F780E190E00E94090908952F923F924F925F926F927F9251
:201300008F929F92AF92BF92CF92DF92EF92FF920F931F93DF93CF9300D000D0CDB7DEB724
:201320006C018901CB01BA0120ED3FE049E450E40E94081120E030E044E353E40E94D70EF2
:201340000E9473115801AA0CBB1CA00EB11EE3E0AA0CBB1CEA95E1F720E030E040E85FE3E3
:201360000E946A0E7B018C01B50180E090E00E94A20F20E030E040E05FE30E9408119B01A8
:20138000AC01C801B7010E9408111B012C012EE131E03A8329831C821B823601882477FC01
:2013A0008094982C42C0EB81FC81BF0180E090E00E94A20F20E030E040E05FE30E946A0EFB
:2013C0009B01AC01C201B1010E94690E9F7726E636E646EA5FEB0E94081120E030E040E093
:2013E00050E00E946A0E0E94450F7B018C01C401B3010E94A40FA80197010E9408119B013E
:20140000AC0160E070E080E895E40E94690E0E94760FE981FA8161937193FA83E9832B81FC
:201420003C812F5F3F4F3C832B838B819C818A159B0508F4B8CF0F900F900F900F90CF919F
:20144000DF911F910F91FF90EF90DF90CF90BF90AF909F908F907F906F905F904F903F9069
:201460002F9008952F923F924F925F926F927F928F929F92AF92BF92CF92DF92EF92FF92D2
:201480000F931F93DF93CF9300D000D000D0CDB7DEB76C018901CB01BA0120ED3FE049E4C4
:2014A00050E40E94081120E030E044E353E40E94D70E0E9473114801880C991C800E911E53
:2014C000A3E0880C991CAA95E1F720E030E040E85FE30E946A0E7B018C01B40180E090E007
:2014E0000E94A20F20E030E040E05FE30E9408119B01AC01C801B7010E94081169837A83FE
:201500008B839C838EE191E09E838D83662477241601442437FC4094542C53C0B30180E03B
:2015200090E00E94A20F20E030E040E05FE30E946A0E9B01AC0169817A818B819C810E9463
:20154000690E9F7726E636E646EA5FEB0E94081120E030E040E050E00E946A0E0E94450F31
:201560005B016C01ED81FE816081718180E090E00E94A20F7B018C01C201B1010E94A40FEC
:20158000A60195010E9408119B01AC01C801B7010E946A0E0E94760FED81FE817183608384
:2015A0006050704130F08FEF9FE0ED81FE81918380830894611C711CED81FE813296FE83CD
:2015C000ED836814790408F4A9CF26960FB6F894DEBF0FBECDBFCF91DF911F910F91FF907C
:2015E000EF90DF90CF90BF90AF909F908F907F906F905F904F903F902F9008952F923F9229
:201600004F925F926F927F928F929F92AF92BF92CF92DF92EF92FF920F931F93DF93CF93F6
:2016200000D000D0CDB7DEB76C018901CB01BA0120ED3FE049E450E40E94081120E030E01B
:2016400044E353E40E94D70E0E9473115801AA0CBB1CA00EB11E13E0AA0CBB1C1A95E1F715
:2016600020E030E040E85FE30E946A0E7B018C01B50180E090E00E94A20F20E030E040E0C4
:201680005FE30E9408119B01AC01C801B7010E9408111B012C012EE131E03A8329831C8258
:2016A0001B823601882477FC8094982C3AC0EB81FC81BF0180E090E00E94A20F20E030E089
:2016C00040E05FE30E946A0E9B01AC01C201B1010E94690E9F7726E636E646EA5FEB0E945D
:2016E000081120E030E040E050E00E946A0E0E94450F7B018C01C401B3010E94A40FA801E1
:2017000097010E9408110E94760FE981FA8161937193FA83E9832B813C812F5F3F4F3C8345
:201720002B838B819C818A159B0508F20F900F900F900F90CF91DF911F910F91FF90EF90EF
:20174000DF90CF90BF90AF909F908F907F906F905F904F903F902F9008952F923F924F9265
:201760005F926F927F928F929F92AF92BF92CF92DF92EF92FF920F931F93CF93DF938C01E9
:201780001901CB01BA0120ED3FE049E450E40E94081120E030E044E353E40E94D70E0E94C9
:2017A000731120E030E040E85FE30E946A0E20E030E040E453E40E9408113B014C013EE143
:2017C000432E31E0532EC0E0D0E05801CC24B7FCC094DC2CBE0180E090E00E94A20F20E07C
:2017E00030E040E05FE30E946A0E9B01AC01C401B3010E94690E9F7726E636E646EA5FEBCA
:201800000E94081120E030E040E050E00E946A0E0E94450F7B018C01C601B5010E94A40FC2
:20182000A80197010E9408110E94760FF201619371932F012196F1E0C038DF0759F6C101F3
:201840000E940909DF91CF911F910F91FF90EF90DF90CF90BF90AF909F908F907F906F90EE
:201860005F904F903F902F90089590E05A9887FF02C05C9A01C05C98880F4C9981605A9AC9
:201880009F5F983099F75A985C9A08958AB186618AB954985A985C9A599A08951F93162FAD
:2018A0005998880F80680E94350C812F0E94350C599A1F9108955998880F0E94350C80E037
:2018C0000E94350C599A08959C01FC0101C0319684918823E1F7CF01821B930B089581E0D2
:2018E00090E0909313018093120180E090E00E940009EEE4F3E001C0319684918823E1F7DB
:20190000CF018E5493409C0143E0220F331F4A95E1F7280F391F2E5E3F4F3093190120930F
:20192000180184EF91E0909309018093080108952F923F924F925F926F927F928F929F92FC
:20194000AF92BF92CF92DF92EF92FF920F931F93DF93CF93CDB7DEB728970FB6F894DEBF23
:201960000FBECDBF9A8389837C836B832CEF8931920711F03C0114C0FA0101C031968491E0
:201980008823E1F79F01241B350BC901880F991F820F931F9F777CE0672E712C681A790AA0
:2019A0006A010894C11CD11C4424552465C08A3041F48B819C8106969C838B8369807A808C
:2019C00058C090E080978B3391050CF08097FC01EE0FFF1FE80FF91FEE0FFF1FE255FF4F3A
:2019E000F887EF83AB80BC80882499249201260D371D3E832D83EF81F8858491ED80FE80AE
:201A000000E010E0282E332480E890E0002E02C0959587950A94E2F782219321892B71F058
:201A2000F8E1EF16F10450F42FE0A216B10430F4C701B5014FEF57E00E94EC080F5F1F4F8A
:201A40000894E11CF11C06301105F1F60894811C911C8F819885019698878F830894A11C79
:201A6000B11C96E08916910431F6E5E0F0E04E0E5F1E0894C11CD11C0894C108D108F601BF
:201A800084910894C11CD11C882309F090CF28960FB6F894DEBF0FBECDBFCF91DF911F9143
:201AA0000F91FF90EF90DF90CF90BF90AF909F908F907F906F905F904F903F902F900895C7
:201AC0002F923F924F925F926F927F928F929F92AF92BF92CF92DF92EF92FF920F931F9374
:201AE000DF93CF93CDB7DEB728970FB6F894DEBF0FBECDBF9A8389831B016A012CEF89316E
:201B0000920711F03C0118C0FA0101C0319684918823E1F79F012C193D09C90103E0880F8C
:201B2000991F0A95E1F7821B930B96958795BCE06B2E712C681A790A38E1631671040CF01A
:201B400081C089EF28168FEF38060CF47BC090E1291631040CF076C0442455246EC08A30B7
:201B600059F4E7E0F0E02E0E3F1E0894C11CD11C69807A8044245524F601849190E080972B
:201B80008B3391050CF080979C01220F331F280F391F220F331F2B593C4F38872F835101DA
:201BA00088249924C201860D971D9E838D83EF81F8858491ED80FE8000E010E0282F30E05D
:201BC0003C832B8380E890E0002E02C0959587950A94E2F7EB81FC818E239F23892B71F0A2
:201BE000F8E1EF16F10450F42FE0A216B10430F4C701B5014FEF57E00E94EC080F5F1F4FC9
:201C00000894E11CF11C08301105E1F60894811C911C8F819885019698878F830894A11CC5
:201C2000B11C96E08916910409F0C1CF0894C11CD11CE7E0F0E04E0E5F1EF6018491882317
:201C400009F08DCF28960FB6F894DEBF0FBECDBFCF91DF911F910F91FF90EF90DF90CF902E
:201C6000BF90AF909F908F907F906F905F904F903F902F900895809112019091130162E0E6
:201C800070E04EE453E00E94600DE2E1F1E0A8E1B1E040E050E062E070E09A0120953095DB
:201CA00080819181280F391F318320838D919C911197909581959F4F2817390714F4718394
:201CC00060834F5F5F4F329612964330510529F708955058BB27AA270ED0E3C1D4D130F02D
:201CE000D9D120F031F49F3F11F41EF492C10EF4E095E7FB88C1E92FE5D180F3BA176207A0
:201D000073078407950718F099F4C6F5FDC10EF4E0950B2EBA2FA02D062E622F202D072E67
:201D2000732F302D082E842F402D092E952F502DFF27591B99F0593F50F4503E68F11A16C0
:201D4000F040A22F232F342F4427585FF3CF469537952795A795F0405395C9F77EF41F16CB
:201D6000BA0B620B730B840BBAF09150A1F0FF0FBB1F661F771F881FC2F70EC0BA0F621F8D
:201D8000731F841F48F4879577956795B795F7959E3F08F0AECF9395880F08F09927EE0F10
:201DA0009795879508950BD108F481E008950CD078C170D140F067D130F021F45F3F19F0CE
:201DC00022C15111A2C125C17DD198F39923C9F35523B1F3951B550BBB27AA276217730752
:201DE000840738F09F5F5F4F220F331F441FAA1FA9F334D00E2E3AF0E0E831D09150504095
:201E0000E695001CCAF72AD0FE2F28D0660F771F881FBB1F261737074807AB07B0E809F0B2
:201E2000BB0B802D6E2F7F2FFF2793585F4F2AF09E3F510568F0E7C068C15F3FECF3983E5D
:201E4000DCF3869577956795B795F7959F5FC9F7880F911D9695879597F90895E1E0660F0B
:201E6000771F881FBB1F621773078407BA0720F0621B730B840BBA0BEE1F88F7E09508950F
:201E800019F40EF0C0C040C1C4C024D1C8F39638C0F707F80F92E8942BE33AEA48EB5FE736
:201EA000C4D10F920F920F924DB75EB70F9277D1E8E6F0E0B1D04F915F91EF91FF91E5952F
:201EC000EE1FFF1F49F0FE57E0684427EE0F441FFA95E1F74195550B2ED10F9007FE20C115
:201EE000089504D06894B11110C10895F3D088F09F5790F0B92F9927B751A0F0D1F0660F1E
:201F0000771F881F991F1AF0BA95C9F712C0B13081F0FAD0B1E00895F7C0672F782F8827F4
:201F2000B85F39F0B93FCCF3869577956795B395D9F73EF490958095709561957F4F8F4F5C
:201F40009F4F0895E89409C097FB3EF490958095709561957F4F8F4F9F4F9923A9F0F92FA1
:201F600096E9BB279395F695879577956795B795F111F8CFFAF4BB0F11F460FF1BC06F5F4F
:201F80007F4F8F4F9F4F16C0882311F096E911C0772321F09EE8872F762F05C0662371F09A
:201FA00096E8862F70E060E02AF09A95660F771F881FDAF7880F9695879597F90895990FDF
:201FC0000008550FAA0BE0E8FEEF16161706E807F907C0F012161306E407F50798F0621B16
:201FE000730B840B950B39F40A2661F0232B242B252B21F408950A2609F4A140A6958FEF20
:20200000811D811D089597F99F6780E870E060E008959FEF80EC0895DF93CF931F930F93FD
:20202000FF92EF92DF92E62EF72E082F192F689407C0DA2ECE2FDF2FF6D0EC2FFD2FE89406
:20204000C895A02D3196C895202D3196C895302D3196C895402D3196C895502D31964EF32A
:20206000CE2FDF2F48DEEC2FFD2F2E2D3F2D402F512FDA94F9F6DF90EF90FF900F911F9108
:20208000CF91DF91089500240A941616170618060906089500240A941216130614060506D6
:2020A0000895092E0394000C11F4882352F0BB0F40F4BF2B11F460FF04C06F5F7F4F8F4F2D
:2020C0009F4F089557FD9058440F551F59F05F3F71F04795880F97FB991F61F09F3F79F0D5
:2020E00087950895121613061406551FF2CF4695F1DF08C0161617061806991FF1CF86952A
:202100007105610508940895E894BB2766277727862F972F97F9089552DF08F48FEF089531
:20212000262F372F482F592F60E070E080E89FE33ECE69CFDEC0CEDFE8F39923D9F3940FD6
:20214000511DBBF39150504094F059F0882332F0660F771F881F91505040C1F79E3F51054A
:2021600044F7880F911D9695879597F908955F3FACF0983E9CF0BB27869577956795B7957E
:2021800008F4B1609395C1F7BB0F58F711F460FFE8CF6F5F7F4F8F4F9F4FE3CFB6CFE42F6C
:2021A000F52FA82FB92FAA0FBB1F262F372F482F592FBF5728F4222733274427507821C006
:2021C000B75188F4AB2F0024469537952795011CA395D2F3002069F0220F331F441FB39559
:2021E000DAF30FD076CD61307105A0E88A07B94640F4262F372F482F592F66277727882709
:202200009078309621F0208331834283538308950AD047CF38DF28F03DDF18F0952309F05C
:20222000F2CEF7CE72CF4EDFA8F39923D9F35523C9F3950F50E0551FAA27EE27FF27BB271E
:2022400000240894679520F4E20FF31FB41F0A1E220F331F441FAA1F6695A9F7779530F436
:20226000F30FB41F0A1E121E08F46395330F441FAA1F221F769599F7879520F4B40F0A1ED8
:20228000121E631F440FAA1F221F331F8695A9F7862F712D602D11249F5750408AF0E1F03C
:2022A00088234AF0EE0FFF1FBB1F661F771F881F91505040A9F79E3F510570F0A4CE25CF78
:2022C0005F3FECF3983EDCF3869577956795B795F795E7959F5FC1F7FE2B880F911D969516
:2022E000879597F908959F9313D00F9007FCEE5F36C09F3F31F0915020F487957795679583
:20230000B795880F911D9695879597F9089581CEE1DEE8F3E894E0E0BB279F57F0F02AEDC4
:202320003FE049EC06C0EE0FBB0F661F771F881F28F0B23A62077307840728F0B25A620BF7
:20234000730B840BE3959A9572F7803830F49A95BB0F661F771F881FD2F79048CCCFEF930B
:20236000E0FF06C0A2EA2AED3FE049EC5FEBC3DC98DE0F90039401FC9058E0E9F0E000C0EE
:202380009F938F937F936F93FF93EF93262F372F482F592F3DDFEF91FF913EDE2F913F912F
:2023A0004F915F9135CF991B79E004C0991F961708F0961B881F7A95C9F780950895AA1B7D
:2023C000BB1B51E107C0AA1FBB1FA617B70710F0A61BB70B881F991F5A95A9F78095909565
:2023E000BC01CD01089597FB092E07260AD077FD04D0E5DF06D000201AF4709561957F4F0C
:202400000895F6F7909581959F4F0895A0E0B0E0EBE0F2E1A1C0C82FD92FA880B980CA80B3
:20242000DB80A114B104C104D10441F484E2A82E89EDB82E8BE5C82E87E0D82E9D2D8C2D1A
:202440007B2D6A2D2DE133EF41E050E062D027EA31E440E050E03ED0E62EF72E082F192F4E
:202460009D2D8C2D7B2D6A2D2DE133EF41E050E050D0952F842F732F622F2CEE34EF4FEFD4
:202480005FEF28D06E0D7F1D801F911F97FF04C06150704080409048688379838A839B832B
:2024A000262F372F3F77822F932FCDB7DEB7EAE06FC0ACDF089584E091E0A8DF0895A0E085
:2024C000B0E08093040190930501A0930601B09307010895629FD001739FF001829FE00D26
:2024E000F11D649FE00DF11D929FF00D839FF00D749FF00D659FF00D9927729FB00DE11DE6
:20250000F91F639FB00DE11DF91FBD01CF011124089597FB092E05260ED057FD04D04BD059
:202520000AD0001C38F450954095309521953F4F4F4F5F4F0895F6F79095809570956195AB
:202540007F4F8F4F9F4F08952F923F924F925F926F927F928F929F92AF92BF92CF92DF9218
:20256000EF92FF920F931F93CF93DF93CDB7DEB7CA1BDB0B0FB6F894DEBF0FBECDBF099459
:202580002A88398848885F846E847D848C849B84AA84B984C884DF80EE80FD800C811B81C9
:2025A000AA81B981CE0FD11D0FB6F894DEBF0FBECDBFED010895A1E21A2EAA1BBB1BFD01B5
:2025C0000DC0AA1FBB1FEE1FFF1FA217B307E407F50720F0A21BB30BE40BF50B661F771F71
:2025E000881F991F1A9469F760957095809590959B01AC01BD01CF010895F894FFCF01006B
:062600000A0001000000C9
:00000001FF
