:1000000014C021C020C01FC01EC01DC01CC01BC00A
:100010001AC019C018C017C016C015C014C013C02C
:1000200012C011C010C00FC00EC011241FBECFEDF2
:10003000CDBF10E0A0E6B0E001C01D92A236B1072E
:10004000E1F718D076C0DCCF23E0969587957795B9
:1000500067952A95D1F733E007C0232F2A95F1F74A
:100060006150704080409040611571058105910597
:10007000A1F708950F931F9383E08ABB8FE387BB9B
:100080008CE781BB00E010E068EE73E080E090E078
:10009000DBDF82B3837082BB82B38C6382BB88B3A5
:1000A000807E88BB8BB383608BBB123091F01330A2
:1000B00028F4112351F0113099F409C0143069F07B
:1000C000143048F0153061F40AC0969A09C0C09AFD
:1000D00007C0C19A05C0C29A03C0C39A01C0C49A9E
:1000E000023091F0033028F4002351F0013099F4EC
:1000F00009C0043069F0043048F0053061F40AC0EA
:10010000959809C0949807C0939805C0929803C029
:10011000D89801C0D9981F5F0F5F063011F41F5F98
:1001200002C0063008F00650163008F4ADCF165065
:06013000ABCFF894FFCFF5
:00000001FF
