:100000000C941D040C943C040C943C040C943C048F
:100010000C943C040C943C040C943C040C943C0460
:100020000C943C040C943C040C943C040C943C0450
:100030000C94A7040C943C040C94DF040C943C0432
:100040000C943C040C943C040C9490040C943C04DC
:100050000C943C040C943C040C943C040C943C0420
:100060000C943C040C943C040C9423090C943C0424
:100070000C943C040C943C040C943C040C943C0400
:100080000C943C040C943C040C943C04903E7F8003
:100090003E0090367F803600903B7F803B0090365C
:1000A0007F803600903E7F803E0090367F80360015
:1000B000903B7F803B0090367F803600903E7F8073
:1000C0003E0090367F803600903B7F803B0090362C
:1000D0007F803600903E7F803E0090367F803600E5
:1000E000903B7F803B0090367F803600903E7F8043
:1000F0003E0090387F803800903B7F803B009038F6
:100100007F803800903E7F803E0090387F803800AE
:10011000903B7F803B0090387F803800903E7F800E
:100120003E0090387F803800903B7F803B009038C5
:100130007F803800903E7F803E0090387F8038007E
:10014000903B7F803B0090387F80380090437F80D9
:100150004300903B7F803B0090407F804000903B7D
:100160007F803B0090437F804300903B7F803B003B
:1001700090407F804000903B7F803B0090437F8099
:100180004300903B7F803B0090407F804000903B4D
:100190007F803B0090437F804300903B7F803B000B
:1001A00090407F804000903B7F803B0090407F806C
:1001B000400090397F803900903D7F803D0090392C
:1001C0007F80390090407F80400090397F803900E7
:1001D000903D7F803D0090397F80390090407F8046
:1001E000400090397F803900903D7F803D009039FC
:1001F0007F80390090407F80400090397F803900B7
:10020000903D7F803D0090397F803900904A7F800B
:100210004A0090427F80420090477F804700904292
:100220007F804200904A7F804A0090427F80420057
:1002300090477F80470090427F804200904A7F80B5
:100240004A0090427F80420090477F804700904262
:100250007F804200904A7F804A0090427F80420027
:1002600090477F80470090427F804200904A7F8085
:100270004A0090447F80440090477F80470090442C
:100280007F804400904A7F804A0090447F804400F1
:1002900090477F80470090447F804400904A7F8051
:1002A0004A0090447F80440090477F8047009044FC
:1002B0007F804400904A7F804A0090447F804400C1
:1002C00090477F80470090447F804400904F7F801C
:1002D0004F0090477F804700904C7F804C009047B4
:1002E0007F804700904F7F804F0090477F8047007E
:1002F000904C7F804C0090477F804700904F7F80DC
:100300004F0090477F804700904C7F804C00904783
:100310007F804700904F7F804F0090477F8047004D
:10032000904C7F804C0090477F804700904C7F80AE
:100330004C0090457F80450090497F804900904562
:100340007F804500904C7F804C0090457F80450029
:1003500090497F80490090457F804500904C7F8088
:100360004C0090457F80450090497F804900904532
:100370007F804500904C7F804C0090457F804500F9
:1003800090497F80490090457F804500904A7F805A
:100390004A0090427F80420090477F804700904211
:1003A0007F804200904A7F804A0090427F804200D6
:1003B00090477F80470090427F804200904A7F8034
:1003C0004A0090427F80420090477F8047009042E1
:1003D0007F804200904A7F804A0090427F804200A6
:1003E00090477F80470090427F804200904A7F8004
:1003F0004A0090447F80440090477F8047009044AB
:100400007F804400904A7F804A0090447F8044006F
:1004100090477F80470090447F804400904A7F80CF
:100420004A0090447F80440090477F80470090447A
:100430007F804400904A7F804A0090447F8044003F
:1004400090477F80470090447F804400904F7F809A
:100450004F0090477F804700904C7F804C00904732
:100460007F804700904F7F804F0090477F804700FC
:10047000904C7F804C0090477F804700904F7F805A
:100480004F0090477F804700904C7F804C00904702
:100490007F804700904F7F804F0090477F804700CC
:1004A000904C7F804C0090477F804700904C7F802D
:1004B0004C0090457F80450090497F8049009045E1
:1004C0007F804500904C7F804C0090457F804500A8
:1004D00090497F80490090457F804500904C7F8007
:1004E0004C0090457F80450090497F8049009045B1
:1004F0007F804500904C7F804C0090457F80450078
:1005000090497F80490090457F804500904A7F80D8
:100510004A0090427F80420090477F80470090428F
:100520007F804200904A7F804A0090427F80420054
:1005300090477F80470090427F804200904A7F80B2
:100540004A0090427F80420090477F80470090425F
:100550007F804200904A7F804A0090427F80420024
:1005600090477F80470090427F804200904A7F8082
:100570004A0090447F80440090477F804700904429
:100580007F804400904A7F804A0090447F804400EE
:1005900090477F80470090447F804400904A7F804E
:1005A0004A0090447F80440090477F8047009044F9
:1005B0007F804400904A7F804A0090447F804400BE
:1005C00090477F80470090447F804400904F7F8019
:1005D0004F0090477F804700904C7F804C009047B1
:1005E0007F804700904F7F804F0090477F8047007B
:1005F000904C7F804C0090477F804700904F7F80D9
:100600004F0090477F804700904C7F804C00904780
:100610007F804700904F7F804F0090477F8047004A
:10062000904C7F804C0090477F804700904C7F80AB
:100630004C0090457F80450090497F80490090455F
:100640007F804500904C7F804C0090457F80450026
:1006500090497F80490090457F804500904C7F8085
:100660004C0090457F80450090497F80490090452F
:100670007F804500904C7F804C0090457F804500F6
:1006800090497F80490090457F804500904A7F8057
:100690004A0090427F80420090477F80470090420E
:1006A0007F804200904A7F804A0090427F804200D3
:1006B00090477F80470090427F804200904A7F8031
:1006C0004A0090427F80420090477F8047009042DE
:1006D0007F804200904A7F804A0090427F804200A3
:1006E00090477F80470090427F804200904A7F8001
:1006F0004A0090447F80440090477F8047009044A8
:100700007F804400904A7F804A0090447F8044006C
:1007100090477F80470090447F804400904A7F80CC
:100720004A0090447F80440090477F804700904477
:100730007F804400904A7F804A0090447F8044003C
:1007400090477F80470090447F804400904F7F8097
:100750004F0090477F804700904C7F804C0090472F
:100760007F804700904F7F804F0090477F804700F9
:10077000904C7F804C0090477F804700904F7F8057
:100780004F0090477F804700904C7F804C009047FF
:100790007F804700904F7F804F0090477F804700C9
:1007A000904C7F804C0090477F804700904C7F802A
:1007B0004C0090457F80450090497F8049009045DE
:1007C0007F804500904C7F804C0090457F804500A5
:1007D00090497F80490090457F804500904C7F8004
:1007E0004C0090457F80450090497F8049009045AE
:1007F0007F804500904C7F804C0090457F80450075
:1008000090497F80490090457F804500904A7F80D5
:100810004A00007F031F03C703F1013F034F03D3C7
:1008200003F400F700DF033703CD01F301CF0373B7
:1008300003DC01FC00FD037C033D11241FBECFEF50
:10084000D0E1DEBFCDBF15E0A0E0B1E0E6E9F2E225
:1008500000E00BBF02C007900D92A031B107D9F79D
:1008600015E0A0E1B5E001C01D92A437B107E1F7A2
:100870000E94380A0C9449110C940000FC0134B118
:1008800025B1922F80E0830F911D9C0140E050E044
:1008900082819381A481B581280F391F4A1F5B1F74
:1008A000228333834483558380911005882369F420
:1008B00085E056954795379527958A95D1F73183E9
:1008C00020831282138214821582089580E98AB9E6
:1008D00086E080939500109290008FE189B980E8BE
:1008E0008BB908958FEF84BB82B981B38F7081BBC0
:1008F00082B3806F82BB089591E097BF1FBC85E0F3
:100900008EBD12BE87B7846187BF9FBD81E18EBD5A
:100910001DBC1CBC089586B1876086B9379A0895BE
:100920001F920F920FB60F9211248F939F938CB149
:100930008093580591E09093520583B1892783B93C
:100940009F918F910F900FBE0F901F9018951F923F
:100950000F920FB60F9211242F938F939F9383B111
:1009600091E0892783B980916505813001F58091F7
:1009700066058F5F80936605803210F010926605E1
:1009800020916605822F90E080719070689413F832
:10099000959587951694E1F7813019F480EF282713
:1009A00001C0209520935D0580915D0585BB9F91D9
:1009B0008F912F910F900FBE0F901F9018951F923F
:1009C0000F920FB60F920BB60F9211242F933F93F5
:1009D0004F935F936F937F938F939F93AF93BF9347
:1009E000EF93FF9380916D05813009F06CC02091E9
:1009F0007005222309F467C080916505813009F0F4
:100A000062C080916305909164050196909364059E
:100A100080936305029708F456C060915C0570E00E
:100A2000660F771FFB01E050FF4F0190F081E02D32
:100A3000822F90E0660F771F660F771F9C01E29F61
:100A4000C001E39F900DF29F900D11240E94C110F0
:100A50009B0180916B054091560550915705882365
:100A600059F48AE44833580798F4240F351F30931B
:100A700057052093560517C0CB01CC9684179507D0
:100A800038F4461B570B50935705409356050BC03F
:100A900080917305813029F4F0935705E093560552
:100AA00002C010925D0580916105909162052091D0
:100AB000560530915705820F931F9BBD8ABD10923A
:100AC000640510926305FF91EF91BF91AF919F91E3
:100AD0008F917F916F915F914F913F912F910F90E7
:100AE0000BBE0F900FBE0F901F90189580E88BB92A
:100AF00008951BB80895109253051DBC1CBCE091CD
:100B00005505F0E0EE0FFF1FE050FF4F808191810F
:100B100090935705809356052091610530916205A9
:100B2000820F931F9BBD8ABD81E080936505089568
:100B3000109253051092650508950F931F9310921C
:100B4000590580916F058C3009F43FC08D3030F429
:100B5000873069F0883009F063C00EC08E3009F428
:100B60004AC08E30E8F18F3009F05AC04FC08091F2
:100B700068058093540554C0E0915C05F0E0EE0FE9
:100B8000FF1FDF01A050BF4F0D911C91E250FF4F9E
:100B900020813181201B310B8091680590E0AC01F0
:100BA000249FC001259F900D349F900D112460EC6F
:100BB00070E00E94C110CB017093620560936105E3
:100BC000800F911F9BBD8ABD2BC080916805813429
:100BD00020F081E080936D0523C010926D0520C048
:100BE00080916805813420F081E080936B0518C006
:100BF00010926B0515C02091680520937005922F07
:100C0000990F990F80E099BD88BD0AC08091680551
:100C1000813420F081E08093730502C01092730547
:100C20001F910F9108952091610530916205280F61
:100C3000391F3BBD2ABD089510926C0560915B057C
:100C4000603480F1E0915C05F0E0EE0FFF1FDF0102
:100C5000A050BF4F4D915C91EC5FFE4F8081918120
:100C60009A01281B390B862F90E0CF97BC01269F55
:100C7000C001279F900D369F900D112426E0969578
:100C800087952A95E1F79093600580935F05209101
:100C9000610530916205420F531F481B590B5BBD24
:100CA0004ABD08956F3389F1E0915C05E23068F147
:100CB000F0E0EE0FFF1FDF01A050BF4F4D915C91A0
:100CC000E450FF4F20813181241B350B80E490E0FC
:100CD000861B9109BC01269FC001279F900D369F5E
:100CE000900D112476E0969587957A95E1F790938B
:100CF000600580935F052091610530916205420F88
:100D0000531F480F591F5BBD4ABD089580910003D2
:100D1000882339F180910503909106030097E1F44F
:100D20008091470590914805FC01E457FF4FE491FD
:100D3000E09358050196909348058093470586589F
:100D4000974021F4109248051092470581E0809366
:100D5000520580ED97E001C00197909306038093C0
:100D6000050330915205313009F085C020915805B6
:100D7000203F08F07EC027FF20C0822F8F70809315
:100D80005E05822F807F803951F0813918F48038D8
:100D900089F408C0803B41F0803E61F407C0309385
:100DA000670567C082E003C083E001C084E08093F0
:100DB00067055FC0109267055CC09091670592302F
:100DC00029F1933020F4913009F053C006C09330DC
:100DD000A1F1943009F04DC03EC0809153058823A5
:100DE00081F090915505222329F090935C050E9493
:100DF0007B0510C080915C05981761F41092650521
:100E000009C0209355059093530514C08091530554
:100E1000882319F0109253050DC080915C052817A6
:100E200021F41092530510926505809153058F5F50
:100E300080935305109258051CC080915905882352
:100E400029F0209368050E949D0513C020936F052B
:100E5000309359050EC080916C05882319F08130BC
:100E600041F403C030936C0504C020935B050E94DD
:100E70001C0610925205089510925805089510927C
:100E80006E050895FC01808108952F923F924F9244
:100E90005F926F927F928F929F92AF92BF92CF920A
:100EA000DF92EF92FF920F931F93DF93CF9300D0C7
:100EB0000F92CDB7DEB701C0CF01FC0181918A331B
:100EC000D9F7FB83EA838081843621F004E0E02EA9
:100ED000F12C26C0329620E030E011C0C90113E0A9
:100EE000880F991F1A95E1F7220F331F820F931F66
:100EF000242F30E020533040280F391F3196408195
:100F0000403310F04A3350F32115310521F4A4E0A9
:100F1000EA2EF12C01C07901CF0101969B838A83CF
:100F2000EA81FB8180818F3619F006E010E016C05F
:100F3000EA81FB813196AF014F5F5F4F818190E085
:100F40009C0120533040C397059710F4890102C0DB
:100F500006E010E0CA0102969B838A83EA81FB8146
:100F60008081823619F02FE330E020C0EA81FB81D6
:100F7000329620E030E011C0C90173E0880F991F5C
:100F80007A95E1F7220F331F820F931F242F30E051
:100F900020533040280F391F31964081403310F0E4
:100FA0004A3350F3CF0101969B838A8340E050E09F
:100FB00060E67AEE80E090E00E94F71039014A0185
:100FC00052E0660C771C881C991C5A95D1F71701C2
:100FD00044245524098319C1C90143E0880F991F8E
:100FE0004A95E1F7220F331F820F931F212F30E024
:100FF00020533040280F391FEA81FB813196FB8353
:10100000EA83EA81FB811081103310F01A3320F358
:101010002115310529F040E050E0C401B30104C0BE
:10102000C401B301A20191010E94D510C901DA01E6
:10103000AC01BD01143681F0153638F4123661F07A
:10104000133660F41136A1F411C0163659F0163675
:1010500038F0173669F408C023E00BC021E009C05E
:101060002AE007C029E005C027E003C025E001C051
:1010700020E08A819B8101969B838A83FC01808189
:10108000833221F42F5F3196FB83EA83EA81FB816F
:1010900080818E3269F4DB01CA01B695A7959795D8
:1010A0008795480F591F6A1F7B1F3196FB83EA8380
:1010B000EA81FB818081803340F08A3330F4982FBD
:1010C00090533196FB83EA8301C09981EA81FB81C9
:1010D00080818C3219F43196FB83EA837A018B018B
:1010E00016950795F794E794F5EBEF16F1040105D3
:1010F000110528F054EBE52EF12C012D112D2223A2
:1011000009F440C020533CE0939FC0011124280FF4
:10111000209355050E947B05C801B7010E94530E1C
:101120005B016C0120E030E04AE755E40E94750C59
:101130007B018C0120E030E040E85FE30E94CF0DAE
:101140008823D4F1C801B70120E03FEF4FE757E40F
:101150000E946F0D18160CF051C0C601B50120E0B9
:1011600030E040E251E40E94750C0E949F0A06C0E4
:1011700080E991E00197F1F76150704061157105C8
:10118000B9F743C01092530510926505C801B70125
:101190000E94530E5B016C0120E030E04AE755E409
:1011A0000E94750C7B018C0120E030E040E85FE399
:1011B0000E94CF0D88231CF461E070E023C0C801B9
:1011C000B70120E03FEF4FE757E40E946F0D18167C
:1011D000ACF4C601B50120E030E040E251E40E94E9
:1011E000750C0E949F0A06C080E991E00197F1F713
:1011F0006150704061157105B9F707C0C801B701AA
:101200000E949F0ACB010197F1F7EA81FB8180815F
:10121000882319F020E030E0F4CE0F900F900F906B
:10122000CF91DF911F910F91FF90EF90DF90CF90C2
:10123000BF90AF909F908F907F906F905F904F90F6
:101240003F902F9008951F920F920FB60F920BB6FA
:101250000F9211242F933F938F939F93EF93FF93BC
:1012600080915605909157052091490530914A0586
:10127000820F931F90934A058093490590934B05E5
:10128000E7E0F3E0E90FF11D808185BBFF91EF916D
:101290009F918F913F912F910F900BBE0F900FBE9A
:1012A0000F901F9018950F931F93CF93DF93653086
:1012B00008F060E0863008F080E02BB33AB3A82F46
:1012C000B0E0AA0FBB1FAA0FBB1FA60FB11DAA0F2C
:1012D000BB1FCD018E5E974FFC014491AD5EB74FB1
:1012E000FD015491842F869590E08C01017010705F
:1012F00080FF05C040FF03C0932F9B7F02C0932F48
:10130000946057FF0AC0852F8295869586958370D5
:1013100080FF03C0392F3D7F02C0392F3260852FF7
:1013200082958695877090E0EC01C170D07080FF47
:1013300007C0852F82958F7080FF02C03E7F01C05D
:101340003160852F86958695869590E0DC01A170A9
:10135000B07080FF07C0852F8695869580FF02C0FC
:101360003F7E01C03061852F869590E0BC016170A1
:10137000707080FF05C050FF03C0932F977F02C09D
:10138000932F9860012B29F440FD02C02B7F01C0F0
:10139000246057FD0AC0852F8295869586958370B7
:1013A00080FD02C02D7F01C02260CD2B41F4852F2E
:1013B00082958F7080FD02C02E7F01C02160AB2B13
:1013C00041F4852F8695869580FD02C02F7E01C051
:1013D0002061672B29F450FD02C0277F01C02860DF
:1013E0002BBB9ABBDF91CF911F910F9108950F9363
:1013F0001F93CF93DF9380914C0590914D050196FB
:1014000090934D0580934C058052934060F110926B
:101410004D0510924C0500914E0510914F05C0915D
:101420005005D0915105802F6C2F0E9453090F5FFA
:101430001F4F10934F0500934E050530110549F4D9
:1014400010924F0510924E052196D0935105C093EE
:1014500050058091500590915105049721F4109208
:10146000510510925005DF91CF911F910F91089572
:10147000F8940E9472040E947C0480E98AB986E094
:1014800080939500109290008FE189B980E88BB924
:101490008FEF88BB84EF91E09BBD8ABD86B18760EA
:1014A00086B9379A80E480935B0580935A05109241
:1014B00053051092590510926C0510925205109226
:1014C0006E058FE78093540510925D0510926205BA
:1014D000109261051092650581E080936D058093FF
:1014E0006B0510927005809373051092640510923D
:1014F0006305789410921005809110058F5F80939A
:101500001005809110058F718093100590E0892F50
:10151000806487B9369A9F5F9830C9F70E94860623
:1015200080911005882341F4809111059091120556
:1015300090936205809361050E94F709DDCFEF92D9
:10154000FF920F931F937B018C0120E030E040E07D
:101550005FE40E949F0D88238CF0C801B70120E052
:1015600030E040E05FE40E94170C0E94FF0D9B01F9
:10157000AC01205030404040504806C0C801B7017F
:101580000E94FF0D9B01AC01B901CA011F910F918F
:10159000FF90EF900895A0E0B0E0E1EDFAE00C9448
:1015A0001211DC012B01FA019C91923008F439C12F
:1015B000EB018881823008F433C1943069F48430BF
:1015C00009F02FC111969C9111978981981709F400
:1015D00028C1A7E0B4E025C1843009F421C18230DC
:1015E000A9F4923009F01DC19A01AD0188E0EA0129
:1015F0000990AE01E90109929E018150C1F7E20113
:10160000898111969C918923818308C1923009F4C4
:1016100007C112962D903C901397EB018A819B8114
:101620001496AD90BD90CD90DC901797EC80FD8026
:101630000E811F819101281B390BB90137FF04C0AE
:1016400066277727621B730B603271050CF061C04F
:10165000121613066CF537014801062E04C0969445
:101660008794779467940A94D2F721E030E040E0C1
:1016700050E004C0220F331F441F551F6A95D2F754
:1016800021503040404050402E213F2140235123E3
:10169000211531054105510521F021E030E040E000
:1016A00050E079018A01E628F728082919293CC069
:1016B000232BD1F1260E371E35014601062E04C01C
:1016C00096948794779467940A94D2F721E030E057
:1016D00040E050E004C0220F331F441F551F6A959D
:1016E000D2F721503040404050402A213B214C212C
:1016F0005D21211531054105510521F021E030E042
:1017000040E050E059016A01A628B728C828D92826
:101710000BC0821593052CF01C01AA24BB24650183
:1017200003C0EE24FF24870111969C91D2011196EB
:101730008C91981709F445C0992339F0A8019701B5
:101740002A193B094C095D0906C0A60195012E190D
:101750003F09400B510B57FD08C011823382228292
:1017600024833583468357831DC081E08183338280
:10177000228288279927DC01821B930BA40BB50BCF
:1017800084839583A683B7830DC0220F331F441F24
:10179000551F248335834683578382819381019724
:1017A000938382832481358146815781DA01C9017F
:1017B0000197A109B1098F5F9F4FAF4FBF4328F336
:1017C0000BC0918333822282EA0CFB1C0C1D1D1D71
:1017D000E482F5820683178383E080832481358148
:1017E0004681578157FF1AC0C901AA2797FDA095C6
:1017F000BA2F81709070A070B0705695479537954C
:101800002795822B932BA42BB52B84839583A683BA
:10181000B78382819381019693838283DF0101C024
:10182000D201CD01CDB7DEB7E2E10C942E11A0E2DA
:10183000B0E0EDE1FCE00C941E1169837A838B83A8
:101840009C832D833E834F835887E9E0EE2EF12C55
:10185000EC0EFD1ECE010196B7010E94F00F8E0125
:101860000F5E1F4FCE010596B8010E94F00F8A89C6
:1018700091E089278A8BC701B801AE01475E5F4FAF
:101880000E94CB0A0E941B0FA096E6E00C943A112E
:10189000A0E2B0E0EEE4FCE00C941E1169837A83D0
:1018A0008B839C832D833E834F835887F9E0EF2EF3
:1018B000F12CEC0EFD1ECE010196B7010E94F00F37
:1018C0008E010F5E1F4FCE010596B8010E94F00FEA
:1018D000C701B801AE01475E5F4F0E94CB0A0E946C
:1018E0001B0FA096E6E00C943A11A0E2B0E0EBE703
:1018F000FCE00C94121169837A838B839C832D8383
:101900003E834F835887CE010196BE01675F7F4FAC
:101910000E94F00FCE010596BE016F5E7F4F0E94C0
:10192000F00F9985923088F089898230C8F0943020
:1019300019F4823051F404C0843029F4923081F4D7
:1019400087E094E0C6C0923049F420E09A858A8905
:10195000981321E02A87CE010996BBC0823049F452
:1019600020E09A858A89981321E02A8BCE0141963E
:10197000B0C02D843E844F8458886D887E888F88BF
:10198000988CEE24FF248701AA24BB24650140E043
:1019900050E060E070E0E0E0F0E0C1018170907044
:1019A000892BE9F0E60CF71C081D191D9A01AB0103
:1019B0002A0D3B1D4C1D5D1D80E090E0A0E0B0E0D5
:1019C000E614F7040805190520F481E090E0A0E092
:1019D000B0E0BA01A901480F591F6A1F7B1FAA0C6A
:1019E000BB1CCC1CDD1C97FE08C081E090E0A0E091
:1019F000B0E0A82AB92ACA2ADB2A3196E032F105DA
:101A000049F0660C771C881C991C569447943794AF
:101A10002794C3CFFA85EA892B893C898B859C85DD
:101A2000280F391F2E5F3F4F17C0CA018170907079
:101A3000892B61F016950795F794E79480E090E084
:101A4000A0E0B0E8E82AF92A0A2B1B2B76956795C7
:101A5000579547952F5F3F4F77FDE7CF0CC0440F59
:101A6000551F661F771F17FD4160EE0CFF1C001FFE
:101A7000111F21503040403090E0590790E0690735
:101A800090E4790760F32B8F3C8FDB01CA018F77DD
:101A90009070A070B07080349105A105B10561F41B
:101AA00047FD0AC0E114F1040105110529F0405C6D
:101AB0005F4F6F4F7F4F40781A8EFE1711F081E015
:101AC0008A8F4D8F5E8F6F8F78A383E0898FCE01D1
:101AD00049960E941B0FA096E2E10C942E11A8E1FA
:101AE000B0E0E5E7FDE00C941E1169837A838B83F7
:101AF0009C832D833E834F83588789E0E82EF12C09
:101B0000EC0EFD1ECE010196B7010E94F00F8E0172
:101B10000F5E1F4FCE010596B8010E94F00F898518
:101B2000823040F08989823028F0C701B8010E94D4
:101B3000681001C08FEF6896E6E00C943A11A8E1B6
:101B4000B0E0E5EAFDE00C941E1169837A838B8393
:101B50009C832D833E834F83588789E0E82EF12CA8
:101B6000EC0EFD1ECE010196B7010E94F00F8E0112
:101B70000F5E1F4FCE010596B8010E94F00F8985B8
:101B8000823040F08989823028F0C701B8010E9474
:101B9000681001C08FEF6896E6E00C943A11A8E156
:101BA000B0E0E5EDFDE00C941E1169837A838B8330
:101BB0009C832D833E834F83588789E0E82EF12C48
:101BC000EC0EFD1ECE010196B7010E94F00F8E01B2
:101BD0000F5E1F4FCE010596B8010E94F00F898558
:101BE000823040F08989823028F0C701B8010E9414
:101BF000681001C081E06896E6E00C943A11ACE010
:101C0000B0E0E5E0FEE00C94221169837A838B83D7
:101C10009C83CE010196BE016B5F7F4F0E94F00F47
:101C20008D81823061F1823050F1843021F48E81D7
:101C3000882351F12EC02F81388537FD20C06E8159
:101C40002F3131051CF06623F9F023C08EE190E0BE
:101C5000821B930B29853A854B855C8504C056957C
:101C60004795379527958A95D2F76623B1F0509519
:101C70004095309521953F4F4F4F5F4F0EC020E06C
:101C800030E040E050E009C02FEF3FEF4FEF5FE75B
:101C900004C020E030E040E050E8B901CA012C96D1
:101CA000E2E00C943E11A8E0B0E0E9E5FEE00C941F
:101CB0001A117B018C01611571058105910519F4DB
:101CC00082E0898360C083E089838EE1C82ED12CB5
:101CD000DC82CB82ED82FE820F831887C801B701B8
:101CE0000E94CC0EFC013197F7FF3BC0222733271F
:101CF0002E1B3F0B57016801022E04C0D694C794D7
:101D0000B794A7940A94D2F740E050E060E070E006
:101D100081E090E0A0E0B0E004C0880F991FAA1F06
:101D2000BB1F2A95D2F70197A109B1098E219F21E6
:101D3000A023B1230097A105B10521F041E050E0B7
:101D400060E070E04A295B296C297D294D835E8320
:101D50006F8378878EE190E08E1B9F0B9C838B8333
:101D600012C0309781F00E2E04C0EE0CFF1C001F35
:101D7000111F0A94D2F7ED82FE820F831887CE1AC4
:101D8000DF0ADC82CB821A82CE0101960E941B0FF1
:101D90002896EAE00C943611EF92FF920F931F936E
:101DA0007B018C0180E0E81680E0F80681E00807FE
:101DB00080E0180788F48FEFE816F104010511059B
:101DC00031F028F088E090E0A0E0B0E017C080E0BB
:101DD00090E0A0E0B0E012C080E0E81680E0F806F5
:101DE00080E0080781E0180728F088E190E0A0E093
:101DF000B0E004C080E190E0A0E0B0E020E230E09C
:101E000040E050E0281B390B4A0B5B0B04C01695D1
:101E10000795F794E7948A95D2F7F701E15FFB4FB6
:101E20008081281B310941095109C9011F910F9176
:101E3000FF90EF900895DF92EF92FF920F931F9320
:101E4000FC01E480F58006811781D1808081823099
:101E500048F480E090E0A0E1B0E0E82AF92A0A2BFB
:101E60001B2BA5C0843009F49FC0823021F4EE24DE
:101E7000FF24870105C0E114F1040105110519F4DF
:101E8000E0E0F0E096C0628173819FEF62387907ED
:101E90000CF05BC022E83FEF261B370B2A313105DF
:101EA0002CF020E030E040E050E02AC0B801A7016B
:101EB000022E04C076956795579547950A94D2F7F8
:101EC00081E090E0A0E0B0E004C0880F991FAA1F55
:101ED000BB1F2A95D2F70197A109B1098E219F2135
:101EE000A023B1230097A105B10521F081E090E086
:101EF000A0E0B0E09A01AB01282B392B4A2B5B2BD9
:101F0000DA01C9018F779070A070B07080349105AC
:101F1000A105B10539F427FF09C0205C3F4F4F4FA1
:101F20005F4F04C0215C3F4F4F4F5F4FE0E0F0E058
:101F30002030A0E03A07A0E04A07A0E45A0710F0DA
:101F4000E1E0F0E079018A0127C06038710564F5AD
:101F5000FB01E158FF4FD801C7018F779070A07047
:101F6000B07080349105A105B10539F4E7FE0DC0CC
:101F700080E490E0A0E0B0E004C08FE390E0A0E057
:101F8000B0E0E80EF91E0A1F1B1F17FF05C01695CB
:101F90000795F794E794319687E016950795F7949F
:101FA000E7948A95D1F705C0EE24FF248701EFEF6F
:101FB000F0E06E2F679566276795902F9F77D794EF
:101FC000DD24D7948E2F8695492F462B582F5D29D7
:101FD000B701CA011F910F91FF90EF90DF90089514
:101FE000FC01DB01408151812281622F6F7770E01B
:101FF000221F2227221F9381892F880F822B282FAF
:1020000030E0991F9927991F11969C9311972115DC
:102010003105A9F5411551056105710511F482E0FD
:1020200037C082E89FEF13969C938E9312979A0184
:10203000AB0167E0220F331F441F551F6A95D1F78C
:1020400083E08C930DC0220F331F441F551F12963F
:102050008D919C911397019713969C938E93129751
:10206000203080E0380780E0480780E4580758F3C4
:1020700014962D933D934D935C93179708952F3F9E
:10208000310579F4411551056105710519F484E0B4
:102090008C93089564FF03C081E08C9312C01C925E
:1020A00010C02F57304013963C932E93129783E025
:1020B0008C9387E0440F551F661F771F8A95D1F7D1
:1020C000706414964D935D936D937C931797089568
:1020D0001F93DC01FB019C91923008F447C0808182
:1020E000823008F443C0943051F411961C9184302E
:1020F00099F58181682F70E0611B71093FC08430C0
:1021000021F0923031F48230B9F18181882389F154
:102110002DC011961C9111978230F1F08181181712
:10212000D9F412962D913C91139782819381821755
:10213000930794F028173907BCF014968D919D9160
:102140000D90BC91A02D248135814681578128179F
:1021500039074A075B0718F4112341F00AC08217B8
:102160009307A407B50740F4112319F061E070E06C
:1021700005C06FEF7FEF02C060E070E0CB011F9100
:102180000895AA1BBB1B51E107C0AA1FBB1FA617BE
:10219000B70710F0A61BB70B881F991F5A95A9F710
:1021A00080959095BC01CD010895A1E21A2EAA1B3D
:1021B000BB1BFD010DC0AA1FBB1FEE1FFF1FA217F7
:1021C000B307E407F50720F0A21BB30BE40BF50BF4
:1021D000661F771F881F991F1A9469F7609570957D
:1021E000809590959B01AC01BD01CF01089597FBAF
:1021F000092E05260ED057FD04D0D7DF0AD0001CCB
:1022000038F450954095309521953F4F4F4F5F4F93
:102210000895F6F790958095709561957F4F8F4F53
:102220009F4F08952F923F924F925F926F927F92AD
:102230008F929F92AF92BF92CF92DF92EF92FF92D6
:102240000F931F93CF93DF93CDB7DEB7CA1BDB0B82
:102250000FB6F894DEBF0FBECDBF09942A88398827
:1022600048885F846E847D848C849B84AA84B9842E
:10227000C884DF80EE80FD800C811B81AA81B9813A
:10228000CE0FD11D0FB6F894DEBF0FBECDBFED014E
:062290000895F894FFCF51
:102296004F95EE8C05858E7D8276DB6F9469A763FC
:1022A6000F5EC858CC53184FA84A77468342C73E9C
:1022B600413BEE37CA34D431082F642CE6298C27EB
:1022C60054253C234221641FA11DF71B651AEA18F9
:1022D60084173216F314C613AA129E11A110B20F58
:1022E600D10EFC0D330D750CC20B190B7A0AE309DE
:1022F6005509CF085108D9076907FE069A063B0615
:10230600E1058D053D05F204AB0468042904ED03DF
:10231600B5037F034D031E03F102C7029F02790234
:10232600560234021502F701DB01C001A7018F0135
:102336007901640150013D012B011A010B01FC00DA
:10234600EE00E000D400C800BD00B200A8009F0067
:1023560096008D0086007E00770070006A0064009B
:102366005F005900540050004B00470043003F00F7
:102376003C0038003500320030002D002A002800CD
:1023860026002400220020001E001C001B0019004D
:102396008E7D8276DB6F9469A7630F5EC858CC5337
:1023A600184FA84A77468342C73E413BEE37CA34A8
:1023B600D431082F642CE6298C2754253C2342214E
:1023C600641FA11DF71B651AEA1884173216F31449
:1023D600C613AA129E11A110B20FD10EFC0D330D19
:1023E600750CC20B190B7A0AE3095509CF08510877
:1023F600D9076907FE069A063B06E1058D053D05E8
:10240600F204AB0468042904ED03B5037F034D030E
:102416001E03F102C7029F02790256023402150218
:10242600F701DB01C001A7018F01790164015001A9
:102436003D012B011A010B01FC00EE00E000D40067
:10244600C800BD00B200A8009F0096008D0086005F
:102456007E00770070006A0064005F005900540037
:1024660050004B00470043003F003C003800350059
:10247600320030002D002A00280026002400220009
:1024860020001E001C001B001900000000000000B8
:102496000188138C00D007808386898C8F9295984B
:1024A6009C9FA2A5A8ABAEB0B3B6B9BCBFC1C4C70A
:1024B600C9CCCED1D3D5D8DADCDEE0E2E4E6E8EA70
:1024C600ECEDEFF0F2F3F5F6F7F8F9FAFBFCFCFDAC
:1024D600FEFEFFFFFFFFFFFFFFFFFFFFFFFEFEFD0C
:1024E600FCFCFBFAF9F8F7F6F5F3F2F0EFEDECEA9F
:1024F600E8E6E4E2E0DEDCDAD8D5D3D1CECCC9C753
:10250600C4C1BFBCB9B6B3B0AEABA8A5A29F9C98D8
:1025160095928F8C898683807C797673706D6A67D5
:1025260063605D5A5754514F4C494643403E3B38D1
:102536003633312E2C2A272523211F1D1B1917154B
:102546001312100F0D0C0A090807060504030302EF
:10255600010100000000000000000000000101026F
:1025660003030405060708090A0C0D0F10121315BC
:1025760017191B1D1F212325272A2C2E31333638E8
:102586003B3E404346494C4F5154575A5D60636742
:102596006A6D707376797C00000000000000000010
:1025A60001020203030303040404040404040405EF
:1025B60005050505050505050505050505050506C4
:1025C60006060606060606060606060606060606A5
:1025D6000606060606060606060606060606060794
:1025E6000707070707070707070707070707070775
:1025F6000707070707070707070707070707070765
:102606000707070707070707070707070707070754
:102616000707070707070707070707070707070843
:102626000808080808080808080808080808080824
:102636000808080808080808080808080808080814
:102646000808080808080808080808080808080804
:1026560008080808080808080808080808080808F4
:1026660008080808080808080808080808080808E4
:1026760008080808080808080808080808080808D4
:1026860008080808080808080808080808080808C4
:1026960008080808080808080808080808080800BC
:00000001FF
