S00C00006C6564732E7372656370
S11300000C9421010C9433010C9433010C943301AE
S11300100C9433010C9433010C9433010C9433018C
S11300200C9433010C9433010C9433010C9433017C
S11300300C9433010C9433010C9437010C94330168
S11300400C9433010C9433010C9433010C9433015C
S11300500C9433010C9433010C9433010C9433014C
S11300600C9433010C9433010C9433010C9433013C
S11300700C9433010C9433010C9433010C9433012C
S11300800C9433010C9433010C9433010C9433011C
S11300900C9433010C9433010C9433010C9433010C
S11300A00C9433010C9433010C9433010C943301FC
S11300B00C9433010C9433010C9433010C943301EC
S11300C00C9433010C9433010C9433010C943301DC
S11300D00C9433010C9433010C9433010C943301CC
S11300E00C9433010C9433010C9433010C943301BC
S11300F00C9433010C9433010C9433010C943301AC
S11301000C9433010C9433010C9433010C9433019B
S11301100C9433010C9433010C9433010C9433018B
S11301200C9433010C9433010C9433010C9433017B
S11301300C9433010C9433010C9433010C9433016B
S11301400C9433010C9433010C9433010C9433015B
S11301500C9433010C9433010C9433010C9433014B
S11301600C9433010C9433010C9433010C9433013B
S11301700C9433010C9433010C9433010C9433012B
S11301800C9433010C9433010C9433010C9433011B
S11301900C9433010C9433010C9433010C9433010B
S11301A00C9433010C9433010C9433010C943301FB
S11301B00C9433010C9433010C9433010C943301EB
S11301C00C9433010C9433010C9433010C943301DB
S11301D00C9433010C9433010C9433010C943301CB
S11301E00C9433010C9433010C9433010C943301BB
S11301F00C9433010C9433010C943301076342369D
S1130200B79BD8A71A39685618AEBAAB558C1D3CA3
S1130210B7CC5763BD6DEDFD753EF6177231BF0067
S11302200000803F05A84CCDB2D44EB93836A9029F
S11302300C50B9918688083CA6AAAA2ABE000000E0
S1130240803F11241FBECFEFDFE2DEBFCDBF20E22F
S1130250A0E0B0E201C01D92A939B207E1F70E9403
S1130260D9060C94160C0C94000080E008951F929B
S11302700F920FB60F9211242F935F936F937F9376
S11302808F939F93AF93BF93809106209091072003
S11302900196883E23E0920789F08093062090938C
S11302A00720BF91AF919F918F917F916F915F9143
S11302B02F910F900FBE0F901F901895109206204B
S11302C010920720809104209091052001966DE002
S11302D070E00E94EE0B8093042090930520E1CF00
S11302E088ED84BF82E0809350008091510081FFAB
S11302F0FCCF88ED84BF81E0809340000895809115
S113030050008260809350008091510081FFFCCFA7
S113031098ED94BF8CE08093410080914000887FE9
S1130320816094BF80934000089580916406877F24
S113033080936406809164068B7F80936406109298
S1130340082080E291E0E9E0F0E2DF019C011D92E7
S113035021503040E1F7CCC02E7F209364062091D9
S11303606406226020936406209164062D7F209306
S113037064062091640692FDEFC02E7F20936406EC
S113038020916406226020936406209164062D7FE8
S1130390209364062091640691FDDAC02E7F209399
S11303A0640620916406226020936406209164060A
S11303B02D7F209364062091640690FDC5C02E7F96
S11303C020936406209164062260209364062091A1
S11303D064062D7F209364062091640687FDB0C0D7
S11303E02E7F209364062091640622602093640685
S11303F0209164062D7F209364062091640686FD77
S11304009BC02E7F20936406209164062260209373
S11304106406209164062D7F20936406209164066F
S113042085FD86C02E7F2093640620916406226099
S113043020936406209164062D7F20936406209106
S1130440640684FD71C02E7F2093640620916406A7
S1130450226020936406209164062D7F2093640615
S11304602091640683FD5CC02E7F20936406209156
S11304706406226020936406209164062D7F2093F5
S113048064062091640682FD47C02E7F2093640693
S113049020916406226020936406209164062D7FD7
S11304A0209364062091640681FD32C02E7F209340
S11304B06406909164069260909364069091640639
S11304C09D7F9093640680FD1DC0809164068E7F9D
S11304D080936406809164068260809364068091B0
S11304E064068D7F8093640630E2E939F307C1F135
S11304F0819191912091640693FF2ECF21602093E6
S113050064062DCF80916406816080936406E2CFF7
S1130510216020936406CDCF216020936406B8CF78
S1130520216020936406A3CF2160209364068ECFBC
S113053021602093640679CF21602093640664CF00
S11305402160209364064FCF2160209364063ACF44
S113055021602093640625CF21602093640610CF88
S11305608091640688608093640680916406877F26
S1130570809364060895E9E0F0E2CCC02E7F2093D6
S11305806406209164062260209364062091640628
S11305902D7F209364062091640692FDEFC02E7F88
S11305A020936406209164062260209364062091BF
S11305B064062D7F209364062091640691FDDAC0C1
S11305C02E7F2093640620916406226020936406A3
S11305D0209164062D7F209364062091640690FD8B
S11305E0C5C02E7F20936406209164062260209368
S11305F06406209164062D7F20936406209164068E
S113060087FDB0C02E7F209364062091640622608B
S113061020936406209164062D7F20936406209124
S1130620640686FD9BC02E7F209364062091640699
S1130630226020936406209164062D7F2093640633
S11306402091640685FD86C02E7F20936406209148
S11306506406226020936406209164062D7F209313
S113066064062091640684FD71C02E7F2093640685
S113067020916406226020936406209164062D7FF5
S1130680209364062091640683FD5CC02E7F209332
S11306906406209164062260209364062091640617
S11306A02D7F209364062091640682FD47C02E7F2F
S11306B020936406209164062260209364062091AE
S11306C064062D7F209364062091640681FD32C068
S11306D02E7F209364069091640692609093640642
S11306E0909164069D7F9093640680FD1DC0809167
S11306F064068E7F80936406809164068260809392
S11307006406809164068D7F8093640680E2E939F3
S1130710F807C1F1819191912091640693FF2ECF46
S11307202160209364062DCF8091640681608093BC
S11307306406E2CF216020936406CDCF216020932C
S11307406406B8CF216020936406A3CF2160209370
S113075064068ECF21602093640679CF21602093B4
S1130760640664CF2160209364064FCF21602093F8
S113077064063ACF21602093640625CF216020933C
S1130780640610CF8091640688608093640680912B
S11307906406877F8093640608952F923F924F9258
S11307A05F926F927F928F929F92AF92BF92CF92FD
S11307B0DF92EF92FF920F931F93CF93DF93CDB706
S11307C0DEB72C97CDBFDEBF6C017B011A01C901D6
S11307D0B80120ED3FE049E450E40E942D0B20E0F5
S11307E030E044E353E40E9421090E94900B20E08E
S11307F030E040E85FE30E94B90820E030E040E4E4
S113080051E40E942D0B6D837E838F839887B601FC
S1130810882777FD8095982F0E94E8092B013C01D9
S1130820B701882777FD8095982F0E94E8094B012E
S11308305C01B101882777FD8095982F0E94E80913
S113084069837A838B839C8389E0E82E80E2F82E87
S1130850212C312CE986FA86EB86FC860F811885DB
S1130860B101882777FD8095982F0E94E80920E040
S113087030E040E05FE30E94B9089B01AC01BD8118
S1130880AE816B2F7A2F802F912F0E94B8089F770B
S113089026E636E646EA5FE30E942D0B9B01AC0197
S11308A060E070E0CB010E94B8080E948E096B01E1
S11308B07C01A30192010E942D0B0E94BA09EB85D1
S11308C0FC8560837183A5019401C701B6010E9470
S11308D02D0B0E94BA09EB85FC8562837383298101
S11308E03A814B815C81C701B6010E942D0B0E94A5
S11308F0BA09EB85FC8564837583FFEF2F1A3F0AE1
S11309008B859C8506968B879C8798E129163104F4
S113091009F0A6CFA985BA85CCC02E7F20936406A2
S113092020916406226020936406209164062D7F42
S1130930209364062091640692FDEFC02E7F2093DD
S11309406406209164062260209364062091640664
S11309502D7F209364062091640691FDDAC02E7FDA
S113096020936406209164062260209364062091FB
S113097064062D7F209364062091640690FDC5C013
S11309802E7F2093640620916406226020936406DF
S1130990209164062D7F209364062091640687FDD0
S11309A0B0C02E7F209364062091640622602093B9
S11309B06406209164062D7F2093640620916406CA
S11309C086FD9BC02E7F20936406209164062260DE
S11309D020936406209164062D7F20936406209161
S11309E0640685FD86C02E7F2093640620916406EC
S11309F0226020936406209164062D7F2093640670
S1130A002091640684FD71C02E7F2093640620919A
S1130A106406226020936406209164062D7F20934F
S1130A2064062091640683FD5CC02E7F20936406D7
S1130A3020916406226020936406209164062D7F31
S1130A40209364062091640682FD47C02E7F209384
S1130A506406209164062260209364062091640653
S1130A602D7F209364062091640681FD32C02E7F81
S1130A70209364069091640692609093640690912A
S1130A8064069D7F9093640680FD1DC0809164067A
S1130A908E7F8093640680916406826080936406EE
S1130AA0809164068D7F80936406E0E2A939BE07D5
S1130AB0C1F18D919D912091640693FF2ECF216009
S1130AC0209364062DCF8091640681608093640630
S1130AD0E2CF216020936406CDCF21602093640689
S1130AE0B8CF216020936406A3CF216020936406CD
S1130AF08ECF21602093640679CF21602093640611
S1130B0064CF2160209364064FCF21602093640654
S1130B103ACF21602093640625CF21602093640698
S1130B2010CF809164068860809364068091640687
S1130B30877F809364062C96CDBFDEBFDF91CF9173
S1130B401F910F91FF90EF90DF90CF90BF90AF90E7
S1130B509F908F907F906F905F904F903F902F90D9
S1130B600895E9E0F0E2DF018D939C9311971296CA
S1130B706D937C93139714964D935C9315971696E7
S1130B8020E2A939B20781F78191919120916406FD
S1130B9093FDD2C02E7F20936406209164062260C8
S1130BA020936406209164062D7F2093640620918F
S1130BB0640692FDEFC02E7F2093640620916406A4
S1130BC0226020936406209164062D7F209364069E
S1130BD02091640691FDDAC02E7F20936406209153
S1130BE06406226020936406209164062D7F20937E
S1130BF064062091640690FDC5C02E7F2093640690
S1130C0020916406226020936406209164062D7F5F
S1130C10209364062091640687FDB0C02E7F209344
S1130C206406209164062260209364062091640681
S1130C302D7F209364062091640686FD9BC02E7F41
S1130C402093640620916406226020936406209118
S1130C5064062D7F209364062091640685FD86C07A
S1130C602E7F2093640620916406226020936406FC
S1130C70209164062D7F209364062091640684FDF0
S1130C8071C02E7F20936406209164062260209315
S1130C906406209164062D7F2093640620916406E7
S1130CA083FD5CC02E7F209364062091640622603D
S1130CB020936406209164062D7F2093640620917E
S1130CC0640682FD47C02E7F20936406209164064B
S1130CD0226020936406209164062D7F209364068D
S1130CE02091640681FD32C02E7F2093640690918A
S1130CF06406926090936406909164069D7F90933D
S1130D00640680FD1DC0809164068E7F8093640616
S1130D1080916406826080936406809164068D7F6E
S1130D208093640680E2E939F807C1F181919191D9
S1130D302091640693FF2ECF2160209364062DCF6B
S1130D4080916406816080936406E2CF21602093E1
S1130D506406CDCF216020936406B8CF2160209330
S1130D606406A3CF2160209364068ECF2160209374
S1130D70640679CF21602093640664CF21602093B8
S1130D8064064FCF2160209364063ACF21602093FC
S1130D90640625CF21602093640610CF80916406F9
S1130DA088608093640680916406877F80936406DC
S1130DB00895CF93DF9300D0CDB7DEB788ED84BF1D
S1130DC082E0809350008091510081FFFCCF88ED38
S1130DD084BF81E08093400088E18093700084E7C1
S1130DE0809373008CE78093740080E68093750091
S1130DF088E7809376008FEF809360068093B0003D
S1130E00109270061092690610926A061092640697
S1130E1080934006109250061092490610924A069A
S1130E201092440680914406816080934406809128
S1130E3050068E7F8093500684E08093A2008093B6
S1130E40000889EB90E0809326089093270810927D
S1130E502008109221081092090883E08093060864
S1130E600E9495018FE19EE40197F1F700C0000014
S1130E70809144068D7F8093440610920420109242
S1130E80052019821A8210920020109201201092DB
S1130E90022010920320E12CF12C00E010E0902FAE
S1130EA0812F0E2D1F2D292F382F40E050E060E0B8
S1130EB070E08FEF9FE00E94CD036091002070915D
S1130EC00120809102209091032020E030E040E056
S1130ED05FE30E94B9087B018C01982F4E2D5F2D92
S1130EE0692F712F409300205093012060930220BA
S1130EF07093032020E030E044EB53E46E2D7F2D0B
S1130F00802F912F0E941D0987FDC9CF10920020C8
S1130F10109201201092022010920320E12CF12C57
S1130F2000E010E0902F812F0E2D1F2D292F382F38
S1130F3040E050E06FEF7FE080E090E00E94CD035E
S1130F4060910020709101208091022090910320F3
S1130F5020E030E040E05FE30E94B9087B018C01AF
S1130F60982F4E2D5F2D692F712F409300205093A1
S1130F700120609302207093032020E030E044EBD2
S1130F8053E46E2D7F2D802F912F0E941D0987FD24
S1130F90C9CF1092002010920120109202201092CA
S1130FA00320E12CF12C00E010E0902F812F0E2D76
S1130FB01F2D292F382F4FEF5FE060E070E080E0B5
S1130FC090E00E94CD0360910020709101208091F7
S1130FD002209091032020E030E040E05FE30E9493
S1130FE0B9087B018C01982F4E2D5F2D692F712F2D
S1130FF040930020509301206093022070930320BB
S113100020E030E044EB53E46E2D7F2D802F912FB0
S11310100E941D0987FDC9CF109200201092012063
S11310201092022010920320E12CF12C00E010E039
S1131030902F812F0E2D1F2D292F382F4FEF5FE07A
S11310406FEF7FE08FEF9FE00E94CD03609100205F
S113105070910120809102209091032020E030E0E3
S113106040E05FE30E94B9087B018C01982F4E2D6C
S11310705F2D692F712F40930020509301206093BE
S113108002207093032020E030E044EB53E46E2D03
S11310907F2D802F912F0E941D0987FDC9CF40E02D
S11310A050E060E070E08FEF9FE00E94B1059FEF99
S11310B021E18AE7915020408040E1F700C0000020
S11310C09FEF21E18AE7915020408040E1F700C082
S11310D0000040E050E06FEF7FE080E090E00E948D
S11310E0B1059FEF21E18AE7915020408040E1F76C
S11310F000C000009FEF21E18AE79150204080402A
S1131100E1F700C000004FEF5FE060E070E080E0D6
S113111090E00E94B1059FEF21E18AE791502040C1
S11311208040E1F700C000009FEF21E18AE7915081
S113113020408040E1F700C000004FEF5FE06FEF18
S11311407FE08FEF9FE00E94B1059FEF21E18AE7E6
S1131150915020408040E1F700C000009FEF21E162
S11311608AE7915020408040E1F700C000008BCE18
S11311705058BB27AA270ED0C6C1B7D130F0BCD176
S113118020F031F49F3F11F41EF487C10EF4E09572
S1131190E7FB7DC1E92FC8D180F3BA176207730753
S11311A08407950718F071F49EF5E0C10EF4E095FC
S11311B00B2EBA2FA02D0B01B90190010C01CA010D
S11311C0A0011124FF27591B99F0593F50F4503EB8
S11311D068F11A16F040A22F232F342F4427585FAA
S11311E0F3CF469537952795A795F0405395C9F7C2
S11311F07EF41F16BA0B620B730B840BBAF091507A
S1131200A1F0FF0FBB1F661F771F881FC2F70EC018
S1131210BA0F621F731F841F48F4879577956795EB
S1131220B795F7959E3F08F0B3CF9395880F08F0D4
S11312309927EE0F97958795089505D108F481E0D5
S113124008950CD060C158D140F04FD130F021F452
S11312505F3F19F01CC151118AC11FC165D198F3B8
S11312609923C9F35523B1F3951B550BBB27AA2723
S113127062177307840738F09F5F5F4F220F331F95
S1131280441FAA1FA9F333D00E2E3AF0E0E830D061
S113129091505040E695001CCAF729D0FE2F27D064
S11312A0660F771F881FBB1F261737074807AB0732
S11312B0B0E809F0BB0B802DBF01FF2793585F4FA7
S11312C02AF09E3F510568F0E2C051C15F3FECF344
S11312D0983EDCF3869577956795B795F7959F5F6C
S11312E0C9F7880F911D9695879597F90895E1E0C0
S11312F0660F771F881FBB1F621773078407BA071F
S113130020F0621B730B840BBA0BEE1F88F7E09579
S1131310089519F40EF0BBC029C1BFC00DD1C8F3A4
S11313209638C0F707F80F92E8942BE33AEA48EBB3
S11313305FE7A1D10F920F920F924DB75EB70F9254
S113134059D1ECEFF1E0ACD04F915F91EF91FF9167
S1131350E595EE1FFF1F49F0FE57E0684427EE0FA6
S1131360441FFA95E1F74195550B10D10F9007FEF4
S113137004C10895E1D088F09F5790F0B92F9927C0
S1131380B751A0F0D1F0660F771F881F991F1AF08C
S1131390BA95C9F712C0B13081F0E8D0B1E0089530
S11313A0E5C0672F782F8827B85F39F0B93FCCF3B1
S11313B0869577956795B395D9F73EF49095809582
S11313C0709561957F4F8F4F9F4F0895E89409C0A2
S11313D097FB3EF490958095709561957F4F8F4F64
S11313E09F4F9923A9F0F92F96E9BB279395F6957A
S11313F0879577956795B795F111F8CFFAF4BB0FF8
S113140011F460FF1BC06F5F7F4F8F4F9F4F16C05B
S1131410882311F096E911C0772321F09EE8872FE5
S1131420762F05C0662371F096E8862F70E060E0A1
S11314302AF09A95660F771F881FDAF7880F96951A
S1131440879597F90895990F0008550FAA0BE0E8BE
S1131450FEEF16161706E807F907C0F01216130672
S1131460E407F50798F0621B730B840B950B39F4B2
S11314700A2661F0232B242B252B21F408950A2618
S113148009F4A140A6958FEF811D811D089597F958
S11314909F6780E870E060E008959FEF80EC089516
S11314A0DF93CF931F930F93FF92EF92DF927B0111
S11314B08C01689405C0DA2EEF01DBD0FE01E894BC
S11314C0A5912591359145915591AEF3EF0162DED9
S11314D0FE019701A801DA9479F7DF90EF90FF906D
S11314E00F911F91CF91DF91089500240A9416164D
S11314F0170618060906089500240A9412161306FE
S1131500140605060895092E0394000C11F488238B
S113151052F0BB0F40F4BF2B11F460FF04C06F5FA7
S11315207F4F8F4F9F4F089557FD9058440F551F7D
S113153059F05F3F71F04795880F97FB991F61F051
S11315409F3F79F087950895121613061406551FC8
S1131550F2CF4695F1DF08C0161617061806991F34
S1131560F1CF86957105610508940895E894BB2729
S113157066277727CB0197F908959B01AC0160E0BA
S113158070E080E89FE35DCE82CFD0C0D5DFE8F382
S11315909923D9F3940F511DBBF39150504094F00B
S11315A059F0882332F0660F771F881F91505040FE
S11315B0C1F79E3F510544F7880F911D9695879575
S11315C097F908955F3FACF0983E9CF0BB27869551
S11315D077956795B79508F4B1609395C1F7BB0FFC
S11315E058F711F460FFE8CF6F5F7F4F8F4F9F4F25
S11315F0E3CFBDCFFA01DC01AA0FBB1F9B01AC01F5
S1131600BF5728F422273327442750781FC0B751E7
S113161088F4AB2F0024469537952795011CA39594
S1131620D2F3002069F0220F331F441FB395DAF37D
S11316300DD09ECD61307105A0E88A07B94630F41B
S11316409B01AC016627772788279078309621F094
S1131650208331834283538308950BD054CF45DFD5
S113166028F04ADF18F0952309F011CF16CF112482
S11316707ECF5ADFA0F3959FD1F3950F50E0551F0D
S1131680629FF001729FBB27F00DB11D639FAA27D3
S1131690F00DB11DAA1F649F6627B00DA11D661F22
S11316A0829F2227B00DA11D621F739FB00DA11D43
S11316B0621F839FA00D611D221F749F3327A00DFD
S11316C0611D231F849F600D211D822F762F6A2F99
S11316D011249F5750408AF0E1F088234AF0EE0F1E
S11316E0FF1FBB1F661F771F881F91505040A9F72B
S11316F09E3F510570F0CBCE3ACF5F3FECF3983E5E
S1131700DCF3869577956795B795F795E7959F5F91
S1131710C1F7FE2B880F911D9695879597F908952B
S11317209F9313D00F9007FCEE5F36C09F3F31F0BC
S1131730915020F4879577956795B795880F911DFB
S11317409695879597F90895A8CEF6DEE8F3E89480
S1131750E0E0BB279F57F0F02AED3FE049EC06C0DC
S1131760EE0FBB0F661F771F881F28F0B23A62077F
S11317707307840728F0B25A620B730B840BE3954A
S11317809A9572F7803830F49A95BB0F661F771FCD
S1131790881FD2F79048CCCFEF93E0FF06C0A2EAAF
S11317A02AED3FE049EC5FEBF5DCADDE0F900394EE
S11317B001FC9058E4E2F2E000C09F938F937F9382
S11317C06F93FF93EF939B01AC0147DFEF91FF9180
S11317D067DE2F913F914F915F913FCF97FB072E8B
S11317E016F4009407D077FD09D00E94020C07FC80
S11317F005D03EF4909581959F4F0895709561951D
S11318007F4F0895AA1BBB1B51E107C0AA1FBB1F32
S1131810A617B70710F0A61BB70B881F991F5A9578
S1131820A9F780959095BC01CD010895F894FFCF58
S9030000FC
