:100000003AC03FC03EC03DC03CC03BC03AC039C012
:1000100038C037C036C035C034C033C032C031C03C
:1000200030C02FC02EC02DC02CC0100810041002EC
:10003000100110000804080208010800040204016D
:10004000040002010200010018141211100C0A0928
:100050000806050403020100000000000000000281
:100060000300000000000002030000000002030083
:1000700000020302030011241FBECFEDCDBF1BD130
:1000800084C1BECF90E008C09198880FC999816063
:10009000909A9F5F983029F0909887FFF5CF919ABA
:1000A000F4CF9098919A089581B3836081BBD09AE0
:1000B000D1989098919AD89A08951F93162FD8980E
:1000C000880F8068DFDF812FDDDFD89A1F910895C8
:1000D000D898880FD7DF80E0D5DFD89A0895FF92AF
:1000E0000F931F93F82ED898880FCCDF80E0CADFDB
:1000F000082F10E00024169507950794169507958C
:100100000794102F002DF3948F2D880FBBDF80E014
:10011000B9DFD89A382F3295330F330F307C20E077
:10012000202B312B022E232F000C221F330B000C0F
:10013000221F331FC9011F910F91FF900895CF9285
:10014000DF92EF92FF920F931F937B0100271127FD
:10015000081B190B000F111FF094E194F108F394A0
:10016000EE0CFF1C30E4C32ED12CC41AD50ACC0CE3
:10017000DD1C80E1602FA1DF81E1612F9EDF82E144
:100180006E2D9BDF83E16F2D98DF84E16C2D95DF71
:1001900085E16D2D92DF1F910F91FF90EF90DF9021
:1001A000CF90089589E094DF80FFFCCF08952F92CF
:1001B0003F924F925F926F927F928F929F92AF92F7
:1001C000BF92DF92EF92FF920F931F93CF93DF9333
:1001D0003B012A011901882E9924E1E0AE2EB12CB1
:1001E000082E02C0AA0CBB1C0A94E2F71A141B04C6
:1001F0000CF05AC0C0E0D0E000E010E0EE24FF2494
:10020000DD24D0DF80E06BDFC80FD91F82E067DF1D
:10021000080F191F84E063DFE80EF91ED3948D2DBB
:1002200090E08A159B056CF308948108910881E0A1
:1002300090E0082C02C0880F991F0A94E2F70894F6
:10024000811C911CC80FD91F082C02C0D595C795D9
:100250000A94E2F7F301D183C083080F191F082C19
:1002600002C0159507950A94E2F7F2011183008305
:10027000E80EF91E02C0F594E7948A94E2F7F101C2
:10028000F182E082DF91CF911F910F91FF90EF906B
:10029000DF90BF90AF909F908F907F906F905F9016
:1002A0004F903F902F900895C0E0D0E000E010E024
:1002B000EE24FF24B9CFCF93DF938FEF81BB10BA29
:1002C00080E182BB17BAF0DE81E792E00197F1F797
:1002D0008DE0FEDE682F60688DE0EFDE88E1F8DEFD
:1002E000682F606888E1E9DE86E165E0E6DE80E0AF
:1002F00090E060E070E040E050E021DFC2E3D0E059
:1003000051DF86E0E5DE982F945C97FD3CC0959523
:100310009595892F992787FD909597FD30C0282FB7
:100320008E3154F02DE108C08E989698CE01019739
:10033000F1F7222329F32150822F90E0FC01E65DA2
:10034000FF4FE491E8BBE22FE695F0E0E85BFF4F5A
:10035000E491E7BB895A9F4FFC018491813061F0A1
:10036000813010F3823029F0833001F78E9A969A0B
:10037000DDCF8E9A9698DACF8E98969AD7CF9095B1
:0E03800081959F4FCCCF9D5FC2CFF894FFCFE9
:00000001FF
