:1000000038C045C044C043C074C041C040C03FC0B8
:100010003EC03DC03CC03BC03AC039C038C037C00C
:1000200036C035C034C01008100410021001100092
:100030000804080208010800040204010400020187
:100040000200010018141211100C0A090806050418
:100050000302010000000000000000020300000095
:10006000000000020300000000020300000203027F
:10007000030011241FBECFEDCDBF10E0A0E6B0E01D
:1000800001C01D92A236B107E1F753D037C2B8CFF5
:10009000282F11BA12BA6EE125D290E062EE7FEFFE
:1000A0000FD2280F822F90E0FC01EA5DFF4FE49110
:1000B000E8BB2695E22FF0E0EC5BFF4F249127BBD5
:1000C0008D5A9F4FFC018491813069F0813028F076
:1000D000823061F0833021F008958E9896980895CB
:1000E0008E9A969A08958E98969A08958E9A9698D2
:1000F00008951F920F920FB60F9211240F900FBE0A
:100100000F901F90189523E09695879577956795A2
:100110002A95D1F7611571058105910549F033E004
:10012000232F2A95F1F76150704080409040C1F72D
:1001300008954F925F927F928F929F92AF92BF925B
:10014000CF92DF92EF92FF920F931F93CF93DF93A3
:1001500089E08EBD88EE93E09BBD8ABD89B780643F
:1001600089BF8FEF81BB10BA80E182BB17BA789448
:100170004DE1742E3EE1432E512C109261001092FD
:10018000600010E0072D011BC0E0D0E0802F80DF71
:10019000812F7EDF2196C436D105C1F71E5F1E3147
:1001A00089F78091600090916100019690936100C1
:1001B00080936000059728F3109261001092600010
:1001C00000E01CE2F02EF39422E0E22EE00E93E039
:1001D000892E800E84E0D82ED00EA12EA394B2E0FA
:1001E0009B2E910EA3E0CA2EC10EF4E0BF2EB10EDD
:1001F000C0E0D0E0802F4CDF8F2D4ADF6AE070E056
:1002000080E090E080DF8E2D43DF69E170E080E0E8
:1002100090E079DF882D3CDF6AE070E080E090E0DC
:1002200072DF8D2D35DF812F33DF8A2D31DF6AE0DC
:1002300070E080E090E067DF892D2ADF69E170E0FF
:1002400080E090E060DF8C2D23DF6AE070E080E0EA
:1002500090E059DF8B2D1CDF2196CA30D10551F675
:100260002EE1F21679F08091600090916100019684
:1002700090936100809360001150883C910520F4B8
:100280000F2DA0CFFF24EFCF1092610010926000DD
:1002900010E0012F0F5FE2E0CE2EC10E73E0E72EDB
:1002A000E10E64E0F62EF10E55E0D52ED10EC0E041
:1002B000D0E0812FEDDE802FEBDE64E170E080E0A6
:1002C00090E021DF8C2DE4DE64E670E080E090E0D9
:1002D0001ADF8E2DDDDE64E170E080E090E013DF58
:1002E0008F2DD6DE6AE070E080E090E00CDF8D2D8F
:1002F000CFDE2196C431D105E1F60E3171F0809147
:10030000600090916100019690936100809360007D
:10031000883C910520F4102FBCCF00E0F0CF109264
:10032000610010926000CEE1D0E0CC24DD24219762
:1003300011F4CDE1D0E0EE24FF240C2D10E0802F4D
:10034000A7DE1F5F0F5F812F90E08C179D07B8F32A
:10035000B201681B790B882777FD8095982FD3DE33
:10036000E0FE03C00894C11CD11C0894E11CF11CE0
:1003700084E1E816F10409F7809160009091610032
:1003800001969093610080936000883C910578F21B
:10039000109261001092600010E0812F79DE60E51C
:1003A00070E080E090E0AFDE1F5F1E31B1F780911A
:1003B00060009091610001969093610080936000CD
:1003C0008059914048F31092610010926000DD2442
:1003D00044E8E42E43E0F42E012D112D8D2D58DE3E
:1003E000C801B70190DE60E570E080E090E08BDE50
:1003F000D39484E893E0A0E0B0E0E80EF91E0A1F71
:100400001B1F9EE1D91651F7809160009091610009
:10041000019690936100809360000597C0F210925E
:10042000610010926000DD2434E8E32E33E0F32E07
:10043000012D112D8D2D2CDEC801B70164DE60E584
:1004400070E080E090E05FDED39484E893E0A0E089
:10045000B0E0E80EF91E0A1F1B1F9EE1D91651F7E6
:10046000809160009091610001969093610080936B
:1004700060000597C0F21092610010926000C0E029
:10048000D0E08C2F05DE6091600070916100CE019C
:1004900017D0A0E0B0E0BC01CD0135DE2196CE3111
:1004A000D10579F780916000909161000196909359
:1004B000610080936000883C910508F05ECEDFCF3C
:1004C0005527002480FF02C0060E571F660F771FB6
:1004D0006115710521F096958795009799F7952FED
:1004E000802D0895991B79E004C0991F961708F094
:1004F000961B881F7A95C9F780950895F894FFCFC9
:00000001FF
