:1000000030C048C047C046C0FEC144C043C042C023
:1000100041C040C03FC03EC03DC03CC03BC03AC0F4
:1000200039C038C037C00FF10FF40FCD0FDC0F3DD2
:100030000F7C0CFD0DFC03FD07FC0FC70FD30F3722
:100040000F730CF70DF303F707F30F1F0F4F0CDFC0
:100050000DCF03DF07CF0C7F0D3F037F073F01FF6D
:1000600004FF11241FBECFEDCDBF10E0A0E6B0E02D
:10007000EEECF6E002C005900D92A636B107D9F776
:1000800010E0A6E6B0E001C01D92A836B107E1F786
:10009000DBD01BC3B5CF0F931F93CF93DF9348B330
:1000A00027B390E0DC01AA0FBB1FA80FB91FAA0F4E
:1000B000BB1FA60FB11DAA0FBB1FCD018A5D9F4FAD
:1000C000FC015491A95DBF4FFD013491652F53FF91
:1000D00002C052FDA1C08E9A852F869590E08C01BA
:1000E0000170107080FF02C060FD88C0922F916087
:1000F00037FD88C0292F2260832F829586958770CF
:1001000090E0EC01C170D07080FF05C0832F829514
:100110008F7080FD71C02460832F869586958695AB
:1001200090E0DC01A170B07080FF05C0832F869540
:10013000869580FD50C02860832F869590E0FC0155
:10014000E170F07080FF02C030FD42C0922F9061DC
:10015000852F86958695869580FF31C022E0012BFC
:1001600019F460FF33C0416037FD08C0832F8295CA
:1001700086958695837080FF27C04260CD2B31F431
:10018000832F82958F7080FF35C04460AB2B31F494
:10019000832F8695869580FF2BC04860EF2B19F43E
:1001A00030FF1BC0406148BB97BB2130D9F02223F0
:1001B00009F49698DF91CF911F910F910895252F03
:1001C000269526952170CBCF4D7FD8CF4E7FCCCFB3
:1001D000922F9F7EBDCF277FAFCF4F7E48BB97BB6F
:1001E000213029F7969ADF91CF911F910F910895B1
:1001F000477FD4CF4B7FCACF2B7F8ECF922F9E7F4E
:1002000037FF78CF832F829586958695837080FF00
:1002100071CF292F2D7F70CF8E985ECF43E09695BA
:100220008795779567954A95D1F761157105810591
:10023000910549F032E0232F2A95F1F76150704083
:1002400080409040C1F708957F928F929F92AF9225
:10025000BF92CF92DF92EF92FF920F931F93CF93B3
:10026000DF9389E08EBD88EE93E09BBD8ABD89B7A0
:10027000806489BF8FEF81BB10BA80E182BB17BA5F
:1002800065E0862E56E0752E10926700109266008B
:1002900010E0EE24FF24E70100E0812F602FFBDE59
:1002A000BE0180E090E0BADF0F5FC454DD4F06303E
:1002B000A1F71F5F88E690E1E80EF91E153059F7A7
:1002C00080916600909167000196909367008093FB
:1002D00066000A97E8F2109267001092660015E037
:1002E000EE24FF24E70106E0812F602FD4DEBE015B
:1002F00080E090E093DF0150C454DD4F0023A1F76C
:10030000115088E690E1E80EF91E112359F780910B
:100310006600909167000196909367008093660055
:100320000A97E8F2109267001092660010E000E071
:10033000812F602FB0DE0F5F0630D1F71F5F1530C1
:10034000B1F78091660090916700019690936700E5
:10035000809366008157924048F310926700109294
:10036000660017D18C0115D19C01C80165E070E0D1
:100370009FD0482FC90166E070E09AD0682F842F83
:100380008ADE8091660090916700019690936700E5
:10039000809366008157924020F31092670010927C
:1003A0006600CC24AA24BB24982C9C18E501DD24EB
:1003B0008C2D6D2D70DE7E0100E010E0C801B701CC
:1003C0002DDF672D6D19892D66DEC801B70126DF87
:1003D000D394C25ADE4F86E0D81651F7C39484E313
:1003E00098E0A80EB91E95E0C916F1F68091660056
:1003F00090916700019690936700809366000A973A
:1004000008F042CFCECF1F920F920FB60F92112459
:100410002F933F934F935F936F937F938F939F930C
:10042000AF93BF93EF93FF9380916000282F332702
:1004300027FD30958091660090916700280F391F45
:10044000309367002093660087E22131380740F53A
:1004500024313105E8F09DD064E670E029D0209188
:10046000660030916700280F391F3BBD2ABDFF9100
:10047000EF91BF91AF919F918F917F916F915F911C
:100480004F913F912F910F900FBE0F901F90189595
:1004900080D069E070E00CD08F5F80936000DBCF8C
:1004A00078D069E070E004D0809580936000D3CF6D
:1004B00097FB092E07260AD077FD04D00CD006D072
:1004C00000201AF4709561957F4F0895F6F7909586
:1004D00081959F4F0895AA1BBB1B51E107C0AA1F1E
:1004E000BB1FA617B70710F0A61BB70B881F991FD5
:1004F0005A95A9F780959095BC01CD010895A0E08B
:10050000B0E0E4E8F2E090C0EC01A880B980CA80D5
:10051000DB80A114B104C104D10441F484E2A82E0B
:1005200089EDB82E8BE5C82E87E0D82EC601B5011F
:100530002DE133EF41E050E054D027EA31E440E0D0
:1005400050E036D07B018C01C601B5012DE133EFBF
:1005500041E050E046D0CA01B9012CEE34EF4FEF34
:100560005FEF26D06E0D7F1D801F911F97FF04C087
:100570006150704080409048688379838A839B8370
:100580009B013F77C901CDB7DEB7EAE069C0B7DFAD
:10059000089581E690E0B3DF0895A0E0B0E0809395
:1005A000610090936200A0936300B093640008958B
:1005B000FF27EE27BB27AA2760FF04C0A20FB31FA7
:1005C000E41FF51F220F331F441F551F9695879573
:1005D0007795679589F70097760771F7CF01BD0189
:1005E000089597FB092E05260ED057FD04D04BD059
:1005F0000AD0001C38F450954095309521953F4F16
:100600004F4F5F4F0895F6F79095809570956195DF
:100610007F4F8F4F9F4F08952F923F924F925F923F
:100620006F927F928F929F92AF92BF92CF92DF9202
:10063000EF92FF920F931F93CF93DF93CDB7DEB767
:10064000CA1BDB0B0FB6F894DEBF0FBECDBF0994FB
:100650002A88398848885F846E847D848C849B8452
:10066000AA84B984C884DF80EE80FD800C811B8160
:10067000AA81B981CE0FD11D0FB6F894DEBF0FBE8F
:10068000CDBFED010895A1E21A2EAA1BBB1BFD01EF
:100690000DC0AA1FBB1FEE1FFF1FA217B307E40761
:1006A000F50720F0A21BB30BE40BF50B661F771FB9
:1006B000881F991F1A9469F7609570958095909599
:1006C0009B01AC01BD01CF010895F894FFCF01015A
:1006D00000000000FFFFFFFFFFFFFFFFFFFFFFFF26
:1006E000FFFFFFFFFFFFFFFFFFFFFFFFFFFFFFFF1A
:1006F000FFFFFFFFFFFFFFFFFFFFFFFFFFFFFFFF0A
:10070000FFFFFFFFFFFFFFFFFFFFFFFFFFFFFFFFF9
:10071000FFFFFFFFFFFFFFFFFFFFFFFFFFFFFFFFE9
:10072000FFFFFFFFFFFFFFFFFFFFFFFFFFFFFFFFD9
:10073000FFFFFFFFFFFFFFFFFFFFFFFFFFFFFFFFC9
:10074000FFFFFFFFFFFFFFFFFFFFFFFFFFFFFFFFB9
:10075000FFFFFFFFFFFFFFFFFFFFFFFFFFFFFFFFA9
:10076000FFFFFFFFFFFFFFFFFFFFFFFFFFFFFFFF99
:10077000FFFFFFFFFFFFFFFFFFFFFFFFFFFFFFFF89
:10078000FFFFFFFFFFFFFFFFFFFFFFFFFFFFFFFF79
:10079000FFFFFFFFFFFFFFFFFFFFFFFFFFFFFFFF69
:1007A000FFFFFFFFFFFFFFFFFFFFFFFFFFFFFFFF59
:1007B000FFFFFFFFFFFFFFFFFFFFFFFFFFFFFFFF49
:1007C000FFFFFFFFFFFFFFFFFFFFFFFFFFFFFFFF39
:1007D000FFFFFFFFFFFFFFFFFFFFFFFFFFFFFFFF29
:1007E000FFFFFFFFFFFFFFFFFFFFFFFFFFFFFFFF19
:1007F000FFFFFFFFFFFFFFFFFFFFFFFFFFFFFFFF09
:00000001FF
